:1000000071C000008EC000008CC000008AC00000DB
:1000100088C0000086C0000084C0000082C00000CC
:1000200080C000007EC000007CC000007AC00000DC
:1000300078C0000076C0000074C0000072C00000EC
:1000400070C000006EC000006CC000006AC00000FC
:1000500068C0000066C0000064C0000062C000000C
:1000600060C000005EC000005CC000005AC000001C
:1000700058C0000056C0000054C0000052C000002C
:100080005AC200004EC000004CC000004AC0000030
:1000900048C0000046C0000044C0000042C000004C
:1000A00040C000003EC000003CC000003AC000005C
:1000B00038C0000036C0000034C0000032C000006C
:1000C00030C000002EC000002CC000002AC000007C
:1000D00028C0000026C0000024C0000022C000008C
:1000E00020C0000011241FBECFEFD1E2DEBFCDBF84
:1000F00000E00CBF12E0A0E0B2E0E2E7FEE000E0CA
:100100000BBF02C007900D92A433B107D9F722E0CC
:10011000A4E3B2E001C01D92A534B207E1F775D1A6
:10012000A6C66ECF69D140E060EE8FE03FC1089572
:100130008CE229D1837021F48CE225D18370E1F324
:100140000895FF920F931F93CF93DF931F92CDB724
:10015000DEB78C01EDDF8CE216D1898381E613D105
:1001600090E0F8019183808385E60DD1F8018283C8
:10017000882369F0F12C86E68F0D05D1F801EF0D8B
:10018000F11D8383F394F8018281F816A0F340E017
:1001900061E08CE20BD10F90DF91CF911F910F9115
:1001A000FF900895EF92FF920F931F93CF93DF93E9
:1001B000CDB7DEB72B970FB6F894DEBF0FBECDBF1D
:1001C000E982FA820B831C832D833E834F835887F9
:1001D00069877A878B8789819A818530910518F4A0
:1001E000019720F02FC00597D1F025C0E980FA8053
:1001F0000B811C812D813E814F81588569857A85CF
:100200008B8594D0E980FA800B811C812D813E8101
:100210004F81588569857A858B8558D013C0CE016A
:1002200001961DD060933702709338028093390293
:1002300090933A0207C086E092E09F938F932AD270
:100240000F900F902B960FB6F894DEBF0FBECDBF68
:10025000DF91CF911F910F91FF90EF900895FC01D6
:1002600024813381632F70E0822F90E00895FF9204
:100270000F931F93CF93DF938B019C01E091370283
:10028000F09138026091390270913A02A901461B3F
:10029000570B0F2EF4E6FF2EF02DF49EC001F59EB5
:1002A000900D112486D1EB010E1B1F0BF09EC00197
:1002B000F19E900D1124BF017CD19B01B901CE01AB
:1002C000DF91CF911F910F91FF900895EF92FF92D0
:1002D0000F931F93CF93DF93CDB7DEB72B970FB656
:1002E000F894DEBF0FBECDBF832F622F70E090E089
:1002F000BEDF9F938F937F936F931F921F9381E134
:1003000092E09F938F93C6D10FB6F894DEBF0FBED5
:10031000CDBF2B960FB6F894DEBF0FBECDBFDF91D9
:10032000CF911F910F91FF90EF900895EF92FF9260
:100330000F931F93CF93DF93CDB7DEB72B970FB6F5
:10034000F894DEBF0FBECDBF832F90E0622F70E028
:100350008EDF9B01220F331F620F731FCB01880FAB
:10036000991F880F991F8854944FA6D02B960FB6CB
:10037000F894DEBF0FBECDBFDF91CF911F910F91DB
:10038000FF90EF900895CF93C82F80E090E0B4D015
:1003900083E090E09CD08C2F90E099D09DD0C82F26
:1003A00081E090E0A9D08C2FCF9108951F93CF9337
:1003B000DF93182FD62FC42F80E090E09DD085E0EA
:1003C00090E085D0812F90E082D08D2F90E07FD07B
:1003D0008C2F90E07CD081E090E08ED0DF91CF91A7
:1003E0001F91089580E090E087D080EC90E06FD07E
:1003F00081E090E081C0089575D0F4DF87EA91E64E
:100400000197F1F700C000000895CF93DF93CDB7B7
:10041000DEB72B970FB6F894DEBF0FBECDBF539A51
:100420005B98B6D07FDE21D084E392E06BD05B98FE
:10043000809134028823D9F3CE01019682DEE980CF
:10044000FA800B811C812D813E814F815885698501
:100450007A858B85A7DE109234025B9A81EE94E058
:100460000197F1F700C00000E2CF259AA1E8B0E0C3
:100470008C9180618C938C9188608C93E0E8F0E0A3
:1004800080818260808380818E7F808380818F7B6A
:1004900080838081806880838C9182608C9380E4EB
:1004A0009CE9909387008093860088EB9BE0909373
:1004B00089008093880008959C01295037402F358A
:1004C000394020F4909389008093880008958EBD70
:1004D0000DB407FEFDCF08951EBC0DB407FEFDCF81
:1004E0008EB50895229A219A279A2B9A2398209ABA
:1004F0008CB580658CBD0895811102C02F98089538
:100500002F9A0895E1E9F0E020812860208320817E
:10051000226020832FE33CE93093990020939800D8
:100520009093360280933502E1E7F0E080818260AB
:100530008083789408951F920F920FB60F92112422
:100540000BB60F928F93EF93FF93E0913502F091EA
:100550003602309711F081E08083C198FF91EF91CE
:100560008F910F900BBE0F900FBE0F901F9018959C
:10057000E0ECF0E080818823ECF78091C6000895DC
:10058000E0ECF0E0908195FFFDCF8093C6000895E8
:1005900087E68093C4001092C50088E18093C10073
:1005A00086E08093C20068EB72E080EC92E028C0A5
:1005B000089597FB072E16F4009406D077FD08D017
:1005C0000BD007FC05D03EF4909581959F4F089580
:1005D000709561957F4F0895AA1BBB1B51E107C021
:1005E000AA1FBB1FA617B70710F0A61BB70B881FC3
:1005F000991F5A95A9F780959095BC01CD01089552
:100600000F931F93CF93DF93EC018B01009731F48D
:100610006115710519F480E090E037C06EE070E07C
:1006200081E090E036D2FC010097A9F380E8838353
:100630000115110571F01387028781E8838380918A
:100640003B0290913C02892B21F4F0933C02E09311
:100650003B022097C9F0D187C08783818260838362
:1006600080913D0290913E02892B71F4F0933E02FD
:10067000E0933D0280913F0290914002892B21F44A
:10068000F0934002E0933F02CF01DF91CF911F91A1
:100690000F910895CF93DF93CDB7DEB7FE01369665
:1006A00061917191AF0180913D0290913E0203D022
:1006B000DF91CF9108952F923F924F925F926F9268
:1006C0007F928F929F92AF92BF92CF92DF92EF92E2
:1006D000FF920F931F93CF93DF93CDB7DEB72C9785
:1006E0000FB6F894DEBF0FBECDBF7C016B018A014F
:1006F000FC0117821682838181FFB0C1CE01019671
:100700004C01F7019381F60193FD859193FF81914F
:100710006F01882309F49EC1853239F493FD8591D8
:1007200093FF81916F01853221F4B70190E00FD3DF
:10073000E8CF512C312C20E02032A0F48B3269F02C
:1007400030F4803259F0833269F420612CC08D324C
:1007500039F0803339F4216026C02260246023C040
:10076000286021C027FD27C030ED380F3A3078F4DB
:1007700026FF06C0FAE05F9E300D1124532E13C0F1
:100780008AE0389E300D1124332E20620CC08E3248
:1007900021F426FD5FC1206406C08C3611F4206868
:1007A00002C0883641F4F60193FD859193FF819153
:1007B0006F018111C1CF982F9F7D9554933028F4FC
:1007C0000C5F1F4FFFE3F9830DC0833631F0833791
:1007D00071F0833509F057C021C0F8018081898309
:1007E0000E5F1F4F44244394512C540114C0380110
:1007F000F2E06F0E711CF801A080B18026FF03C0EB
:10080000652D70E002C06FEF7FEFC5012C8794D299
:100810002C0183012C852F77222E16C03801F2E09F
:100820006F0E711CF801A080B18026FF03C0652DFA
:1008300070E002C06FEF7FEFC5012C876BD22C01F7
:100840002C852068222E830123FC19C0832D90E083
:1008500048165906A0F4B70180E290E078D23A94A5
:10086000F5CFF50127FC859127FE81915F01B70146
:1008700090E06DD231103A94F1E04F1A51084114D2
:10088000510479F7DEC0843611F0893631F5F8016C
:1008900027FF07C060817181828193810C5F1F4FA8
:1008A00008C060817181882777FD8095982F0E5F41
:1008B0001F4F2F76B22E97FF09C0909580957095A7
:1008C00061957F4F8F4F9F4F2068B22E2AE030E016
:1008D000A4016FD2A82EA81843C0853729F42F7E13
:1008E000B22E2AE030E025C0F22FF97FBF2E8F36DE
:1008F000C1F018F4883579F0ADC0803719F0883729
:1009000021F0A8C02F2F2061B22EB4FE0DC08B2D78
:100910008460B82E09C024FF0AC09F2F9660B92EAC
:1009200006C028E030E005C020E130E002C020E150
:1009300032E0F801B7FE07C0608171818281938146
:100940000C5F1F4F06C06081718180E090E00E5FF8
:100950001F4FA4012ED2A82EA818FB2DFF77BF2E63
:10096000B6FE0BC02B2D2E7FA51450F4B4FE0AC08A
:10097000B2FC08C02B2D2E7E05C07A2C2B2D03C077
:100980007A2C01C0752C24FF0DC0FE01EA0DF11D6B
:100990008081803311F4297E09C022FF06C0739440
:1009A000739404C0822F867809F0739423FD12C0DB
:1009B00020FF06C05A2C731418F4530C5718732CCC
:1009C000731460F4B70180E290E02C87C0D1739477
:1009D0002C85F6CF731410F4371801C0312C24FF86
:1009E00011C0B70180E390E02C87B1D12C8522FFA4
:1009F00016C021FF03C088E590E002C088E790E0C0
:100A0000B7010CC0822F867851F021FD02C080E230
:100A100001C08BE227FD8DE2B70190E098D1A514CB
:100A200030F4B70180E390E092D15A94F8CFAA94C1
:100A3000F401EA0DF11D8081B70190E088D1A11089
:100A4000F6CF332009F45DCEB70180E290E07FD18C
:100A50003A94F7CFF7018681978102C08FEF9FEF1D
:100A60002C960FB6F894DEBF0FBECDBFDF91CF91AD
:100A70001F910F91FF90EF90DF90CF90BF90AF90BC
:100A80009F908F907F906F905F904F903F902F90AE
:100A900008950F931F93CF93DF93869F8001879FC5
:100AA000100D969F100D1124C8010DD0EC01009778
:100AB00021F0A80160E070E038D1CE01DF91CF9144
:100AC0001F910F910895CF93DF938230910510F419
:100AD00082E090E0E0914302F091440220E030E0B7
:100AE000A0E0B0E0309739F14081518148175907B3
:100AF000B8F04817590771F482819381109729F053
:100B000013969C938E9312972CC0909344028093DB
:100B1000430227C02115310531F04217530718F061
:100B2000A901DB0101C0EF019A01BD01DF010280D3
:100B3000F381E02DD7CF21153105F9F0281B390BB2
:100B40002430310580F48A819B816115710521F083
:100B5000FB019383828304C09093440280934302F9
:100B6000FE01329644C0FE01E20FF31F8193919380
:100B700022503109398328833AC0209141023091B3
:100B80004202232B41F42091020230910302309360
:100B9000420220934102209100023091010221156E
:100BA000310541F42DB73EB7409104025091050242
:100BB000241B350BE0914102F0914202E217F3074A
:100BC000A0F42E1B3F0B2817390778F0AC014E5FBD
:100BD0005F4F2417350748F04E0F5F1F50934202B6
:100BE000409341028193919302C0E0E0F0E0CF0195
:100BF000DF91CF910895CF93DF93009709F487C0D9
:100C0000FC01329713821282C0914302D0914402B8
:100C1000209781F420813181280F391F8091410272
:100C2000909142028217930779F5F0934202E09384
:100C300041026DC0DE0120E030E0AE17BF0750F486
:100C400012964D915C9113979D014115510509F143
:100C5000DA01F3CFB383A28340815181840F951FC2
:100C60008A179B0771F48D919C911197840F951FA2
:100C700002969183808312968D919C911397938312
:100C800082832115310529F4F0934402E093430255
:100C90003EC0D9011396FC93EE9312974D915D914E
:100CA000A40FB51FEA17FB0779F480819181840FA7
:100CB000951F0296D90111969C938E938281938100
:100CC00013969C938E931297E0E0F0E08A819B81CB
:100CD000009719F0FE01EC01F9CFCE0102962881B0
:100CE0003981820F931F20914102309142022817CF
:100CF000390769F4309729F41092440210924302A4
:100D000002C013821282D0934202C0934102DF914B
:100D1000CF910895FC010590615070400110D8F703
:100D2000809590958E0F9F1F0895DC0101C06D93F3
:100D300041505040E0F70895FC016150704001902F
:100D40000110D8F7809590958E0F9F1F08950F93EF
:100D50001F93CF93DF93182F092FEB018B8181FD18
:100D600003C08FEF9FEF20C082FF10C04E815F81D4
:100D70002C813D81421753077CF4E881F9819F0162
:100D80002F5F3F4F39832883108306C0E885F9859C
:100D9000812F1995892B29F72E813F812F5F3F4F96
:100DA0003F832E83812F902FDF91CF911F910F9141
:100DB0000895FA01AA27283051F1203181F1E894F1
:100DC0006F936E7F6E5F7F4F8F4F9F4FAF4FB1E03E
:100DD0003ED0B4E03CD0670F781F891F9A1FA11D39
:100DE000680F791F8A1F911DA11D6A0F711D811D3A
:100DF000911DA11D20D009F468943F912AE0269FFF
:100E000011243019305D3193DEF6CF010895462F5D
:100E10004770405D4193B3E00FD0C9F7F6CF462F3E
:100E20004F70405D4A3318F0495D31FD40524193A7
:100E300002D0A9F7EACFB4E0A69597958795779564
:100E40006795BA95C9F700976105710508959B01EB
:100E5000AC010A2E06945795479537952795BA9574
:100E6000C9F7620F731F841F951FA01D0895F89482
:020E7000FFCFB2
:100E7200000045022000494420696E76616C696475
:100E820000646972656374696F6E3A202563207825
:100E9200706F733A2025642079706F733A2025644D
:040EA200200A000022
:00000001FF
