S00E00004E6F64655F312E7372656300
S11300000C94B40B0C94D10B0C94D10B0C94D10B19
S11300100C94D10B0C94D10B0C94D10B0C94D10BEC
S11300200C94D10B0C94D10B0C94D10B0C94D10BDC
S11300300C94D10B0C94D10B0C94D10B0C94D10BCC
S11300400C94D10B0C94D10B0C94D10B0C94D10BBC
S11300500C94D10B0C94D10B0C94D10B0C94D10BAC
S11300600C94D10B0C94D10B0C94D10B0C94D10B9C
S1130070000008000101000000000004060050C058
S1130080C6C65252020201013030300000000000A6
S11300900000000000E0F0F0E0E0E0C0C0808080FC
S11300A0000000000000000000000000000000004C
S11300B0000000000000000000000000000000003C
S11300C0000000000000000000000000000000002C
S11300D0000000000000000000000000000000001C
S11300E00000000000000000E0F0F0F0E4E4E4F4BC
S11300F010000000000000040400000363E3E36355
S1130100020B6B63E0FCFEFFE7E3F3F2FCF0E0803C
S113011000000000C0FFFFFFFFFFFFFFFFFFFFFF26
S1130120FFFEEEC3C1C0E0E0E0E06040400000003C
S113013000000000000080C080C0E0F8F8F000007B
S113014000000000000000000000000000000000AB
S1130150000000000000000000000000000000009B
S11301600000C0C0E0F0F8FCFFFFFFFFFFFFFFFF4F
S1130170000C1C781C1C2C0C0C04000000014341D6
S11301801C1C0C087FFFFFFFFFFFFFFFC3E3F1F31D
S1130190FFFEFCFCFFFFFFFFFFFFFFFFFFFFFFFF72
S11301A0FFFFFFFFFFFFFFFFFFFEFCFCFCFCFCFC6E
S11301B0FCFCFCFEFEFEFFFFFFFFFFFF7F070000CD
S11301C0000000000000C0C0C0808080000000006B
S11301D0000000000000000000000000000000001B
S11301E000087FFFFFFFFFFFFFFFFFFFFFFFFF7F11
S11301F0000030310000000032020000000800005E
S11302000000008080C7DFFFFFFFFFFFFFFFFFFF4D
S1130210FFFFFFFFFFFFFFFFFFFFFFFFFFFFFFFFEA
S1130220FFFFFFFFFF7F3F3F1F0F0F8787C7E3F3EA
S11302307F3F3F3F3F3F3F3F3F3F3F3F3F1C00002B
S113024000000000007EFFFFFFFFFFFFFFFFFFFF36
S1130250FEFCFC2000000000000000000000000084
S11302600000181F1F1F0F0F0703030301000000E6
S113027000081E7232000C5FFFDAC00000000000AC
S1130280B9FFBBB9BBFFB999BFBFBFBFBFBF9F9F7A
S1130290FFFFF7FFFFFFFFFFFFFFFFFFFFFBF1FF84
S11302A0FFFFE7E1F0F87C3E3E3F7F7F7F7F3F3FEB
S11302B07F7E7C7C7C7870E0C0C0C0C0C000000041
S11302C00000000000003061C3870F0F0F1F1F0FD5
S11302D00F07000000000000000000000000000004
S11302E0000000000000000000000000000000000A
S11302F00000006626068486C7C7C301000000000C
S1130300337FFFFB3BFFFFFBFBFFFBBBFFFFBB3B65
S1130310FFFFFFFFFFFFFFFFFFFF9F1F3F7FFFFF69
S1130320FFFFFFFFFFFFFEFEFEFEFEFEFCFCFCFCEB
S1130330FCFCFCFCFCFCF8E8E0C0C0C08000000051
S1130340000000000000000000C1C3000000000025
S11303500000000000000000000000000000000099
S11303600000000000000000000000000000000089
S1130370000020010171F1F0F0F0F0707000E0E095
S1130380A387870707070707070707070307C7F3B5
S1130390FFFFFFFFFFFFFFFFFFFDC1040800010F88
S11303A03F7FFFFFFFFFFFFFFFFFFFFFFFFFFFFF99
S11303B0FFFFFFFFFFFFFFFDF9F9F8F8F8F8F0E0A1
S11303C0C0C0C000000000000000000000000000E9
S11303D00000008080008000000000000000000099
S11303E00000000000000000000000000000000009
S11303F0000004070783818183CBCB030B080C0F18
S113040003010100000000000000000078FEFFFF6F
S1130410FFFFFFFFFFFFFFFFFFFFFFFFFEFCF8F002
S1130420E0C000000101030303030307070F0F0FDC
S11304300F1F1F1F1F1F1F1F1F1F0F0F0703030166
S113044001010000000000000000000000000000A6
S11304500400020703000000000000000000000088
S1130460000000000000000000000080C0C0000088
S1130470FFFFFFFFFFFFFFFFFF3F3F3F3F1F1F1F28
S11304800F0F0F0F0707070707070707070F0F1FB0
S11304901F3F3F7F7FFFFFFFFFFFFFFFFFFFFFFFC8
S11304A0FF7F7F3F3F1F1F1F1F1F1F3F3F7F7FFF98
S11304B0FFFFFFFFFF7F7F7F3F3F1F1F1F0F0F0FB8
S11304C00F0F0F0F0F0F0F0F0F1F1F1F1F1F1F3FA8
S11304D03F3F3F3F3F1F1F1F0F0F07070707070738
S11304E00F0F1F3F7FFFFFFFFFFFFFFFFFFFFFFF18
S11304F0FFFFFFFFFFFFFFFFFFFFFEFCF8F8F0F038
S1130500F0F8F8F8FCFCFCFCFEFEFEFEFEFEFEFE2F
S1130510FEFCFCF8F8F0F0E1E1C1C1818181818049
S1130520808080C0C0C0E0F0F0F0F8F8F8F8F8F08F
S1130530F0E0C0C0C0C0C0C0C0E0E06070F0F8F837
S1130540F8F8FCFCFCFCFCFCFCFCFCFCFCF8F8F8FB
S1130550F8F8F8F0F0F0F0F0F0F8F8F8FCFCFCFE35
S1130560FEFEFEFCFCFCFDFFFFFFFFFFFFFFFFFFA5
S1130570FFFFFFFFFFFFFF7F3F1F0F07C3E3E1F113
S1130580F1F1F1C18080C3FFFFFFFFFFFFFFFFFF19
S1130590FFFFFFFFFFFFFFFFFFFFFFFFFFFFFFFF67
S11305A0FFFFFFFFFFFFFFFFFFFFFFFFFFFFFFFF57
S11305B0FFFFFFFFFFFFFFFFFFFF000000FFFFFF44
S11305C0FFFFFFE3E3E3F7FFFFFFFFFFFFFFFF0F83
S11305D007071FFFFFFFFFFFFFFFFFFFFFFFFFFFF7
S11305E0FFFFFFFFFFFFFFFFFFFFFFFFFFFFFFFF17
S11305F0FFFFFFFF1F070180F0FCFEFFFFFFFFFF6F
S1130600FFFFFFFFFFFFFFFFFF0301010787C3E3B6
S1130610E1F1F1010103FFFFFF3F0F0783E3E1F184
S1130620F1717131210307CFFFFFFFFF7F1F0F8798
S1130630C3E3F1F1F1F1F1E1C3070000F8FFFFFFBB
S1130640FFFF03010103FFFFFFFFF9F1F1F1F100E7
S1130650000000F1F1F1F1F1FFFFFF3F0F0F07C7B9
S1130660E7E3E3F3F1C18181CFFFFFFFFFFFFFFF6A
S1130670FFFFFFFFC000001F3F7FFFFFFFFF7F7FE3
S11306803F3F1F0F0F9FFFFFFF000000FFFFFFFF13
S1130690FFFFFFFEFEFEFFFFF7800002237171F8EB
S11306A0F8FCFCFE7E7F3F1F1FFFFFFFC000001F02
S11306B03F7FFFFFFFFFFF7F3F0000003FFFFFFF83
S11306C0FFFF00000000FFFFFFFFFFFFFFFFFFF839
S11306D0000000FFFFFFFFFFFFFF3F3E7C78F8F8BC
S11306E0F8F8F0F16103030FFFFFFFFFFFFFFFFFC7
S11306F0FFFFFFFFFFFFFEFCFCF8F8F87838381C1A
S11307001C1C0E0F0F0F0F1F3F7CF8F8FFFFFFFF9D
S1130710FFFFFFFFFFFFFFFFFFFFFEFEFCFCF8F8FB
S1130720F8F8F8F8F8FCFCFEFFFFFFFFFFFFFEFC03
S1130730FCF8F8F8F8F8F8F8FCFCF8F8FCFFFFFF10
S1130740FFFFFCF8F8FCFFFFFFFFFFFFFFFFFFFDCB
S1130750F8F8FCFFFFFFFFFFFFFFFEFCFCF8F8F8D2
S1130760F8F8F8F8FCFCFEFFFFFFFFFFFFFFFFFFB8
S1130770FFFFFFFFFFFF3F0F0703010000000080A2
S1130780C0E0F0F0F8F8FCFCFCFCF8F1E3E7C78FFC
S11307900F1F3F7F7FFFFFFFFFFFFFFFFFFFFF7F75
S11307A03F3F1F1F1F0F0F0F0F0F0F0F0F0F0F0FC5
S11307B01F1F3F3F3F3F3F3F1F1F0F0F0F07070301
S11307C003030303030307070F1F1F1F3F3F3F3F9D
S11307D03F3F3F3F1F1F1F1F0F0F07070303030365
S11307E0030303070F1F3F7FFFFFFFFFFFFFFFFF11
S11307F0FFFFFFFFFFFFFEFCF8F0F0E0F8FEFFFF55
S1130800FFFFFFFFFFFFFFFFFFFFFFFFFFFFFFFFF4
S1130810FFFEFEFCF8F0E0E1C1C1818181808080AF
S113082080C0C0E0E0F0F0F8F8FCFCFCFCFCFCFC50
S1130830FCFCFCF8F8F8F0F0F0F0F0F0F0F8FCFC58
S1130840FCFEFEFFFFFFFFFFFFFEFEFEFCF8F8F8D4
S1130850F0F0F0F0F0F0F0F0F8F8F8F8FCFCFEFE40
S1130860FFFFFFFFFFFFFFFFFFFFFFFFFFFFFFFF94
S1130870FFFFFFFFFFFFFFFFFFFFFFFFFFFFFFFF84
S1130880FFFFFFFFFFFFFFFFFFFFFFFF3F1F1F0FE4
S11308901F9F5F5F7F3F3FBFBF7F7F7F3F3FBFBFE4
S11308A0FFFFFFFFFFFFFFFFFFFFFFFFFFFFFFFF54
S11308B0FCFCFCF8F8F0F0F0FCFCF8F9F9FBF2F6BB
S11308C0F4F0E0C0C0C0C0C080000000000001031C
S11308D0071F7FFFFFFFFFFFFFFFFFFFFFFFFFFF7C
S11308E0FFFFFFFFFFFFFFFFFFFFFFFFFFFFFFFF14
S11308F0FFFFFFFFFFFFFFFFFFFFFFFFFFFFFFFF04
S1130900FFFFFFFFFFFFFFFFFFFF8100000000006C
S1130910000000000080C0F0F8FCFCFEFEFFFFFFBA
S1130920FFFFFFFFFFFFFFFFFFFFFFFFFFFFFFFFD3
S1130930FFFFFFFFFFFFFFFFFFFFFFFFFFFFFFFFC3
S1130940FFFF7F7F3F7FFFFFFFFCF0F0F000180305
S11309500000066F1F3FFFFFFFFFFFFFFFFFFFFFCA
S1130960FFFFFFFFFFFFFFFFFFFFFFFFFFFFFFFF93
S1130970FFFFFFFFFFFFFFFFFFFFFFFFFFFFFFFF83
S1130980FFFFFFFFFFFFFFFFFFFFFFFFFC00000073
S11309900000000CFFFFFFFFFFFFFFFFFFFFFFFF53
S11309A0FFFFFFFFFFFFFFFFFFFFFFFFFFFFFFFF53
S11309B0FFFFFFFFFFFFFFFFFFFFFFFFFFFFFFFF43
S11309C0FFFBE000000065474F3FFFEF3E180000CB
S11309D000000000001C7FFFFFFFFFFFFFFFFFFF81
S11309E0FFFFFFFFFFFFFFFFFFFFFFFFFFFFFFFF13
S11309F0FFFFFFFFFFFFFFFFFFFFFFFFFFFFFFFF03
S1130A00FFFFFFFFFFFFFFFFFFFFFFFFFFF0C080BF
S1130A103E04C0F0FBDF9F9F9F9F9F9FDFCB8B8394
S1130A208383C7E7CFCFDFFFFFFFFFFFFFFFFFEFAA
S1130A30E7E3E1E1F0F9F3E3E3E3E3F3F3F3F3F3FF
S1130A40F3F3F3FEFEFEF8C0E020071F1C787030BD
S1130A50000000000000F0FFFFFFFFFFFFFFFFFFAB
S1130A60FFFFFFFFFFFFFFFFFFFFFFFFFFFFFFFF92
S1130A70FFFFFFFFFFFFFFFFFFFFFFFFFFFFFFFF82
S1130A80FFFFFFFFFFFFFFFFFFFFFFFFFFFFFFFF72
S1130A90FEFEFFFFFFFFFFFFFFFFFFFFFFFFFFFF64
S1130AA0FFFFFFFFFFFFFFFFFFFFFFFFFFFFFFFF52
S1130AB0FFFFFFFF7F3FFFFFFFFFFFFFFFFFFFFF82
S1130AC0FFFFFFFFFFFFFFFF7F1800000000202053
S1130AD02010000080F8F8FFFFFFFFFFFFFFFFFF7B
S1130AE0FFFFFFFFFFFFFFFFFFFFFFFFFFFFFFFF12
S1130AF0FFFFFFFFFFFFFFFFFFFFFFFFFFFFFFFF02
S1130B00FFFFFFFFFFFFFFFFFFFFFFFFFFFFFFFFF1
S1130B10FFFFFFFFFFFFCF9F9FFFFFFFFFFFFFFFD1
S1130B20FF7FFFFFFFFFF3F3F3E7E7E7E7E7E3F315
S1130B30F37179797C7E7F3F3F3F3F3FBFFFFBFFEF
S1130B40FFFFFFFFFFE7FDFDFC0000E0FCFCFCF8FD
S1130B50F8FCFEFFFFFFFFFFFFFFFFFFFFFFFFFFAC
S1130B60FFFFFFFFFFFFFFFFFFFFFFFFFFFFFFFF91
S1130B70FFFFFFFFFFFFFFFFFFFFFFFFFFFFFFFF81
S1130B80FFFFFFFFFFFFFFFFFFFFFFFFFFFFFFFF71
S1130B90FFFFFFFFFFFFFFFFFFFFFFFFFFFFFFFF61
S1130BA0FFFFFEFEFCFCFCFCFEFEFEFFFFFFFFFF62
S1130BB0FFFFFFFFFFFDFFFEFEFEFFFFFFFFFFFF46
S1130BC0FFFFFFFFFF7F1F030080C3C1C0811F7FA2
S1130BD07F7F7FFFFFFFFFFFFFFFFFFFFFFFFFFFA1
S1130BE0FFFFFFFFFFFFFFFFFFFFFFFFFFFFFFFF11
S1130BF0FFFFFFFFFFFFFFFFFFFFFFFFFFFFFFFF01
S1130C00FFFFFFFFFFFFFFFFFFFFFFFFFFFFFFFFF0
S1130C10FFFFFFFFFFFFFFFFFFFFFFFFFFFFFFFFE0
S1130C20FFFFFFFFFFFFFF7F7F7F7F7FFFFFFFFF50
S1130C30FFFFFFFFFFFF7F7F7F3F3F3F1F1F0F0728
S1130C400383C1E0F0F8FCFEFFFFFFFFFFFFFEFCA3
S1130C50F0E0C080F9FFFFFFFFFFFFFFFFFFFFFF92
S1130C60FFFFFFFFFFFFFFFFFFFFFFFFFFFFFFFF90
S1130C700000000000000000000000000000000070
S1130C800000000000000000000000000000000060
S1130C900000000000000000000000000000000050
S1130CA00000000000000000000000000000000040
S1130CB00000000000000000000000000000000030
S1130CC00000000000000000000000000000000020
S1130CD00000000000000000000000000000000010
S1130CE00000000000000000000000000000008080
S1130CF000000000000000000000000000000000F0
S1130D0000000000000000000000000000000000DF
S1130D1000000000000000000000000000000000CF
S1130D2000000000000000000000000000000000BF
S1130D3000000000000000000000000000000000AF
S1130D40000000000000000000000000000000009F
S1130D50000000000000000000000000000000008F
S1130D60000000000000000000000000000001037B
S1130D70000000000000000000000000000000006F
S1130D80000000000000000000000000000000005F
S1130D90000000000000000000000000000000004F
S1130DA0000000000000000000000080800000003F
S1130DB000008080000040404080808000000000EF
S1130DC0000000000000000000000000000000001F
S1130DD000000000008080A06040000000000000CF
S1130DE000000000000000000000000000000000FF
S1130DF000000000000000000000000000000000EF
S1130E000000000000000000000000387CFCF8F83E
S1130E10F8F8F0F0F0F0F0F0F0F0F0F0F8F8F8F89E
S1130E20FCFCFCFEFEFEFE7E7F3F3F3F9F9FDFEF0C
S1130E30FFFFFFF7F7F770F07070F1E1E1E1E7E32E
S1130E40E3E6C6C0C080000000000000000000000F
S1130E5000F0F07C7CFFFFFFFFFFFFFEFC7800004A
S1130E60000000000000000000000000000000007E
S1130E70000000000000000000000000000000006E
S1130E800000000000000000000000000001030357
S1130E9003030303030307070707272F0F0F0F1F7E
S1130EA07FFFFFFFFDFCFCFCF8F8F8F8F0F0F0E041
S1130EB0F0F3F3FFFFFEFEFEFEFEFFFFFFFFFFFF6A
S1130EC0FFFFFFFFFFFF3D000000000000000000E7
S1130ED00000070F0F0F0F0F0F07030100000000A2
S1130EE000000000000000000000000000000000FE
S1130EF000000000000000000000000000000000EE
S1130F0000000000000000000000000000000000DD
S1130F10000000061C1E3E3E3C7E7E7EFEFEFCE083
S1130F20809F9FBFBFBFBFBF9F9F9FFFFFFFFFF378
S1130F30F3FFFFFFFFFFFFFFFFFFFFFFFFFFFFFFC9
S1130F40FFFFFFFFF7FCFEFFFFFFFFFFFFFEFEFEBC
S1130F50F8F0F0F8F8F8F8FCFCF8F0C00000000035
S1130F600000181000000000808000000000000055
S1130F70000000000000000000000000000000006D
S1130F80000000000000000000000000000000005D
S1130F90000000000000000000000000000000014C
S1130FA0010307070F0F0B0301010505070E0E0FC1
S1130FB00707878787C3E3E3F3F1F8FFFFFFFFFF2A
S1130FC0FFFFFFFFFFFFFF7F3F7F7F3F1F1F8FCF8D
S1130FD0C7F7FFFFFFFFFFFFFFFFFFFFFFFEFCF070
S1130FE0E0C0060EFFFFFFFFFFFFFFFFFFFFFFFF55
S1130FF0800000000000000000000000000000006D
S113100000000000000000000000000000000000DC
S113101000000000000000000000000000000000CC
S113102000000000000000000000000000000001BB
S1131030030307070707070F0F0F0707070707072C
S113104007070303313178787C7C7EFEFFFFFFFFC6
S1131050FFFFFFFFFFFFFFFFFFFFFFFFFFFFFFFF9C
S1131060FFFFFEFFFFFFFFFFFFFFDFFFFFFFFFFFAD
S1131070FFFFFFFFFFFFFF7F7FFFFFFFFFFFFFFF7C
S1131080FFFFFFFFFFFFFFFFFFFFFFFFFFFFFFFF6C
S1131090FFFFFFFFFF7F7F7F7F7F7F7F7F7F7F7FDC
S11310A07F3F3F3F3F3F3F1F1F1F1F1F1F1F1F0F3C
S11310B00F0F0F0F0F0F0F07070707070303030394
S11310C0030101010101010101010101010100000C
S11310D00000000000010101010101030303070FE7
S11310E00F1F3F3F0F0767E707071FFFFFFFFFFFC4
S11310F0FFFFFFFFFFFFFFC0800107070F1FC71F90
S11311003F3F7F3F1F1F0F0F0F070703030101011D
S113111001000000000000000000000000000000CA
S113112000000000000000000000000000000000BB
S113113000000000000000000000000000000000AB
S1131140000000000000000000000000000000009B
S1131150000000000000000000000000000000008B
S113116000000000000000001CFCFBFBFBFFFFFF75
S1131170FFFFFFFFFFFFFFFFFFFEFC3C00008002BC
S1131180104000000000000000000000000000000B
S1131190000000000000000000000000000000004B
S11311A0000000000000000000000000000000003B
S11311B0000000000000000000000000000000002B
S11311C0000000000000000000000000000000001B
S11311D0000000000000000000000000000000000B
S11311E000000000000000000000FFFFFFFFFFFF01
S11311F0FF1F1F1F1F1F0F0F070300000000030323
S113120000000000000000000100000000000800D1
S1131210002040000000000000000000000000006A
S113122000000000000000000000000000000000BA
S113123000000000000000000000000000000000AA
S1131240000000000000000000000000000000009A
S1131250000000000000000000000000000000008A
S1131260000000000080C0E2F8FEFFFFFFFFFFFF68
S1131270FFFCFAF9F0E0C0808000000000000000EC
S1131280000000000000000000000000000000401A
S11312900000000000010010200000000000000019
S11312A0000000000000000000000000000000003A
S11312B0000000000000000000000000000000002A
S11312C0000000000000000000000000000000001A
S11312D00000808000000000000000000000000208
S11312E0000000FEFFFFFFFFFFFFFFFFFFFFFFFF08
S11312F0FFFFFFFFFFFFFFFFFFFFFEFEFCFCFCFE06
S1131300FCFCFCF8F8FCFCFCFCFCFCFCFCF9F8FC28
S1131310FCFCFCFEFEFEFEFCFCFCF20420000000D3
S11313200000000000E0F8F8F8FCFCFCFCFCFCF811
S1131330F8FCFCFCFCFCF8F8FCFCFCFCF8F8F8FC01
S1131340FCFCFCFCFCF8FEFEFEFEFEFEFEFFFFFFC6
S1131350FFFFFFFF8000000000000000000000000D
S113136000000083F7FFFFFFFFFFFFFFFFFFFFFF0A
S1131370FFFFFFFFFFFFFFFFFFFFFFFFFFFFFFFF79
S1131380FFFFFFFFFFFFFFFFFFFFFFFFFFFFFFFF69
S1131390FFFFFFFFFFFFFFFFFFFFFF0000009800BC
S11313A000000000FCFFFFFFFFFFFFFFFFFFFFFF48
S11313B0FFFFFFFFFFFFFFFFFFFFFFFFFFFFFFFF39
S11313C0FFFFFFFFFFFFFFFFFFFFFFFFFFFFFFFF29
S11313D0FFFFFFFF3F0000000088C0E4F8000000AA
S11313E000E0FCFFFFFFFFFFFFFFFFFFFFFFFFFF2A
S11313F0FFFFFFFFFFFFFFFFFFFFFFFFFFFFFFFFF9
S1131400FFFFFFFFFFFFFFFFFFFFFFFFFFFFFFFFE8
S1131410FFFFFFFFFFFFFFFFFFF7F3F0D0C0C4E8BB
S1131420C0C8C0F8FFFFFFFFFFFFFFFFFFFFFFFF84
S1131430FFFFFFFFFFFFFFFFFFFFFFFFFFFFFFFFB8
S1131440FFFFFFFFFFFFFFFFFFFFFFFFFFFFFFFFA8
S1131450FFFF9F9190B08080F8FFFFF7E0E0F0F08D
S1131460FEFFFFFFFFFFFFFFFFFFFFFFFFFFFFFF89
S1131470000000000000000000065F5F060000009E
S11314800007070007070000147F7F147F7F140004
S1131490242E6B6B3A120000466630180C6662000C
S11314A0307A4F5D377A48000407030000000000DB
S11314B0001C3E63410000000041633E1C0000002C
S11314C0082A3E1C1C3E2A0808083E3E0808000064
S11314D000A0E060000000000808080808080000F8
S11314E000006060000000006030180C060301007A
S11314F03E7F594D7F3E000042427F7F40400000C6
S1131500627359496F660000226349497F360000BF
S1131510181C16137F7F1000276745457D3900008E
S11315203C7E4B4979300000036371190F070000BA
S1131530367F49497F360000064F49693F1E000047
S113154000006C6C0000000000A0EC6C00000000C7
S1131550081C366341000000141414141414000011
S1131560004163361C080000020351590F060000B5
S11315703E7F415D5D1F1E007C7E13137E7C000058
S1131580417F7F49497F36001C3E6341416322000D
S1131590417F7F41637F1C00417F7F495D41630040
S11315A0417F7F491D0103001C3E6341517372005A
S11315B07F7F08087F7F000000417F7F410000009B
S11315C0307040417F3F0100417F7F081C776300FA
S11315D0417F7F41406070007F7F060C067F7F0063
S11315E07F7F060C187F7F001C3E6341633E1C0016
S11315F0417F7F49090F06001E3F21717F5E000075
S1131600417F7F19396F460026674D597B320000B0
S113161003417F7F410300007F7F40407F7F0000C4
S11316201F3F60603F1F00007F7F3018307F7F00C6
S113163063771C081C776300074F78784F07000016
S11316406773594D47637100007F7F41410000007B
S11316500103060C183060000041417F7F00000048
S1131660080C0603060C080080808080808080803F
S11316700000030704000000207454543C78400028
S1131680413F7F44447C3800387C44446C2800004B
S1131690307848493F7F4000387C54545C1800003F
S11316A0487E7F490302000098BCA4A4F87C04008F
S11316B0417F7F08047C780000447D7D4000000069
S11316C040C484FD7D000000417F7F10386C4400DD
S11316D000417F7F400000007C7C0C180C7C78006B
S11316E07C7C04047C780000387C44447C38000012
S11316F084FCF8A4243C1800183C24A4F8FC8400BE
S1131700447C78441C180000485C54547424000041
S113171000043E7F442400003C7C40403C7C40006C
S11317201C3C60603C1C00003C7C6030607C3C00E5
S1131730446C3810386C44009CBCA0A0FC7C0000B5
S11317404C64745C4C64000008083E77414100001E
S113175000000077770000004141773E0808000050
S1131760020301030203010011241FBECFEFD4E0E2
S1131770DEBFCDBF12E0A0E0B1E0ECE4F6E302C0CE
S113178005900D92A833B107D9F723E0A8E3B2E09E
S113179001C01D92AE3AB207E1F70E94D00E0C943C
S11317A0241B0C94000085B7886085BF85B78460CE
S11317B085BF86B7806486BFC39ABB980895E091BD
S11317C00601F09107018D5F8083B399FECFE0910C
S11317D00601F0910701808108950E94F60F40E010
S11317E060EE8FE00E94D00F08958CE20E94840F77
S11317F0837029F48CE20E94840F8370D9F30895D6
S1131800FF920F931F93CF93DF931F92CDB7DEB751
S11318108C010E94F50B8CE20E94840F898381E67F
S11318200E94840F90E0F8019183808385E60E94F2
S1131830840FF8018283882371F0F12C86E68F0DE2
S11318400E94840FF801EF0DF11D8383F394F801D6
S11318508281F81698F340E061E08CE20E94D00F98
S11318600F90DF91CF911F910F91FF900895CF9327
S1131870DF931F92CDB7DEB780E30E94840F898384
S1131880898183FF07C080E30E94840F8983898153
S113189083FDF9CF0F90DF91CF9108951F93CF93DC
S11318A0DF93EC010E94370C60E082E30E94980F02
S11318B0688181E30E94980F6A8185E30E94980FF2
S11318C08A81882369F010E0FE01E10FF11D638134
S11318D086E3810F0E94980F1F5F8A811817A0F377
S11318E081E80E94AE0FDF91CF911F910895E19995
S11318F0FECF9FBB8EBB6DBBE29AE19A0895E1993E
S1131900FECF9FBB8EBBE09A8DB308951F93CF93F8
S1131910DF93EC01172F0E94770C612FCE01C29642
S11319200E94770CDF91CF911F91089560E070E0E1
S113193080E090E00E94860C60E070E081E090E03E
S11319400E94860C60E070E082E090E00E94860CC9
S113195060E070E083E090E00E94860C60E070E05C
S113196084E090E00E94860C60E070E082E390E006
S11319700E94860C60E070E083E390E00E94860C95
S113198060E070E084E390E00E94860C60E070E028
S113199085E390E00E94860C60E070E086E390E0CE
S11319A00E94860C08950F931F93CF93DF93EC014D
S11319B0C2960E947F0C082F10E0102F0027CE0142
S11319C00E947F0C9801282BC901DF91CF911F91B0
S11319D00F910895CF93DF93CDB7DEB72B970FB652
S11319E0F894DEBF0FBECDBF6C837D838E839F834F
S11319F082E090E09A83898384E08B83CE01019610
S1131A000E944E0C2B960FB6F894DEBF0FBECDBFCE
S1131A10DF91CF910895EF92FF920F931F93CF938D
S1131A20DF93CDB7DEB72B970FB6F894DEBF0FBEAA
S1131A30CDBFE982FA820B831C83E22F2D833E8380
S1131A404F83588769877A878B87212F30E03E2B15
S1131A50C901992324F488279927821B930B0E9498
S1131A60CE1483ED90E30197F1F700C000002B96AC
S1131A700FB6F894DEBF0FBECDBFDF91CF911F919B
S1131A800F91FF90EF900895AF92BF92CF92DF92A3
S1131A90EF92FF920F931F93CF93DF93CDB7DEB7EF
S1131AA065970FB6F894DEBF0FBECDBFE12EF12CC3
S1131AB0F22A0E94241466E180E00E94AF138CE0B5
S1131AC091E00E94C2136BE082E00E94AF1387E1B1
S1131AD091E00E94C2136CE283E00E94AF13FF9274
S1131AE01F9385E291E09F938F938E010F5F1F4FA9
S1131AF01F930F930E940917C8010E94C2130F90ED
S1131B000F900F900F900F900F9000E010E0C8011D
S1131B100E94D30C8E159F0524F504301105A4F4FE
S1131B206894AA24A2F8B12C650181E0C81AD108EE
S1131B30C6010E94D30CBC01C5010E94860CC016CC
S1131B40D10611F05601F0CFB701C8010E94860CEE
S1131B506AE084E00E94AF1388E291E00E94C2131D
S1131B6005C00F5F1F4F0530110589F665960FB646
S1131B70F894DEBF0FBECDBFDF91CF911F910F91BF
S1131B80FF90EF90DF90CF90BF90AF9008950F93A8
S1131B901F93CF93DF930E94241487E391E00E9464
S1131BA0C21380E090E0EC0121960E94D30C8C01DA
S1131BB06AE08C2F0E94AF13CE010E94F71383E4D6
S1131BC091E00E94C213C8010E94F713C530D105E9
S1131BD011F0CE01E8CFDF91CF911F910F910895BD
S1131BE0CF9381E00E94DF0BC82F82E00E94DF0BBD
S1131BF0282F6C2F70E0822F90E0CF9108950F93DF
S1131C001F93CF9382E00E94DF0BC82F81E00E94D4
S1131C10DF0B482F60919D0370919E03E0919F0319
S1131C20F091A003AC2FB0E0A61BB70BC4E6CA9F8B
S1131C30C001CB9F900D11240E9496168B0150E099
S1131C404E1B5F0BC49FC001C59F900D1124BF01A3
S1131C500E9496169B01C901B801CF911F910F9163
S1131C600895CF9383E00E94DF0BC82F84E00E9485
S1131C70DF0B282F622F70E08C2F90E0CF91089516
S1131C80CF93DF93CDB7DEB72B970FB6F894DEBFB3
S1131C900FBECDBFC29ABA980E94F00D60939D0307
S1131CA070939E0380939F039093A00381E090E040
S1131CB09A83898382E08B836C8380919F038D83D5
S1131CC0CE0101960E944E0C2B960FB6F894DEBFFF
S1131CD00FBECDBFDF91CF9108950E94FF0D6333F6
S1131CE07105B4F46E3CEFEF7E07A4F08E3C2FEF49
S1131CF0920794F0833391058CF49B012C5F3F4F42
S1131D002930310568F40496099760F085E0089558
S1131D1082E0089583E0089581E0089580E00895C5
S1131D2085E0089584E0089586B38170089586B3AC
S1131D3086958170089586B382FB882780F991E0A7
S1131D4089270895CF93DF93CDB7DEB72B970FB6CE
S1131D50F894DEBF0FBECDBF1A82198297E09B8331
S1131D608C8382E00E94DF0B8D8381E00E94DF0B75
S1131D708E830E94310E6F8388870E94940E898718
S1131D800E94970E8A87CE0101960E944E0C2B96D4
S1131D900FB6F894DEBF0FBECDBFDF91CF9108958B
S1131DA0CF93DF93CDB7DEB760970FB6F894DEBF5D
S1131DB00FBECDBF0E94881685B7806885BF80B7E7
S1131DC0806280BF85B7806485BF86B7826086BF26
S1131DD08E9A8F9A319ABE98BF9887B387BB0E9418
S1131DE0D30B0E9448140E94ED0B0E94400E0E94E7
S1131DF0FB0F0E94B6111D82D12CCC24C394DD208C
S1131E0021F021E0D216A1F1FACF0E946D0E182F15
S1131E108FEF9FE721E0815090402040E1F700C020
S1131E2000C00E946D0E811751F380E090EF01977E
S1131E30F1F70E946D0E182F0E941B121230F9F652
S1131E40BE016B5F7F4FCE0101960E947F128D8190
S1131E508130A9F669817A818B819C810E94EA0C88
S1131E600E946C120E9424140E942616DC2CC7CFF8
S1131E700E946D0E0E94A20ECE0106960E94000CD6
S1131E808E819F81039769F4EE80FF800885198510
S1131E902A853B854C855D856E857F8588890E9472
S1131EA00B0D8E819F81049709F0A9CFEE80FF80EE
S1131EB0088519852A853B854C855D856E857F85DA
S1131EC088890E94440D6C2D86E00E94AF1386E43D
S1131ED091E00E94C2136AE087E00E94AF1387E595
S1131EE091E00E94C2130E94970E811108C00E94C3
S1131EF0940E811104C00E949B0E8823A1F30E94BA
S1131F006C121D82D12C7BCFCF93C82F80E00E940E
S1131F107A1683E00E9469168C2F0E9469160E942B
S1131F206D16C82F81E00E947A168C2FCF910895E8
S1131F30CF93DF93D82FC62F80E00E947A1682E0D9
S1131F400E9469168D2F0E9469168C2F0E946916B3
S1131F5081E00E947A16DF91CF910895CF93C82F24
S1131F6080E00E947A168FE78C0F823020F0C4380C
S1131F7011F0C73821F48C2F0E9469160CC00E94FE
S1131F8026162AE230E58EEF90E021503040804062
S1131F909040D9F7000081E00E947A16CF9108950D
S1131FA01F93CF93DF93182FD62FC42F80E00E9466
S1131FB07A1685E00E946916812F0E9469168D2F7A
S1131FC00E9469168C2F0E94691681E00E947A167D
S1131FD0DF91CF911F91089580E00E947A1680ECE2
S1131FE00E94691681E00E947A1608950E94721672
S1131FF00E94EC0F08956F927F928F929F92AF92FE
S1132000BF92CF92DF92EF92FF920F931F93CF93E1
S1132010DF930F2EFCE86F2EF3E07F2EF02D85E684
S113202091E0D3018D939C9310928F0310928E03B1
S1132030CBE7D3E0D0939303C09392038AE693E073
S11320409093950380939403E9E5F3E0F093970369
S1132050E093960344E053E050939903409398032C
S113206024E020939C032EE631E039832883709288
S11320707E0360927D0307E313E0109382030093D1
S1132080810366E273E0709384036093830325E124
S113209033E030938603209385030F2EF3E09F2EC5
S11320A0F02D90928B030F2EF7E7EF2EF1E0FF2E29
S11320B0F02DD801ED92FC92D0933A03C0933903EA
S11320C0109247030CE711E0DB010D931C93D093AE
S11320D02903C09328031092360363E871E0D90101
S11320E06D937C93D0931803C09317031092250328
S11320F028E831E0DC012D933C9370926D036092EB
S11321006C0310927A0384E991E091838083709246
S11321105C0360925B0323EF32E03093600320930F
S11321205F0360EC72E07093620360936103CFEA33
S1132130D2E0D0936403C09363038EE992E090935A
S113214066038093650308E312E010936803009329
S113215067030F2EF5E0FF2EF02DF09269030F2E8A
S1132160FCE9EF2EF1E0FF2EF02DD901ED92FC9267
S1132170F093F602E093F5020F2EF2EECF2EF2E08A
S1132180DF2EF02DD092FA02C092F9020F2EF1ED5B
S1132190EF2EF2E0FF2EF02DF092FC02E092FB0213
S11321A06894882481F8809203030F2EFBEAAF2EF3
S11321B0F1E0BF2EF02DD601AD92BC923093E50232
S11321C02093E4021092F2020F2EF1EBCF2EF1E0F5
S11321D0DF2EF02DD701CD92DC923093D4022093E0
S11321E0D3021092E1022AEB31E039832883F09381
S11321F0B202E093B1020F2EFCE7CF2EF2E0DF2E05
S1132200F02DD092B602C092B5020F2EFDE8EF2E4B
S1132210F2E0FF2EF02DF092B802E092B7022BE626
S113222032E03093BA022093B9029092BF020F2E8B
S1132230F8ECAF2EF1E0BF2EF02DD601AD92BC929A
S1132240D0937F02C0937E0210928C020F2EF9ED80
S1132250CF2EF1E0DF2EF02DD701CD92DC92D0937A
S11322609002C0938F0210929D020F2EF2EDEF2E7A
S1132270F1E0FF2EF02DD901ED92FC92D0936E0285
S1132280C0936D0210927B022EED31E0DC012D93A0
S11322903C93F093A102E093A0022AE532E030934C
S11322A0A5022093A402C9E4D2E0D093A702C0936C
S11322B0A6028092AE020F2EFCEEEF2EF1E0FF2E6E
S11322C0F02DD901ED92FC9290935D0280935C0213
S11322D010926A0220EF31E03983288390934C02F4
S11322E080934B021092590289EF91E0D8018D93AB
S11322F09C93F0933B02E0933A021092480285E0EB
S113230092E0DB018D939C93F093C302E093C202AD
S11323101092D0028BE092E0FA0191838083709254
S11323200703609206031092140381E1F301A8E409
S1132330B3E001900D928A95E1F760E081E00E949C
S1132340AF1381E08093A10384E20E946B13DF91B9
S1132350CF911F910F91FF90EF90DF90CF90BF909E
S1132360AF909F908F907F906F900895EF92FF921F
S11323700F931F93CF93DF936AE080E00E94AF1323
S113238083E192E00E94C213809148039091490333
S11323900E94C21383E192E00E94C2138091580309
S11323A090E001960297F4F00EE413E0C1E0D0E06F
S11323B00F2EF8E5EF2EF3E0FF2EF02D6AE08C2FC0
S11323C00E94AF13D801ED91FD918D01808191811F
S11323D00E94C2132196F701808190E00196C817EC
S11323E0D90764F3DF91CF911F910F91FF90EF9084
S11323F0089560E00E94AF1384E20E946B13089575
S113240060E00E94AF130E9460130895E0914A03B4
S1132410F0914B0381E1A8E4B3E001900D928A9519
S1132420E1F70E9424140E94B61181E08093A10375
S11324300E94F911089581110FC08091A103823087
S113244008F449C00E9400128091A1038150809336
S1132450A1030E94F9110895813081F48091A103B0
S1132460909158038917B8F50E9400128091A10336
S11324708F5F8093A1030E94F9110895823009F5BA
S1132480E091A103809158038E1728F1EE2319F1EE
S1132490F0E0EE0FFF1FE45BFC4F0190F081E02DB4
S11324A081E1A8E4B3E001900D928A95E1F70E94DE
S11324B024140E94B61181E08093A1030E94F911B3
S11324C00895833041F480914A0390914B03892B02
S11324D011F00E940612089581E1ECE8F3E0A8E40B
S11324E0B3E001900D928A95E1F70E9424140E94B2
S11324F0B61181E08093A1030E94F9110895EF922F
S1132500FF920F931F93CF93DF93CDB7DEB72B9733
S11325100FB6F894DEBF0FBECDBF8C017B01809156
S113252058038111C0C08091480390914903885891
S1132530914011F40E94C70D809148039091490382
S11325408757914029F4F801118281E0F7018083D3
S113255080914803909149038C57914029F481E07C
S1132560F8018183F70180838091480390914903A6
S11325708358914031F482E0F801818381E0F701CE
S113258080838091480390914903895F914021F4AD
S11325900E94960C0E946C1280914803909149030A
S11325A08550924059F486E090E09A83898381E0D3
S11325B08B831C82CE0101960E944E0C80914803AD
S11325C0909149038B50924079F40E94241485E041
S11325D090E09A83898381E08B831C82CE010196EB
S11325E00E944E0C0E94F915809148039091490372
S11325F08B5A914039F481E0F80180830E940612DD
S11326000E9406128091480390914903815B914096
S113261031F4F80110820E9406120E940612809181
S1132620480390914903885C914031F4F801128287
S11326300E9406120E940612809148039091490359
S1132640895D914039F481E0F80182830E94061289
S11326500E9406128091480390914903825D914043
S113266039F482E0F80182830E9406120E94061265
S113267080914803909149038C5E914031F4F801B4
S113268013820E9406120E940612809148039091C0
S11326904903805F914039F481E0F80183830E940B
S11326A006120E9406122B960FB6F894DEBF0FBED8
S11326B0CDBFDF91CF911F910F91FF90EF900895BF
S11326C088E090E0E0910801F091090110820197FF
S11326D00097C1F7089528E0829FC0011124FC01EE
S11326E0E059FC4E20E030E08491A0910801B091C3
S11326F009018C938091A2038F5F8093A2032F5FC3
S11327003F4F31962830310579F708958093A3031C
S11327108055E0910A01F0910B0180830895809324
S1132720A203803160F4E0910A01F0910B018083EF
S1132730E0910A01F0910B0180E180830895982FC4
S11327409F70E0910A01F0910B01908382958F7044
S1132750805FE0910A01F0910B0180830895CF938B
S1132760C82F862F0E948F138C2F0E948613CF911F
S113277008951092A2031092A30360E080E00E94E7
S1132780AF130895EF92FF920F931F93CF93DF93AC
S11327908C017C01C0E0D0E019C08091A2038A378B
S11327A078F08091A3038F5F0E94861380E00E94DB
S11327B08F138091A303883019F40E94B91310C0B9
S11327C0F70181917F010E946B132196F80101901A
S11327D00020E9F73197E01BF10BCE17DF07E8F291
S11327E0DF91CF911F910F91FF90EF9008950F9378
S11327F01F93CF93DF93CDB7DEB72A970FB6F89424
S1132800DEBF0FBECDBF9F938F9385E291E09F9370
S11328108F938E010F5F1F4F1F930F930E94091711
S1132820C8010E94C2130F900F900F900F900F9049
S11328300F902A960FB6F894DEBF0FBECDBFDF917E
S1132840CF911F910F9108951F93CF93DF9360E071
S113285080E00E94AF13C0E010E8D0E08C2F0E940B
S11328608613212F3D2FE0910801F0910901108278
S11328702150310921153105B1F7CF5FC83071F707
S113288060E080E00E94AF13DF91CF911F91089523
S1132890E0910A01F0910B018EEA8083E0910A0134
S11328A0F0910B0181EA8083E0910A01F0910B0120
S11328B08AED8083E0910A01F0910B0182E180832B
S11328C0E0910A01F0910B0188EC8083E0910A0108
S11328D0F0910B0188EA8083E0910A01F0910B01E9
S11328E08FE38083E0910A01F0910B0185ED8083F1
S11328F0E0910A01F0910B0180E88083E0910A01E4
S1132900F0910B0181E88083E0910A01F0910B01C1
S113291080E58083E0910A01F0910B0189ED8083C9
S1132920E0910A01F0910B0181E28083E0910A01B8
S1132930F0910B0180E28083E0910A01F0910B0198
S113294082E08083E0910A01F0910B018BED80839A
S1132950E0910A01F0910B0180E38083E0910A0188
S1132960F0910B018DEA8083E0910A01F0910B0153
S11329701082E0910A01F0910B0184EA8083E091D6
S11329800A01F0910B0186EA8083E0910A01F0913B
S11329900B018FEA80830E9424140895CF93DF9360
S11329A0EC016CE282E00E94AF1385E192E00E94A8
S11329B0C2136CE283E00E94AF130E9460130E9472
S11329C060130E9460130E9460130E9460136CE203
S11329D083E00E94AF13CE010E94F713DF91CF91E1
S11329E008950F931F93CF93DF930E94241480E0E4
S11329F00E948F13C0E8D0E000E010E026C0F90187
S1132A00E80FF91FE491A0910801B0910901EC933A
S1132A1001968830910599F7485F5F4F4C175D0721
S1132A2031F0802F912F9A012059374FE8CF8091B0
S1132A30A3038F5F0E94861380E00E948F13C05807
S1132A40DF4FC03884E0D80721F0AE014058510967
S1132A50E8CF0E94B9138DE192E00E94C213DF9186
S1132A60CF911F910F9108950F931F93CF93DF93ED
S1132A700E94241480E00E948F13C0E8D0E000E09C
S1132A8010E026C0F901E80FF91FE491A0910801B4
S1132A90B0910901EC9301968830910599F7485F4C
S1132AA05F4F4C175D0731F0802F912F9A01205909
S1132AB0334FE8CF8091A3038F5F0E94861380E099
S1132AC00E948F13C058DF4FC03884E0D80721F02C
S1132AD0AE0140585109E8CF0E94B91383E292E055
S1132AE00E94C213DF91CF911F910F9108950F930C
S1132AF01F93CF93DF930E94241480E00E948F13CE
S1132B00C0E8D0E000E010E026C0F901E80FF91FAA
S1132B10E491A0910801B0910901EC9301968830E9
S1132B20910599F7485F5F4F4C175D0731F0802F8F
S1132B30912F9A0120593F4FE8CF8091A3038F5FD3
S1132B400E94861380E00E948F13C058DF4FC03864
S1132B5084E0D80721F0AE0140585109E8CF0E9423
S1132B60B9138AE292E00E94C213DF91CF911F91C0
S1132B700F9108950F931F93CF93DF930E94241412
S1132B8080E00E948F13C0E8D0E000E010E026C08F
S1132B90F901E80FF91FE491A0910801B09109012E
S1132BA0EC9301968830910599F7485F5F4F4C1775
S1132BB05D0731F0802F912F9A0120593B4FE8CFC8
S1132BC08091A3038F5F0E94861380E00E948F137D
S1132BD0C058DF4FC03884E0D80721F0AE01405818
S1132BE05109E8CF0E94B913DF91CF911F910F9142
S1132BF008950E94BA152FE784E89EE12150804091
S1132C009040E1F700C000000E9477152FE784E8A8
S1132C109EE1215080409040E1F700C000000E94F6
S1132C20F1142FE784E89EE1215080409040E1F7C1
S1132C3000C000000E9434152FE784E89EE1215073
S1132C4080409040E1F700C0000008950F931F9367
S1132C50CF93DF930E94241480E00E948F13C0E876
S1132C60D0E000E010E026C0F901E80FF91FE4917C
S1132C70A0910801B0910901EC9301968830910567
S1132C8099F7485F5F4F4C175D0731F0802F912F04
S1132C909A0120593F4EE8CF8091A3038F5F0E9491
S1132CA0861380E00E948F13C058DF4FC03884E041
S1132CB0D80721F0AE0140585109E8CF0E94B9135A
S1132CC082E392E00E94C213DF91CF911F910F9192
S1132CD008958FB9779BFECF08951FB8779BFECFD9
S1132CE08FB10895BD9ABF9ABC9ABE988DB1816583
S1132CF08DB90895811102C0C4980895C49A0895A5
S1132D005F9BFECF8CB108955D9BFECF8CB9089577
S1132D108FE189B910BC88E18AB986E880BD60E892
S1132D2076E184E896E10E94BE16089597FB072E8B
S1132D3016F4009407D077FD09D00E94AA1607FC68
S1132D4005D03EF4909581959F4F089570956195B7
S1132D507F4F0895AA1BBB1B51E107C0AA1FBB1FCD
S1132D60A617B70710F0A61BB70B881F991F5A9513
S1132D70A9F780959095BC01CD0108950F931F93F9
S1132D80CF93DF93EC018B01009731F4611571054A
S1132D9019F480E090E038C06EE070E081E090E0EB
S1132DA00E94FD18FC010097A1F380E883830115BC
S1132DB0110571F01387028781E883838091A4034E
S1132DC09091A503892B21F4F093A503E093A40328
S1132DD02097C9F0D187C0878381826083838091E3
S1132DE0A6039091A703892B71F4F093A703E093B2
S1132DF0A6038091A8039091A903892B21F4F09351
S1132E00A903E093A803CF01DF91CF911F910F9104
S1132E100895AEE0B0E0EFE0F7E10C94FB1A0D8901
S1132E201E8986E08C831A8309838FEF9FE79E8334
S1132E308D83AE01475E5F4F6F89788DCE01019619
S1132E400E942B17EF81F885E00FF11F10822E9658
S1132E50E4E00C94171BACE0B0E0E1E3F7E10C9480
S1132E60ED1A7C016B018A01FC01178216828381B1
S1132E7081FFBDC1CE0101964C01F7019381F6019A
S1132E8093FD859193FF81916F01882309F4ABC170
S1132E90853239F493FD859193FF81916F018532D9
S1132EA029F4B70190E00E945D1AE7CF512C312C30
S1132EB020E02032A0F48B3269F030F4803259F0F3
S1132EC0833269F420612CC08D3239F0803339F4B7
S1132ED0216026C02260246023C0286021C027FD11
S1132EE027C030ED380F3A3078F426FF06C0FAE0F8
S1132EF05F9E300D1124532E13C08AE0389E300D8E
S1132F001124332E20620CC08E3221F426FD6BC1B5
S1132F10206406C08C3611F4206802C0883641F45F
S1132F20F60193FD859193FF81916F018111C1CFCA
S1132F30982F9F7D9554933028F40C5F1F4FFFE327
S1132F40F9830DC0833631F0833771F0833509F08E
S1132F505BC022C0F801808189830E5F1F4F442427
S1132F604394512C540115C03801F2E06F0E711CCA
S1132F70F801A080B18026FF03C0652D70E002C077
S1132F806FEF7FEFC5012C870E94521A2C01830139
S1132F902C852F77222E17C03801F2E06F0E711C9A
S1132FA0F801A080B18026FF03C0652D70E002C047
S1132FB06FEF7FEFC5012C870E94401A2C012C85EE
S1132FC02068222E830123FC1BC0832D90E0481629
S1132FD05906B0F4B70180E290E00E945D1A3A9479
S1132FE0F4CFF50127FC859127FE81915F01B7019C
S1132FF090E00E945D1A31103A94F1E04F1A5108A2
S11330004114510471F7E5C0843611F0893639F55D
S1133010F80127FF07C060817181828193810C5F71
S11330201F4F08C060817181882777FD8095982F94
S11330300E5F1F4F2F76B22E97FF09C09095809593
S1133040709561957F4F8F4F9F4F2068B22E2AE075
S113305030E0A4010E948F1AA82EA81844C0853716
S113306029F42F7EB22E2AE030E025C0F22FF97F1A
S1133070BF2E8F36C1F018F4883579F0B4C080378C
S113308019F0883721F0AFC02F2F2061B22EB4FE83
S11330900DC08B2D8460B82E09C024FF0AC09F2F59
S11330A09660B92E06C028E030E005C020E130E08B
S11330B002C020E132E0F801B7FE07C060817181EF
S11330C0828193810C5F1F4F06C06081718180E013
S11330D090E00E5F1F4FA4010E948F1AA82EA8181B
S11330E0FB2DFF77BF2EB6FE0BC02B2D2E7FA51414
S11330F050F4B4FE0AC0B2FC08C02B2D2E7E05C0CD
S11331007A2C2B2D03C07A2C01C0752C24FF0DC002
S1133110FE01EA0DF11D8081803311F4297E09C07E
S113312022FF06C07394739404C0822F867809F03A
S1133130739423FD13C020FF06C05A2C731418F493
S1133140530C5718732C731468F4B70180E290E0A1
S11331502C870E945D1A73942C85F5CF731410F498
S1133160371801C0312C24FF12C0B70180E390E06E
S11331702C870E945D1A2C8522FF17C021FF03C0F3
S113318088E590E002C088E790E0B7010CC0822F88
S1133190867859F021FD02C080E201C08BE227FD50
S11331A08DE2B70190E00E945D1AA51438F4B701CE
S11331B080E390E00E945D1A5A94F7CFAA94F40138
S11331C0EA0DF11D8081B70190E00E945D1AA11003
S11331D0F5CF332009F451CEB70180E290E00E948C
S11331E05D1A3A94F6CFF7018681978102C08FEF7A
S11331F09FEF2C96E2E10C94091B0F931F93CF933E
S1133200DF93869F8001879F100D969F100D1124D8
S1133210C8010E941919EC01009729F0A80160E087
S113322070E00E944B1ACE01DF91CF911F910F9154
S11332300895CF93DF938230910510F482E090E0FB
S1133240E091AC03F091AD0320E030E0A0E0B0E009
S1133250309739F14081518148175907B8F0481720
S1133260590771F482819381109729F013969C93E6
S11332708E9312972CC09093AD038093AC0327C018
S11332802115310531F04217530718F0A901DB016C
S113329001C0EF019A01BD01DF010280F381E02D3D
S11332A0D7CF21153105F9F0281B390B243031050E
S11332B080F48A819B816115710521F0FB01938360
S11332C0828304C09093AD038093AC03FE013296D5
S11332D044C0FE01E20FF31F819391932250310900
S11332E0398328833AC02091AA033091AB03232B5E
S11332F041F420910201309103013093AB032093F8
S1133300AA0320910001309101012115310541F4F6
S11333102DB73EB74091040150910501241B350B94
S1133320E091AA03F091AB03E217F307A0F42E1B7C
S11333303F0B2817390778F0AC014E5F5F4F241715
S1133340350748F04E0F5F1F5093AB034093AA0319
S11333508193919302C0E0E0F0E0CF01DF91CF913F
S11333600895CF93DF93009709F487C0FC01329747
S113337013821282C091AC03D091AD03209781F4E3
S113338020813181280F391F8091AA039091AB03CA
S11333908217930779F5F093AB03E093AA036DC00A
S11333A0DE0120E030E0AE17BF0750F412964D91D5
S11333B05C9113979D014115510509F1DA01F3CF91
S11333C0B383A28340815181840F951F8A179B0781
S11333D071F48D919C911197840F951F029691839E
S11333E0808312968D919C911397938382832115E8
S11333F0310529F4F093AD03E093AC033EC0D90149
S11334001396FC93EE9312974D915D91A40FB51F03
S1133410EA17FB0779F480819181840F951F029646
S1133420D90111969C938E938281938113969C93D8
S11334308E931297E0E0F0E08A819B81009719F067
S1133440FE01EC01F9CFCE01029628813981820F69
S1133450931F2091AA033091AB032817390769F40D
S1133460309729F41092AD031092AC0302C013827A
S11334701282D093AB03C093AA03DF91CF91089536
S1133480FC010590615070400110D8F7809590952B
S11334908E0F9F1F0895DC0101C06D934150504071
S11334A0E0F70895FC016150704001900110D8F7D5
S11334B0809590958E0F9F1F08950F931F93CF9320
S11334C0DF93182F092FEB018B8181FD03C08FEF50
S11334D09FEF20C082FF10C04E815F812C813D810F
S11334E0421753077CF4E881F9819F012F5F3F4F16
S11334F039832883108306C0E885F985812F0995CF
S1133500892B29F72E813F812F5F3F4F3F832E83E5
S1133510812F902FDF91CF911F910F910895FA0180
S1133520AA27283051F1203181F1E8946F936E7FFE
S11335306E5F7F4F8F4F9F4FAF4FB1E03ED0B4E0EF
S11335403CD0670F781F891F9A1FA11D680F791F30
S11335508A1F911DA11D6A0F711D811D911DA11D41
S113356020D009F468943F912AE0269F1124301951
S1133570305D3193DEF6CF010895462F4770405DEC
S11335804193B3E00FD0C9F7F6CF462F4F70405D9B
S11335904A3318F0495D31FD4052419302D0A9F7F6
S11335A0EACFB4E0A6959795879577956795BA95F0
S11335B0C9F700976105710508959B01AC010A2EB6
S11335C006945795479537952795BA95C9F7620F8D
S11335D0731F841F951FA01D08952F923F924F9231
S11335E05F926F927F928F929F92AF92BF92CF928F
S11335F0DF92EF92FF920F931F93CF93DF93CDB798
S1133600DEB7CA1BDB0B0FB6F894DEBF0FBECDBF0F
S113361009942A88398848885F846E847D848C84E0
S11336209B84AA84B984C884DF80EE80FD800C81E9
S11336301B81AA81B981CE0FD11D0FB6F894DEBFCC
S10F36400FBECDBFED010895F894FFCF3C
S113364C0000AE03200000140012001047414D4549
S113365C204F564552210046696E616C2053636FAE
S113366C72653A20002564004E4557204849474866
S113367C53434F524521004849474853434F524501
S113368C533A002E2000507265737320616E7920BA
S113369C627574746F6E00746F20676F20746F2082
S11336AC6D656E75004D61696E4D656E75004E6588
S11336BC772047616D650045617379004E6F726DBB
S11336CC616C004861726400486967682053636FD9
S11336DC726573004F7074696F6E7300436F6E7410
S11336EC726F6C6C65722073656C005370656564E5
S11336FC00506F736974696F6E00536F6C656E6FF5
S113370C6964204D6F64650053656D69204175745F
S113371C6F00546F67676C65204175746F00496E58
S113372C766572746564204D6F6465004E6F6E200F
S113373C496E7665727465640052657365742053C2
S113374C636F726500536F756E64004372656469D0
S113375C7473002A0073636F72653A2000427261BD
S113376C676500546F626961730048656E6E696EBB
S10B377C67005069673C33004B
S9030000FC
