:100000000C94B40B0C94D10B0C94D10B0C94D10B1D
:100010000C94D10B0C94D10B0C94D10B0C94D10BF0
:100020000C94D10B0C94D10B0C94D10B0C94D10BE0
:100030000C94D10B0C94D10B0C94D10B0C94D10BD0
:100040000C94D10B0C94D10B0C94D10B0C94D10BC0
:100050000C94D10B0C94D10B0C94D10B0C94D10BB0
:100060000C94D10B0C94D10B0C94D10B0C94D10BA0
:10007000000008000101000000000004060050C05C
:10008000C6C65252020201013030300000000000AA
:100090000000000000E0F0F0E0E0E0C0C080808000
:1000A0000000000000000000000000000000000050
:1000B0000000000000000000000000000000000040
:1000C0000000000000000000000000000000000030
:1000D0000000000000000000000000000000000020
:1000E0000000000000000000E0F0F0F0E4E4E4F4C0
:1000F00010000000000000040400000363E3E36359
:10010000020B6B63E0FCFEFFE7E3F3F2FCF0E08040
:1001100000000000C0FFFFFFFFFFFFFFFFFFFFFF2A
:10012000FFFEEEC3C1C0E0E0E0E060404000000040
:1001300000000000000080C080C0E0F8F8F000007F
:1001400000000000000000000000000000000000AF
:10015000000000000000000000000000000000009F
:100160000000C0C0E0F0F8FCFFFFFFFFFFFFFFFF53
:10017000000C1C781C1C2C0C0C04000000014341DA
:100180001C1C0C087FFFFFFFFFFFFFFFC3E3F1F321
:10019000FFFEFCFCFFFFFFFFFFFFFFFFFFFFFFFF76
:1001A000FFFFFFFFFFFFFFFFFFFEFCFCFCFCFCFC72
:1001B000FCFCFCFEFEFEFFFFFFFFFFFF7F070000D1
:1001C000000000000000C0C0C0808080000000006F
:1001D000000000000000000000000000000000001F
:1001E00000087FFFFFFFFFFFFFFFFFFFFFFFFF7F15
:1001F0000000303100000000320200000008000062
:100200000000008080C7DFFFFFFFFFFFFFFFFFFF51
:10021000FFFFFFFFFFFFFFFFFFFFFFFFFFFFFFFFEE
:10022000FFFFFFFFFF7F3F3F1F0F0F8787C7E3F3EE
:100230007F3F3F3F3F3F3F3F3F3F3F3F3F1C00002F
:1002400000000000007EFFFFFFFFFFFFFFFFFFFF3A
:10025000FEFCFC2000000000000000000000000088
:100260000000181F1F1F0F0F0703030301000000EA
:1002700000081E7232000C5FFFDAC00000000000B0
:10028000B9FFBBB9BBFFB999BFBFBFBFBFBF9F9F7E
:10029000FFFFF7FFFFFFFFFFFFFFFFFFFFFBF1FF88
:1002A000FFFFE7E1F0F87C3E3E3F7F7F7F7F3F3FEF
:1002B0007F7E7C7C7C7870E0C0C0C0C0C000000045
:1002C0000000000000003061C3870F0F0F1F1F0FD9
:1002D0000F07000000000000000000000000000008
:1002E000000000000000000000000000000000000E
:1002F0000000006626068486C7C7C3010000000010
:10030000337FFFFB3BFFFFFBFBFFFBBBFFFFBB3B69
:10031000FFFFFFFFFFFFFFFFFFFF9F1F3F7FFFFF6D
:10032000FFFFFFFFFFFFFEFEFEFEFEFEFCFCFCFCEF
:10033000FCFCFCFCFCFCF8E8E0C0C0C08000000055
:10034000000000000000000000C1C3000000000029
:10035000000000000000000000000000000000009D
:10036000000000000000000000000000000000008D
:10037000000020010171F1F0F0F0F0707000E0E099
:10038000A387870707070707070707070307C7F3B9
:10039000FFFFFFFFFFFFFFFFFFFDC1040800010F8C
:1003A0003F7FFFFFFFFFFFFFFFFFFFFFFFFFFFFF9D
:1003B000FFFFFFFFFFFFFFFDF9F9F8F8F8F8F0E0A5
:1003C000C0C0C000000000000000000000000000ED
:1003D000000000808000800000000000000000009D
:1003E000000000000000000000000000000000000D
:1003F000000004070783818183CBCB030B080C0F1C
:1004000003010100000000000000000078FEFFFF73
:10041000FFFFFFFFFFFFFFFFFFFFFFFFFEFCF8F006
:10042000E0C000000101030303030307070F0F0FE0
:100430000F1F1F1F1F1F1F1F1F1F0F0F070303016A
:1004400001010000000000000000000000000000AA
:10045000040002070300000000000000000000008C
:10046000000000000000000000000080C0C000008C
:10047000FFFFFFFFFFFFFFFFFF3F3F3F3F1F1F1F2C
:100480000F0F0F0F0707070707070707070F0F1FB4
:100490001F3F3F7F7FFFFFFFFFFFFFFFFFFFFFFFCC
:1004A000FF7F7F3F3F1F1F1F1F1F1F3F3F7F7FFF9C
:1004B000FFFFFFFFFF7F7F7F3F3F1F1F1F0F0F0FBC
:1004C0000F0F0F0F0F0F0F0F0F1F1F1F1F1F1F3FAC
:1004D0003F3F3F3F3F1F1F1F0F0F0707070707073C
:1004E0000F0F1F3F7FFFFFFFFFFFFFFFFFFFFFFF1C
:1004F000FFFFFFFFFFFFFFFFFFFFFEFCF8F8F0F03C
:10050000F0F8F8F8FCFCFCFCFEFEFEFEFEFEFEFE33
:10051000FEFCFCF8F8F0F0E1E1C1C181818181804D
:10052000808080C0C0C0E0F0F0F0F8F8F8F8F8F093
:10053000F0E0C0C0C0C0C0C0C0E0E06070F0F8F83B
:10054000F8F8FCFCFCFCFCFCFCFCFCFCFCF8F8F8FF
:10055000F8F8F8F0F0F0F0F0F0F8F8F8FCFCFCFE39
:10056000FEFEFEFCFCFCFDFFFFFFFFFFFFFFFFFFA9
:10057000FFFFFFFFFFFFFF7F3F1F0F07C3E3E1F117
:10058000F1F1F1C18080C3FFFFFFFFFFFFFFFFFF1D
:10059000FFFFFFFFFFFFFFFFFFFFFFFFFFFFFFFF6B
:1005A000FFFFFFFFFFFFFFFFFFFFFFFFFFFFFFFF5B
:1005B000FFFFFFFFFFFFFFFFFFFF000000FFFFFF48
:1005C000FFFFFFE3E3E3F7FFFFFFFFFFFFFFFF0F87
:1005D00007071FFFFFFFFFFFFFFFFFFFFFFFFFFFFB
:1005E000FFFFFFFFFFFFFFFFFFFFFFFFFFFFFFFF1B
:1005F000FFFFFFFF1F070180F0FCFEFFFFFFFFFF73
:10060000FFFFFFFFFFFFFFFFFF0301010787C3E3BA
:10061000E1F1F1010103FFFFFF3F0F0783E3E1F188
:10062000F1717131210307CFFFFFFFFF7F1F0F879C
:10063000C3E3F1F1F1F1F1E1C3070000F8FFFFFFBF
:10064000FFFF03010103FFFFFFFFF9F1F1F1F100EB
:10065000000000F1F1F1F1F1FFFFFF3F0F0F07C7BD
:10066000E7E3E3F3F1C18181CFFFFFFFFFFFFFFF6E
:10067000FFFFFFFFC000001F3F7FFFFFFFFF7F7FE7
:100680003F3F1F0F0F9FFFFFFF000000FFFFFFFF17
:10069000FFFFFFFEFEFEFFFFF7800002237171F8EF
:1006A000F8FCFCFE7E7F3F1F1FFFFFFFC000001F06
:1006B0003F7FFFFFFFFFFF7F3F0000003FFFFFFF87
:1006C000FFFF00000000FFFFFFFFFFFFFFFFFFF83D
:1006D000000000FFFFFFFFFFFFFF3F3E7C78F8F8C0
:1006E000F8F8F0F16103030FFFFFFFFFFFFFFFFFCB
:1006F000FFFFFFFFFFFFFEFCFCF8F8F87838381C1E
:100700001C1C0E0F0F0F0F1F3F7CF8F8FFFFFFFFA1
:10071000FFFFFFFFFFFFFFFFFFFFFEFEFCFCF8F8FF
:10072000F8F8F8F8F8FCFCFEFFFFFFFFFFFFFEFC07
:10073000FCF8F8F8F8F8F8F8FCFCF8F8FCFFFFFF14
:10074000FFFFFCF8F8FCFFFFFFFFFFFFFFFFFFFDCF
:10075000F8F8FCFFFFFFFFFFFFFFFEFCFCF8F8F8D6
:10076000F8F8F8F8FCFCFEFFFFFFFFFFFFFFFFFFBC
:10077000FFFFFFFFFFFF3F0F0703010000000080A6
:10078000C0E0F0F0F8F8FCFCFCFCF8F1E3E7C78F00
:100790000F1F3F7F7FFFFFFFFFFFFFFFFFFFFF7F79
:1007A0003F3F1F1F1F0F0F0F0F0F0F0F0F0F0F0FC9
:1007B0001F1F3F3F3F3F3F3F1F1F0F0F0F07070305
:1007C00003030303030307070F1F1F1F3F3F3F3FA1
:1007D0003F3F3F3F1F1F1F1F0F0F07070303030369
:1007E000030303070F1F3F7FFFFFFFFFFFFFFFFF15
:1007F000FFFFFFFFFFFFFEFCF8F0F0E0F8FEFFFF59
:10080000FFFFFFFFFFFFFFFFFFFFFFFFFFFFFFFFF8
:10081000FFFEFEFCF8F0E0E1C1C1818181808080B3
:1008200080C0C0E0E0F0F0F8F8FCFCFCFCFCFCFC54
:10083000FCFCFCF8F8F8F0F0F0F0F0F0F0F8FCFC5C
:10084000FCFEFEFFFFFFFFFFFFFEFEFEFCF8F8F8D8
:10085000F0F0F0F0F0F0F0F0F8F8F8F8FCFCFEFE44
:10086000FFFFFFFFFFFFFFFFFFFFFFFFFFFFFFFF98
:10087000FFFFFFFFFFFFFFFFFFFFFFFFFFFFFFFF88
:10088000FFFFFFFFFFFFFFFFFFFFFFFF3F1F1F0FE8
:100890001F9F5F5F7F3F3FBFBF7F7F7F3F3FBFBFE8
:1008A000FFFFFFFFFFFFFFFFFFFFFFFFFFFFFFFF58
:1008B000FCFCFCF8F8F0F0F0FCFCF8F9F9FBF2F6BF
:1008C000F4F0E0C0C0C0C0C0800000000000010320
:1008D000071F7FFFFFFFFFFFFFFFFFFFFFFFFFFF80
:1008E000FFFFFFFFFFFFFFFFFFFFFFFFFFFFFFFF18
:1008F000FFFFFFFFFFFFFFFFFFFFFFFFFFFFFFFF08
:10090000FFFFFFFFFFFFFFFFFFFF81000000000070
:10091000000000000080C0F0F8FCFCFEFEFFFFFFBE
:10092000FFFFFFFFFFFFFFFFFFFFFFFFFFFFFFFFD7
:10093000FFFFFFFFFFFFFFFFFFFFFFFFFFFFFFFFC7
:10094000FFFF7F7F3F7FFFFFFFFCF0F0F000180309
:100950000000066F1F3FFFFFFFFFFFFFFFFFFFFFCE
:10096000FFFFFFFFFFFFFFFFFFFFFFFFFFFFFFFF97
:10097000FFFFFFFFFFFFFFFFFFFFFFFFFFFFFFFF87
:10098000FFFFFFFFFFFFFFFFFFFFFFFFFC00000077
:100990000000000CFFFFFFFFFFFFFFFFFFFFFFFF57
:1009A000FFFFFFFFFFFFFFFFFFFFFFFFFFFFFFFF57
:1009B000FFFFFFFFFFFFFFFFFFFFFFFFFFFFFFFF47
:1009C000FFFBE000000065474F3FFFEF3E180000CF
:1009D00000000000001C7FFFFFFFFFFFFFFFFFFF85
:1009E000FFFFFFFFFFFFFFFFFFFFFFFFFFFFFFFF17
:1009F000FFFFFFFFFFFFFFFFFFFFFFFFFFFFFFFF07
:100A0000FFFFFFFFFFFFFFFFFFFFFFFFFFF0C080C3
:100A10003E04C0F0FBDF9F9F9F9F9F9FDFCB8B8398
:100A20008383C7E7CFCFDFFFFFFFFFFFFFFFFFEFAE
:100A3000E7E3E1E1F0F9F3E3E3E3E3F3F3F3F3F303
:100A4000F3F3F3FEFEFEF8C0E020071F1C787030C1
:100A5000000000000000F0FFFFFFFFFFFFFFFFFFAF
:100A6000FFFFFFFFFFFFFFFFFFFFFFFFFFFFFFFF96
:100A7000FFFFFFFFFFFFFFFFFFFFFFFFFFFFFFFF86
:100A8000FFFFFFFFFFFFFFFFFFFFFFFFFFFFFFFF76
:100A9000FEFEFFFFFFFFFFFFFFFFFFFFFFFFFFFF68
:100AA000FFFFFFFFFFFFFFFFFFFFFFFFFFFFFFFF56
:100AB000FFFFFFFF7F3FFFFFFFFFFFFFFFFFFFFF86
:100AC000FFFFFFFFFFFFFFFF7F1800000000202057
:100AD0002010000080F8F8FFFFFFFFFFFFFFFFFF7F
:100AE000FFFFFFFFFFFFFFFFFFFFFFFFFFFFFFFF16
:100AF000FFFFFFFFFFFFFFFFFFFFFFFFFFFFFFFF06
:100B0000FFFFFFFFFFFFFFFFFFFFFFFFFFFFFFFFF5
:100B1000FFFFFFFFFFFFCF9F9FFFFFFFFFFFFFFFD5
:100B2000FF7FFFFFFFFFF3F3F3E7E7E7E7E7E3F319
:100B3000F37179797C7E7F3F3F3F3F3FBFFFFBFFF3
:100B4000FFFFFFFFFFE7FDFDFC0000E0FCFCFCF801
:100B5000F8FCFEFFFFFFFFFFFFFFFFFFFFFFFFFFB0
:100B6000FFFFFFFFFFFFFFFFFFFFFFFFFFFFFFFF95
:100B7000FFFFFFFFFFFFFFFFFFFFFFFFFFFFFFFF85
:100B8000FFFFFFFFFFFFFFFFFFFFFFFFFFFFFFFF75
:100B9000FFFFFFFFFFFFFFFFFFFFFFFFFFFFFFFF65
:100BA000FFFFFEFEFCFCFCFCFEFEFEFFFFFFFFFF66
:100BB000FFFFFFFFFFFDFFFEFEFEFFFFFFFFFFFF4A
:100BC000FFFFFFFFFF7F1F030080C3C1C0811F7FA6
:100BD0007F7F7FFFFFFFFFFFFFFFFFFFFFFFFFFFA5
:100BE000FFFFFFFFFFFFFFFFFFFFFFFFFFFFFFFF15
:100BF000FFFFFFFFFFFFFFFFFFFFFFFFFFFFFFFF05
:100C0000FFFFFFFFFFFFFFFFFFFFFFFFFFFFFFFFF4
:100C1000FFFFFFFFFFFFFFFFFFFFFFFFFFFFFFFFE4
:100C2000FFFFFFFFFFFFFF7F7F7F7F7FFFFFFFFF54
:100C3000FFFFFFFFFFFF7F7F7F3F3F3F1F1F0F072C
:100C40000383C1E0F0F8FCFEFFFFFFFFFFFFFEFCA7
:100C5000F0E0C080F9FFFFFFFFFFFFFFFFFFFFFF96
:100C6000FFFFFFFFFFFFFFFFFFFFFFFFFFFFFFFF94
:100C70000000000000000000000000000000000074
:100C80000000000000000000000000000000000064
:100C90000000000000000000000000000000000054
:100CA0000000000000000000000000000000000044
:100CB0000000000000000000000000000000000034
:100CC0000000000000000000000000000000000024
:100CD0000000000000000000000000000000000014
:100CE0000000000000000000000000000000008084
:100CF00000000000000000000000000000000000F4
:100D000000000000000000000000000000000000E3
:100D100000000000000000000000000000000000D3
:100D200000000000000000000000000000000000C3
:100D300000000000000000000000000000000000B3
:100D400000000000000000000000000000000000A3
:100D50000000000000000000000000000000000093
:100D6000000000000000000000000000000001037F
:100D70000000000000000000000000000000000073
:100D80000000000000000000000000000000000063
:100D90000000000000000000000000000000000053
:100DA0000000000000000000000000808000000043
:100DB00000008080000040404080808000000000F3
:100DC0000000000000000000000000000000000023
:100DD00000000000008080A06040000000000000D3
:100DE0000000000000000000000000000000000003
:100DF00000000000000000000000000000000000F3
:100E00000000000000000000000000387CFCF8F842
:100E1000F8F8F0F0F0F0F0F0F0F0F0F0F8F8F8F8A2
:100E2000FCFCFCFEFEFEFE7E7F3F3F3F9F9FDFEF10
:100E3000FFFFFFF7F7F770F07070F1E1E1E1E7E332
:100E4000E3E6C6C0C0800000000000000000000013
:100E500000F0F07C7CFFFFFFFFFFFFFEFC7800004E
:100E60000000000000000000000000000000000082
:100E70000000000000000000000000000000000072
:100E8000000000000000000000000000000103035B
:100E900003030303030307070707272F0F0F0F1F82
:100EA0007FFFFFFFFDFCFCFCF8F8F8F8F0F0F0E045
:100EB000F0F3F3FFFFFEFEFEFEFEFFFFFFFFFFFF6E
:100EC000FFFFFFFFFFFF3D000000000000000000EB
:100ED0000000070F0F0F0F0F0F07030100000000A6
:100EE0000000000000000000000000000000000002
:100EF00000000000000000000000000000000000F2
:100F000000000000000000000000000000000000E1
:100F1000000000061C1E3E3E3C7E7E7EFEFEFCE087
:100F2000809F9FBFBFBFBFBF9F9F9FFFFFFFFFF37C
:100F3000F3FFFFFFFFFFFFFFFFFFFFFFFFFFFFFFCD
:100F4000FFFFFFFFF7FCFEFFFFFFFFFFFFFEFEFEC0
:100F5000F8F0F0F8F8F8F8FCFCF8F0C00000000039
:100F60000000181000000000808000000000000059
:100F70000000000000000000000000000000000071
:100F80000000000000000000000000000000000061
:100F90000000000000000000000000000000000150
:100FA000010307070F0F0B0301010505070E0E0FC5
:100FB0000707878787C3E3E3F3F1F8FFFFFFFFFF2E
:100FC000FFFFFFFFFFFFFF7F3F7F7F3F1F1F8FCF91
:100FD000C7F7FFFFFFFFFFFFFFFFFFFFFFFEFCF074
:100FE000E0C0060EFFFFFFFFFFFFFFFFFFFFFFFF59
:100FF0008000000000000000000000000000000071
:1010000000000000000000000000000000000000E0
:1010100000000000000000000000000000000000D0
:1010200000000000000000000000000000000001BF
:10103000030307070707070F0F0F07070707070730
:1010400007070303313178787C7C7EFEFFFFFFFFCA
:10105000FFFFFFFFFFFFFFFFFFFFFFFFFFFFFFFFA0
:10106000FFFFFEFFFFFFFFFFFFFFDFFFFFFFFFFFB1
:10107000FFFFFFFFFFFFFF7F7FFFFFFFFFFFFFFF80
:10108000FFFFFFFFFFFFFFFFFFFFFFFFFFFFFFFF70
:10109000FFFFFFFFFF7F7F7F7F7F7F7F7F7F7F7FE0
:1010A0007F3F3F3F3F3F3F1F1F1F1F1F1F1F1F0F40
:1010B0000F0F0F0F0F0F0F07070707070303030398
:1010C0000301010101010101010101010101000010
:1010D0000000000000010101010101030303070FEB
:1010E0000F1F3F3F0F0767E707071FFFFFFFFFFFC8
:1010F000FFFFFFFFFFFFFFC0800107070F1FC71F94
:101100003F3F7F3F1F1F0F0F0F0707030301010121
:1011100001000000000000000000000000000000CE
:1011200000000000000000000000000000000000BF
:1011300000000000000000000000000000000000AF
:10114000000000000000000000000000000000009F
:10115000000000000000000000000000000000008F
:1011600000000000000000001CFCFBFBFBFFFFFF79
:10117000FFFFFFFFFFFFFFFFFFFEFC3C00008002C0
:10118000104000000000000000000000000000000F
:10119000000000000000000000000000000000004F
:1011A000000000000000000000000000000000003F
:1011B000000000000000000000000000000000002F
:1011C000000000000000000000000000000000001F
:1011D000000000000000000000000000000000000F
:1011E00000000000000000000000FFFFFFFFFFFF05
:1011F000FF1F1F1F1F1F0F0F070300000000030327
:1012000000000000000000000100000000000800D5
:10121000002040000000000000000000000000006E
:1012200000000000000000000000000000000000BE
:1012300000000000000000000000000000000000AE
:10124000000000000000000000000000000000009E
:10125000000000000000000000000000000000008E
:10126000000000000080C0E2F8FEFFFFFFFFFFFF6C
:10127000FFFCFAF9F0E0C0808000000000000000F0
:10128000000000000000000000000000000000401E
:10129000000000000001001020000000000000001D
:1012A000000000000000000000000000000000003E
:1012B000000000000000000000000000000000002E
:1012C000000000000000000000000000000000001E
:1012D000000080800000000000000000000000020C
:1012E000000000FEFFFFFFFFFFFFFFFFFFFFFFFF0C
:1012F000FFFFFFFFFFFFFFFFFFFFFEFEFCFCFCFE0A
:10130000FCFCFCF8F8FCFCFCFCFCFCFCFCF9F8FC2C
:10131000FCFCFCFEFEFEFEFCFCFCF20420000000D7
:101320000000000000E0F8F8F8FCFCFCFCFCFCF815
:10133000F8FCFCFCFCFCF8F8FCFCFCFCF8F8F8FC05
:10134000FCFCFCFCFCF8FEFEFEFEFEFEFEFFFFFFCA
:10135000FFFFFFFF80000000000000000000000011
:1013600000000083F7FFFFFFFFFFFFFFFFFFFFFF0E
:10137000FFFFFFFFFFFFFFFFFFFFFFFFFFFFFFFF7D
:10138000FFFFFFFFFFFFFFFFFFFFFFFFFFFFFFFF6D
:10139000FFFFFFFFFFFFFFFFFFFFFF0000009800C0
:1013A00000000000FCFFFFFFFFFFFFFFFFFFFFFF4C
:1013B000FFFFFFFFFFFFFFFFFFFFFFFFFFFFFFFF3D
:1013C000FFFFFFFFFFFFFFFFFFFFFFFFFFFFFFFF2D
:1013D000FFFFFFFF3F0000000088C0E4F8000000AE
:1013E00000E0FCFFFFFFFFFFFFFFFFFFFFFFFFFF2E
:1013F000FFFFFFFFFFFFFFFFFFFFFFFFFFFFFFFFFD
:10140000FFFFFFFFFFFFFFFFFFFFFFFFFFFFFFFFEC
:10141000FFFFFFFFFFFFFFFFFFF7F3F0D0C0C4E8BF
:10142000C0C8C0F8FFFFFFFFFFFFFFFFFFFFFFFF88
:10143000FFFFFFFFFFFFFFFFFFFFFFFFFFFFFFFFBC
:10144000FFFFFFFFFFFFFFFFFFFFFFFFFFFFFFFFAC
:10145000FFFF9F9190B08080F8FFFFF7E0E0F0F091
:10146000FEFFFFFFFFFFFFFFFFFFFFFFFFFFFFFF8D
:10147000000000000000000000065F5F06000000A2
:101480000007070007070000147F7F147F7F140008
:10149000242E6B6B3A120000466630180C66620010
:1014A000307A4F5D377A48000407030000000000DF
:1014B000001C3E63410000000041633E1C00000030
:1014C000082A3E1C1C3E2A0808083E3E0808000068
:1014D00000A0E060000000000808080808080000FC
:1014E00000006060000000006030180C060301007E
:1014F0003E7F594D7F3E000042427F7F40400000CA
:10150000627359496F660000226349497F360000C3
:10151000181C16137F7F1000276745457D39000092
:101520003C7E4B4979300000036371190F070000BE
:10153000367F49497F360000064F49693F1E00004B
:1015400000006C6C0000000000A0EC6C00000000CB
:10155000081C366341000000141414141414000015
:10156000004163361C080000020351590F060000B9
:101570003E7F415D5D1F1E007C7E13137E7C00005C
:10158000417F7F49497F36001C3E63414163220011
:10159000417F7F41637F1C00417F7F495D41630044
:1015A000417F7F491D0103001C3E6341517372005E
:1015B0007F7F08087F7F000000417F7F410000009F
:1015C000307040417F3F0100417F7F081C776300FE
:1015D000417F7F41406070007F7F060C067F7F0067
:1015E0007F7F060C187F7F001C3E6341633E1C001A
:1015F000417F7F49090F06001E3F21717F5E000079
:10160000417F7F19396F460026674D597B320000B4
:1016100003417F7F410300007F7F40407F7F0000C8
:101620001F3F60603F1F00007F7F3018307F7F00CA
:1016300063771C081C776300074F78784F0700001A
:101640006773594D47637100007F7F41410000007F
:101650000103060C183060000041417F7F0000004C
:10166000080C0603060C0800808080808080808043
:101670000000030704000000207454543C7840002C
:10168000413F7F44447C3800387C44446C2800004F
:10169000307848493F7F4000387C54545C18000043
:1016A000487E7F490302000098BCA4A4F87C040093
:1016B000417F7F08047C780000447D7D400000006D
:1016C00040C484FD7D000000417F7F10386C4400E1
:1016D00000417F7F400000007C7C0C180C7C78006F
:1016E0007C7C04047C780000387C44447C38000016
:1016F00084FCF8A4243C1800183C24A4F8FC8400C2
:10170000447C78441C180000485C54547424000045
:1017100000043E7F442400003C7C40403C7C400070
:101720001C3C60603C1C00003C7C6030607C3C00E9
:10173000446C3810386C44009CBCA0A0FC7C0000B9
:101740004C64745C4C64000008083E774141000022
:1017500000000077770000004141773E0808000054
:10176000020301030203010011241FBECFEFD4E0E6
:10177000DEBFCDBF12E0A0E0B1E0E2E3F1E302C0E2
:1017800005900D92A631B107D9F723E0A6E1B2E0AA
:1017900001C01D92AB37B207E1F70E942F0D0C94E8
:1017A00097180C94000085B7886085BF85B7846062
:1017B00085BF86B7806486BFC39ABB980895E091C1
:1017C0000601F09107018D5F8083B399FECFE09110
:1017D0000601F0910701808108950E94340E40E0D7
:1017E00060EE8FE00E940E0E0895CF93DF931F925C
:1017F000CDB7DEB780E30E94C20D8983898183FF64
:1018000007C080E30E94C20D8983898183FDF9CFDF
:101810000F90DF91CF9108951F93CF93DF93EC0149
:101820000E94F50B60E082E30E94D60D688181E39F
:101830000E94D60D6A8185E30E94D60D8A81882395
:1018400069F010E0FE01E10FF11D638186E3810F75
:101850000E94D60D1F5F8A811817A0F381E80E94AD
:10186000EC0DDF91CF911F910895CF93DF93CDB70A
:10187000DEB72B970FB6F894DEBF0FBECDBF6C83DB
:101880007D838E839F8382E090E09A83898384E0C6
:101890008B83CE0101960E940C0C2B960FB6F89408
:1018A000DEBF0FBECDBFDF91CF910895CF9381E012
:1018B0000E94DF0BC82F82E00E94DF0B282F6C2FC5
:1018C00070E0822F90E0CF9108950F931F93CF93F4
:1018D00082E00E94DF0BC82F81E00E94DF0B482FBF
:1018E00060916A0370916B03E0916C03F0916D035A
:1018F000AC2FB0E0A61BB70BC4E6CA9FC001CB9FBC
:10190000900D11240E9417148B0150E04E1B5F0BA9
:10191000C49FC001C59F900D1124BF010E941714E0
:101920009B01C901B801CF911F910F910895CF93E9
:1019300083E00E94DF0BC82F84E00E94DF0B282F7A
:10194000622F70E08C2F90E0CF910895CF93DF93BA
:10195000CDB7DEB72B970FB6F894DEBF0FBECDBF65
:10196000C29ABA980E94560C60936A0370936B03F4
:1019700080936C0390936D0381E090E09A83898358
:1019800082E08B836C8380916C038D83CE01019602
:101990000E940C0C2B960FB6F894DEBF0FBECDBF85
:1019A000DF91CF9108950E94650C63337105B4F403
:1019B0006E3CEFEF7E07A4F08E3C2FEF920794F081
:1019C000833391058CF49B012C5F3F4F2930310507
:1019D00068F40496099760F085E0089582E0089520
:1019E00083E0089581E0089580E0089585E00895FA
:1019F00084E0089586B38170089586B386958170DA
:101A00000895CF93DF93CDB7DEB72B970FB6F89439
:101A1000DEBF0FBECDBF1A82198297E09B838C83F5
:101A200082E00E94DF0B8D8381E00E94DF0B8E83BA
:101A30000E94970C6F8388870E94FA0C89870E9406
:101A4000FD0C8A87CE0101960E940C0C2B960FB6D6
:101A5000F894DEBF0FBECDBFDF91CF910895CF9335
:101A6000DF93CDB7DEB727970FB6F894DEBF0FBE72
:101A7000CDBF0E94091485B7806885BF80B780629A
:101A800080BF85B7806485BF86B7826086BF8E9A27
:101A90008F9A319ABE98BF9887B387BB0E94D30BA9
:101AA0000E94EC110E94ED0B0E94A60C0E94390EC0
:101AB0000E94C90F1D821F821E8210E00F2EFCE0C3
:101AC000AF2EF1E0BF2EF02DDD24D394112321F0B1
:101AD000113009F449C0FACF0E94D30CE82E2FEF41
:101AE0003FE781E0215030408040E1F700C000C076
:101AF0000E94D30C8E1551F380E090EF0197F1F71F
:101B00000E94D30C082F0E942E100230F9F6BE015D
:101B10006A5F7F4FCE0101960E9492103C812B811B
:101B20009A8189811F923F931F922F931F929F93B7
:101B30001F928F93BF92AF920E948A148E819F81D1
:101B40000FB6F894DEBF0FBECDBF019709F0BECF30
:101B500069817A818B819C810E94350C0E947F1063
:101B60000E94C8111D2DB2CF0E94D30C0E94010DFE
:101B70003FEF8FE791E0315080409040E1F700C0A7
:101B800000C0A4CFCF93C82F80E00E94FB1383E056
:101B90000E94EA138C2F0E94EA130E94EE13C82FB2
:101BA00081E00E94FB138C2FCF910895CF93DF9398
:101BB000D82FC62F80E00E94FB1382E00E94EA1318
:101BC0008D2F0E94EA138C2F0E94EA1381E00E945D
:101BD000FB13DF91CF910895CF93C82F80E00E942F
:101BE000FB138FE78C0F823020F0C43811F0C73818
:101BF00021F48C2F0E94EA130CC00E94A7132AE242
:101C000030E58EEF90E02150304080409040D9F791
:101C1000000081E00E94FB13CF9108951F93CF93A2
:101C2000DF93182FD62FC42F80E00E94FB1385E08E
:101C30000E94EA13812F0E94EA138D2F0E94EA135B
:101C40008C2F0E94EA1381E00E94FB13DF91CF9159
:101C50001F91089580E00E94FB1380EC0E94EA131C
:101C600081E00E94FB1308950E94F3130E942A0E44
:101C700008958F929F92AF92BF92CF92DF92EF9290
:101C8000FF920F931F93CF93DF930F2EF9E58F2EC3
:101C9000F3E09F2EF02D8AE491E0D4018D939C9384
:101CA00010925C0310925B03C8E4D3E0D09360030E
:101CB000C0935F0387E393E0909362038093610393
:101CC000E6E2F3E0F0936403E093630341ED52E056
:101CD00050936603409365036894FF24F2F8F092F2
:101CE000690323E531E03983288390924B03809286
:101CF0004A0304E013E010934F0300934E0363EF95
:101D000072E0709351036093500322EE32E03093FF
:101D10005303209352030F2EF3E0AF2EF02DA09229
:101D200058030F2EFCE5CF2EF1E0DF2EF02DD80169
:101D3000CD92DC92D0930703C09306031092140354
:101D400001E611E0DB010D931C93D093F602C093E2
:101D5000F5021092030368E671E0D9016D937C935C
:101D6000D093E502C093E4021092F2022DE631E036
:101D7000DC012D933C9390923A03809239031092A8
:101D8000470389E791E091838083909229038092B1
:101D9000280320EC32E030932D0320932C036DE8D0
:101DA00072E070932F0360932E03CCE7D2E0D093C0
:101DB0003103C09330038BE692E09093330380931A
:101DC0003203F092360301E811E0D9010D931C9320
:101DD000F093C302E093C2020F2EFFEAEF2EF2E06F
:101DE000FF2EF02DF092C702E092C6020EE912E03B
:101DF0001093C9020093C8026894BB24B1F8B09252
:101E0000D0020F2EF0E9CF2EF1E0DF2EF02DD7011A
:101E1000CD92DC923093B2022093B1021092BF02B5
:101E20000F2EF6E9EF2EF1E0FF2EF02DD801ED9206
:101E3000FC923093A1022093A0021092AE022FE9EF
:101E400031E039832883F0937F02E0937E020F2EE6
:101E5000F9E4EF2EF2E0FF2EF02DF0928302E092F3
:101E600082020AE512E0109385020093840228E3BF
:101E700032E03093870220938602A0928C020F2ECC
:101E8000FDEACF2EF1E0DF2EF02DD701CD92DC92CE
:101E9000D0934C02C0934B02109259020F2EFEEBCE
:101EA000EF2EF1E0FF2EF02DD801ED92FC92D093B1
:101EB0005D02C0935C0210926A0207EB11E0D90147
:101EC0000D931C93D0933B02C0933A0210924802A8
:101ED00023EC31E0DC012D933C93F0936E02E09310
:101EE0006D0227E232E03093720220937102C6E164
:101EF000D2E0D0937402C0937302B0927B0201EDE2
:101F000011E0D9010D931C9390932A02809329022A
:101F10001092370225ED31E039832883909319021E
:101F200080931802109226028EED91E0DB018D93D2
:101F30009C93F0939002E0938F0210929D0284EEA6
:101F400091E0FA01918380839092D4028092D3022F
:101F50001092E10281E1F401A5E1B3E001900D925C
:101F60008A95E1F760E081E00E94801181E0809332
:101F70006E0384E20E943C11DF91CF911F910F917B
:101F8000FF90EF90DF90CF90BF90AF909F908F9099
:101F90000895EF92FF920F931F93CF93DF936AE020
:101FA00080E00E9480118CEE91E00E94931180915C
:101FB0001503909116030E9493118CEE91E00E94FC
:101FC00093118091250390E001960297F4F00BE1C4
:101FD00013E0C1E0D0E00F2EF5E2EF2EF3E0FF2E8C
:101FE000F02D6AE08C2F0E948011D801ED91FD91B7
:101FF0008D01808191810E9493112196F70180814A
:1020000090E00196C817D90764F3DF91CF911F9133
:102010000F91FF90EF90089560E00E94801184E29C
:102020000E943C11089560E00E9480110E943111CD
:102030000895E0911703F091180381E1A5E1B3E061
:1020400001900D928A95E1F70E94C8110E94C90F74
:1020500081E080936E030E940C10089581110FC0DF
:1020600080916E03823008F449C00E941310809161
:102070006E03815080936E030E940C10089581308E
:1020800081F480916E03909125038917B8F50E9421
:10209000131080916E038F5F80936E030E940C106B
:1020A0000895823009F5E0916E03809125038E1723
:1020B00028F1EE2319F1F0E0EE0FFF1FE75EFC4F71
:1020C0000190F081E02D81E1A5E1B3E001900D9256
:1020D0008A95E1F70E94C8110E94C90F81E08093A0
:1020E0006E030E940C100895833041F48091170311
:1020F00090911803892B11F00E941910089581E125
:10210000E9E5F3E0A5E1B3E001900D928A95E1F7EE
:102110000E94C8110E94C90F81E080936E030E9443
:102120000C1008950F931F93CF93DF93EC018B0155
:1021300080912503811190C0809115039091160321
:102140008D56914021F48EEE91E00E949311809182
:102150001503909116038C55914021F4198281E06A
:10216000F801808380911503909116038156914068
:1021700021F481E08983F801808380911503909197
:1021800016038856914029F482E0898381E0F801A2
:1021900080838091150390911603845E914021F411
:1021A0000E94C8110E947A13809115039091160322
:1021B0008059914031F481E088830E9419100E9477
:1021C000191080911503909116038659914029F4B6
:1021D00018820E9419100E94191080911503909185
:1021E00016038D5A914029F41A820E9419100E94F8
:1021F000191080911503909116038E5B914031F474
:1022000081E08A830E9419100E94191080911503A1
:1022100090911603875B914031F482E08A830E949B
:1022200019100E9419108091150390911603815D79
:10223000914029F41B820E9419100E94191080916C
:10224000150390911603855D914031F481E08B83F5
:102250000E9419100E941910DF91CF911F910F91C8
:10226000089588E090E0E0910801F0910901108262
:1022700001970097C1F7089528E0829FC0011124BB
:10228000FC01E059FC4E20E030E08491A09108016F
:10229000B09109018C9380916F038F5F80936F03DE
:1022A0002F5F3F4F31962830310579F7089580939D
:1022B00070038055E0910A01F0910B01808308952D
:1022C00080936F03803160F4E0910A01F0910B017B
:1022D0008083E0910A01F0910B0180E180830895F1
:1022E000982F9F70E0910A01F0910B0190838295E5
:1022F0008F70805FE0910A01F0910B018083089557
:10230000CF93C82F862F0E9460118C2F0E945711E7
:10231000CF91089510926F031092700360E080E0F7
:102320000E9480110895EF92FF920F931F93CF9315
:10233000DF938C017C01C0E0D0E019C080916F0375
:102340008A3778F0809170038F5F0E94571180E088
:102350000E94601180917003883019F40E948A11E4
:1023600010C0F70181917F010E943C112196F80174
:1023700001900020E9F73197E01BF10BCE17DF0742
:10238000E8F2DF91CF911F910F91FF90EF900895A8
:102390001F93CF93DF9360E080E00E948011C0E044
:1023A00010E8D0E08C2F0E945711212F3D2FE09193
:1023B0000801F091090110822150310921153105E0
:1023C000B1F7CF5FC83071F760E080E00E94801104
:1023D000DF91CF911F910895E0910A01F0910B01D7
:1023E0008EEA8083E0910A01F0910B0181EA8083FB
:1023F000E0910A01F0910B018AED8083E0910A01DE
:10240000F0910B0182E18083E0910A01F0910B01D0
:1024100088EC8083E0910A01F0910B0188EA8083C7
:10242000E0910A01F0910B018FE38083E0910A01B2
:10243000F0910B0185ED8083E0910A01F0910B0191
:1024400080E88083E0910A01F0910B0181E88083AC
:10245000E0910A01F0910B0180E58083E0910A018F
:10246000F0910B0189ED8083E0910A01F0910B015D
:1024700081E28083E0910A01F0910B0180E2808388
:10248000E0910A01F0910B0182E08083E0910A0162
:10249000F0910B018BED8083E0910A01F0910B012B
:1024A00080E38083E0910A01F0910B018DEA808343
:1024B000E0910A01F0910B011082E0910A01F09184
:1024C0000B0184EA8083E0910A01F0910B0186EA16
:1024D0008083E0910A01F0910B018FEA80830E94D2
:1024E000C81108950F931F93CF93DF930E94C811D3
:1024F00080E00E946011C0E8D0E000E010E026C05B
:10250000F901E80FF91FE491A0910801B0910901C8
:10251000EC9301968830910599F7485F5F4F4C170F
:102520005D0731F0802F912F9A012059374FE8CF66
:10253000809170038F5F0E94571180E00E946011AC
:10254000C058DF4FC03884E0D80721F0AE014058B2
:102550005109E8CF0E948A118AEF91E00E949311FD
:10256000DF91CF911F910F9108950F931F93CF93F8
:10257000DF930E94C81180E00E946011C0E8D0E0A3
:1025800000E010E026C0F901E80FF91FE491A091E6
:102590000801B0910901EC9301968830910599F7F3
:1025A000485F5F4F4C175D0731F0802F912F9A01E4
:1025B0002059334FE8CF809170038F5F0E945711ED
:1025C00080E00E946011C058DF4FC03884E0D80717
:1025D00021F0AE0140585109E8CF0E948A1180E0F5
:1025E00092E00E949311DF91CF911F910F91089576
:1025F0000F931F93CF93DF930E94C81180E00E9436
:102600006011C0E8D0E000E010E026C0F901E80F5A
:10261000F91FE491A0910801B0910901EC93019692
:102620008830910599F7485F5F4F4C175D0731F08F
:10263000802F912F9A0120593F4FE8CF809170034E
:102640008F5F0E94571180E00E946011C058DF4FD9
:10265000C03884E0D80721F0AE0140585109E8CFD6
:102660000E948A1187E092E00E949311DF91CF913E
:102670001F910F9108950F931F93CF93DF930E94A3
:10268000C81180E00E946011C0E8D0E000E010E0D6
:1026900026C0F901E80FF91FE491A0910801B0915B
:1026A0000901EC9301968830910599F7485F5F4FD7
:1026B0004C175D0731F0802F912F9A0120593B4F25
:1026C000E8CF809170038F5F0E94571180E00E94D5
:1026D0006011C058DF4FC03884E0D80721F0AE0148
:1026E00040585109E8CF0E948A11DF91CF911F9184
:1026F0000F9108950E943B132FE784E89EE121503B
:1027000080409040E1F700C000000E94F8122FE7DF
:1027100084E89EE1215080409040E1F700C0000035
:102720000E9472122FE784E89EE121508040904081
:10273000E1F700C000000E94B5122FE784E89EE197
:10274000215080409040E1F700C0000008950F93B1
:102750001F93CF93DF930E94C81180E00E94601105
:10276000C0E8D0E000E010E026C0F901E80FF91F52
:10277000E491A0910801B0910901EC930196883091
:10278000910599F7485F5F4F4C175D0731F0802F37
:10279000912F9A0120593F4EE8CF809170038F5FAF
:1027A0000E94571180E00E946011C058DF4FC0386E
:1027B00084E0D80721F0AE0140585109E8CF0E94CB
:1027C0008A118FE092E00E949311DF91CF911F91C7
:1027D0000F9108958FB9779BFECF08951FB8779B0F
:1027E000FECF8FB10895BD9ABF9ABC9ABE988DB1A5
:1027F00081658DB90895811102C0C4980895C49A65
:1028000008955F9BFECF8CB108955D9BFECF8CB980
:1028100008958FE189B910BC88E18AB986E880BD46
:1028200061E074E185E094E10E943F14089597FB14
:10283000072E16F4009407D077FD09D00E942B14C0
:1028400007FC05D03EF4909581959F4F08957095B3
:1028500061957F4F0895AA1BBB1B51E107C0AA1FBA
:10286000BB1FA617B70710F0A61BB70B881F991F31
:102870005A95A9F780959095BC01CD0108950F93C5
:102880001F93CF93DF93EC018B01009731F4611517
:10289000710519F480E090E038C06EE070E081E0EE
:1028A00090E00E947016FC010097A1F380E88383FA
:1028B0000115110571F01387028781E883838091E8
:1028C000710390917203892B21F4F0937203E093CA
:1028D00071032097C9F0D187C08783818260838389
:1028E0008091730390917403892B71F4F0937403B6
:1028F000E09373038091750390917603892B21F403
:10290000F0937603E0937503CF01DF91CF911F9190
:102910000F910895A0E0B0E0E0E9F4E10C947018A4
:10292000FE01359661917191AF0180917303909191
:1029300074030E949E14E2E00C948C18ACE0B0E0AA
:10294000E4EAF4E10C9460187C016B018A01FC015B
:1029500017821682838181FFBDC1CE0101964C0191
:10296000F7019381F60193FD859193FF81916F01AA
:10297000882309F4ABC1853239F493FD859193FF27
:1029800081916F01853229F4B70190E00E94D01740
:10299000E7CF512C312C20E02032A0F48B3269F0AB
:1029A00030F4803259F0833269F420612CC08D32CA
:1029B00039F0803339F4216026C02260246023C0BE
:1029C000286021C027FD27C030ED380F3A3078F459
:1029D00026FF06C0FAE05F9E300D1124532E13C06F
:1029E0008AE0389E300D1124332E20620CC08E32C6
:1029F00021F426FD6BC1206406C08C3611F42068DA
:102A000002C0883641F4F60193FD859193FF8191D0
:102A10006F018111C1CF982F9F7D9554933028F479
:102A20000C5F1F4FFFE3F9830DC0833631F083370E
:102A300071F0833509F05BC022C0F8018081898381
:102A40000E5F1F4F44244394512C540115C038018C
:102A5000F2E06F0E711CF801A080B18026FF03C068
:102A6000652D70E002C06FEF7FEFC5012C870E94DB
:102A7000C5172C0183012C852F77222E17C0380112
:102A8000F2E06F0E711CF801A080B18026FF03C038
:102A9000652D70E002C06FEF7FEFC5012C870E94AB
:102AA000B3172C012C852068222E830123FC1BC028
:102AB000832D90E048165906B0F4B70180E290E00B
:102AC0000E94D0173A94F4CFF50127FC859127FE98
:102AD00081915F01B70190E00E94D01731103A94C4
:102AE000F1E04F1A51084114510471F7E5C08436E2
:102AF00011F0893639F5F80127FF07C0608171812F
:102B0000828193810C5F1F4F08C06081718188278B
:102B100077FD8095982F0E5F1F4F2F76B22E97FF6F
:102B200009C090958095709561957F4F8F4F9F4F0D
:102B30002068B22E2AE030E0A4010E940218A82EDC
:102B4000A81844C0853729F42F7EB22E2AE030E041
:102B500025C0F22FF97FBF2E8F36C1F018F48835CB
:102B600079F0B4C0803719F0883721F0AFC02F2F2B
:102B70002061B22EB4FE0DC08B2D8460B82E09C02A
:102B800024FF0AC09F2F9660B92E06C028E030E0CF
:102B900005C020E130E002C020E132E0F801B7FEDC
:102BA00007C060817181828193810C5F1F4F06C0D5
:102BB0006081718180E090E00E5F1F4FA4010E9450
:102BC0000218A82EA818FB2DFF77BF2EB6FE0BC04B
:102BD0002B2D2E7FA51450F4B4FE0AC0B2FC08C001
:102BE0002B2D2E7E05C07A2C2B2D03C07A2C01C0F4
:102BF000752C24FF0DC0FE01EA0DF11D808180338C
:102C000011F4297E09C022FF06C07394739404C096
:102C1000822F867809F0739423FD13C020FF06C02D
:102C20005A2C731418F4530C5718732C731468F43B
:102C3000B70180E290E02C870E94D01773942C8516
:102C4000F5CF731410F4371801C0312C24FF12C0D3
:102C5000B70180E390E02C870E94D0172C8522FFDB
:102C600017C021FF03C088E590E002C088E790E02C
:102C7000B7010CC0822F867859F021FD02C080E296
:102C800001C08BE227FD8DE2B70190E00E94D017D2
:102C9000A51438F4B70180E390E00E94D0175A944D
:102CA000F7CFAA94F401EA0DF11D8081B70190E0FD
:102CB0000E94D017A110F5CF332009F451CEB701EF
:102CC00080E290E00E94D0173A94F6CFF701868117
:102CD000978102C08FEF9FEF2C96E2E10C947C1855
:102CE0000F931F93CF93DF93869F8001879F100DD3
:102CF000969F100D1124C8010E948C16EC010097BC
:102D000029F0A80160E070E00E94BE17CE01DF91BB
:102D1000CF911F910F910895CF93DF93823091054A
:102D200010F482E090E0E0917903F0917A0320E0E2
:102D300030E0A0E0B0E0309739F140815181481790
:102D40005907B8F04817590771F482819381109799
:102D500029F013969C938E9312972CC090937A032C
:102D60008093790327C02115310531F042175307AD
:102D700018F0A901DB0101C0EF019A01BD01DF01DB
:102D80000280F381E02DD7CF21153105F9F0281B02
:102D9000390B2430310580F48A819B8161157105DE
:102DA00021F0FB019383828304C090937A03809384
:102DB0007903FE01329644C0FE01E20FF31F8193B6
:102DC000919322503109398328833AC020917703A7
:102DD00030917803232B41F42091020130910301BB
:102DE0003093780320937703209100013091010103
:102DF0002115310541F42DB73EB7409104015091A2
:102E00000501241B350BE0917703F0917803E2175D
:102E1000F307A0F42E1B3F0B2817390778F0AC01FD
:102E20004E5F5F4F2417350748F04E0F5F1F5093DA
:102E30007803409377038193919302C0E0E0F0E040
:102E4000CF01DF91CF910895CF93DF93009709F4DD
:102E500087C0FC01329713821282C0917903D0910E
:102E60007A03209781F420813181280F391F8091C6
:102E70007703909178038217930779F5F09378039D
:102E8000E09377036DC0DE0120E030E0AE17BF07AE
:102E900050F412964D915C9113979D014115510587
:102EA00009F1DA01F3CFB383A28340815181840F0A
:102EB000951F8A179B0771F48D919C911197840F30
:102EC000951F02969183808312968D919C91139702
:102ED000938382832115310529F4F0937A03E093DB
:102EE00079033EC0D9011396FC93EE9312974D914E
:102EF0005D91A40FB51FEA17FB0779F480819181DA
:102F0000840F951F0296D90111969C938E9382810E
:102F1000938113969C938E931297E0E0F0E08A8160
:102F20009B81009719F0FE01EC01F9CFCE010296CA
:102F300028813981820F931F209177033091780384
:102F40002817390769F4309729F410927A03109200
:102F5000790302C013821282D0937803C09377035F
:102F6000DF91CF910895FC010590615070400110F0
:102F7000D8F7809590958E0F9F1F0895DC0101C0B2
:102F80006D9341505040E0F70895FC01615070404E
:102F900001900110D8F7809590958E0F9F1F08958E
:102FA0000F931F93CF93DF93182F092FEB018B8182
:102FB00081FD03C08FEF9FEF20C082FF10C04E81C4
:102FC0005F812C813D81421753077CF4E881F981B0
:102FD0009F012F5F3F4F39832883108306C0E88508
:102FE000F985812F0995892B29F72E813F812F5F44
:102FF0003F4F3F832E83812F902FDF91CF911F91E1
:103000000F910895FA01AA27283051F1203181F15A
:10301000E8946F936E7F6E5F7F4F8F4F9F4FAF4FE0
:10302000B1E03ED0B4E03CD0670F781F891F9A1FF3
:10303000A11D680F791F8A1F911DA11D6A0F711DA7
:10304000811D911DA11D20D009F468943F912AE0B3
:10305000269F11243019305D3193DEF6CF0108959B
:10306000462F4770405D4193B3E00FD0C9F7F6CFCC
:10307000462F4F70405D4A3318F0495D31FD405294
:10308000419302D0A9F7EACFB4E0A695979587952A
:1030900077956795BA95C9F7009761057105089509
:1030A0009B01AC010A2E06945795479537952795B5
:1030B000BA95C9F7620F731F841F951FA01D08954D
:1030C0002F923F924F925F926F927F928F929F9238
:1030D000AF92BF92CF92DF92EF92FF920F931F9326
:1030E000CF93DF93CDB7DEB7CA1BDB0B0FB6F894D7
:1030F000DEBF0FBECDBF09942A88398848885F8417
:103100006E847D848C849B84AA84B984C884DF8087
:10311000EE80FD800C811B81AA81B981CE0FD11D6B
:103120000FB6F894DEBF0FBECDBFED010895F89441
:02313000FFCFCF
:1031320000007B0320000014001200106172723143
:103142002025642020617272322025642020617261
:103152007233202564202061727234202564200A93
:103162000047414D45204F564552210046696E6148
:103172006C2053636F72653A20004D61696E4D6534
:103182006E75004E65772047616D65004561737904
:10319200004E6F726D616C0048617264004869672D
:1031A200682053636F726573004F7074696F6E733A
:1031B20000436F6E74726F6C6C65722073656C0085
:1031C200537065656400506F736974696F6E005364
:1031D2006F6C656E6F6964204D6F64650053656D39
:1031E20069204175746F00546F67676C6520417583
:1031F200746F00496E766572746564204D6F646504
:10320200004E6F6E20496E76657274656400536F6E
:10321200756E640043726564697473002A0068699C
:1032220067682073636F726573004272616765003D
:10323200546F626961730048656E6E696E67005013
:063242006967203C330027
:00000001FF
