:10000000C2C00000E0C00000DEC00000DCC0000094
:10001000DAC00000D8C00000D6C00000D4C0000084
:10002000D2C00000D0C00000CEC00000CCC0000094
:10003000CAC00000C8C00000C6C00000C4C00000A4
:10004000C2C00000C0C00000BEC00000BCC00000B4
:10005000BAC00000B8C00000B6C00000B4C00000C4
:10006000B2C00000B0C00000AEC00000ACC00000D4
:10007000AAC00000BFC00000A6C00000A4C00000CD
:100080008FC50000A0C000009EC000009CC0000002
:100090009AC0000098C0000096C000001EC6000074
:1000A00092C0000090C00000B7C500008CC00000E6
:1000B0008AC0000088C0000086C00000C5C50000DE
:1000C00082C0000080C000007EC000007CC0000034
:1000D0007AC0000078C0000076C0000074C0000044
:1000E00072C000008806DA06DA06DA06DA06DA06F0
:1000F000DA06DA068806DA06DA06DA06DA06DA0652
:10010000DA06DA068A06DA06DA06DA06DA06DA063F
:10011000DA06DA06DA06DA06DA06DA06DA06DA06DF
:10012000DA06DA068A06DA06DA06DA06DA06DA061F
:10013000DA06DA06DA06DA06DA06DA06DA06DA06BF
:10014000DA06DA06D606DA06DA06DA06DA06DA06B3
:10015000DA06DA06B306DA06DA06DA06DA06DA06C6
:10016000DA06DA06DA06DA06DA06DA06DA06DA068F
:10017000DA06DA06A706DA06DA06DA06DA06DA06B2
:10018000DA06DA06C50611241FBECFEFD1E2DEBFC4
:10019000CDBF00E00CBF12E0A0E0B2E0E2E3F9E185
:1001A00000E00BBF02C007900D92A834B107D9F749
:1001B00022E0A8E4B2E001C01D92A836B207E1F740
:1001C000EAD30C94970C1CCF909349028093480279
:1001D0008FEE80937A0080E680937C00089580E023
:1001E0000895FC01909179008081818382838383CB
:1001F000908308951F920F920FB60F9211240BB6A1
:100200000F928F93EF93FF93E0914802F091490290
:10021000309711F081E08083EAE7F0E080818F7E03
:100220008083FF91EF918F910F900BBE0F900FBEC7
:100230000F901F901895A6D340E060EE8FE07CC32E
:1002400008958CE266D3837021F48CE262D38370CC
:10025000E1F30895FF920F931F93CF93DF931F92C3
:10026000CDB7DEB78C01EDDF8CE253D3898381E615
:1002700050D390E0F8019183808385E64AD3F8015A
:100280008283882369F0F12C86E68F0D42D3F80132
:10029000EF0DF11D8383F394F8018281F816A0F32A
:1002A00040E061E08CE248D30F90DF91CF911F9145
:1002B0000F91FF900895FA01118210829383828337
:1002C0007583648380EA96E8978386830895CF9246
:1002D000DF92EF92FF920F931F93CF93DF93FA0178
:1002E000861B970BEC010AF42196D595C795828160
:1002F0009381C89F8001C99F100DD89F100D1124B4
:1003000080819181C80FD91F868197818C179D07A5
:1003100014F4918380839195819591098C179D07A1
:100320002CF491838083C0EFDFEF1BC0D183C083A7
:100330006481758180E090E0A5D52FE832EC45EF2F
:100340005CE306D66B017C01BE01882777FD8095B2
:10035000982F9AD59B01AC01C701B601F9D561D59B
:10036000EB011F930F93DF93CF938DE092E09F9368
:100370008F93F0D6C8018C0F9D1F64E670E073D692
:10038000CB010F900F900F900F900F900F90DF9177
:10039000CF911F910F91FF90EF90DF90CF90089534
:1003A00070D4509A519A0895E2E0F1E080818F7BF9
:1003B00080838AE68A95F1F700C08081806480831B
:1003C0000895EEDFE1E0F1E080818260808380814A
:1003D0008064808380818062808380818860808364
:1003E000E2E0F1E080818061808310920801DCCF3F
:1003F00008950F931F93CF93DF9300D01F92CDB733
:10040000DEB780910A02811117C0E2E0F1E080813D
:100410008260808380E589831A8284E68B8300E191
:1004200017E263E070E0CE01019635D40150110966
:1004300001151105B1F7B8DF0F900F900F900F90D5
:10044000DF91CF911F910F910895CF93DF93E2E059
:10045000F1E080818F7D80838081877F80838AE641
:100460008A95F1F700C0C0910601D0E0DC2FCC27BF
:100470008081886080838AE68A95F1F700C0809148
:100480000601C82B80910A02813009F48DDFE2E079
:10049000F1E0808180628083CE01DF91CF91089569
:1004A000CF92DF92EF92FF920F931F93CF93DF9340
:1004B00000D01F92CDB7DEB7D5D18B0180914A0213
:1004C000811117C01016110654F4E2E0F1E08081AA
:1004D0008260808380914A028130E9F411C0E2E0B9
:1004E000F1E080818D7F808380914A02813099F490
:1004F0000DC080914A02813071F41016110634F457
:10050000E2E0F1E080818D7F808305C0E2E0F1E0F0
:1005100080818260808380E589831A8296DFC09023
:100520000602D0900702E0900802F0900902C8018C
:10053000992324F488279927801B910BBC018827D5
:1005400077FD8095982FA0D4A701960101D520E0D2
:1005500030E040E05FE3FCD469D46B8363E070E09B
:10056000CE01019698D30F900F900F900F90DF91CE
:10057000CF911F910F91FF90EF90DF90CF90089552
:10058000EF92FF920F931F93CF93DF9300D01F92B0
:10059000CDB7DEB77B01082F10E080914A028111B0
:1005A00006C08FEF90E09C01201B310B8901000FEA
:1005B000111F02951295107F1027007F102745DF2D
:1005C0000817190734F4E2E0F1E08081826080834B
:1005D00005C0E2E0F1E080818D7F808380E5898342
:1005E0001A8233DFA701BC01C80171DE99231CF414
:1005F0009195819591098B8363E070E0CE0101961E
:100600004AD30F900F900F900F90DF91CF911F91D1
:100610000F91FF90EF900895AF92BF92CF92DF922B
:10062000EF92FF920F931F93CF93DF93CDB7DEB777
:100630002B970FB6F894DEBF0FBECDBFE982FA82CA
:100640000B831C832D833E834F83588769877A876A
:100650008B87560180910A02813029F48B85BFD0A7
:10066000A6011EDF13C080910A0281110FC0C12CA8
:10067000E980FA800B811C812D813E814F81588554
:1006800069857A858B85CAD0B5017ADF2B960FB63E
:10069000F894DEBF0FBECDBFDF91CF911F910F91B8
:1006A000FF90EF90DF90CF90BF90AF900895819A28
:1006B0000895899A2FE785EB91E021508040904082
:1006C000E1F700C0000089988FE19EE40197F1F7FF
:1006D00000C000000895EF92FF920F931F93CF93F5
:1006E000DF93CDB7DEB72B970FB6F894DEBF0FBE02
:1006F000CDBFE982FA820B831C832D833E834F8317
:10070000588769877A878B8780910B028130C1F483
:10071000613069F480914C0281112DC0CADF81E003
:1007200080934C0280910B02823089F40FC06111DA
:1007300027C080914C028130D9F410924C0218C02D
:1007400080910B02823019F4613009F4B2DF80919C
:100750000B02811118C080914B028F5F80934B0276
:1007600080914B02863078F010924B02A2DF0BC0D2
:1007700080910B02ECCF80910B02823041F7E6CFE3
:1007800080910B02E4CF2B960FB6F894DEBF0FBE1C
:10079000CDBFDF91CF911F910F91FF90EF90089502
:1007A000EF92FF920F931F93CF93DF93CDB7DEB7F6
:1007B0002B970FB6F894DEBF0FBECDBF612F70E050
:1007C000822F90E02B960FB6F894DEBF0FBECDBF00
:1007D000DF91CF911F910F91FF90EF900895EF92CD
:1007E000FF920F931F93CF93DF93CDB7DEB72B9775
:1007F0000FB6F894DEBF0FBECDBF622F70E0832F1F
:1008000090E02B960FB6F894DEBF0FBECDBFDF9100
:10081000CF911F910F91FF90EF900895CF92EF929B
:10082000FF920F931F93CF93DF93CDB7DEB72B9734
:100830000FB6F894DEBF0FBECDBF4F835887C110EF
:1008400002C0852F01C08F812B960FB6F894DEBFB2
:100850000FBECDBFDF91CF911F910F91FF90EF9011
:10086000CF900895FF920F931F93CF93DF938B0147
:100870009C01E0915A02F0915B0260915C027091E0
:100880005D02A901461B570B0F2EF4E6FF2EF02D3B
:10089000F49EC001F59E900D1124E5D3EB010E1BD3
:1008A0001F0BF09EC001F19E900D1124BF01DBD300
:1008B0009B01B901CE01DF91CF911F910F91FF9064
:1008C0000895EF92FF920F931F93CF93DF93CDB7CD
:1008D000DEB72B970FB6F894DEBF0FBECDBF50E04A
:1008E000CA01880F991F880F991F880F991F840FBD
:1008F000951F885F984F15D12B960FB6F894DEBFE1
:100900000FBECDBFDF91CF911F910F91FF90EF9060
:100910000895CF93C82F80E090E023D183E090E04A
:100920000BD18C2F90E008D10CD1C82F81E090E042
:1009300018D18C2FCF9108951F93CF93DF93182F49
:10094000D62FC42F80E090E00CD185E090E0F4D069
:10095000812F90E0F1D08D2F90E0EED08C2F90E0A1
:10096000EBD081E090E0FDD0DF91CF911F91089511
:1009700080E090E0F6D080EC90E0DED081E090E086
:10098000F0C00895E4D0F4DF87EA91E60197F1F72B
:1009900000C000000895CF93DF93CDB7DEB76D9709
:1009A0000FB6F894DEBF0FBECDBF19821A821B822C
:1009B000188626D240DCCE01029606DC8BD0CE0112
:1009C0000196D5D00AD123D172DEFBDCAE01475FA0
:1009D0005F4F6CE070E086E090E06DDC78941D8EF7
:1009E0001C8E07DD0F2EFBE2AF2EF2E0BF2EF02DA6
:1009F0000F2EF6E38F2EF2E09F2EF02D5B9889816B
:100A0000882309F44FC0CE01419624DC89899A8954
:100A10008130910561F118F0029709F03DC0E98835
:100A2000FA880B891C892D893E894F89588D698DDB
:100A30007A8D8B8D46DFCE0109966C01E988FA88A4
:100A40000B891C892D893E894F89588D698D7A8D36
:100A50008B8DE2DDE988FA880B891C892D893E8916
:100A60004F89588D698D7A8D8B8D35DE1AC0E98856
:100A7000FA880B891C892D893E894F89588D698D8B
:100A80007A8D8B8D8DDE60935A0270935B0280931A
:100A90005C0290935D0205C0BF92AF925BD30F9052
:100AA0000F9019828A81882309F4A8CFCE01049679
:100AB00098DBCE01049693DB882309F49FCFA2D064
:100AC0009F938F939F928F9245D30F900F900F908B
:100AD0000F9094CF259AA1E8B0E08C9180618C931F
:100AE0008C9188608C93E0E8F0E080818260808364
:100AF00080818E7F808380818F7B808380818068EE
:100B000080838C9182608C9380E49CE99093870031
:100B10008093860088EB9BE0909389008093880007
:100B200008959C01295037402F35394020F4909387
:100B300089008093880008958EBD0DB407FEFDCF17
:100B400008951EBC0DB407FEFDCF8EB50895229A00
:100B5000219A279A2B9A2398209A8CB580658CBD70
:100B60000895811102C02F9808952F9A0895E1E900
:100B7000F0E02081286020832081226020832FE301
:100B80003CE930939900209398009093520280930F
:100B90005102E1E7F0E080818260808378940895DB
:100BA0001F920F920FB60F9211240BB60F928F93D4
:100BB000EF93FF93E0915102F0915202309711F0C0
:100BC00081E08083C198FF91EF918F910F900BBED0
:100BD0000F900FBE0F901F901895E1EAF0E0808112
:100BE000886080838081826080838FE39DE0909322
:100BF000A9008093A800E2E7F0E080818260808312
:100C00007894089580914D0290914E02089510922B
:100C10004E0210924D0208951F920F920FB60F923E
:100C200011248F939F9380914D0290914E020196D3
:100C300090934E0280934D02C9989F918F910F908F
:100C40000FBE0F901F9018951F920F920FB60F9224
:100C500011240BB60F928F93EF93FF93E0914F0205
:100C6000F0915002309711F081E08083D198FF918C
:100C7000EF918F910F900BBE0F900FBE0F901F90B2
:100C800018958CE08093B8008FEF8093BB0084E0D0
:100C90008093BC000895ECEBF0E0208120FDFDCFB7
:100CA00060935502FC0120812093560220FD0CC068
:100CB000623050F0DC011196E7E5F2E081E09D91B1
:100CC00091938F5F8613FBCF1092540288EF80932D
:100CD0000C0285EA8093BC0008951F920F920FB614
:100CE0000F9211240BB60F922F933F938F939F93E4
:100CF000AF93BF93EF93FF938091B90090E0FC0115
:100D00003897E135F10508F055C0EE58FF4FBEC1E8
:100D100010925302E091530280915502E81770F44B
:100D200081E08E0F80935302F0E0EA5AFD4F8081FC
:100D30008093BB0085E88093BC0043C0809154023F
:100D400081608093540284E98093BC003AC0E091B2
:100D5000530281E08E0F809353028091BB00F0E03C
:100D6000EA5AFD4F80832091530230E08091550272
:100D700090E001972817390724F485EC8093BC0094
:100D800020C085E88093BC001CC08091BB00E0912E
:100D90005302F0E0EA5AFD4F808380915402816053
:100DA0008093540284E98093BC000BC085EA809351
:100DB000BC0007C08091B90080930C0284E080934E
:100DC000BC00FF91EF91BF91AF919F918F913F91A7
:100DD0002F910F900BBE0F900FBE0F901F90189584
:100DE000E0ECF0E080818823ECF78091C600089564
:100DF000E0ECF0E0908195FFFDCF8093C600089570
:100E000087E68093C4001092C50088E18093C100FA
:100E100086E08093C20060EF76E088EF96E050C1F4
:100E2000089504D06894B1118DC0089570D088F0F1
:100E30009F5790F0B92F9927B751A0F0D1F0660FC6
:100E4000771F881F991F1AF0BA95C9F712C0B130E1
:100E500081F077D0B1E0089574C0672F782F88278C
:100E6000B85F39F0B93FCCF3869577956795B39520
:100E7000D9F73EF490958095709561957F4F8F4F8F
:100E80009F4F0895E89409C097FB3EF49095809594
:100E9000709561957F4F8F4F9F4F9923A9F0F92F40
:100EA00096E9BB279395F695879577956795B795BE
:100EB000F111F8CFFAF4BB0F11F460FF1BC06F5FA4
:100EC0007F4F8F4F9F4F16C0882311F096E911C0B6
:100ED000772321F09EE8872F762F05C0662371F0D7
:100EE00096E8862F70E060E02AF09A95660F771FEB
:100EF000881FDAF7880F9695879597F9089557FD1B
:100F00009058440F551F59F05F3F71F04795880F77
:100F100097FB991F61F09F3F79F08795089512160E
:100F200013061406551FF2CF4695F1DF08C01616BA
:100F300017061806991FF1CF86957105610508946B
:100F40000895E894BB2766277727CB0197F9089582
:100F50000BD078C069D028F06ED018F0952309F036
:100F60005AC05FC01124EECFCADFA0F3959FD1F322
:100F7000950F50E0551F629FF001729FBB27F00D47
:100F8000B11D639FAA27F00DB11DAA1F649F66279C
:100F9000B00DA11D661F829F2227B00DA11D621FEB
:100FA000739FB00DA11D621F839FA00D611D221FA5
:100FB000749F3327A00D611D231F849F600D211D89
:100FC000822F762F6A2F11249F5750408AF0E1F02C
:100FD00088234AF0EE0FFF1FBB1F661F771F881F75
:100FE00091505040A9F79E3F510570F014C0AACF10
:100FF0005F3FECF3983EDCF3869577956795B79560
:10100000F795E7959F5FC1F7FE2B880F911D969589
:10101000879597F9089597F99F6780E870E060E0F9
:1010200008959FEF80EC089500240A941616170681
:1010300018060906089500240A94121613061406C9
:1010400005060895092E0394000C11F4882352F02C
:10105000BB0F40F4BF2B11F460FF04C06F5F7F4FE4
:101060008F4F9F4F089597FB072E16F4009406D0DC
:1010700077FD08D011D007FC05D03EF490958195FE
:101080009F4F0895709561957F4F0895EE0FFF1F54
:101090000590F491E02D1994AA1BBB1B51E107C0E8
:1010A000AA1FBB1FA617B70710F0A61BB70B881FF8
:1010B000991F5A95A9F780959095BC01CD01089587
:1010C0000F931F93CF93DF93EC018B01009731F4C3
:1010D0006115710519F480E090E037C06EE070E0B2
:1010E00081E090E036D2FC010097A9F380E8838389
:1010F0000115110571F01387028781E883838091C0
:101100005E0290915F02892B21F4F0935F02E093DD
:101110005E022097C9F0D187C08783818260838374
:101120008091600290916102892B71F4F0936102C9
:10113000E09360028091620290916302892B21F416
:10114000F0936302E0936202CF01DF91CF911F9190
:101150000F910895CF93DF93CDB7DEB7FE0136969A
:1011600061917191AF01809160029091610203D011
:10117000DF91CF9108952F923F924F925F926F929D
:101180007F928F929F92AF92BF92CF92DF92EF9217
:10119000FF920F931F93CF93DF93CDB7DEB72C97BA
:1011A0000FB6F894DEBF0FBECDBF7C016B018A0184
:1011B000FC0117821682838181FFB0C1CE010196A6
:1011C0004C01F7019381F60193FD859193FF819185
:1011D0006F01882309F49EC1853239F493FD85910E
:1011E00093FF81916F01853221F4B70190E00FD315
:1011F000E8CF512C312C20E02032A0F48B3269F062
:1012000030F4803259F0833269F420612CC08D3281
:1012100039F0803339F4216026C02260246023C075
:10122000286021C027FD27C030ED380F3A3078F410
:1012300026FF06C0FAE05F9E300D1124532E13C026
:101240008AE0389E300D1124332E20620CC08E327D
:1012500021F426FD5FC1206406C08C3611F420689D
:1012600002C0883641F4F60193FD859193FF819188
:101270006F018111C1CF982F9F7D9554933028F431
:101280000C5F1F4FFFE3F9830DC0833631F08337C6
:1012900071F0833509F057C021C0F801808189833E
:1012A0000E5F1F4F44244394512C540114C0380145
:1012B000F2E06F0E711CF801A080B18026FF03C020
:1012C000652D70E002C06FEF7FEFC5012C8794D2CF
:1012D0002C0183012C852F77222E16C03801F2E0D5
:1012E0006F0E711CF801A080B18026FF03C0652D30
:1012F00070E002C06FEF7FEFC5012C876BD22C012D
:101300002C852068222E830123FC19C0832D90E0B8
:1013100048165906A0F4B70180E290E078D23A94DA
:10132000F5CFF50127FC859127FE81915F01B7017B
:1013300090E06DD231103A94F1E04F1A5108411407
:10134000510479F7DEC0843611F0893631F5F801A1
:1013500027FF07C060817181828193810C5F1F4FDD
:1013600008C060817181882777FD8095982F0E5F76
:101370001F4F2F76B22E97FF09C0909580957095DC
:1013800061957F4F8F4F9F4F2068B22E2AE030E04B
:10139000A4016FD2A82EA81843C0853729F42F7E48
:1013A000B22E2AE030E025C0F22FF97FBF2E8F3613
:1013B000C1F018F4883579F0ADC0803719F088375E
:1013C00021F0A8C02F2F2061B22EB4FE0DC08B2DAE
:1013D0008460B82E09C024FF0AC09F2F9660B92EE2
:1013E00006C028E030E005C020E130E002C020E186
:1013F00032E0F801B7FE07C060817181828193817C
:101400000C5F1F4F06C06081718180E090E00E5F2D
:101410001F4FA4012ED2A82EA818FB2DFF77BF2E98
:10142000B6FE0BC02B2D2E7FA51450F4B4FE0AC0BF
:10143000B2FC08C02B2D2E7E05C07A2C2B2D03C0AC
:101440007A2C01C0752C24FF0DC0FE01EA0DF11DA0
:101450008081803311F4297E09C022FF06C0739475
:10146000739404C0822F867809F0739423FD12C010
:1014700020FF06C05A2C731418F4530C5718732C01
:10148000731460F4B70180E290E02C87C0D17394AC
:101490002C85F6CF731410F4371801C0312C24FFBB
:1014A00011C0B70180E390E02C87B1D12C8522FFD9
:1014B00016C021FF03C088E590E002C088E790E0F5
:1014C000B7010CC0822F867851F021FD02C080E266
:1014D00001C08BE227FD8DE2B70190E098D1A51401
:1014E00030F4B70180E390E092D15A94F8CFAA94F7
:1014F000F401EA0DF11D8081B70190E088D1A110BF
:10150000F6CF332009F45DCEB70180E290E07FD1C1
:101510003A94F7CFF7018681978102C08FEF9FEF52
:101520002C960FB6F894DEBF0FBECDBFDF91CF91E2
:101530001F910F91FF90EF90DF90CF90BF90AF90F1
:101540009F908F907F906F905F904F903F902F90E3
:1015500008950F931F93CF93DF93869F8001879FFA
:10156000100D969F100D1124C8010DD0EC010097AD
:1015700021F0A80160E070E038D1CE01DF91CF9179
:101580001F910F910895CF93DF938230910510F44E
:1015900082E090E0E0916602F091670220E030E0A6
:1015A000A0E0B0E0309739F14081518148175907E8
:1015B000B8F04817590771F482819381109729F088
:1015C00013969C938E9312972CC0909367028093EE
:1015D000660227C02115310531F04217530718F074
:1015E000A901DB0101C0EF019A01BD01DF01028009
:1015F000F381E02DD7CF21153105F9F0281B390BE8
:101600002430310580F48A819B816115710521F0B8
:10161000FB019383828304C09093670280936602E8
:10162000FE01329644C0FE01E20FF31F81939193B5
:1016300022503109398328833AC0209164023091C5
:101640006502232B41F42091020230910302309372
:10165000650220936402209100023091010221155D
:10166000310541F42DB73EB7409104025091050277
:10167000241B350BE0916402F0916502E217F30739
:10168000A0F42E1B3F0B2817390778F0AC014E5FF2
:101690005F4F2417350748F04E0F5F1F50936502C8
:1016A000409364028193919302C0E0E0F0E0CF01A7
:1016B000DF91CF910895CF93DF93009709F487C00E
:1016C000FC01329713821282C0916602D0916702A8
:1016D000209781F420813181280F391F8091640285
:1016E000909165028217930779F5F0936502E09374
:1016F00064026DC0DE0120E030E0AE17BF0750F499
:1017000012964D915C9113979D014115510509F178
:10171000DA01F3CFB383A28340815181840F951FF7
:101720008A179B0771F48D919C911197840F951FD7
:1017300002969183808312968D919C911397938347
:1017400082832115310529F4F0936702E093660244
:101750003EC0D9011396FC93EE9312974D915D9183
:10176000A40FB51FEA17FB0779F480819181840FDC
:10177000951F0296D90111969C938E938281938135
:1017800013969C938E931297E0E0F0E08A819B8100
:10179000009719F0FE01EC01F9CFCE0102962881E5
:1017A0003981820F931F20916402309165022817BE
:1017B000390769F4309729F4109267021092660293
:1017C00002C013821282D0936502C0936402DF913B
:1017D000CF910895FC010590615070400110D8F739
:1017E000809590958E0F9F1F0895DC0101C06D9329
:1017F00041505040E0F70895FC0161507040019065
:101800000110D8F7809590958E0F9F1F08950F9324
:101810001F93CF93DF93182F092FEB018B8181FD4D
:1018200003C08FEF9FEF20C082FF10C04E815F8109
:101830002C813D81421753077CF4E881F9819F0197
:101840002F5F3F4F39832883108306C0E885F985D1
:10185000812F1995892B29F72E813F812F5F3F4FCB
:101860003F832E83812F902FDF91CF911F910F9176
:101870000895FA01AA27283051F1203181F1E89426
:101880006F936E7F6E5F7F4F8F4F9F4FAF4FB1E073
:101890003ED0B4E03CD0670F781F891F9A1FA11D6E
:1018A000680F791F8A1F911DA11D6A0F711D811D6F
:1018B000911DA11D20D009F468943F912AE0269F34
:1018C00011243019305D3193DEF6CF010895462F93
:1018D0004770405D4193B3E00FD0C9F7F6CF462F74
:1018E0004F70405D4A3318F0495D31FD40524193DD
:1018F00002D0A9F7EACFB4E0A6959795879577959A
:101900006795BA95C9F700976105710508959B0120
:10191000AC010A2E06945795479537952795BA95A9
:10192000C9F7620F731F841F951FA01D0895F894B7
:02193000FFCFE7
:101932000000680220000000C03F0102F849204672
:10194200414B544F523A20256420202050204641DA
:101952004B544F523A202564200A00494420696EB4
:1019620076616C69640066696E616C2073636F7284
:08197200653A202564200A00FB
:00000001FF
