:100000000C94B40B0C94D10B0C94D10B0C94D10B1D
:100010000C94D10B0C94D10B0C94D10B0C94D10BF0
:100020000C94D10B0C94D10B0C94D10B0C94D10BE0
:100030000C94D10B0C94D10B0C94D10B0C94D10BD0
:100040000C94D10B0C94D10B0C94D10B0C94D10BC0
:100050000C94D10B0C94D10B0C94D10B0C94D10BB0
:100060000C94D10B0C94D10B0C94D10B0C94D10BA0
:10007000000008000101000000000004060050C05C
:10008000C6C65252020201013030300000000000AA
:100090000000000000E0F0F0E0E0E0C0C080808000
:1000A0000000000000000000000000000000000050
:1000B0000000000000000000000000000000000040
:1000C0000000000000000000000000000000000030
:1000D0000000000000000000000000000000000020
:1000E0000000000000000000E0F0F0F0E4E4E4F4C0
:1000F00010000000000000040400000363E3E36359
:10010000020B6B63E0FCFEFFE7E3F3F2FCF0E08040
:1001100000000000C0FFFFFFFFFFFFFFFFFFFFFF2A
:10012000FFFEEEC3C1C0E0E0E0E060404000000040
:1001300000000000000080C080C0E0F8F8F000007F
:1001400000000000000000000000000000000000AF
:10015000000000000000000000000000000000009F
:100160000000C0C0E0F0F8FCFFFFFFFFFFFFFFFF53
:10017000000C1C781C1C2C0C0C04000000014341DA
:100180001C1C0C087FFFFFFFFFFFFFFFC3E3F1F321
:10019000FFFEFCFCFFFFFFFFFFFFFFFFFFFFFFFF76
:1001A000FFFFFFFFFFFFFFFFFFFEFCFCFCFCFCFC72
:1001B000FCFCFCFEFEFEFFFFFFFFFFFF7F070000D1
:1001C000000000000000C0C0C0808080000000006F
:1001D000000000000000000000000000000000001F
:1001E00000087FFFFFFFFFFFFFFFFFFFFFFFFF7F15
:1001F0000000303100000000320200000008000062
:100200000000008080C7DFFFFFFFFFFFFFFFFFFF51
:10021000FFFFFFFFFFFFFFFFFFFFFFFFFFFFFFFFEE
:10022000FFFFFFFFFF7F3F3F1F0F0F8787C7E3F3EE
:100230007F3F3F3F3F3F3F3F3F3F3F3F3F1C00002F
:1002400000000000007EFFFFFFFFFFFFFFFFFFFF3A
:10025000FEFCFC2000000000000000000000000088
:100260000000181F1F1F0F0F0703030301000000EA
:1002700000081E7232000C5FFFDAC00000000000B0
:10028000B9FFBBB9BBFFB999BFBFBFBFBFBF9F9F7E
:10029000FFFFF7FFFFFFFFFFFFFFFFFFFFFBF1FF88
:1002A000FFFFE7E1F0F87C3E3E3F7F7F7F7F3F3FEF
:1002B0007F7E7C7C7C7870E0C0C0C0C0C000000045
:1002C0000000000000003061C3870F0F0F1F1F0FD9
:1002D0000F07000000000000000000000000000008
:1002E000000000000000000000000000000000000E
:1002F0000000006626068486C7C7C3010000000010
:10030000337FFFFB3BFFFFFBFBFFFBBBFFFFBB3B69
:10031000FFFFFFFFFFFFFFFFFFFF9F1F3F7FFFFF6D
:10032000FFFFFFFFFFFFFEFEFEFEFEFEFCFCFCFCEF
:10033000FCFCFCFCFCFCF8E8E0C0C0C08000000055
:10034000000000000000000000C1C3000000000029
:10035000000000000000000000000000000000009D
:10036000000000000000000000000000000000008D
:10037000000020010171F1F0F0F0F0707000E0E099
:10038000A387870707070707070707070307C7F3B9
:10039000FFFFFFFFFFFFFFFFFFFDC1040800010F8C
:1003A0003F7FFFFFFFFFFFFFFFFFFFFFFFFFFFFF9D
:1003B000FFFFFFFFFFFFFFFDF9F9F8F8F8F8F0E0A5
:1003C000C0C0C000000000000000000000000000ED
:1003D000000000808000800000000000000000009D
:1003E000000000000000000000000000000000000D
:1003F000000004070783818183CBCB030B080C0F1C
:1004000003010100000000000000000078FEFFFF73
:10041000FFFFFFFFFFFFFFFFFFFFFFFFFEFCF8F006
:10042000E0C000000101030303030307070F0F0FE0
:100430000F1F1F1F1F1F1F1F1F1F0F0F070303016A
:1004400001010000000000000000000000000000AA
:10045000040002070300000000000000000000008C
:10046000000000000000000000000080C0C000008C
:10047000FFFFFFFFFFFFFFFFFF3F3F3F3F1F1F1F2C
:100480000F0F0F0F0707070707070707070F0F1FB4
:100490001F3F3F7F7FFFFFFFFFFFFFFFFFFFFFFFCC
:1004A000FF7F7F3F3F1F1F1F1F1F1F3F3F7F7FFF9C
:1004B000FFFFFFFFFF7F7F7F3F3F1F1F1F0F0F0FBC
:1004C0000F0F0F0F0F0F0F0F0F1F1F1F1F1F1F3FAC
:1004D0003F3F3F3F3F1F1F1F0F0F0707070707073C
:1004E0000F0F1F3F7FFFFFFFFFFFFFFFFFFFFFFF1C
:1004F000FFFFFFFFFFFFFFFFFFFFFEFCF8F8F0F03C
:10050000F0F8F8F8FCFCFCFCFEFEFEFEFEFEFEFE33
:10051000FEFCFCF8F8F0F0E1E1C1C181818181804D
:10052000808080C0C0C0E0F0F0F0F8F8F8F8F8F093
:10053000F0E0C0C0C0C0C0C0C0E0E06070F0F8F83B
:10054000F8F8FCFCFCFCFCFCFCFCFCFCFCF8F8F8FF
:10055000F8F8F8F0F0F0F0F0F0F8F8F8FCFCFCFE39
:10056000FEFEFEFCFCFCFDFFFFFFFFFFFFFFFFFFA9
:10057000FFFFFFFFFFFFFF7F3F1F0F07C3E3E1F117
:10058000F1F1F1C18080C3FFFFFFFFFFFFFFFFFF1D
:10059000FFFFFFFFFFFFFFFFFFFFFFFFFFFFFFFF6B
:1005A000FFFFFFFFFFFFFFFFFFFFFFFFFFFFFFFF5B
:1005B000FFFFFFFFFFFFFFFFFFFF000000FFFFFF48
:1005C000FFFFFFE3E3E3F7FFFFFFFFFFFFFFFF0F87
:1005D00007071FFFFFFFFFFFFFFFFFFFFFFFFFFFFB
:1005E000FFFFFFFFFFFFFFFFFFFFFFFFFFFFFFFF1B
:1005F000FFFFFFFF1F070180F0FCFEFFFFFFFFFF73
:10060000FFFFFFFFFFFFFFFFFF0301010787C3E3BA
:10061000E1F1F1010103FFFFFF3F0F0783E3E1F188
:10062000F1717131210307CFFFFFFFFF7F1F0F879C
:10063000C3E3F1F1F1F1F1E1C3070000F8FFFFFFBF
:10064000FFFF03010103FFFFFFFFF9F1F1F1F100EB
:10065000000000F1F1F1F1F1FFFFFF3F0F0F07C7BD
:10066000E7E3E3F3F1C18181CFFFFFFFFFFFFFFF6E
:10067000FFFFFFFFC000001F3F7FFFFFFFFF7F7FE7
:100680003F3F1F0F0F9FFFFFFF000000FFFFFFFF17
:10069000FFFFFFFEFEFEFFFFF7800002237171F8EF
:1006A000F8FCFCFE7E7F3F1F1FFFFFFFC000001F06
:1006B0003F7FFFFFFFFFFF7F3F0000003FFFFFFF87
:1006C000FFFF00000000FFFFFFFFFFFFFFFFFFF83D
:1006D000000000FFFFFFFFFFFFFF3F3E7C78F8F8C0
:1006E000F8F8F0F16103030FFFFFFFFFFFFFFFFFCB
:1006F000FFFFFFFFFFFFFEFCFCF8F8F87838381C1E
:100700001C1C0E0F0F0F0F1F3F7CF8F8FFFFFFFFA1
:10071000FFFFFFFFFFFFFFFFFFFFFEFEFCFCF8F8FF
:10072000F8F8F8F8F8FCFCFEFFFFFFFFFFFFFEFC07
:10073000FCF8F8F8F8F8F8F8FCFCF8F8FCFFFFFF14
:10074000FFFFFCF8F8FCFFFFFFFFFFFFFFFFFFFDCF
:10075000F8F8FCFFFFFFFFFFFFFFFEFCFCF8F8F8D6
:10076000F8F8F8F8FCFCFEFFFFFFFFFFFFFFFFFFBC
:10077000FFFFFFFFFFFF3F0F0703010000000080A6
:10078000C0E0F0F0F8F8FCFCFCFCF8F1E3E7C78F00
:100790000F1F3F7F7FFFFFFFFFFFFFFFFFFFFF7F79
:1007A0003F3F1F1F1F0F0F0F0F0F0F0F0F0F0F0FC9
:1007B0001F1F3F3F3F3F3F3F1F1F0F0F0F07070305
:1007C00003030303030307070F1F1F1F3F3F3F3FA1
:1007D0003F3F3F3F1F1F1F1F0F0F07070303030369
:1007E000030303070F1F3F7FFFFFFFFFFFFFFFFF15
:1007F000FFFFFFFFFFFFFEFCF8F0F0E0F8FEFFFF59
:10080000FFFFFFFFFFFFFFFFFFFFFFFFFFFFFFFFF8
:10081000FFFEFEFCF8F0E0E1C1C1818181808080B3
:1008200080C0C0E0E0F0F0F8F8FCFCFCFCFCFCFC54
:10083000FCFCFCF8F8F8F0F0F0F0F0F0F0F8FCFC5C
:10084000FCFEFEFFFFFFFFFFFFFEFEFEFCF8F8F8D8
:10085000F0F0F0F0F0F0F0F0F8F8F8F8FCFCFEFE44
:10086000FFFFFFFFFFFFFFFFFFFFFFFFFFFFFFFF98
:10087000FFFFFFFFFFFFFFFFFFFFFFFFFFFFFFFF88
:10088000FFFFFFFFFFFFFFFFFFFFFFFF3F1F1F0FE8
:100890001F9F5F5F7F3F3FBFBF7F7F7F3F3FBFBFE8
:1008A000FFFFFFFFFFFFFFFFFFFFFFFFFFFFFFFF58
:1008B000FCFCFCF8F8F0F0F0FCFCF8F9F9FBF2F6BF
:1008C000F4F0E0C0C0C0C0C0800000000000010320
:1008D000071F7FFFFFFFFFFFFFFFFFFFFFFFFFFF80
:1008E000FFFFFFFFFFFFFFFFFFFFFFFFFFFFFFFF18
:1008F000FFFFFFFFFFFFFFFFFFFFFFFFFFFFFFFF08
:10090000FFFFFFFFFFFFFFFFFFFF81000000000070
:10091000000000000080C0F0F8FCFCFEFEFFFFFFBE
:10092000FFFFFFFFFFFFFFFFFFFFFFFFFFFFFFFFD7
:10093000FFFFFFFFFFFFFFFFFFFFFFFFFFFFFFFFC7
:10094000FFFF7F7F3F7FFFFFFFFCF0F0F000180309
:100950000000066F1F3FFFFFFFFFFFFFFFFFFFFFCE
:10096000FFFFFFFFFFFFFFFFFFFFFFFFFFFFFFFF97
:10097000FFFFFFFFFFFFFFFFFFFFFFFFFFFFFFFF87
:10098000FFFFFFFFFFFFFFFFFFFFFFFFFC00000077
:100990000000000CFFFFFFFFFFFFFFFFFFFFFFFF57
:1009A000FFFFFFFFFFFFFFFFFFFFFFFFFFFFFFFF57
:1009B000FFFFFFFFFFFFFFFFFFFFFFFFFFFFFFFF47
:1009C000FFFBE000000065474F3FFFEF3E180000CF
:1009D00000000000001C7FFFFFFFFFFFFFFFFFFF85
:1009E000FFFFFFFFFFFFFFFFFFFFFFFFFFFFFFFF17
:1009F000FFFFFFFFFFFFFFFFFFFFFFFFFFFFFFFF07
:100A0000FFFFFFFFFFFFFFFFFFFFFFFFFFF0C080C3
:100A10003E04C0F0FBDF9F9F9F9F9F9FDFCB8B8398
:100A20008383C7E7CFCFDFFFFFFFFFFFFFFFFFEFAE
:100A3000E7E3E1E1F0F9F3E3E3E3E3F3F3F3F3F303
:100A4000F3F3F3FEFEFEF8C0E020071F1C787030C1
:100A5000000000000000F0FFFFFFFFFFFFFFFFFFAF
:100A6000FFFFFFFFFFFFFFFFFFFFFFFFFFFFFFFF96
:100A7000FFFFFFFFFFFFFFFFFFFFFFFFFFFFFFFF86
:100A8000FFFFFFFFFFFFFFFFFFFFFFFFFFFFFFFF76
:100A9000FEFEFFFFFFFFFFFFFFFFFFFFFFFFFFFF68
:100AA000FFFFFFFFFFFFFFFFFFFFFFFFFFFFFFFF56
:100AB000FFFFFFFF7F3FFFFFFFFFFFFFFFFFFFFF86
:100AC000FFFFFFFFFFFFFFFF7F1800000000202057
:100AD0002010000080F8F8FFFFFFFFFFFFFFFFFF7F
:100AE000FFFFFFFFFFFFFFFFFFFFFFFFFFFFFFFF16
:100AF000FFFFFFFFFFFFFFFFFFFFFFFFFFFFFFFF06
:100B0000FFFFFFFFFFFFFFFFFFFFFFFFFFFFFFFFF5
:100B1000FFFFFFFFFFFFCF9F9FFFFFFFFFFFFFFFD5
:100B2000FF7FFFFFFFFFF3F3F3E7E7E7E7E7E3F319
:100B3000F37179797C7E7F3F3F3F3F3FBFFFFBFFF3
:100B4000FFFFFFFFFFE7FDFDFC0000E0FCFCFCF801
:100B5000F8FCFEFFFFFFFFFFFFFFFFFFFFFFFFFFB0
:100B6000FFFFFFFFFFFFFFFFFFFFFFFFFFFFFFFF95
:100B7000FFFFFFFFFFFFFFFFFFFFFFFFFFFFFFFF85
:100B8000FFFFFFFFFFFFFFFFFFFFFFFFFFFFFFFF75
:100B9000FFFFFFFFFFFFFFFFFFFFFFFFFFFFFFFF65
:100BA000FFFFFEFEFCFCFCFCFEFEFEFFFFFFFFFF66
:100BB000FFFFFFFFFFFDFFFEFEFEFFFFFFFFFFFF4A
:100BC000FFFFFFFFFF7F1F030080C3C1C0811F7FA6
:100BD0007F7F7FFFFFFFFFFFFFFFFFFFFFFFFFFFA5
:100BE000FFFFFFFFFFFFFFFFFFFFFFFFFFFFFFFF15
:100BF000FFFFFFFFFFFFFFFFFFFFFFFFFFFFFFFF05
:100C0000FFFFFFFFFFFFFFFFFFFFFFFFFFFFFFFFF4
:100C1000FFFFFFFFFFFFFFFFFFFFFFFFFFFFFFFFE4
:100C2000FFFFFFFFFFFFFF7F7F7F7F7FFFFFFFFF54
:100C3000FFFFFFFFFFFF7F7F7F3F3F3F1F1F0F072C
:100C40000383C1E0F0F8FCFEFFFFFFFFFFFFFEFCA7
:100C5000F0E0C080F9FFFFFFFFFFFFFFFFFFFFFF96
:100C6000FFFFFFFFFFFFFFFFFFFFFFFFFFFFFFFF94
:100C70000000000000000000000000000000000074
:100C80000000000000000000000000000000000064
:100C90000000000000000000000000000000000054
:100CA0000000000000000000000000000000000044
:100CB0000000000000000000000000000000000034
:100CC0000000000000000000000000000000000024
:100CD0000000000000000000000000000000000014
:100CE0000000000000000000000000000000008084
:100CF00000000000000000000000000000000000F4
:100D000000000000000000000000000000000000E3
:100D100000000000000000000000000000000000D3
:100D200000000000000000000000000000000000C3
:100D300000000000000000000000000000000000B3
:100D400000000000000000000000000000000000A3
:100D50000000000000000000000000000000000093
:100D6000000000000000000000000000000001037F
:100D70000000000000000000000000000000000073
:100D80000000000000000000000000000000000063
:100D90000000000000000000000000000000000053
:100DA0000000000000000000000000808000000043
:100DB00000008080000040404080808000000000F3
:100DC0000000000000000000000000000000000023
:100DD00000000000008080A06040000000000000D3
:100DE0000000000000000000000000000000000003
:100DF00000000000000000000000000000000000F3
:100E00000000000000000000000000387CFCF8F842
:100E1000F8F8F0F0F0F0F0F0F0F0F0F0F8F8F8F8A2
:100E2000FCFCFCFEFEFEFE7E7F3F3F3F9F9FDFEF10
:100E3000FFFFFFF7F7F770F07070F1E1E1E1E7E332
:100E4000E3E6C6C0C0800000000000000000000013
:100E500000F0F07C7CFFFFFFFFFFFFFEFC7800004E
:100E60000000000000000000000000000000000082
:100E70000000000000000000000000000000000072
:100E8000000000000000000000000000000103035B
:100E900003030303030307070707272F0F0F0F1F82
:100EA0007FFFFFFFFDFCFCFCF8F8F8F8F0F0F0E045
:100EB000F0F3F3FFFFFEFEFEFEFEFFFFFFFFFFFF6E
:100EC000FFFFFFFFFFFF3D000000000000000000EB
:100ED0000000070F0F0F0F0F0F07030100000000A6
:100EE0000000000000000000000000000000000002
:100EF00000000000000000000000000000000000F2
:100F000000000000000000000000000000000000E1
:100F1000000000061C1E3E3E3C7E7E7EFEFEFCE087
:100F2000809F9FBFBFBFBFBF9F9F9FFFFFFFFFF37C
:100F3000F3FFFFFFFFFFFFFFFFFFFFFFFFFFFFFFCD
:100F4000FFFFFFFFF7FCFEFFFFFFFFFFFFFEFEFEC0
:100F5000F8F0F0F8F8F8F8FCFCF8F0C00000000039
:100F60000000181000000000808000000000000059
:100F70000000000000000000000000000000000071
:100F80000000000000000000000000000000000061
:100F90000000000000000000000000000000000150
:100FA000010307070F0F0B0301010505070E0E0FC5
:100FB0000707878787C3E3E3F3F1F8FFFFFFFFFF2E
:100FC000FFFFFFFFFFFFFF7F3F7F7F3F1F1F8FCF91
:100FD000C7F7FFFFFFFFFFFFFFFFFFFFFFFEFCF074
:100FE000E0C0060EFFFFFFFFFFFFFFFFFFFFFFFF59
:100FF0008000000000000000000000000000000071
:1010000000000000000000000000000000000000E0
:1010100000000000000000000000000000000000D0
:1010200000000000000000000000000000000001BF
:10103000030307070707070F0F0F07070707070730
:1010400007070303313178787C7C7EFEFFFFFFFFCA
:10105000FFFFFFFFFFFFFFFFFFFFFFFFFFFFFFFFA0
:10106000FFFFFEFFFFFFFFFFFFFFDFFFFFFFFFFFB1
:10107000FFFFFFFFFFFFFF7F7FFFFFFFFFFFFFFF80
:10108000FFFFFFFFFFFFFFFFFFFFFFFFFFFFFFFF70
:10109000FFFFFFFFFF7F7F7F7F7F7F7F7F7F7F7FE0
:1010A0007F3F3F3F3F3F3F1F1F1F1F1F1F1F1F0F40
:1010B0000F0F0F0F0F0F0F07070707070303030398
:1010C0000301010101010101010101010101000010
:1010D0000000000000010101010101030303070FEB
:1010E0000F1F3F3F0F0767E707071FFFFFFFFFFFC8
:1010F000FFFFFFFFFFFFFFC0800107070F1FC71F94
:101100003F3F7F3F1F1F0F0F0F0707030301010121
:1011100001000000000000000000000000000000CE
:1011200000000000000000000000000000000000BF
:1011300000000000000000000000000000000000AF
:10114000000000000000000000000000000000009F
:10115000000000000000000000000000000000008F
:1011600000000000000000001CFCFBFBFBFFFFFF79
:10117000FFFFFFFFFFFFFFFFFFFEFC3C00008002C0
:10118000104000000000000000000000000000000F
:10119000000000000000000000000000000000004F
:1011A000000000000000000000000000000000003F
:1011B000000000000000000000000000000000002F
:1011C000000000000000000000000000000000001F
:1011D000000000000000000000000000000000000F
:1011E00000000000000000000000FFFFFFFFFFFF05
:1011F000FF1F1F1F1F1F0F0F070300000000030327
:1012000000000000000000000100000000000800D5
:10121000002040000000000000000000000000006E
:1012200000000000000000000000000000000000BE
:1012300000000000000000000000000000000000AE
:10124000000000000000000000000000000000009E
:10125000000000000000000000000000000000008E
:10126000000000000080C0E2F8FEFFFFFFFFFFFF6C
:10127000FFFCFAF9F0E0C0808000000000000000F0
:10128000000000000000000000000000000000401E
:10129000000000000001001020000000000000001D
:1012A000000000000000000000000000000000003E
:1012B000000000000000000000000000000000002E
:1012C000000000000000000000000000000000001E
:1012D000000080800000000000000000000000020C
:1012E000000000FEFFFFFFFFFFFFFFFFFFFFFFFF0C
:1012F000FFFFFFFFFFFFFFFFFFFFFEFEFCFCFCFE0A
:10130000FCFCFCF8F8FCFCFCFCFCFCFCFCF9F8FC2C
:10131000FCFCFCFEFEFEFEFCFCFCF20420000000D7
:101320000000000000E0F8F8F8FCFCFCFCFCFCF815
:10133000F8FCFCFCFCFCF8F8FCFCFCFCF8F8F8FC05
:10134000FCFCFCFCFCF8FEFEFEFEFEFEFEFFFFFFCA
:10135000FFFFFFFF80000000000000000000000011
:1013600000000083F7FFFFFFFFFFFFFFFFFFFFFF0E
:10137000FFFFFFFFFFFFFFFFFFFFFFFFFFFFFFFF7D
:10138000FFFFFFFFFFFFFFFFFFFFFFFFFFFFFFFF6D
:10139000FFFFFFFFFFFFFFFFFFFFFF0000009800C0
:1013A00000000000FCFFFFFFFFFFFFFFFFFFFFFF4C
:1013B000FFFFFFFFFFFFFFFFFFFFFFFFFFFFFFFF3D
:1013C000FFFFFFFFFFFFFFFFFFFFFFFFFFFFFFFF2D
:1013D000FFFFFFFF3F0000000088C0E4F8000000AE
:1013E00000E0FCFFFFFFFFFFFFFFFFFFFFFFFFFF2E
:1013F000FFFFFFFFFFFFFFFFFFFFFFFFFFFFFFFFFD
:10140000FFFFFFFFFFFFFFFFFFFFFFFFFFFFFFFFEC
:10141000FFFFFFFFFFFFFFFFFFF7F3F0D0C0C4E8BF
:10142000C0C8C0F8FFFFFFFFFFFFFFFFFFFFFFFF88
:10143000FFFFFFFFFFFFFFFFFFFFFFFFFFFFFFFFBC
:10144000FFFFFFFFFFFFFFFFFFFFFFFFFFFFFFFFAC
:10145000FFFF9F9190B08080F8FFFFF7E0E0F0F091
:10146000FEFFFFFFFFFFFFFFFFFFFFFFFFFFFFFF8D
:10147000000000000000000000065F5F06000000A2
:101480000007070007070000147F7F147F7F140008
:10149000242E6B6B3A120000466630180C66620010
:1014A000307A4F5D377A48000407030000000000DF
:1014B000001C3E63410000000041633E1C00000030
:1014C000082A3E1C1C3E2A0808083E3E0808000068
:1014D00000A0E060000000000808080808080000FC
:1014E00000006060000000006030180C060301007E
:1014F0003E7F594D7F3E000042427F7F40400000CA
:10150000627359496F660000226349497F360000C3
:10151000181C16137F7F1000276745457D39000092
:101520003C7E4B4979300000036371190F070000BE
:10153000367F49497F360000064F49693F1E00004B
:1015400000006C6C0000000000A0EC6C00000000CB
:10155000081C366341000000141414141414000015
:10156000004163361C080000020351590F060000B9
:101570003E7F415D5D1F1E007C7E13137E7C00005C
:10158000417F7F49497F36001C3E63414163220011
:10159000417F7F41637F1C00417F7F495D41630044
:1015A000417F7F491D0103001C3E6341517372005E
:1015B0007F7F08087F7F000000417F7F410000009F
:1015C000307040417F3F0100417F7F081C776300FE
:1015D000417F7F41406070007F7F060C067F7F0067
:1015E0007F7F060C187F7F001C3E6341633E1C001A
:1015F000417F7F49090F06001E3F21717F5E000079
:10160000417F7F19396F460026674D597B320000B4
:1016100003417F7F410300007F7F40407F7F0000C8
:101620001F3F60603F1F00007F7F3018307F7F00CA
:1016300063771C081C776300074F78784F0700001A
:101640006773594D47637100007F7F41410000007F
:101650000103060C183060000041417F7F0000004C
:10166000080C0603060C0800808080808080808043
:101670000000030704000000207454543C7840002C
:10168000413F7F44447C3800387C44446C2800004F
:10169000307848493F7F4000387C54545C18000043
:1016A000487E7F490302000098BCA4A4F87C040093
:1016B000417F7F08047C780000447D7D400000006D
:1016C00040C484FD7D000000417F7F10386C4400E1
:1016D00000417F7F400000007C7C0C180C7C78006F
:1016E0007C7C04047C780000387C44447C38000016
:1016F00084FCF8A4243C1800183C24A4F8FC8400C2
:10170000447C78441C180000485C54547424000045
:1017100000043E7F442400003C7C40403C7C400070
:101720001C3C60603C1C00003C7C6030607C3C00E9
:10173000446C3810386C44009CBCA0A0FC7C0000B9
:101740004C64745C4C64000008083E774141000022
:1017500000000077770000004141773E0808000054
:10176000020301030203010011241FBECFEFD4E0E6
:10177000DEBFCDBF11E0A0E0B1E0EEE8F3E302C0D0
:1017800005900D92AC3FB107D9F723E0ACEFB1E083
:1017900001C01D92A136B207E1F70E94F70D0C942B
:1017A000C5190C94000085B7886085BF85B7846033
:1017B00085BF86B7806486BFC39ABB980895E091C1
:1017C0000601F09107018D5F8083B399FECFE09110
:1017D0000601F0910701808108950E940D0F40E0FD
:1017E00060EE8FE00E94E70E08958CE20E949B0E4F
:1017F000837029F48CE20E949B0E8370D9F30895C4
:10180000FF920F931F93CF93DF931F92CDB7DEB755
:101810008C010E94F50B8CE20E949B0E898381E66D
:101820000E949B0E90E0F8019183808385E60E94E0
:101830009B0EF8018283882371F0F12C86E68F0DD0
:101840000E949B0EF801EF0DF11D8383F394F801C4
:101850008281F81698F340E061E08CE20E94E70E86
:101860000F90DF91CF911F910F91FF900895CF932B
:10187000DF931F92CDB7DEB780E30E949B0E898372
:10188000898183FF07C080E30E949B0E8983898141
:1018900083FDF9CF0F90DF91CF9108951F93CF93E0
:1018A000DF93EC010E94370C60E082E30E94AF0EF0
:1018B000688181E30E94AF0E6A8185E30E94AF0ECA
:1018C0008A81882369F010E0FE01E10FF11D638138
:1018D00086E3810F0E94AF0E1F5F8A811817A0F365
:1018E00081E80E94C50EDF91CF911F910895CF939B
:1018F000DF93CDB7DEB72B970FB6F894DEBF0FBEE0
:10190000CDBF6C837D838E839F8382E090E09A833A
:10191000898384E08B83CE0101960E944E0C2B9626
:101920000FB6F894DEBF0FBECDBFDF91CF91089503
:10193000EF92FF920F931F93CF93DF93CDB7DEB754
:101940002B970FB6F894DEBF0FBECDBFE982FA82A7
:101950000B831C83E22F2D833E834F835887698737
:101960007A878B87212F30E03E2BC901992324F4FD
:1019700088279927821B930B0E944B1383ED90E3DA
:101980000197F1F700C000002B960FB6F894DEBF68
:101990000FBECDBFDF91CF911F910F91FF90EF90C0
:1019A0000895EF92FF920F931F93CF93DF93CDB7DC
:1019B000DEB765970FB6F894DEBF0FBECDBF012F1F
:1019C00010E0122B0E94A1128CE091E00E946C1298
:1019D0006BE082E00E94591287E191E00E946C1254
:1019E0006CE283E00E9459121F930F9385E291E00D
:1019F0009F938F938E010F5F1F4F1F930F930E9432
:101A0000AA15C8010E946C120F900F900F900F90B2
:101A10000F900F9065960FB6F894DEBF0FBECDBF46
:101A2000DF91CF911F910F91FF90EF900895CF9389
:101A300081E00E94DF0BC82F82E00E94DF0B282F7D
:101A40006C2F70E0822F90E0CF9108950F931F9339
:101A5000CF9382E00E94DF0BC82F81E00E94DF0B52
:101A6000482F6091500370915103E0915203F0911F
:101A70005303AC2FB0E0A61BB70BC4E6CA9FC0014E
:101A8000CB9F900D11240E9437158B0150E04E1B07
:101A90005F0BC49FC001C59F900D1124BF010E9420
:101AA00037159B01C901B801CF911F910F9108957E
:101AB000CF9383E00E94DF0BC82F84E00E94DF0BEE
:101AC000282F622F70E08C2F90E0CF910895CF9354
:101AD000DF93CDB7DEB72B970FB6F894DEBF0FBEFE
:101AE000CDBFC29ABA980E94170D609350037093AD
:101AF0005103809352039093530381E090E09A83C3
:101B0000898382E08B836C83809152038D83CE0125
:101B100001960E944E0C2B960FB6F894DEBF0FBEB6
:101B2000CDBFDF91CF9108950E94260D63337105DB
:101B3000B4F46E3CEFEF7E07A4F08E3C2FEF9207DB
:101B400094F0833391058CF49B012C5F3F4F293037
:101B5000310568F40496099760F085E0089582E005
:101B6000089583E0089581E0089580E0089585E078
:101B7000089584E0089586B38170089586B38695AC
:101B80008170089586B382FB882780F991E08927C8
:101B90000895CF93DF93CDB7DEB72B970FB6F894A8
:101BA000DEBF0FBECDBF1A82198297E09B838C8364
:101BB00082E00E94DF0B8D8381E00E94DF0B8E8329
:101BC0000E94580D6F8388870E94BB0D89870E94F1
:101BD000BE0D8A87CE0101960E944E0C2B960FB641
:101BE000F894DEBF0FBECDBFDF91CF910895CF93A4
:101BF000DF93CDB7DEB760970FB6F894DEBF0FBEA8
:101C0000CDBF0E94291585B7806885BF80B78062E7
:101C100080BF85B7806485BF86B7826086BF8E9A95
:101C20008F9A319ABE98BF9887B387BB0E94D30B17
:101C30000E94C5120E94ED0B0E94670D0E94120FB8
:101C40000E94A2101D82D12CBB24B394C12CDD2094
:101C500021F021E0D216A1F1FACF0E94940D182FA5
:101C60008FEF9FE721E0815090402040E1F700C0D6
:101C700000C00E94940D811751F380E090EF01970E
:101C8000F1F70E94940D182F0E9407111230F9F6F7
:101C9000BE016B5F7F4FCE0101960E946B118D815B
:101CA0008130A9F669817A818B819C810E94770CB1
:101CB0000E9458110E94A1120E94C714DB2CC7CFAA
:101CC0000E94940D0E94C90DCE0106960E94000C40
:101CD0008E819F81449769F4EE80FF800885198585
:101CE0002A853B854C855D856E857F8588890E9428
:101CF000980C8E819F81459709F0A9CFEE80FF80D7
:101D0000088519852A853B854C855D856E857F858F
:101D100088890E94D10C0E94BE0D811108C00E94CA
:101D2000BB0D811104C00E94C20D8823A1F30E9443
:101D30005811DC2C8CCFCF93C82F80E00E941B154C
:101D400083E00E940A158C2F0E940A150E940E152E
:101D5000C82F81E00E941B158C2FCF910895CF933F
:101D6000DF93D82FC62F80E00E941B1582E00E94CF
:101D70000A158D2F0E940A158C2F0E940A1581E0EA
:101D80000E941B15DF91CF910895CF93C82F80E05B
:101D90000E941B158FE78C0F823020F0C43811F0A1
:101DA000C73821F48C2F0E940A150CC00E94C7145A
:101DB0002AE230E58EEF90E02150304080409040A4
:101DC000D9F7000081E00E941B15CF9108951F9361
:101DD000CF93DF93182FD62FC42F80E00E941B15BE
:101DE00085E00E940A15812F0E940A158D2F0E94FE
:101DF0000A158C2F0E940A1581E00E941B15DF91A5
:101E0000CF911F91089580E00E941B1580EC0E94E5
:101E10000A1581E00E941B1508950E9413150E9467
:101E2000030F08958F929F92AF92BF92CF92DF924D
:101E3000EF92FF920F931F93CF93DF930F2EFFE349
:101E40008F2EF3E09F2EF02D88E291E0D4018D9348
:101E50009C931092420310924103CEE2D3E0D093C0
:101E60004603C09345038DE193E09093480380932C
:101E70004703ECE0F3E0F0934A03E093490347EBB8
:101E800052E050934C0340934B036894FF24F2F8C4
:101E9000F0924F0321E331E039832883909231039C
:101EA000809230030AEE12E010933503009334035E
:101EB00069ED72E0709337036093360328EC32E0EB
:101EC00030933903209338030F2EF3E0AF2EF02D1B
:101ED000A0923E030F2EFAE3CF2EF1E0DF2EF02D7D
:101EE000D801CD92DC92D093ED02C093EC02109217
:101EF000FA020FE311E0DB010D931C93D093DC0297
:101F0000C093DB021092E90266E471E0D9016D939F
:101F10007C93D093CB02C093CA021092D8022BE4D8
:101F200031E0DC012D933C939092200380921F03BB
:101F300010922D0387E591E09183808390920F03A7
:101F400080920E0326EA32E03093130320931203AB
:101F500063E772E07093150360931403C2E6D2E066
:101F6000D0931703C093160381E592E09093190371
:101F700080931803F0921C030FE511E0D9010D9333
:101F80001C93F093A902E093A8020F2EF5E9EF2E1F
:101F9000F2E0FF2EF02DF092AD02E092AC0204E8E8
:101FA00012E01093AF020093AE026894BB24B1F824
:101FB000B092B6020F2EFEE6CF2EF1E0DF2EF02D0E
:101FC000D701CD92DC923093980220939702109221
:101FD000A5020F2EF4E7EF2EF1E0FF2EF02DD80131
:101FE000ED92FC9230938702209386021092940225
:101FF0002DE731E039832883F0936502E093640292
:102000000F2EFFE2EF2EF2E0FF2EF02DF09269028C
:10201000E092680200E412E010936B0200936A02FF
:102020002EE132E030936D0220936C02A092720296
:102030000F2EFBE8CF2EF1E0DF2EF02DD701CD9251
:10204000DC92D0933202C093310210923F020F2EE5
:10205000FCE9EF2EF1E0FF2EF02DD801ED92FC927D
:10206000D0934302C09342021092500205E911E05E
:10207000D9010D931C93D0932102C093200210929A
:102080002E0221EA31E0DC012D933C93F0935402BF
:10209000E09353022DE032E0309358022093570230
:1020A000CCEFD1E0D0935A02C0935902B0926102B2
:1020B0000FEA11E0D9010D931C93909310028093C5
:1020C0000F0210921D0223EB31E039832883909395
:1020D000FF018093FE0110920C028CEB91E0DB017A
:1020E0008D939C93F0937602E09375021092830295
:1020F00082EC91E0FA01918380839092BA028092FF
:10210000B9021092C70281E1F401ABEFB2E0019095
:102110000D928A95E1F760E081E00E94591281E01A
:102120008093540384E20E941512DF91CF911F9196
:102130000F91FF90EF90DF90CF90BF90AF909F9066
:102140008F900895EF92FF920F931F93CF93DF9399
:102150006AE080E00E9459128AEC91E00E946C12C1
:102160008091FB029091FC020E946C128AEC91E03B
:102170000E946C1280910B0390E001960297F4F09C
:1021800001E013E0C1E0D0E00F2EFBE0EF2EF3E022
:10219000FF2EF02D6AE08C2F0E945912D801ED918C
:1021A000FD918D01808191810E946C122196F70131
:1021B000808190E00196C817D90764F3DF91CF9131
:1021C0001F910F91FF90EF90089560E00E945912C7
:1021D00084E20E941512089560E00E9459120E9444
:1021E0000A120895E091FD02F091FE0281E1ABEF49
:1021F000B2E001900D928A95E1F70E94A1120E942F
:10220000A21081E0809354030E94E510089581118B
:102210000FC080915403823008F449C00E94EC1032
:10222000809154038150809354030E94E5100895D7
:10223000813081F48091540390910B038917B8F594
:102240000E94EC10809154038F5F809354030E948E
:10225000E5100895823009F5E091540380910B0355
:102260008E1728F1EE2319F1F0E0EE0FFF1FE15079
:10227000FD4F0190F081E02D81E1ABEFB2E00190E4
:102280000D928A95E1F70E94A1120E94A21081E0AE
:10229000809354030E94E5100895833041F48091A7
:1022A000FD029091FE02892B11F00E94F210089518
:1022B00081E1EFE3F3E0ABEFB2E001900D928A959C
:1022C000E1F70E94A1120E94A21081E080935403C2
:1022D0000E94E51008950F931F93CF93DF93EC01B5
:1022E0008B0180910B03811190C08091FB02909132
:1022F000FC028B54914021F48CEC91E00E946C1212
:102300008091FB029091FC028A53914021F4198242
:1023100081E0F80180838091FB029091FC028F5351
:10232000914021F481E08983F80180838091FB0250
:102330009091FC028654914029F482E0898381E0E7
:10234000F80180838091FB029091FC02825C9140B5
:1023500021F40E94A1120E949A148091FB02909194
:10236000FC028E56914031F481E088830E94F21085
:102370000E94F2108091FB029091FC0284579140E0
:1023800029F418820E94F2100E94F2108091FB0240
:102390009091FC028B58914029F41A820E94F2100D
:1023A0000E94F2108091FB029091FC028C599140A6
:1023B00031F481E08A830E94F2100E94F210809131
:1023C000FB029091FC028559914031F482E08A83AE
:1023D0000E94F2100E94F2108091FB029091FC0288
:1023E0008F5A914029F41B820E94F2100E94F21031
:1023F0008091FB029091FC02835B914031F481E07B
:102400008B830E94F2100E94F210DF91CF911F91F6
:102410000F91089588E090E0E0910801F0910901A2
:10242000108201970097C1F7089528E0829FC001AC
:102430001124FC01E059FC4E20E030E08491A09191
:102440000801B09109018C93809155038F5F8093AF
:1024500055032F5F3F4F31962830310579F70895A6
:10246000809356038055E0910A01F0910B0180831F
:10247000089580935503803160F4E0910A01F09152
:102480000B018083E0910A01F0910B0180E18083D0
:102490000895982F9F70E0910A01F0910B019083AD
:1024A00082958F70805FE0910A01F0910B0180832B
:1024B0000895CF93C82F862F0E9439128C2F0E9427
:1024C0003012CF910895109255031092560360E098
:1024D00080E00E9459120895EF92FF920F931F938C
:1024E000CF93DF938C017C01C0E0D0E019C08091D4
:1024F00055038A3778F0809156038F5F0E9430121F
:1025000080E00E94391280915603883019F40E94AD
:10251000631210C0F70181917F010E94151221966C
:10252000F80101900020E9F73197E01BF10BCE177D
:10253000DF07E8F2DF91CF911F910F91FF90EF90AD
:1025400008951F93CF93DF9360E080E00E945912BB
:10255000C0E010E8D0E08C2F0E943012212F3D2FD8
:10256000E0910801F09109011082215031092115F3
:102570003105B1F7CF5FC83071F760E080E00E94AD
:102580005912DF91CF911F910895E0910A01F091C6
:102590000B018EEA8083E0910A01F0910B0181EA40
:1025A0008083E0910A01F0910B018AED8083E09134
:1025B0000A01F0910B0182E18083E0910A01F09120
:1025C0000B0188EC8083E0910A01F0910B0188EA0D
:1025D0008083E0910A01F0910B018FE38083E09109
:1025E0000A01F0910B0185ED8083E0910A01F091E1
:1025F0000B0180E88083E0910A01F0910B0181E8F2
:102600008083E0910A01F0910B0180E58083E091E5
:102610000A01F0910B0189ED8083E0910A01F091AC
:102620000B0181E28083E0910A01F0910B0180E2CD
:102630008083E0910A01F0910B0182E08083E091B8
:102640000A01F0910B018BED8083E0910A01F0917A
:102650000B0180E38083E0910A01F0910B018DEA88
:102660008083E0910A01F0910B011082E0910A0150
:10267000F0910B0184EA8083E0910A01F0910B0153
:1026800086EA8083E0910A01F0910B018FEA808352
:102690000E94A11208950F931F93CF93DF93CDB79C
:1026A000DEB72A970FB6F894DEBF0FBECDBF9F935B
:1026B0008F9385E291E09F938F938E010F5F1F4F61
:1026C0001F930F930E94AA156CE282E00E94591298
:1026D00088ED91E00E946C126CE283E00E94591236
:1026E0000E940A120E940A120E940A120E940A12F2
:1026F0000E940A126CE283E00E945912C8010E94F3
:102700006C120F900F900F900F900F900F902A96D1
:102710000FB6F894DEBF0FBECDBFDF91CF911F91F2
:102720000F9108950F931F93CF93DF930E94A112EF
:1027300080E00E943912C0E8D0E000E010E026C03E
:10274000F901E80FF91FE491A0910801B091090186
:10275000EC9301968830910599F7485F5F4F4C17CD
:102760005D0731F0802F912F9A012059374FE8CF24
:10277000809156038F5F0E94301280E00E943912D0
:10278000C058DF4FC03884E0D80721F0AE01405870
:102790005109E8CF0E94631280EE91E00E946C1212
:1027A000DF91CF911F910F9108950F931F93CF93B6
:1027B000DF930E94A11280E00E943912C0E8D0E0AD
:1027C00000E010E026C0F901E80FF91FE491A091A4
:1027D0000801B0910901EC9301968830910599F7B1
:1027E000485F5F4F4C175D0731F0802F912F9A01A2
:1027F0002059334FE8CF809156038F5F0E943012EB
:1028000080E00E943912C058DF4FC03884E0D807FA
:1028100021F0AE0140585109E8CF0E94631286EEC4
:1028200091E00E946C12DF91CF911F910F9108955A
:102830000F931F93CF93DF930E94A11280E00E9419
:102840003912C0E8D0E000E010E026C0F901E80F3E
:10285000F91FE491A0910801B0910901EC93019650
:102860008830910599F7485F5F4F4C175D0731F04D
:10287000802F912F9A0120593F4FE8CF8091560326
:102880008F5F0E94301280E00E943912C058DF4FE3
:10289000C03884E0D80721F0AE0140585109E8CF94
:1028A0000E9463128DEE91E00E946C12DF91CF9135
:1028B0001F910F9108950F931F93CF93DF930E9461
:1028C000A11280E00E943912C0E8D0E000E010E0E0
:1028D00026C0F901E80FF91FE491A0910801B09119
:1028E0000901EC9301968830910599F7485F5F4F95
:1028F0004C175D0731F0802F912F9A0120593B4FE3
:10290000E8CF809156038F5F0E94301280E00E94D2
:102910003912C058DF4FC03884E0D80721F0AE012B
:1029200040585109E8CF0E946312DF91CF911F9167
:102930000F9108950E945B142FE784E89EE12150D7
:1029400080409040E1F700C000000E9418142FE77B
:1029500084E89EE1215080409040E1F700C00000F3
:102960000E9492132FE784E89EE12150804090401E
:10297000E1F700C000000E94D5132FE784E89EE134
:10298000215080409040E1F700C0000008950F936F
:102990001F93CF93DF930E94A11280E00E9439120F
:1029A000C0E8D0E000E010E026C0F901E80FF91F10
:1029B000E491A0910801B0910901EC93019688304F
:1029C000910599F7485F5F4F4C175D0731F0802FF5
:1029D000912F9A0120593F4EE8CF809156038F5F87
:1029E0000E94301280E00E943912C058DF4FC03878
:1029F00084E0D80721F0AE0140585109E8CF0E9489
:102A0000631285EF91E00E946C12DF91CF911F91CC
:102A10000F9108958FB9779BFECF08951FB8779BCC
:102A2000FECF8FB10895BD9ABF9ABC9ABE988DB162
:102A300081658DB90895811102C0C4980895C49A22
:102A400008955F9BFECF8CB108955D9BFECF8CB93E
:102A500008958FE189B910BC88E18AB986E880BD04
:102A600061E275E185E295E10E945F15089597FBAB
:102A7000072E16F4009407D077FD09D00E944B155D
:102A800007FC05D03EF4909581959F4F0895709571
:102A900061957F4F0895AA1BBB1B51E107C0AA1F78
:102AA000BB1FA617B70710F0A61BB70B881F991FEF
:102AB0005A95A9F780959095BC01CD0108950F9383
:102AC0001F93CF93DF93EC018B01009731F46115D5
:102AD000710519F480E090E038C06EE070E081E0AC
:102AE00090E00E949E17FC010097A1F380E8838389
:102AF0000115110571F01387028781E883838091A6
:102B0000570390915803892B21F4F0935803E093D5
:102B100057032097C9F0D187C08783818260838360
:102B20008091590390915A03892B71F4F0935A03C1
:102B3000E093590380915B0390915C03892B21F40E
:102B4000F0935C03E0935B03CF01DF91CF911F9182
:102B50000F910895AEE0B0E0E0EBF5E10C949C1924
:102B60000D891E8986E08C831A8309838FEF9FE786
:102B70009E838D83AE01475E5F4F6F89788DCE0156
:102B800001960E94CC15EF81F885E00FF11F1082AD
:102B90002E96E4E00C94B819ACE0B0E0E2EDF5E17B
:102BA0000C948E197C016B018A01FC01178216823C
:102BB000838181FFBDC1CE0101964C01F701938154
:102BC000F60193FD859193FF81916F01882309F4AC
:102BD000ABC1853239F493FD859193FF81916F01EB
:102BE000853229F4B70190E00E94FE18E7CF512CFE
:102BF000312C20E02032A0F48B3269F030F48032A6
:102C000059F0833269F420612CC08D3239F0803361
:102C100039F4216026C02260246023C0286021C0CE
:102C200027FD27C030ED380F3A3078F426FF06C074
:102C3000FAE05F9E300D1124532E13C08AE0389EB7
:102C4000300D1124332E20620CC08E3221F426FD6B
:102C50006BC1206406C08C3611F4206802C088362F
:102C600041F4F60193FD859193FF81916F018111EC
:102C7000C1CF982F9F7D9554933028F40C5F1F4F40
:102C8000FFE3F9830DC0833631F0833771F083356C
:102C900009F05BC022C0F801808189830E5F1F4F5D
:102CA00044244394512C540115C03801F2E06F0EB6
:102CB000711CF801A080B18026FF03C0652D70E073
:102CC00002C06FEF7FEFC5012C870E94F3182C0123
:102CD00083012C852F77222E17C03801F2E06F0E6A
:102CE000711CF801A080B18026FF03C0652D70E043
:102CF00002C06FEF7FEFC5012C870E94E1182C0105
:102D00002C852068222E830123FC1BC0832D90E09C
:102D100048165906B0F4B70180E290E00E94FE1810
:102D20003A94F4CFF50127FC859127FE81915F014C
:102D3000B70190E00E94FE1831103A94F1E04F1A6A
:102D400051084114510471F7E5C0843611F08936F9
:102D500039F5F80127FF07C0608171818281938175
:102D60000C5F1F4F08C060817181882777FD8095B7
:102D7000982F0E5F1F4F2F76B22E97FF09C09095A8
:102D80008095709561957F4F8F4F9F4F2068B22E31
:102D90002AE030E0A4010E943019A82EA81844C0EF
:102DA000853729F42F7EB22E2AE030E025C0F22F9D
:102DB000F97FBF2E8F36C1F018F4883579F0B4C092
:102DC000803719F0883721F0AFC02F2F2061B22E45
:102DD000B4FE0DC08B2D8460B82E09C024FF0AC03C
:102DE0009F2F9660B92E06C028E030E005C020E194
:102DF00030E002C020E132E0F801B7FE07C0608198
:102E00007181828193810C5F1F4F06C06081718147
:102E100080E090E00E5F1F4FA4010E943019A82EA1
:102E2000A818FB2DFF77BF2EB6FE0BC02B2D2E7FD3
:102E3000A51450F4B4FE0AC0B2FC08C02B2D2E7E9F
:102E400005C07A2C2B2D03C07A2C01C0752C24FFD1
:102E50000DC0FE01EA0DF11D8081803311F4297E41
:102E600009C022FF06C07394739404C0822F867831
:102E700009F0739423FD13C020FF06C05A2C73146D
:102E800018F4530C5718732C731468F4B70180E2CC
:102E900090E02C870E94FE1873942C85F5CF731454
:102EA00010F4371801C0312C24FF12C0B70180E3A1
:102EB00090E02C870E94FE182C8522FF17C021FF6E
:102EC00003C088E590E002C088E790E0B7010CC03D
:102ED000822F867859F021FD02C080E201C08BE28A
:102EE00027FD8DE2B70190E00E94FE18A51438F48A
:102EF000B70180E390E00E94FE185A94F7CFAA949D
:102F0000F401EA0DF11D8081B70190E00E94FE18E6
:102F1000A110F5CF332009F451CEB70180E290E043
:102F20000E94FE183A94F6CFF7018681978102C07D
:102F30008FEF9FEF2C96E2E10C94AA190F931F9349
:102F4000CF93DF93869F8001879F100D969F100D72
:102F50001124C8010E94BA17EC01009729F0A801BA
:102F600060E070E00E94EC18CE01DF91CF911F91DC
:102F70000F910895CF93DF938230910510F482E092
:102F800090E0E0915F03F091600320E030E0A0E08A
:102F9000B0E0309739F14081518148175907B8F0B6
:102FA0004817590771F482819381109729F013967D
:102FB0009C938E9312972CC09093600380935F0331
:102FC00027C02115310531F04217530718F0A90128
:102FD000DB0101C0EF019A01BD01DF010280F38135
:102FE000E02DD7CF21153105F9F0281B390B2430FE
:102FF000310580F48A819B816115710521F0FB0107
:103000009383828304C09093600380935F03FE01E7
:10301000329644C0FE01E20FF31F81939193225038
:103020003109398328833AC020915D0330915E03D2
:10303000232B41F4209102013091030130935E0370
:1030400020935D032091000130910101211531058C
:1030500041F42DB73EB74091040150910501241B66
:10306000350BE0915D03F0915E03E217F307A0F4E6
:103070002E1B3F0B2817390778F0AC014E5F5F4FCE
:103080002417350748F04E0F5F1F50935E0340939F
:103090005D038193919302C0E0E0F0E0CF01DF9106
:1030A000CF910895CF93DF93009709F487C0FC0177
:1030B000329713821282C0915F03D09160032097F0
:1030C00081F420813181280F391F80915D03909117
:1030D0005E038217930779F5F0935E03E0935D0337
:1030E0006DC0DE0120E030E0AE17BF0750F412964D
:1030F0004D915C9113979D014115510509F1DA013C
:10310000F3CFB383A28340815181840F951F8A1727
:103110009B0771F48D919C911197840F951F0296D6
:103120009183808312968D919C91139793838283D0
:103130002115310529F4F0936003E0935F033EC04D
:10314000D9011396FC93EE9312974D915D91A40FC4
:10315000B51FEA17FB0779F480819181840F951FD1
:103160000296D90111969C938E9382819381139636
:103170009C938E931297E0E0F0E08A819B81009708
:1031800019F0FE01EC01F9CFCE01029628813981B8
:10319000820F931F20915D0330915E03281739073A
:1031A00069F4309729F41092600310925F0302C013
:1031B00013821282D0935E03C0935D03DF91CF919F
:1031C0000895FC010590615070400110D8F780957A
:1031D00090958E0F9F1F0895DC0101C06D934150A3
:1031E0005040E0F70895FC016150704001900110DB
:1031F000D8F7809590958E0F9F1F08950F931F937A
:10320000CF93DF93182F092FEB018B8181FD03C032
:103210008FEF9FEF20C082FF10C04E815F812C8115
:103220003D81421753077CF4E881F9819F012F5FAC
:103230003F4F39832883108306C0E885F985812FA5
:103240000995892B29F72E813F812F5F3F4F3F83BF
:103250002E83812F902FDF91CF911F910F91089591
:10326000FA01AA27283051F1203181F1E8946F93B7
:103270006E7F6E5F7F4F8F4F9F4FAF4FB1E03ED05D
:10328000B4E03CD0670F781F891F9A1FA11D680FFB
:10329000791F8A1F911DA11D6A0F711D811D911D2E
:1032A000A11D20D009F468943F912AE0269F1124A3
:1032B0003019305D3193DEF6CF010895462F477007
:1032C000405D4193B3E00FD0C9F7F6CF462F4F7062
:1032D000405D4A3318F0495D31FD4052419302D0C0
:1032E000A9F7EACFB4E0A695979587957795679566
:1032F000BA95C9F700976105710508959B01AC0166
:103300000A2E06945795479537952795BA95C9F78C
:10331000620F731F841F951FA01D08952F923F9267
:103320004F925F926F927F928F929F92AF92BF92D5
:10333000CF92DF92EF92FF920F931F93CF93DF9381
:10334000CDB7DEB7CA1BDB0B0FB6F894DEBF0FBEDE
:10335000CDBF09942A88398848885F846E847D842B
:103360008C849B84AA84B984C884DF80EE80FD802D
:103370000C811B81AA81B981CE0FD11D0FB6F894A3
:0E338000DEBF0FBECDBFED010895F894FFCF64
:10338E0000006103200000140012001047414D455B
:10339E00204F564552210046696E616C2053636F73
:1033AE0072653A20002564004D61696E4D656E753B
:1033BE00004E65772047616D650045617379004E5B
:1033CE006F726D616C0048617264004869676820B5
:1033DE0053636F726573004F7074696F6E73004341
:1033EE006F6E74726F6C6C65722073656C005370C7
:1033FE0065656400506F736974696F6E00536F6C0E
:10340E00656E6F6964204D6F64650053656D69204C
:10341E004175746F00546F67676C65204175746FEA
:10342E0000496E766572746564204D6F6465004E5A
:10343E006F6E20496E76657274656400536F756E9B
:10344E00640043726564697473002A006869676872
:10345E002073636F7265730073636F72653A200039
:10346E00427261676500546F626961730048656EF0
:0C347E006E696E67005069673C33000007
:00000001FF
