S00E00004E6F64655F312E7372656300
S11300000C94B40B0C94EF0B0C94D10B0C94D10BFB
S11300100C94D10B0C94D10B0C94D10B0C94D10BEC
S11300200C94D10B0C94D10B0C94D10B0C94D10BDC
S11300300C94D10B0C94D10B0C94D10B0C94D10BCC
S11300400C94D10B0C94D10B0C94D10B0C94D10BBC
S11300500C94D10B0C94D10B0C94D10B0C94D10BAC
S11300600C94D10B0C94D10B0C94D10B0C94D10B9C
S1130070000008000101000000000004060050C058
S1130080C6C65252020201013030300000000000A6
S11300900000000000E0F0F0E0E0E0C0C0808080FC
S11300A0000000000000000000000000000000004C
S11300B0000000000000000000000000000000003C
S11300C0000000000000000000000000000000002C
S11300D0000000000000000000000000000000001C
S11300E00000000000000000E0F0F0F0E4E4E4F4BC
S11300F010000000000000040400000363E3E36355
S1130100020B6B63E0FCFEFFE7E3F3F2FCF0E0803C
S113011000000000C0FFFFFFFFFFFFFFFFFFFFFF26
S1130120FFFEEEC3C1C0E0E0E0E06040400000003C
S113013000000000000080C080C0E0F8F8F000007B
S113014000000000000000000000000000000000AB
S1130150000000000000000000000000000000009B
S11301600000C0C0E0F0F8FCFFFFFFFFFFFFFFFF4F
S1130170000C1C781C1C2C0C0C04000000014341D6
S11301801C1C0C087FFFFFFFFFFFFFFFC3E3F1F31D
S1130190FFFEFCFCFFFFFFFFFFFFFFFFFFFFFFFF72
S11301A0FFFFFFFFFFFFFFFFFFFEFCFCFCFCFCFC6E
S11301B0FCFCFCFEFEFEFFFFFFFFFFFF7F070000CD
S11301C0000000000000C0C0C0808080000000006B
S11301D0000000000000000000000000000000001B
S11301E000087FFFFFFFFFFFFFFFFFFFFFFFFF7F11
S11301F0000030310000000032020000000800005E
S11302000000008080C7DFFFFFFFFFFFFFFFFFFF4D
S1130210FFFFFFFFFFFFFFFFFFFFFFFFFFFFFFFFEA
S1130220FFFFFFFFFF7F3F3F1F0F0F8787C7E3F3EA
S11302307F3F3F3F3F3F3F3F3F3F3F3F3F1C00002B
S113024000000000007EFFFFFFFFFFFFFFFFFFFF36
S1130250FEFCFC2000000000000000000000000084
S11302600000181F1F1F0F0F0703030301000000E6
S113027000081E7232000C5FFFDAC00000000000AC
S1130280B9FFBBB9BBFFB999BFBFBFBFBFBF9F9F7A
S1130290FFFFF7FFFFFFFFFFFFFFFFFFFFFBF1FF84
S11302A0FFFFE7E1F0F87C3E3E3F7F7F7F7F3F3FEB
S11302B07F7E7C7C7C7870E0C0C0C0C0C000000041
S11302C00000000000003061C3870F0F0F1F1F0FD5
S11302D00F07000000000000000000000000000004
S11302E0000000000000000000000000000000000A
S11302F00000006626068486C7C7C301000000000C
S1130300337FFFFB3BFFFFFBFBFFFBBBFFFFBB3B65
S1130310FFFFFFFFFFFFFFFFFFFF9F1F3F7FFFFF69
S1130320FFFFFFFFFFFFFEFEFEFEFEFEFCFCFCFCEB
S1130330FCFCFCFCFCFCF8E8E0C0C0C08000000051
S1130340000000000000000000C1C3000000000025
S11303500000000000000000000000000000000099
S11303600000000000000000000000000000000089
S1130370000020010171F1F0F0F0F0707000E0E095
S1130380A387870707070707070707070307C7F3B5
S1130390FFFFFFFFFFFFFFFFFFFDC1040800010F88
S11303A03F7FFFFFFFFFFFFFFFFFFFFFFFFFFFFF99
S11303B0FFFFFFFFFFFFFFFDF9F9F8F8F8F8F0E0A1
S11303C0C0C0C000000000000000000000000000E9
S11303D00000008080008000000000000000000099
S11303E00000000000000000000000000000000009
S11303F0000004070783818183CBCB030B080C0F18
S113040003010100000000000000000078FEFFFF6F
S1130410FFFFFFFFFFFFFFFFFFFFFFFFFEFCF8F002
S1130420E0C000000101030303030307070F0F0FDC
S11304300F1F1F1F1F1F1F1F1F1F0F0F0703030166
S113044001010000000000000000000000000000A6
S11304500400020703000000000000000000000088
S1130460000000000000000000000080C0C0000088
S1130470FFFFFFFFFFFFFFFFFF3F3F3F3F1F1F1F28
S11304800F0F0F0F0707070707070707070F0F1FB0
S11304901F3F3F7F7FFFFFFFFFFFFFFFFFFFFFFFC8
S11304A0FF7F7F3F3F1F1F1F1F1F1F3F3F7F7FFF98
S11304B0FFFFFFFFFF7F7F7F3F3F1F1F1F0F0F0FB8
S11304C00F0F0F0F0F0F0F0F0F1F1F1F1F1F1F3FA8
S11304D03F3F3F3F3F1F1F1F0F0F07070707070738
S11304E00F0F1F3F7FFFFFFFFFFFFFFFFFFFFFFF18
S11304F0FFFFFFFFFFFFFFFFFFFFFEFCF8F8F0F038
S1130500F0F8F8F8FCFCFCFCFEFEFEFEFEFEFEFE2F
S1130510FEFCFCF8F8F0F0E1E1C1C1818181818049
S1130520808080C0C0C0E0F0F0F0F8F8F8F8F8F08F
S1130530F0E0C0C0C0C0C0C0C0E0E06070F0F8F837
S1130540F8F8FCFCFCFCFCFCFCFCFCFCFCF8F8F8FB
S1130550F8F8F8F0F0F0F0F0F0F8F8F8FCFCFCFE35
S1130560FEFEFEFCFCFCFDFFFFFFFFFFFFFFFFFFA5
S1130570FFFFFFFFFFFFFF7F3F1F0F07C3E3E1F113
S1130580F1F1F1C18080C3FFFFFFFFFFFFFFFFFF19
S1130590FFFFFFFFFFFFFFFFFFFFFFFFFFFFFFFF67
S11305A0FFFFFFFFFFFFFFFFFFFFFFFFFFFFFFFF57
S11305B0FFFFFFFFFFFFFFFFFFFF000000FFFFFF44
S11305C0FFFFFFE3E3E3F7FFFFFFFFFFFFFFFF0F83
S11305D007071FFFFFFFFFFFFFFFFFFFFFFFFFFFF7
S11305E0FFFFFFFFFFFFFFFFFFFFFFFFFFFFFFFF17
S11305F0FFFFFFFF1F070180F0FCFEFFFFFFFFFF6F
S1130600FFFFFFFFFFFFFFFFFF0301010787C3E3B6
S1130610E1F1F1010103FFFFFF3F0F0783E3E1F184
S1130620F1717131210307CFFFFFFFFF7F1F0F8798
S1130630C3E3F1F1F1F1F1E1C3070000F8FFFFFFBB
S1130640FFFF03010103FFFFFFFFF9F1F1F1F100E7
S1130650000000F1F1F1F1F1FFFFFF3F0F0F07C7B9
S1130660E7E3E3F3F1C18181CFFFFFFFFFFFFFFF6A
S1130670FFFFFFFFC000001F3F7FFFFFFFFF7F7FE3
S11306803F3F1F0F0F9FFFFFFF000000FFFFFFFF13
S1130690FFFFFFFEFEFEFFFFF7800002237171F8EB
S11306A0F8FCFCFE7E7F3F1F1FFFFFFFC000001F02
S11306B03F7FFFFFFFFFFF7F3F0000003FFFFFFF83
S11306C0FFFF00000000FFFFFFFFFFFFFFFFFFF839
S11306D0000000FFFFFFFFFFFFFF3F3E7C78F8F8BC
S11306E0F8F8F0F16103030FFFFFFFFFFFFFFFFFC7
S11306F0FFFFFFFFFFFFFEFCFCF8F8F87838381C1A
S11307001C1C0E0F0F0F0F1F3F7CF8F8FFFFFFFF9D
S1130710FFFFFFFFFFFFFFFFFFFFFEFEFCFCF8F8FB
S1130720F8F8F8F8F8FCFCFEFFFFFFFFFFFFFEFC03
S1130730FCF8F8F8F8F8F8F8FCFCF8F8FCFFFFFF10
S1130740FFFFFCF8F8FCFFFFFFFFFFFFFFFFFFFDCB
S1130750F8F8FCFFFFFFFFFFFFFFFEFCFCF8F8F8D2
S1130760F8F8F8F8FCFCFEFFFFFFFFFFFFFFFFFFB8
S1130770FFFFFFFFFFFF3F0F0703010000000080A2
S1130780C0E0F0F0F8F8FCFCFCFCF8F1E3E7C78FFC
S11307900F1F3F7F7FFFFFFFFFFFFFFFFFFFFF7F75
S11307A03F3F1F1F1F0F0F0F0F0F0F0F0F0F0F0FC5
S11307B01F1F3F3F3F3F3F3F1F1F0F0F0F07070301
S11307C003030303030307070F1F1F1F3F3F3F3F9D
S11307D03F3F3F3F1F1F1F1F0F0F07070303030365
S11307E0030303070F1F3F7FFFFFFFFFFFFFFFFF11
S11307F0FFFFFFFFFFFFFEFCF8F0F0E0F8FEFFFF55
S1130800FFFFFFFFFFFFFFFFFFFFFFFFFFFFFFFFF4
S1130810FFFEFEFCF8F0E0E1C1C1818181808080AF
S113082080C0C0E0E0F0F0F8F8FCFCFCFCFCFCFC50
S1130830FCFCFCF8F8F8F0F0F0F0F0F0F0F8FCFC58
S1130840FCFEFEFFFFFFFFFFFFFEFEFEFCF8F8F8D4
S1130850F0F0F0F0F0F0F0F0F8F8F8F8FCFCFEFE40
S1130860FFFFFFFFFFFFFFFFFFFFFFFFFFFFFFFF94
S1130870FFFFFFFFFFFFFFFFFFFFFFFFFFFFFFFF84
S1130880FFFFFFFFFFFFFFFFFFFFFFFF3F1F1F0FE4
S11308901F9F5F5F7F3F3FBFBF7F7F7F3F3FBFBFE4
S11308A0FFFFFFFFFFFFFFFFFFFFFFFFFFFFFFFF54
S11308B0FCFCFCF8F8F0F0F0FCFCF8F9F9FBF2F6BB
S11308C0F4F0E0C0C0C0C0C080000000000001031C
S11308D0071F7FFFFFFFFFFFFFFFFFFFFFFFFFFF7C
S11308E0FFFFFFFFFFFFFFFFFFFFFFFFFFFFFFFF14
S11308F0FFFFFFFFFFFFFFFFFFFFFFFFFFFFFFFF04
S1130900FFFFFFFFFFFFFFFFFFFF8100000000006C
S1130910000000000080C0F0F8FCFCFEFEFFFFFFBA
S1130920FFFFFFFFFFFFFFFFFFFFFFFFFFFFFFFFD3
S1130930FFFFFFFFFFFFFFFFFFFFFFFFFFFFFFFFC3
S1130940FFFF7F7F3F7FFFFFFFFCF0F0F000180305
S11309500000066F1F3FFFFFFFFFFFFFFFFFFFFFCA
S1130960FFFFFFFFFFFFFFFFFFFFFFFFFFFFFFFF93
S1130970FFFFFFFFFFFFFFFFFFFFFFFFFFFFFFFF83
S1130980FFFFFFFFFFFFFFFFFFFFFFFFFC00000073
S11309900000000CFFFFFFFFFFFFFFFFFFFFFFFF53
S11309A0FFFFFFFFFFFFFFFFFFFFFFFFFFFFFFFF53
S11309B0FFFFFFFFFFFFFFFFFFFFFFFFFFFFFFFF43
S11309C0FFFBE000000065474F3FFFEF3E180000CB
S11309D000000000001C7FFFFFFFFFFFFFFFFFFF81
S11309E0FFFFFFFFFFFFFFFFFFFFFFFFFFFFFFFF13
S11309F0FFFFFFFFFFFFFFFFFFFFFFFFFFFFFFFF03
S1130A00FFFFFFFFFFFFFFFFFFFFFFFFFFF0C080BF
S1130A103E04C0F0FBDF9F9F9F9F9F9FDFCB8B8394
S1130A208383C7E7CFCFDFFFFFFFFFFFFFFFFFEFAA
S1130A30E7E3E1E1F0F9F3E3E3E3E3F3F3F3F3F3FF
S1130A40F3F3F3FEFEFEF8C0E020071F1C787030BD
S1130A50000000000000F0FFFFFFFFFFFFFFFFFFAB
S1130A60FFFFFFFFFFFFFFFFFFFFFFFFFFFFFFFF92
S1130A70FFFFFFFFFFFFFFFFFFFFFFFFFFFFFFFF82
S1130A80FFFFFFFFFFFFFFFFFFFFFFFFFFFFFFFF72
S1130A90FEFEFFFFFFFFFFFFFFFFFFFFFFFFFFFF64
S1130AA0FFFFFFFFFFFFFFFFFFFFFFFFFFFFFFFF52
S1130AB0FFFFFFFF7F3FFFFFFFFFFFFFFFFFFFFF82
S1130AC0FFFFFFFFFFFFFFFF7F1800000000202053
S1130AD02010000080F8F8FFFFFFFFFFFFFFFFFF7B
S1130AE0FFFFFFFFFFFFFFFFFFFFFFFFFFFFFFFF12
S1130AF0FFFFFFFFFFFFFFFFFFFFFFFFFFFFFFFF02
S1130B00FFFFFFFFFFFFFFFFFFFFFFFFFFFFFFFFF1
S1130B10FFFFFFFFFFFFCF9F9FFFFFFFFFFFFFFFD1
S1130B20FF7FFFFFFFFFF3F3F3E7E7E7E7E7E3F315
S1130B30F37179797C7E7F3F3F3F3F3FBFFFFBFFEF
S1130B40FFFFFFFFFFE7FDFDFC0000E0FCFCFCF8FD
S1130B50F8FCFEFFFFFFFFFFFFFFFFFFFFFFFFFFAC
S1130B60FFFFFFFFFFFFFFFFFFFFFFFFFFFFFFFF91
S1130B70FFFFFFFFFFFFFFFFFFFFFFFFFFFFFFFF81
S1130B80FFFFFFFFFFFFFFFFFFFFFFFFFFFFFFFF71
S1130B90FFFFFFFFFFFFFFFFFFFFFFFFFFFFFFFF61
S1130BA0FFFFFEFEFCFCFCFCFEFEFEFFFFFFFFFF62
S1130BB0FFFFFFFFFFFDFFFEFEFEFFFFFFFFFFFF46
S1130BC0FFFFFFFFFF7F1F030080C3C1C0811F7FA2
S1130BD07F7F7FFFFFFFFFFFFFFFFFFFFFFFFFFFA1
S1130BE0FFFFFFFFFFFFFFFFFFFFFFFFFFFFFFFF11
S1130BF0FFFFFFFFFFFFFFFFFFFFFFFFFFFFFFFF01
S1130C00FFFFFFFFFFFFFFFFFFFFFFFFFFFFFFFFF0
S1130C10FFFFFFFFFFFFFFFFFFFFFFFFFFFFFFFFE0
S1130C20FFFFFFFFFFFFFF7F7F7F7F7FFFFFFFFF50
S1130C30FFFFFFFFFFFF7F7F7F3F3F3F1F1F0F0728
S1130C400383C1E0F0F8FCFEFFFFFFFFFFFFFEFCA3
S1130C50F0E0C080F9FFFFFFFFFFFFFFFFFFFFFF92
S1130C60FFFFFFFFFFFFFFFFFFFFFFFFFFFFFFFF90
S1130C700000000000000000000000000000000070
S1130C800000000000000000000000000000000060
S1130C900000000000000000000000000000000050
S1130CA00000000000000000000000000000000040
S1130CB00000000000000000000000000000000030
S1130CC00000000000000000000000000000000020
S1130CD00000000000000000000000000000000010
S1130CE00000000000000000000000000000008080
S1130CF000000000000000000000000000000000F0
S1130D0000000000000000000000000000000000DF
S1130D1000000000000000000000000000000000CF
S1130D2000000000000000000000000000000000BF
S1130D3000000000000000000000000000000000AF
S1130D40000000000000000000000000000000009F
S1130D50000000000000000000000000000000008F
S1130D60000000000000000000000000000001037B
S1130D70000000000000000000000000000000006F
S1130D80000000000000000000000000000000005F
S1130D90000000000000000000000000000000004F
S1130DA0000000000000000000000080800000003F
S1130DB000008080000040404080808000000000EF
S1130DC0000000000000000000000000000000001F
S1130DD000000000008080A06040000000000000CF
S1130DE000000000000000000000000000000000FF
S1130DF000000000000000000000000000000000EF
S1130E000000000000000000000000387CFCF8F83E
S1130E10F8F8F0F0F0F0F0F0F0F0F0F0F8F8F8F89E
S1130E20FCFCFCFEFEFEFE7E7F3F3F3F9F9FDFEF0C
S1130E30FFFFFFF7F7F770F07070F1E1E1E1E7E32E
S1130E40E3E6C6C0C080000000000000000000000F
S1130E5000F0F07C7CFFFFFFFFFFFFFEFC7800004A
S1130E60000000000000000000000000000000007E
S1130E70000000000000000000000000000000006E
S1130E800000000000000000000000000001030357
S1130E9003030303030307070707272F0F0F0F1F7E
S1130EA07FFFFFFFFDFCFCFCF8F8F8F8F0F0F0E041
S1130EB0F0F3F3FFFFFEFEFEFEFEFFFFFFFFFFFF6A
S1130EC0FFFFFFFFFFFF3D000000000000000000E7
S1130ED00000070F0F0F0F0F0F07030100000000A2
S1130EE000000000000000000000000000000000FE
S1130EF000000000000000000000000000000000EE
S1130F0000000000000000000000000000000000DD
S1130F10000000061C1E3E3E3C7E7E7EFEFEFCE083
S1130F20809F9FBFBFBFBFBF9F9F9FFFFFFFFFF378
S1130F30F3FFFFFFFFFFFFFFFFFFFFFFFFFFFFFFC9
S1130F40FFFFFFFFF7FCFEFFFFFFFFFFFFFEFEFEBC
S1130F50F8F0F0F8F8F8F8FCFCF8F0C00000000035
S1130F600000181000000000808000000000000055
S1130F70000000000000000000000000000000006D
S1130F80000000000000000000000000000000005D
S1130F90000000000000000000000000000000014C
S1130FA0010307070F0F0B0301010505070E0E0FC1
S1130FB00707878787C3E3E3F3F1F8FFFFFFFFFF2A
S1130FC0FFFFFFFFFFFFFF7F3F7F7F3F1F1F8FCF8D
S1130FD0C7F7FFFFFFFFFFFFFFFFFFFFFFFEFCF070
S1130FE0E0C0060EFFFFFFFFFFFFFFFFFFFFFFFF55
S1130FF0800000000000000000000000000000006D
S113100000000000000000000000000000000000DC
S113101000000000000000000000000000000000CC
S113102000000000000000000000000000000001BB
S1131030030307070707070F0F0F0707070707072C
S113104007070303313178787C7C7EFEFFFFFFFFC6
S1131050FFFFFFFFFFFFFFFFFFFFFFFFFFFFFFFF9C
S1131060FFFFFEFFFFFFFFFFFFFFDFFFFFFFFFFFAD
S1131070FFFFFFFFFFFFFF7F7FFFFFFFFFFFFFFF7C
S1131080FFFFFFFFFFFFFFFFFFFFFFFFFFFFFFFF6C
S1131090FFFFFFFFFF7F7F7F7F7F7F7F7F7F7F7FDC
S11310A07F3F3F3F3F3F3F1F1F1F1F1F1F1F1F0F3C
S11310B00F0F0F0F0F0F0F07070707070303030394
S11310C0030101010101010101010101010100000C
S11310D00000000000010101010101030303070FE7
S11310E00F1F3F3F0F0767E707071FFFFFFFFFFFC4
S11310F0FFFFFFFFFFFFFFC0800107070F1FC71F90
S11311003F3F7F3F1F1F0F0F0F070703030101011D
S113111001000000000000000000000000000000CA
S113112000000000000000000000000000000000BB
S113113000000000000000000000000000000000AB
S1131140000000000000000000000000000000009B
S1131150000000000000000000000000000000008B
S113116000000000000000001CFCFBFBFBFFFFFF75
S1131170FFFFFFFFFFFFFFFFFFFEFC3C00008002BC
S1131180104000000000000000000000000000000B
S1131190000000000000000000000000000000004B
S11311A0000000000000000000000000000000003B
S11311B0000000000000000000000000000000002B
S11311C0000000000000000000000000000000001B
S11311D0000000000000000000000000000000000B
S11311E000000000000000000000FFFFFFFFFFFF01
S11311F0FF1F1F1F1F1F0F0F070300000000030323
S113120000000000000000000100000000000800D1
S1131210002040000000000000000000000000006A
S113122000000000000000000000000000000000BA
S113123000000000000000000000000000000000AA
S1131240000000000000000000000000000000009A
S1131250000000000000000000000000000000008A
S1131260000000000080C0E2F8FEFFFFFFFFFFFF68
S1131270FFFCFAF9F0E0C0808000000000000000EC
S1131280000000000000000000000000000000401A
S11312900000000000010010200000000000000019
S11312A0000000000000000000000000000000003A
S11312B0000000000000000000000000000000002A
S11312C0000000000000000000000000000000001A
S11312D00000808000000000000000000000000208
S11312E0000000FEFFFFFFFFFFFFFFFFFFFFFFFF08
S11312F0FFFFFFFFFFFFFFFFFFFFFEFEFCFCFCFE06
S1131300FCFCFCF8F8FCFCFCFCFCFCFCFCF9F8FC28
S1131310FCFCFCFEFEFEFEFCFCFCF20420000000D3
S11313200000000000E0F8F8F8FCFCFCFCFCFCF811
S1131330F8FCFCFCFCFCF8F8FCFCFCFCF8F8F8FC01
S1131340FCFCFCFCFCF8FEFEFEFEFEFEFEFFFFFFC6
S1131350FFFFFFFF8000000000000000000000000D
S113136000000083F7FFFFFFFFFFFFFFFFFFFFFF0A
S1131370FFFFFFFFFFFFFFFFFFFFFFFFFFFFFFFF79
S1131380FFFFFFFFFFFFFFFFFFFFFFFFFFFFFFFF69
S1131390FFFFFFFFFFFFFFFFFFFFFF0000009800BC
S11313A000000000FCFFFFFFFFFFFFFFFFFFFFFF48
S11313B0FFFFFFFFFFFFFFFFFFFFFFFFFFFFFFFF39
S11313C0FFFFFFFFFFFFFFFFFFFFFFFFFFFFFFFF29
S11313D0FFFFFFFF3F0000000088C0E4F8000000AA
S11313E000E0FCFFFFFFFFFFFFFFFFFFFFFFFFFF2A
S11313F0FFFFFFFFFFFFFFFFFFFFFFFFFFFFFFFFF9
S1131400FFFFFFFFFFFFFFFFFFFFFFFFFFFFFFFFE8
S1131410FFFFFFFFFFFFFFFFFFF7F3F0D0C0C4E8BB
S1131420C0C8C0F8FFFFFFFFFFFFFFFFFFFFFFFF84
S1131430FFFFFFFFFFFFFFFFFFFFFFFFFFFFFFFFB8
S1131440FFFFFFFFFFFFFFFFFFFFFFFFFFFFFFFFA8
S1131450FFFF9F9190B08080F8FFFFF7E0E0F0F08D
S1131460FEFFFFFFFFFFFFFFFFFFFFFFFFFFFFFF89
S1131470000000000000000000065F5F060000009E
S11314800007070007070000147F7F147F7F140004
S1131490242E6B6B3A120000466630180C6662000C
S11314A0307A4F5D377A48000407030000000000DB
S11314B0001C3E63410000000041633E1C0000002C
S11314C0082A3E1C1C3E2A0808083E3E0808000064
S11314D000A0E060000000000808080808080000F8
S11314E000006060000000006030180C060301007A
S11314F03E7F594D7F3E000042427F7F40400000C6
S1131500627359496F660000226349497F360000BF
S1131510181C16137F7F1000276745457D3900008E
S11315203C7E4B4979300000036371190F070000BA
S1131530367F49497F360000064F49693F1E000047
S113154000006C6C0000000000A0EC6C00000000C7
S1131550081C366341000000141414141414000011
S1131560004163361C080000020351590F060000B5
S11315703E7F415D5D1F1E007C7E13137E7C000058
S1131580417F7F49497F36001C3E6341416322000D
S1131590417F7F41637F1C00417F7F495D41630040
S11315A0417F7F491D0103001C3E6341517372005A
S11315B07F7F08087F7F000000417F7F410000009B
S11315C0307040417F3F0100417F7F081C776300FA
S11315D0417F7F41406070007F7F060C067F7F0063
S11315E07F7F060C187F7F001C3E6341633E1C0016
S11315F0417F7F49090F06001E3F21717F5E000075
S1131600417F7F19396F460026674D597B320000B0
S113161003417F7F410300007F7F40407F7F0000C4
S11316201F3F60603F1F00007F7F3018307F7F00C6
S113163063771C081C776300074F78784F07000016
S11316406773594D47637100007F7F41410000007B
S11316500103060C183060000041417F7F00000048
S1131660080C0603060C080080808080808080803F
S11316700000030704000000207454543C78400028
S1131680413F7F44447C3800387C44446C2800004B
S1131690307848493F7F4000387C54545C1800003F
S11316A0487E7F490302000098BCA4A4F87C04008F
S11316B0417F7F08047C780000447D7D4000000069
S11316C040C484FD7D000000417F7F10386C4400DD
S11316D000417F7F400000007C7C0C180C7C78006B
S11316E07C7C04047C780000387C44447C38000012
S11316F084FCF8A4243C1800183C24A4F8FC8400BE
S1131700447C78441C180000485C54547424000041
S113171000043E7F442400003C7C40403C7C40006C
S11317201C3C60603C1C00003C7C6030607C3C00E5
S1131730446C3810386C44009CBCA0A0FC7C0000B5
S11317404C64745C4C64000008083E77414100001E
S113175000000077770000004141773E0808000050
S1131760020301030203010011241FBECFEFD4E0E2
S1131770DEBFCDBF11E0A0E0B1E0E4E9F8E202C0D1
S113178005900D92A038B107D9F722E0A0E8B1E0A6
S113179001C01D92A036B207E1F70E94010D0C941E
S11317A048140C94000085B7886085BF85B78460B1
S11317B085BF86B7806486BF10924A02C39ABB98DD
S11317C00895E0910601F09107018D5F8083B3993C
S11317D0FECFE0910601F0910701808108951F92E8
S11317E00F920FB60F9211248F9381E080934A02D7
S11317F08F910F900FBE0F901F9018950E94B40DFB
S113180040E060EE8FE00E948E0D0895CF93DF9349
S11318101F92CDB7DEB780E30E94420D8983898190
S113182083FF07C080E30E94420D8983898183FD81
S1131830F9CF0F90DF91CF9108951F93CF93DF934A
S1131840EC010E94060C60E082E30E94560D688160
S113185081E30E94560D6A8185E30E94560D8A81B8
S1131860882369F010E0FE01E10FF11D638186E336
S1131870810F0E94560D1F5F8A811817A0F381E81B
S11318800E946C0DDF91CF911F910895CF9381E059
S11318900E94E10BC82F82E00E94E10B282F6C2FDD
S11318A070E0822F90E0CF9108950F931F93CF9310
S11318B082E00E94E10BC82F81E00E94E10B482FD7
S11318C060914F0270915002E0915102F0915202E6
S11318D0AC2FB0E0A61BB70BC4E6CA9FC001CB9FD8
S11318E0900D11240E948B128B0150E04E1B5F0B54
S11318F0C49FC001C59F900D1124BF010E948B128B
S11319009B01C901B801CF911F910F910895CF9305
S1131910DF93CDB7DEB72B970FB6F894DEBF0FBEBB
S1131920CDBFC29ABA980E94460C60934F0270933E
S11319305002809351029093520285E090E09A8382
S1131940898382E08B836C83809151028D83CE01E5
S113195001960E941D0C80E090E02B960FB6F8943F
S1131960DEBF0FBECDBFDF91CF9108950E94550C0D
S113197063337105B4F46E3CEFEF7E07A4F08E3C44
S11319802FEF920794F0833391058CF49B012C5F25
S11319903F4F2930310568F40496099760F085E0DB
S11319A0089582E0089583E0089581E0089580E039
S11319B0089585E0089584E00895CF93DF93CDB72B
S11319C0DEB72B970FB6F894DEBF0FBECDBF1A82D9
S11319D0198293E09B838C8382E00E94E10B8D83C8
S11319E081E00E94E10B8E83CE0101960E941D0CC2
S11319F02B960FB6F894DEBF0FBECDBFDF91CF910B
S1131A0008950E947D1285B7806885BF80B7806283
S1131A1080BF85B7806485BF86B7826086BF8E9A93
S1131A208F9A319ABE98BF9887B387BB0E94D30B15
S1131A300E9460100E94FE0B0E94870C0E94B90D48
S1131A400E94B70E0E94B60CC82F0E94DD0C2FEF27
S1131A508FE791E0215080409040E1F700C000C042
S1131A600E94B60C8C1771F380E090EF0197F1F7A8
S1131A700E94B60CC82F0E94070FC23019F70E94AB
S1131A80670FE0CFCF93C82F80E00E946F1283E0EE
S1131A900E945E128C2F0E945E120E946212C82F56
S1131AA081E00E946F128C2FCF910895CF93DF9322
S1131AB0D82FC62F80E00E946F1282E00E945E122F
S1131AC08D2F0E945E128C2F0E945E1281E00E9474
S1131AD06F12DF91CF910895CF93C82F80E00E94B9
S1131AE06F128FE78C0F823020F0C43811F0C738A2
S1131AF021F48C2F0E945E120CC00E941B122AE259
S1131B0030E58EEF90E02150304080409040D9F78E
S1131B10000081E00E946F12CF9108951F93CF932C
S1131B20DF93182FD62FC42F80E00E946F1285E018
S1131B300E945E12812F0E945E128D2F0E945E12FF
S1131B408C2F0E945E1281E00E946F12DF91CF9170
S1131B501F91089580E00E946F1280EC0E945E1233
S1131B6081E00E946F1208950E9467120E94AA0DDC
S1131B7008958F929F92BF92CF92DF92EF92FF923D
S1131B800F931F93CF93DF93E4E3F2E08CE091E0B3
S1131B90918380831092370210923602A2E2B2E05F
S1131BA0B0933B02A0933A0220E132E030933D022D
S1131BB020933C020F2EFEEF8F2EF1E09F2EF02D8E
S1131BC090923F0280923E0284EA91E09093410217
S1131BD0809340021092450204E00093440245E1E0
S1131BE051E011965C934E93F0932502E093240206
S1131BF00F2EFAEDEF2EF1E0FF2EF02DF0922902D8
S1131C00E092280268EC71E070932B0260932A0240
S1131C1046EB51E050932D0240932C020F2EF3E03B
S1131C20BF2EF02DB092320211E0109333020F2E2A
S1131C30FEE1CF2EF1E0DF2EF02DE701D982C8823C
S1131C40B093DD01A093DC011092EA010F2EFBE0BA
S1131C50FF2EF02DF092EB010F2EF3E2EF2EF1E0C8
S1131C60FF2EF02DEB01F982E882B093CB01A09313
S1131C70CA011092D8016CE06093D9016AE271E064
S1131C80EA0179836883B093B901A093B8011092F3
S1131C90C6014DE04093C7014FE251E0D9014D9395
S1131CA05C93F0931302E09312021092200242E03C
S1131CB0409321022BE331E0E40139832883F0933C
S1131CC00102E093000222E931E0309305022093FF
S1131CD00402A0E8B1E0B0930702A0930602409387
S1131CE00E02B0920F0243E451E0E90159834883A4
S1131CF090929501809294011092A2012FE1209379
S1131D00A3012EE431E02D933C93909283018092C1
S1131D1082011092900120E22093910124E531E0A8
S1131D20DC012D933C93F093A701E093A60110925C
S1131D30B4010093B50182E1ACEEB1E001900D92E3
S1131D408A95E1F760E081E00E94F40F109353025A
S1131D5084E20E94AE0FDF91CF911F910F91FF900B
S1131D60EF90DF90CF90BF909F908F900895EF9267
S1131D70FF920F931F93CF93DF936AE080E00E945A
S1131D80F40F8CE591E00E9407108091EC01909192
S1131D90ED010E9407108CE591E00E9407108091EC
S1131DA0FC0190E001960297F4F002EF11E0C1E02B
S1131DB0D0E00F2EFCEFEF2EF1E0FF2EF02D6AE0C5
S1131DC08C2F0E94F40FD801ED91FD918D0180813B
S1131DD091810E9407102196F701808190E001967D
S1131DE0C817D90764F3DF91CF911F910F91FF902A
S1131DF0EF90089560E00E94F40F84E20E94AE0F19
S1131E00089560E00E94F40F0E94A30F08958111C9
S1131E100FC080915302823008F458C00E94010F11
S1131E20809153028150809353020E94FA0E0895C8
S1131E30813089F4809153029091FC01891708F054
S1131E4045C00E94010F809153028F5F809353021B
S1131E500E94FA0E0895823009F5E09153028091B0
S1131E60FC018E1798F1EE2389F1F0E0EE0FFF1FCD
S1131E70E051FE4F0190F081E02D82E1ACEEB1E043
S1131E8001900D928A95E1F70E943C100E94B70ED2
S1131E9081E0809353020E94FA0E08958330B1F4D6
S1131EA0E091EE01F091EF01309781F082E1ACEE28
S1131EB0B1E001900D928A95E1F70E943C100E94D6
S1131EC0B70E81E0809353020E94FA0E0895809128
S1131ED0FC01811137C08091EC019091ED018F528A
S1131EE0914021F48EE591E00E9407108091EC016D
S1131EF09091ED018E51914021F48EE591E00E9484
S1131F0007108091EC019091ED018352914021F4EE
S1131F1083E291E00E9407108091EC019091ED0121
S1131F208A52914021F48AE291E00E940710809144
S1131F30EC019091ED018455914021F40E943C10F4
S1131F400E94EE11089588E090E0E0910801F0917C
S1131F500901108201970097C1F7089528E0829F34
S1131F60C0011124FC01E059FC4E20E030E08491D2
S1131F70A0910801B09109018C93809154028F5F64
S1131F80809354022F5F3F4F31962830310579F703
S1131F9080E090E00895809355028055E0910A0115
S1131FA0F0910B018083089580935402803160F492
S1131FB0E0910A01F0910B018083E0910A01F09114
S1131FC00B0180E180830895982F9F70E0910A01AE
S1131FD0F0910B01908382958F70805FE0910A01EC
S1131FE0F0910B0180830895CF93C82F862F0E9410
S1131FF0D40F8C2F0E94CB0FCF91089510925402CE
S11320001092550260E080E00E94F40F0895EF9270
S1132010FF920F931F93CF93DF938C017C01C0E059
S1132020D0E019C0809154028A3778F0809155022B
S11320308F5F0E94CB0F80E00E94D40F80915502E5
S1132040883019F40E94FE0F10C0F70181917F01BE
S11320500E94AE0F2196F80101900020E9F7319714
S1132060E01BF10BCE17DF07E8F2DF91CF911F9150
S11320700F91FF90EF9008951F93CF93DF9360E04B
S113208080E00E94F40FC0E010E8D0E08C2F0E94A2
S1132090CB0F212F3D2FE0910801F091090110820F
S11320A02150310921153105B1F7CF5FC83071F7DF
S11320B060E080E00E94F40FDF91CF911F910895BA
S11320C0E0910A01F0910B018EEA8083E0910A010C
S11320D0F0910B0181EA8083E0910A01F0910B01F8
S11320E08AED8083E0910A01F0910B0182E1808303
S11320F0E0910A01F0910B0188EC8083E0910A01E0
S1132100F0910B0188EA8083E0910A01F0910B01C0
S11321108FE38083E0910A01F0910B0185ED8083C8
S1132120E0910A01F0910B0180E88083E0910A01BB
S1132130F0910B0181E88083E0910A01F0910B0199
S113214080E58083E0910A01F0910B0189ED8083A1
S1132150E0910A01F0910B0181E28083E0910A0190
S1132160F0910B0180E28083E0910A01F0910B0170
S113217082E08083E0910A01F0910B018BED808372
S1132180E0910A01F0910B0180E38083E0910A0160
S1132190F0910B018DEA8083E0910A01F0910B012B
S11321A01082E0910A01F0910B0184EA8083E091AE
S11321B00A01F0910B0186EA8083E0910A01F09113
S11321C00B018FEA80830E943C1008950F931F93A4
S11321D0CF93DF930E943C1080E00E94D40FC0E8AC
S11321E0D0E000E010E026C0F901E80FF91FE49107
S11321F0A0910801B0910901EC93019688309105F2
S113220099F7485F5F4F4C175D0731F0802F912F8E
S11322109A012059374FE8CF809155028F5F0E9471
S1132220CB0F80E00E94D40FC058DF4FC03884E049
S1132230D80721F0AE0140585109E8CF0E94FE0FA3
S11322408AE691E00E940710DF91CF911F910F91D0
S113225008950F931F93CF93DF930E943C1080E067
S11322600E94D40FC0E8D0E000E010E026C0F901DD
S1132270E80FF91FE491A0910801B0910901EC93D2
S113228001968830910599F7485F5F4F4C175D07B9
S113229031F0802F912F9A012059334FE8CF80914C
S11322A055028F5F0E94CB0F80E00E94D40FC0586C
S11322B0DF4FC03884E0D80721F0AE0140585109FF
S11322C0E8CF0E94FE0F80E791E00E940710DF91A3
S11322D0CF911F910F9108950F931F93CF93DF9385
S11322E00E943C1080E00E94D40FC0E8D0E000E0DF
S11322F010E026C0F901E80FF91FE491A09108014C
S1132300B0910901EC9301968830910599F7485FE3
S11323105F4F4C175D0731F0802F912F9A012059A0
S11323203F4FE8CF809155028F5F0E94CB0F80E032
S11323300E94D40FC058DF4FC03884E0D80721F082
S1132340AE0140585109E8CF0E94FE0F87E791E0A3
S11323500E940710DF91CF911F910F9108950F9361
S11323601F93CF93DF930E943C1080E00E94D40F10
S1132370C0E8D0E000E010E026C0F901E80FF91F42
S1132380E491A0910801B0910901EC930196883081
S1132390910599F7485F5F4F4C175D0731F0802F27
S11323A0912F9A0120593B4FE8CF809155028F5FBE
S11323B00E94CB0F80E00E94D40FC058DF4FC0387A
S11323C084E0D80721F0AE0140585109E8CF0E94BB
S11323D0FE0FDF91CF911F910F9108950E94AF11CD
S11323E02FE784E89EE1215080409040E1F700C04F
S11323F000000E946C112FE784E89EE12150804088
S11324009040E1F700C000000E94E6102FE784E846
S11324109EE1215080409040E1F700C000000E94FE
S113242029112FE784E89EE1215080409040E1F794
S113243000C0000008950F931F93CF93DF930E9471
S11324403C1080E00E94D40FC0E8D0E000E010E02F
S113245026C0F901E80FF91FE491A0910801B09199
S11324600901EC9301968830910599F7485F5F4F15
S11324704C175D0731F0802F912F9A0120593F4E60
S1132480E8CF809155028F5F0E94CB0F80E00E94BD
S1132490D40FC058DF4FC03884E0D80721F0AE0114
S11324A040585109E8CF0E94FE0F8AE691E00E944D
S11324B00710DF91CF911F910F9108958FB9779BEA
S11324C0FECF08951FB8779BFECF8FB10895BD9AB4
S11324D0BF9ABC9ABE988DB181658DB9089581115A
S11324E002C0C4980895C49A08955F9BFECF8CB12E
S11324F008955D9BFECF8CB908958FE189B910BC16
S113250088E18AB986E880BD65E772E189E792E1EE
S11325100E94B312089597FB072E16F4009407D077
S113252077FD09D00E949F1207FC05D03EF49095D8
S113253081959F4F0895709561957F4F0895AA1BCB
S1132540BB1B51E107C0AA1FBB1FA617B70710F09A
S1132550A61BB70B881F991F5A95A9F780959095CC
S1132560BC01CD0108950F931F93CF93DF93EC012A
S11325708B01009731F46115710519F480E090E046
S113258038C06EE070E081E090E00E94FE12FC0131
S11325900097A1F380E883830115110571F0138777
S11325A0028781E883838091560290915702892B98
S11325B021F4F0935702E09356022097C9F0D18793
S11325C0C0878381826083838091580290915902ED
S11325D0892B71F4F0935902E093580280915A02C6
S11325E090915B02892B21F4F0935B02E0935A02F1
S11325F0CF01DF91CF911F910F9108950F931F93F6
S1132600CF93DF93869F8001879F100D969F100DB7
S11326101124C8010E941A13EC01009729F0A801A3
S113262060E070E00E944114CE01DF91CF911F91D0
S11326300F910895CF93DF938230910510F482E0D7
S113264090E0E0915E02F0915F0220E030E0A0E0D3
S1132650B0E0309739F14081518148175907B8F0FB
S11326604817590771F482819381109729F01396C2
S11326709C938E9312972CC090935F0280935E027A
S113268027C02115310531F04217530718F0A9016D
S1132690DB0101C0EF019A01BD01DF010280F3817A
S11326A0E02DD7CF21153105F9F0281B390B243043
S11326B0310580F48A819B816115710521F0FB014C
S11326C09383828304C090935F0280935E02FE0131
S11326D0329644C0FE01E20FF31F8193919322507E
S11326E03109398328833AC020915C0230915D021C
S11326F0232B41F4209102013091030130935D02B8
S113270020935C02209100013091010121153105D3
S113271041F42DB73EB74091040150910501241BAB
S1132720350BE0915C02F0915D02E217F307A0F42F
S11327302E1B3F0B2817390778F0AC014E5F5F4F13
S11327402417350748F04E0F5F1F50935D024093E6
S11327505C028193919302C0E0E0F0E0CF01DF914D
S1132760CF910895CF93DF93009709F487C0FC01BC
S1132770329713821282C0915E02D0915F02209739
S113278081F420813181280F391F80915C0290915E
S11327905D028217930779F5F0935D02E0935C0282
S11327A06DC0DE0120E030E0AE17BF0750F4129692
S11327B04D915C9113979D014115510509F1DA0181
S11327C0F3CFB383A28340815181840F951F8A176D
S11327D09B0771F48D919C911197840F951F02961C
S11327E09183808312968D919C9113979383828316
S11327F02115310529F4F0935F02E0935E023EC097
S1132800D9011396FC93EE9312974D915D91A40F09
S1132810B51FEA17FB0779F480819181840F951F16
S11328200296D90111969C938E938281938113967B
S11328309C938E931297E0E0F0E08A819B8100974D
S113284019F0FE01EC01F9CFCE01029628813981FD
S1132850820F931F20915C0230915D022817390783
S113286069F4309729F410925F0210925E0202C05C
S113287013821282D0935D02C0935C02DF91CF91E8
S11328800895DC0101C06D9341505040E0F7089574
S1072890F894FFCFE6
S11328940000600220000014001200104D61696EF3
S11328A44D656E75004E65772047616D6500456121
S11328B47379004E6F726D616C00486172640048F4
S11328C46967682053636F726573004F7074696F2E
S11328D46E73004272696768746E65737300536F34
S11328E4756E640043726564697473002A006869D0
S11328F467682073636F7265730042726167650071
S1132904546F626961730048656E6E696E67000096
S9030000FC
