S00E00004E6F64655F322E73726563FF
S1130000C2C00000E0C00000DEC00000DCC0000090
S1130010DAC00000D8C00000D6C00000D4C0000080
S1130020D2C00000D0C00000CEC00000CCC0000090
S1130030CAC00000C8C00000C6C00000C4C00000A0
S1130040C2C00000C0C00000BEC00000BCC00000B0
S1130050BAC00000B8C00000B6C00000B4C00000C0
S1130060B2C00000B0C00000AEC00000ACC00000D0
S1130070AAC00000D7C00000A6C00000A4C00000B1
S11300800C948C08A0C000009EC000009CC000001E
S11300909AC0000098C0000096C000000C943C096F
S11300A092C0000090C000000C94C8088CC00000EE
S11300B08AC0000088C0000086C000000C94F308C9
S11300C082C0000080C000007EC000007CC0000030
S11300D07AC0000078C0000076C0000074C0000040
S11300E072C000005709A909A909A909A909A90900
S11300F0A909A9095709A909A909A909A909A909BE
S1130100A909A9095909A909A909A909A909A909AB
S1130110A909A909A909A909A909A909A909A9094B
S1130120A909A9095909A909A909A909A909A9098B
S1130130A909A909A909A909A909A909A909A9092B
S1130140A909A909A509A909A909A909A909A9091F
S1130150A909A9098209A909A909A909A909A90932
S1130160A909A909A909A909A909A909A909A909FB
S1130170A909A9097609A909A909A909A909A9091E
S1130180A909A909940911241FBECFEFD1E2DEBF4A
S1130190CDBF00E00CBF14E0A0E0B2E0E6EFFFE169
S11301A000E00BBF02C007900D92A23AB107D9F745
S11301B024E0A2EAB4E001C01D92A43CB207E1F736
S11301C066D60C94F90F1CCF9093A3048093A204D9
S11301D08FEE80937A0080E680937C000895FC0182
S11301E020E030E040E050E08191480F511D2F5F46
S11301F03F4F24303105C1F781E0403951400CF0C4
S113020080E00895FC01909179008081818382834C
S1130210838390830895FC018AEF808381838283A2
S1130220838308951F920F920FB60F9211240BB679
S11302300F928F93EF93FF93E091A204F091A304A4
S1130240309711F081E08083EAE7F0E080818F7ECF
S11302508083FF91EF918F910F900BBE0F900FBE93
S11302600F901F901895829A0895009749F0EFE92E
S1130270FFE03197F1F700C0000001970097B9F74C
S11302800895009739F025E02A95F1F700000197C9
S11302900097C9F708954F925F926F927F928F9261
S11302A09F92AF92BF92CF92DF92EF92FF926B0137
S11302B07C0129013A0160E271EA87E090E0A7013C
S11302C096010E94240B49015A01A7019601C3011A
S11302D0B2010E94020B28EE33E040E050E00E949D
S11302E0240B29013A0112161306140615069CF470
S11302F0C12CD12C76018A9AC401C3DF8A98C40127
S1130300C0DF8FEFC81AD80AE80AF80AC414D50463
S1130310E604F70481F7FF90EF90DF90CF90BF9051
S1130320AF909F908F907F906F905F904F900895C3
S11303308F929F92AF92BF92CF92DF92EF92FF92F1
S11303400F931F93CF93DF938230910509F03DC043
S1130350C6E0D2E006E712E00F2EF6E7CF2EF2E079
S1130360DF2EF02D0F2EF8EEEF2EF3E0FF2EF02D02
S113037069917991C7010E94110B4B01AA2497FC42
S1130380A094BA2CF801619171918F01882777FDAF
S11303908095982FA50194017EDFC501B4010E94C8
S11303A0130A26E636E646EA5FE30E94770A0E94CD
S11303B0E009CB015ADFA501940160E070E0CB01B4
S11303C06ADFCC15DD05A1F671C08130910509F015
S11303D03CC0C6EED2E002E813E00F2EF2E8CF2EC6
S11303E0F3E0DF2EF02D0F2EF8EEEF2EF3E0FF2ECC
S11303F0F02D69917991C7010E94110B4B01AA2438
S113040097FCA094BA2CF801619171918F0188270F
S113041077FD8095982FA50194013DDFC501B401B6
S11304200E94130A26E636E646EA5FE30E94770A4C
S1130430C7D7CB011ADFA501940160E070E0CB01BE
S11304402ADFCC15DD05A9F631C0039779F5CEE195
S1130450D4E00F2EF6E5EF2EF4E0FF2EF02D08E3A6
S113046014E00F2EFCE3CF2EF4E0DF2EF02D899064
S11304709990AA2497FCA094BA2CF70161917191E8
S11304807F01882777FD8095982FA501940103DFCC
S1130490F801819191918F01E8DEA501940160E05A
S11304A070E0CB01F8DECC15DD0509F7DF91CF91C3
S11304B01F910F91FF90EF90DF90CF90BF90AF907E
S11304C09F908F900895DAD440E060EE8FE0B9C435
S11304D008958CE280D4837021F48CE27CD4837000
S11304E0E1F30895FF920F931F93CF93DF931F922D
S11304F0CDB7DEB78C01EDDF8CE26DD4898381E664
S11305006AD490E0F8019183808385E664D4F8018D
S11305108283882369F0F12C86E68F0D5CD4F80180
S1130520EF0DF11D8383F394F8018281F816A0F393
S113053040E061E08CE285D40F90DF91CF911F9170
S11305400F91FF900895CF93DF931F92CDB7DEB73D
S113055080E341D48983898183FF06C080E33BD44F
S11305608983898183FDFACF0F90DF91CF9108951C
S11305701F93CF93DF93EC01E6DF60E082E33AD48C
S1130580688181E337D46A8185E334D48A818823FE
S113059061F010E0FE01E10FF11D638186E3810F3C
S11305A029D41F5F8A811817A8F381E834D4DF9116
S11305B0CF911F910895FA0111821082938382834F
S11305C07583648380EA96E8978386830895CF923F
S11305D0DF92EF92FF920F931F93CF93DF93FA0171
S11305E0861B970BEC010AF42196D595C795828159
S11305F09381C89F8001C99F100DD89F100D1124AD
S113060080819181C80FD91F868197818C179D079E
S113061014F4918380839195819591098C179D079A
S11306202CF49183808360EF7FEF1AC0D183C08361
S11306306481758180E090E0F4D62FE832EC45EFD8
S11306405CE355D76B017C01BE01882777FD80955B
S1130650982FE9D69B01AC01C701B60148D7B0D6A3
S1130660C801860F971F64E670E0DBD7CB01DF91EA
S1130670CF911F910F91FF90EF90DF90CF9008954D
S1130680CF93DF93CDB7DEB72B970FB6F894DEBFC9
S11306900FBECDBF23E030E03A83298322E02B83D1
S11306A08C839D83CE01019663DF2B960FB6F8945D
S11306B0DEBF0FBECDBFDF91CF910895CF93DF93FF
S11306C0CDB7DEB72B970FB6F894DEBF0FBECDBF04
S11306D024E030E03A83298322E02B838C839D83BA
S11306E0CE01019645DF2B960FB6F894DEBF0FBE00
S11306F0CDBFDF91CF910895EF92FF920F931F9397
S1130700CF93DF93CDB7DEB72B970FB6F894DEBF48
S11307100FBECDBF111103C01092780405C0113073
S113072019F481E0809378042B960FB6F894DEBF19
S11307300FBECDBFDF91CF911F910F91FF90EF902E
S11307400895CF92DF92EF92FF920F931F93CF936E
S1130750DF93CDB7DEB72B970FB6F894DEBF0FBE8D
S1130760CDBF211113C0A60168E070E083E090E0E2
S113077022DF80E090E0A0ECBFE3809374049093C8
S11307807504A0937604B093770429C0213099F4BA
S1130790A60168E070E086E090E00DDF80E090E084
S11307A0A0E0B0E48093740490937504A09376045D
S11307B0B093770414C0223091F4A6016CE070E089
S11307C08CE090E0F8DE80E090E0A0E8B0E4809374
S11307D0740490937504A0937604B09377042B96D5
S11307E00FB6F894DEBF0FBECDBFDF91CF911F913E
S11307F00F91FF90EF90DF90CF900895EF92FF92CA
S11308000F931F93CF93DF93CDB7DEB72B970FB61C
S1130810F894DEBF0FBECDBF413021F481E0809358
S1130820A40404C0411102C01092A4042B960FB674
S1130830F894DEBF0FBECDBFDF91CF911F910F9112
S1130840FF90EF900895ECD4509A519A0895E2E005
S1130850F1E080818F7B80838AE68A95F1F700C07E
S11308608081806480830895EEDFE1E0F1E080819F
S113087082608083808180648083808180628083C1
S1130880808188608083E2E0F1E080818061808300
S113089010920801DCCF08950F931F93CF93DF9339
S11308A000D01F92CDB7DEB780917804811117C0B4
S11308B0E2E0F1E080818260808380E589831A82AE
S11308C084E68B8300E117E263E070E0CE010196D9
S11308D0B1D40150110901151105B1F7B8DF0F901A
S11308E00F900F900F90DF91CF911F910F9108956A
S11308F0CF93DF93E2E0F1E080818F7D808380817C
S1130900877F80838AE68A95F1F700C0C09106014B
S1130910D0E0DC2FCC278081886080838AE68A95AA
S1130920F1F700C080910601C82B809178048130D2
S113093009F48DDFE2E0F1E0808180628083CE0102
S1130940DF91CF910895CF92DF92EF92FF920F93B0
S11309501F93CF93DF9300D01F92CDB7DEB7E4D1BE
S11309608B018091A404811117C01016110654F450
S1130970E2E0F1E08081826080838091A404813090
S1130980E9F411C0E2E0F1E080818D7F8083809101
S1130990A404813099F40DC08091A404813071F4D1
S11309A01016110634F4E2E0F1E080818D7F80833B
S11309B005C0E2E0F1E080818260808380E5898384
S11309C01A8296DFC0907404D0907504E090760487
S11309D0F0907704C801992324F488279927801B71
S11309E0910BBC01882777FD8095982F1CD5A70112
S11309F096017DD520E030E040E05FE378D5E5D492
S1130A006B8363E070E0CE01019614D40F900F90D5
S1130A100F900F90DF91CF911F910F91FF90EF9066
S1130A20DF90CF900895EF92FF920F931F93CF938F
S1130A30DF9300D01F92CDB7DEB77B01082F10E003
S1130A408091A404811106C08FEF90E09C01201BCB
S1130A50310B8901000F111F02951295107F102789
S1130A60007F102745DF0817190734F4E2E0F1E0AE
S1130A7080818260808305C0E2E0F1E080818D7F27
S1130A80808380E589831A8233DFA701BC01C80112
S1130A909EDD99231CF49195819591098B8363E0E4
S1130AA070E0CE010196C6D30F900F900F900F9077
S1130AB0DF91CF911F910F91FF90EF900895AF9226
S1130AC0BF92CF92DF92EF92FF920F931F93CF9337
S1130AD0DF93CDB7DEB72B970FB6F894DEBF0FBE0A
S1130AE0CDBFE982FA820B831C832D833E834F831F
S1130AF0588769877A878B8756018091780481307B
S1130B0029F48B85CED0A6011EDF13C08091780412
S1130B1081110FC0C12CE980FA800B811C812D81C9
S1130B203E814F81588569857A858B85D9D0B501F9
S1130B307ADF2B960FB6F894DEBF0FBECDBFDF91E0
S1130B40CF911F910F91FF90EF90DF90CF90BF90C6
S1130B50AF900895819A0895EF92FF920F931F9397
S1130B60CF93DF93CDB7DEB72B970FB6F894DEBFE4
S1130B700FBECDBF313021F481E0809379040AC0E7
S1130B80311103C01092790405C0323019F482E0A7
S1130B90809379042B960FB6F894DEBF0FBECDBFB9
S1130BA0DF91CF911F910F91FF90EF900895899A53
S1130BB02FE785EB91E0215080409040E1F700C0A1
S1130BC0000089988FE19EE40197F1F700C00000CE
S1130BD00895EF92FF920F931F93CF93DF93CDB7B6
S1130BE0DEB72B970FB6F894DEBF0FBECDBFE982F8
S1130BF0FA820B831C832D833E834F835887162FE1
S1130C0069877A878B8780917904811113C0613059
S1130C1049F48091A60481110DC0C9DF81E080935D
S1130C20A60408C0611106C08091A604813011F4A5
S1130C301092A60480917904823071F48091A50405
S1130C408F5F8093A504113039F48091A50483301B
S1130C5018F0ADDF1092A50480917904813061F41D
S1130C608091A5048F5F8093A5048091A5048630AC
S1130C7018F01092A5049BDF2B960FB6F894DEBFF4
S1130C800FBECDBFDF91CF911F910F91FF90EF90D9
S1130C900895FC0124813381632F70E0822F90E05A
S1130CA00895EF92FF920F931F93CF93DF93CDB7E5
S1130CB0DEB72B970FB6F894DEBF0FBECDBF622F01
S1130CC070E0832F90E02B960FB6F894DEBF0FBE32
S1130CD0CDBFDF91CF911F910F91FF90EF900895B9
S1130CE0CF92EF92FF920F931F93CF93DF93CDB7E1
S1130CF0DEB72B970FB6F894DEBF0FBECDBF4F8380
S1130D005887C11002C0852F01C08F812B960FB662
S1130D10F894DEBF0FBECDBFDF91CF911F910F912D
S1130D20FF90EF90CF900895FF920F931F93CF936E
S1130D30DF938B019C01E091B604F091B7046091BC
S1130D40B8047091B904A901461B570B0F2EF4E6A1
S1130D50FF2EF02DF49EC001F59E900D112461D458
S1130D60EB010E1B1F0BF09EC001F19E900D112490
S1130D70BF0157D49B01B901CE01DF91CF911F91DF
S1130D800F91FF900895EF92FF920F931F93CF93CB
S1130D90DF93CDB7DEB72B970FB6F894DEBF0FBE47
S1130DA0CDBF50E0CA01880F991F880F991F880F83
S1130DB0991F840F951F885F984F6FD12B960FB69C
S1130DC0F894DEBF0FBECDBFDF91CF911F910F917D
S1130DD0FF90EF900895CF93C82F80E07ED183E0F9
S1130DE067D18C2F65D169D1C82F81E076D18C2F42
S1130DF0CF910895CF93DF93D82FC62F80E06DD184
S1130E0082E056D18D2F54D18C2F52D181E065D1FF
S1130E10DF91CF910895CF93C82F80E05ED18FE703
S1130E208C0F823020F0C43811F0C73819F48C2F9D
S1130E303FD103C08BE794E0D3D481E04ED1CF916E
S1130E4008951F93CF93DF93182FD62FC42F80E0DC
S1130E5044D185E02DD1812F2BD18D2F29D18C2FF9
S1130E6027D181E03AD1DF91CF911F91089580E09D
S1130E7034D180EC1DD181E030C1089524D1F7DF55
S1130E8087EA91E60197F1F700C000000895CF9337
S1130E90DF93CDB7DEB76D970FB6F894DEBF0FBE04
S1130EA0CDBF19821A821B82188679D20CDBCE013F
S1130EB002968AD9CBD0CE01019615D14AD163D1FD
S1130EC049DED2DCAE01475F5F4F6CE070E086E044
S1130ED090E071DB78941D8E1C8EC5D90F2EF7E936
S1130EE0AF2EF4E0BF2EF02D8981882309F493C03E
S1130EF0CE014196F7DA89899A898230910581F089
S1130F0038F4009709F445C0019709F46AC07DC01C
S1130F108530910509F471C0069709F472C075C053
S1130F20E988FA880B891C892D893E894F89588D57
S1130F30698D7A8D8B8DE0DBCE0109966C01E98891
S1130F40FA880B891C892D893E894F89588D698DB2
S1130F507A8D8B8DF6DBE988FA880B891C892D89BB
S1130F603E894F89588D698D7A8D8B8DF5DDE988A1
S1130F70FA880B891C892D893E894F89588D698D82
S1130F807A8D8B8D3BDC88DCCE01049644D9FBD072
S1130F9041C0E988FA880B891C892D893E894F89CB
S1130FA0588D698D7A8D8B8DEEDECE0109966C019C
S1130FB0E988FA880B891C892D893E894F89588DC7
S1130FC0698D7A8D8B8D7BDDE988FA880B891C8984
S1130FD02D893E894F89588D698D7A8D8B8DF9DDE8
S1130FE019C0CE01419655DE6093B6047093B704E0
S1130FF08093B8049093B9040DC083E090E098D92D
S113100009C081E090E094D905C0BF92AF92D7D3D4
S11310100F900F9019826CDC9D8F8C8F8FE39CE96D
S11310200197F1F700C000008A81882309F45CCF9E
S1131030CE010496E7D8A2D023DBCE010496CFD804
S1131040882309F451CF9AD039DB4ECF259AA1E8F1
S1131050B0E08C9180618C938C9188608C93E0E8F3
S1131060F0E080818260808380818E7F80838081B4
S11310708F7B80838081806880838C9182608C9355
S113108080E49CE9909387008093860088EB9BE042
S1131090909389008093880008959C0129503740DB
S11310A02F35394020F49093890080938800089567
S11310B08EBD0DB407FEFDCF08951EBC0DB407FE12
S11310C0FDCF8EB50895229A219A279A2B9A2398B8
S11310D0209A8CB580658CBD0895811102C02F982B
S11310E008952F9A0895E1E9F0E020812860208393
S11310F02081226020832FE33CE9309399002093E0
S113110098009093AE048093AD04E1E7F0E0808111
S113111082608083789408951F920F920FB60F9285
S113112011240BB60F928F93EF93FF93E091AD04CC
S1131130F091AE04309711F081E08083C198FF9163
S1131140EF918F910F900BBE0F900FBE0F901F90D9
S11311501895E1EAF0E08081886080838081826074
S113116080838FE39DE09093A9008093A800E2E739
S1131170F0E0808182608083789408958091A9044E
S11311809091AA0408951092AA041092A9040895B3
S11311901F920F920FB60F9211248F939F938091F9
S11311A0A7049091A80401969093A8048093A7049F
S11311B08091A7049091A8040A976CF01092A80457
S11311C01092A7048091A9049091AA040196909387
S11311D0AA048093A904C9989F918F910F900FBE80
S11311E00F901F9018951F920F920FB60F92112413
S11311F00BB60F928F93EF93FF93E091AB04F091B2
S1131200AC04309711F081E08083D198FF91EF9185
S11312108F910F900BBE0F900FBE0F901F901895DB
S11312208CE08093B8008FEF8093BB0084E08093C0
S1131230BC000895ECEBF0E0208120FDFDCF60932D
S1131240B104FC0120812093B20420FD0CC0623063
S113125050F0DC011196E3EBF4E081E09D91919371
S11312608F5F8613FBCF1092B00488EF80937A04CB
S113127085EA8093BC0008951F920F920FB60F92D7
S113128011240BB60F922F933F938F939F93AF9399
S1131290BF93EF93FF938091B90090E0FC013897DE
S11312A0E135F10508F055C0EE58FF4FE9C1109241
S11312B0AF04E091AF048091B104E81770F481E0C9
S11312C08E0F8093AF04F0E0EE54FB4F8081809347
S11312D0BB0085E88093BC0043C08091B00481606A
S11312E08093B00484E98093BC003AC0E091AF04D9
S11312F081E08E0F8093AF048091BB00F0E0EE5448
S1131300FB4F80832091AF0430E08091B10490E0E2
S113131001972817390724F485EC8093BC0020C07A
S113132085E88093BC001CC08091BB00E091AF04B1
S1131330F0E0EE54FB4F80838091B0048160809391
S1131340B00484E98093BC000BC085EA8093BC00A0
S113135007C08091B90080937A0484E08093BC0034
S1131360FF91EF91BF91AF919F918F913F912F91F9
S11313700F900BBE0F900FBE0F901F901895E0ECCE
S1131380F0E080818823ECF78091C6000895E0ECBA
S1131390F0E0908195FFFDCF8093C600089587E625
S11313A08093C4001092C50088E18093C10086E058
S11313B08093C2006FEB79E087EC99E0B6C10895A1
S11313C004D06894B1118DC0089570D088F09F57EF
S11313D090F0B92F9927B751A0F0D1F0660F771F7D
S11313E0881F991F1AF0BA95C9F712C0B13081F05D
S11313F077D0B1E0089574C0672F782F8827B85F3D
S113140039F0B93FCCF3869577956795B395D9F7BD
S11314103EF490958095709561957F4F8F4F9F4FC7
S11314200895E89409C097FB3EF4909580957095D3
S113143061957F4F8F4F9F4F9923A9F0F92F96E91C
S1131440BB279395F695879577956795B795F11191
S1131450F8CFFAF4BB0F11F460FF1BC06F5F7F4F2E
S11314608F4F9F4F16C0882311F096E911C0772340
S113147021F09EE8872F762F05C0662371F096E849
S1131480862F70E060E02AF09A95660F771F881F18
S1131490DAF7880F9695879597F9089557FD905830
S11314A0440F551F59F05F3F71F04795880F97FB24
S11314B0991F61F09F3F79F08795089512161306DE
S11314C01406551FF2CF4695F1DF08C0161617060D
S11314D01806991FF1CF8695710561050894089542
S11314E0E894BB2766277727CB0197F908950BD09B
S11314F078C069D028F06ED018F0952309F05AC04E
S11315005FC01124EECFCADFA0F3959FD1F3950FEE
S113151050E0551F629FF001729FBB27F00DB11D73
S1131520639FAA27F00DB11DAA1F649F6627B00D03
S1131530A11D661F829F2227B00DA11D621F739FEC
S1131540B00DA11D621F839FA00D611D221F749FFA
S11315503327A00D611D231F849F600D211D822F41
S1131560762F6A2F11249F5750408AF0E1F0882388
S11315704AF0EE0FFF1FBB1F661F771F881F915095
S11315805040A9F79E3F510570F014C0AACF5F3FA9
S1131590ECF3983EDCF3869577956795B795F795C8
S11315A0E7959F5FC1F7FE2B880F911D9695879550
S11315B097F9089597F99F6780E870E060E00895CF
S11315C09FEF80EC089500240A9416161706180657
S11315D00906089500240A94121613061406050633
S11315E00895092E0394000C11F4882352F0BB0FC4
S11315F040F4BF2B11F460FF04C06F5F7F4F8F4F27
S11316009F4F0895DB018F939F9340D0BF91AF917B
S1131610A29F800D911DA39F900DB29F900D112448
S1131620089597FB072E16F4009406D077FD08D092
S113163037D007FC05D03EF4909581959F4F0895CF
S1131640709561957F4F0895052E97FB16F40094CD
S11316500FD057FD05D038D007FC02D046F408C09F
S113166050954095309521953F4F4F4F5F4F0895CA
S113167090958095709561957F4F8F4F9F4F0895FA
S1131680EE0FFF1F0590F491E02D19943FD0A59F14
S1131690900DB49F900DA49F800D911D1124089569
S11316A0AA1BBB1B51E107C0AA1FBB1FA617B70784
S11316B010F0A61BB70B881F991F5A95A9F78095A0
S11316C09095BC01CD010895A1E21A2EAA1BBB1B63
S11316D0FD010DC0AA1FBB1FEE1FFF1FA217B307FA
S11316E0E407F50720F0A21BB30BE40BF50B661F10
S11316F0771F881F991F1A9469F7609570958095D4
S113170090959B01AC01BD01CF010895A29FB0014A
S1131710B39FC001A39F700D811D1124911DB29F21
S1131720700D811D1124911D08950F931F93CF9364
S1131730DF93EC018B01009731F46115710519F405
S113174080E090E037C06EE070E081E090E063D22A
S1131750FC010097A9F380E883830115110571F05A
S11317601387028781E883838091BA049091BB0434
S1131770892B21F4F093BB04E093BA042097C9F0B9
S1131780D187C0878381826083838091BC049091D8
S1131790BD04892B71F4F093BD04E093BC048091E3
S11317A0BE049091BF04892B21F4F093BF04E0930D
S11317B0BE04CF01DF91CF911F910F910895CF9374
S11317C0DF93CDB7DEB7FE01369661917191AF011B
S11317D08091BC049091BD0430D0DF91CF910895E5
S11317E00F931F93CF93DF93E091BC04F091BD045A
S11317F0238121FF1BC0EC0100E010E0899160917E
S1131800BC047091BD04DB011896ED91FC9119970D
S1131810882331F01995892B89F30FEF1FEFEECF51
S11318208AE01995892B11F4C80102C08FEF9FEF4C
S1131830DF91CF911F910F9108952F923F924F9274
S11318405F926F927F928F929F92AF92BF92CF924C
S1131850DF92EF92FF920F931F93CF93DF93CDB755
S1131860DEB72C970FB6F894DEBF0FBECDBF7C0158
S11318706B018A01FC0117821682838181FFB0C14A
S1131880CE0101964C01F7019381F60193FD8591F8
S113189093FF81916F01882309F49EC1853239F445
S11318A093FD859193FF81916F01853221F4B701F6
S11318B090E00FD3E8CF512C312C20E02032A0F45B
S11318C08B3269F030F4803259F0833269F420614C
S11318D02CC08D3239F0803339F4216026C0226067
S11318E0246023C0286021C027FD27C030ED380FB5
S11318F03A3078F426FF06C0FAE05F9E300D1124DA
S1131900532E13C08AE0389E300D1124332E2062EA
S11319100CC08E3221F426FD5FC1206406C08C36D3
S113192011F4206802C0883641F4F60193FD8591D4
S113193093FF81916F018111C1CF982F9F7D9554A1
S1131940933028F40C5F1F4FFFE3F9830DC08336F7
S113195031F0833771F0833509F057C021C0F801A5
S1131960808189830E5F1F4F44244394512C54017A
S113197014C03801F2E06F0E711CF801A080B18030
S113198026FF03C0652D70E002C06FEF7FEFC50135
S11319902C8794D22C0183012C852F77222E16C0FC
S11319A03801F2E06F0E711CF801A080B18026FFAF
S11319B003C0652D70E002C06FEF7FEFC5012C8777
S11319C06BD22C012C852068222E830123FC19C0A4
S11319D0832D90E048165906A0F4B70180E290E008
S11319E078D23A94F5CFF50127FC859127FE8191B1
S11319F05F01B70190E06DD231103A94F1E04F1AD3
S1131A0051084114510479F7DEC0843611F0893647
S1131A1031F5F80127FF07C06081718182819381CC
S1131A200C5F1F4F08C060817181882777FD809506
S1131A30982F0E5F1F4F2F76B22E97FF09C09095F7
S1131A408095709561957F4F8F4F9F4F2068B22E80
S1131A502AE030E0A4016FD2A82EA81843C085372D
S1131A6029F42F7EB22E2AE030E025C0F22FF97F30
S1131A70BF2E8F36C1F018F4883579F0ADC08037A9
S1131A8019F0883721F0A8C02F2F2061B22EB4FEA0
S1131A900DC08B2D8460B82E09C024FF0AC09F2F6F
S1131AA09660B92E06C028E030E005C020E130E0A1
S1131AB002C020E132E0F801B7FE07C06081718105
S1131AC0828193810C5F1F4F06C06081718180E029
S1131AD090E00E5F1F4FA4012ED2A82EA818FB2D54
S1131AE0FF77BF2EB6FE0BC02B2D2E7FA51450F40E
S1131AF0B4FE0AC0B2FC08C02B2D2E7E05C07A2C81
S1131B002B2D03C07A2C01C0752C24FF0DC0FE01BF
S1131B10EA0DF11D8081803311F4297E09C022FF72
S1131B2006C07394739404C0822F867809F073946A
S1131B3023FD12C020FF06C05A2C731418F4530C52
S1131B405718732C731460F4B70180E290E02C876B
S1131B50C0D173942C85F6CF731410F4371801C0D8
S1131B60312C24FF11C0B70180E390E02C87B1D160
S1131B702C8522FF16C021FF03C088E590E002C037
S1131B8088E790E0B7010CC0822F867851F021FDE0
S1131B9002C080E201C08BE227FD8DE2B70190E034
S1131BA098D1A51430F4B70180E390E092D15A940F
S1131BB0F8CFAA94F401EA0DF11D8081B70190E0F9
S1131BC088D1A110F6CF332009F45DCEB70180E2AD
S1131BD090E07FD13A94F7CFF7018681978102C0D4
S1131BE08FEF9FEF2C960FB6F894DEBF0FBECDBFDC
S1131BF0DF91CF911F910F91FF90EF90DF90CF90E5
S1131C00BF90AF909F908F907F906F905F904F9018
S1131C103F902F9008950F931F93CF93DF93869F48
S1131C208001879F100D969F100D1124C8010DD0BF
S1131C30EC01009721F0A80160E070E038D1CE01FA
S1131C40DF91CF911F910F910895CF93DF9382304D
S1131C50910510F482E090E0E091C204F091C30495
S1131C6020E030E0A0E0B0E0309739F140815181CC
S1131C7048175907B8F04817590771F482819381BE
S1131C80109729F013969C938E9312972CC09093DF
S1131C90C3048093C20427C02115310531F04217D3
S1131CA0530718F0A901DB0101C0EF019A01BD013E
S1131CB0DF010280F381E02DD7CF21153105F9F042
S1131CC0281B390B2430310580F48A819B816115EE
S1131CD0710521F0FB019383828304C09093C304B4
S1131CE08093C204FE01329644C0FE01E20FF31F4A
S1131CF08193919322503109398328833AC02091EA
S1131D00C0043091C104232B41F42091020230918C
S1131D1003023093C1042093C00420910002309147
S1131D2001022115310541F42DB73EB7409104025B
S1131D3050910502241B350BE091C004F091C104BD
S1131D40E217F307A0F42E1B3F0B2817390778F08E
S1131D50AC014E5F5F4F2417350748F04E0F5F1FED
S1131D605093C1044093C0048193919302C0E0E076
S1131D70F0E0CF01DF91CF910895CF93DF930097E7
S1131D8009F487C0FC01329713821282C091C20405
S1131D90D091C304209781F420813181280F391F09
S1131DA08091C0049091C1048217930779F5F09350
S1131DB0C104E093C0046DC0DE0120E030E0AE1742
S1131DC0BF0750F412964D915C9113979D014115F4
S1131DD0510509F1DA01F3CFB383A2834081518124
S1131DE0840F951F8A179B0771F48D919C9111970D
S1131DF0840F951F02969183808312968D919C91F6
S1131E001397938382832115310529F4F093C30436
S1131E10E093C2043EC0D9011396FC93EE9312974B
S1131E204D915D91A40FB51FEA17FB0779F48081EA
S1131E309181840F951F0296D90111969C938E93DC
S1131E408281938113969C938E931297E0E0F0E045
S1131E508A819B81009719F0FE01EC01F9CFCE0134
S1131E60029628813981820F931F2091C0043091FA
S1131E70C1042817390769F4309729F41092C30470
S1131E801092C20402C013821282D093C104C09380
S1131E90C004DF91CF910895FC010590615070401A
S1131EA00110D8F7809590958E0F9F1F0895DC013F
S1131EB001C06D9341505040E0F70895FC0161501A
S1131EC0704001900110D8F7809590958E0F9F1F58
S1131ED008950F931F93CF93DF93182F092FEB01CE
S1131EE08B8181FD03C08FEF9FEF20C082FF10C064
S1131EF04E815F812C813D81421753077CF4E88138
S1131F00F9819F012F5F3F4F39832883108306C0D7
S1131F10E885F985812F1995892B29F72E813F8131
S1131F202F5F3F4F3F832E83812F902FDF91CF91DF
S1131F301F910F910895FA01AA27283051F12031F9
S1131F4081F1E8946F936E7F6E5F7F4F8F4F9F4F49
S1131F50AF4FB1E03ED0B4E03CD0670F781F891F8B
S1131F609A1FA11D680F791F8A1F911DA11D6A0F59
S1131F70711D811D911DA11D20D009F468943F910C
S1131F802AE0269F11243019305D3193DEF6CF010B
S1131F900895462F4770405D4193B3E00FD0C9F7D1
S1131FA0F6CF462F4F70405D4A3318F0495D31FD3E
S1131FB04052419302D0A9F7EACFB4E0A695979591
S1131FC0879577956795BA95C9F700976105710567
S1131FD008959B01AC010A2E0694579547953795B1
S1131FE02795BA95C9F7620F731F841F951FA01D0B
S1091FF00895F894FFCFF0
S1131FF60000C40420000C000C000C000C000C00B3
S11320060C00060003000C000C000C000C000C0075
S11320160C00060003000C000C000C000C000C0065
S11320260C00060003000C000C000C000C000C0055
S11320360C0006000600120012001200060006003C
S11320460600060006000600120012001200120026
S1132056120012000A000A000A000A000A000A0016
S113206603000300030006010B02DC00B801E900CB
S1132076D2010000000006010B02DC00B801E900F1
S1132086D20100000000AF005D01930026019C0010
S1132096370100000000AF005D01930026019C009B
S11320A6370100000000370115012601150137012B
S11320B63701D000C4001501060172015D01A500B7
S11320C6D201B8019F013701F700E900DC00D00016
S11320D60000000000000C000C000C000C000C00BA
S11320E60C000C000C000C000C000C000C000C0086
S11320F60C000C000C000C000C000C000C000C0076
S11321060C000C000C000C000C000C000C000C0065
S11321160C000C000C000900090009000C000C005E
S11321260C000C000C000C000C000C000C000C0045
S11321360C000C000C000C000C000C000C000C0035
S11321460C000C000C000C000C000C000C000C0025
S11321560C000C000900090009000C000C000C001E
S11321660C000C000C000C000C000C000C000C0005
S11321760C004D0A4D0A00004D0A00002D084D0AB8
S11321860000400C000000000000200600000000D3
S113219600002D08000000002006000000002705AE
S11321A600000000E0060000B80700004907E0064A
S11321B6000020064D0A400CC00D0000EA0A400C3F
S11321C600004D0A00002D082D09B8070000000084
S11321D62D0800000000200600000000270500006E
S11321E60000E0060000B80700004907E00600000A
S11321F620064D0A400CC00D0000EA0A400C0000FF
S11322064D0A00002D082D09B80700000000E80358
S1132216E803FA00FA00FA00E803F401FA00FA0007
S1132226FA00E803F401FA00320032003200320008
S11322363200320032003200320032003200320004
S1132246320032003200060188015D014A0126018E
S11322560B0288015D0126010B0288015D014A011A
S11322665D0126010000C03F0102F86669736B2018
S113227666756E6B657220696B6B652070E5206C04
S1132286616E642E2E2E00494420696E76616C6957
S10522966400DE
S9030000FC
