S00E00004E6F64655F312E7372656300
S11300000C94870C0C94A40C0C94A40C0C94A40CC9
S11300100C94A40C0C94A40C0C94A40C0C94A40C9C
S11300200C94A40C0C94A40C0C94A40C0C94A40C8C
S11300300C94A40C0C94A40C0C94A40C0C94A40C7C
S11300400C94A40C0C94A40C0C94A40C0C94A40C6C
S11300500C94A40C0C94A40C0C94A40C0C94A40C5C
S11300600C94A40C0C94A40C0C94A40C0C94A40C4C
S11300708F15FB15FB15921597159C15B715FB15D8
S1130080C715CF15A715FB15FB15DD15D615E515F9
S1130090ED15F415A215FF0707770777770777079C
S11300A007FFFFFFFFFFFFFF0000FFFFFFFF000050
S11300B0FFFFFFFFFFFF0000000000000000000042
S11300C0000000000000000000000000000000002C
S11300D0000000000000000000000000000000001C
S11300E0000000000000000000000000000000000C
S11300F000000000000000000000000000000000FC
S113010000000000000000000000000000000000EB
S1130110000000000000FFFFFFFFFFFFFFFFFFFFE5
S1130120FFFFFFFFFFFFFF470321A8A0A0A82103B3
S113013047FFFFFFFFFF0000000000000000000079
S113014000000000000000000000000000000000AB
S1130150000000000000000000000000000000009B
S1130160000000000000000000000000000000008B
S1130170000000000000000000000000000000007B
S1130180000000000000000000000000000000006B
S1130190000000000000FFFF873B41D1F9A199BB9B
S11301A0BBFFFFFFFFFF79380D01C4F1F1C4010D5E
S11301B03879FFFFFFFF000000000000000000008E
S11301C0000000000000000000000000000000002B
S11301D0000000000000000000000000000000001B
S11301E0000000000000000000000000000000000B
S11301F000000000000000000000000000000000FB
S113020000000000000000000000000000000000EA
S113021000000000000000000800010100000000D0
S11302200004060050C0C6C652520202010130301A
S11302303000000000000000000000E0F0F0E0E00A
S1130240E0C0C080808000000000000000000000CA
S1130250000000000000000000000000000000009A
S1130260000000000000000000000000000000008A
S1130270000000000000000000000000000000007A
S11302800000000000000000000000000000E0F09A
S1130290F0F0E4E4E4F410000000000000040400C2
S11302A0000363E3E363020B6B63E0FCFEFFE7E33D
S11302B0F3F2FCF0E08000000000C0FFFFFFFFFF4E
S11302C0FFFFFFFFFFFFFFFEEEC3C1C0E0E0E0E081
S11302D060404000000000000000000080C080C0BA
S11302E0E0F8F8F00000000000000000000000004A
S11302F000000000000000000000000000000000FA
S11303000000000000000000C0C0E0F0F8FCFFFFA7
S1130310FFFFFFFFFFFF000C1C781C1C2C0C0C04BF
S11303200000000143411C1C0C087FFFFFFFFFFF7E
S1130330FFFFC3E3F1F3FFFEFCFCFFFFFFFFFFFF42
S1130340FFFFFFFFFFFFFFFFFFFFFFFFFFFFFFFEBA
S1130350FCFCFCFCFCFCFCFCFCFEFEFEFFFFFFFFC7
S1130360FFFF7F070000000000000000C0C0C08045
S11303708080000000000000000000000000000079
S113038000000000000000087FFFFFFFFFFFFFFFE9
S1130390FFFFFFFFFF7F000030310000000032024A
S11303A00000000800000000008080C7DFFFFFFF9E
S11303B0FFFFFFFFFFFFFFFFFFFFFFFFFFFFFFFF49
S11303C0FFFFFFFFFFFFFFFFFFFFFF7F3F3F1F0F09
S11303D00F8787C7E3F37F3F3F3F3F3F3F3F3F3FA9
S11303E03F3F3F1C000000000000007EFFFFFFFFB6
S11303F0FFFFFFFFFFFFFEFCFC20000000000000E9
S11304000000000000000000181F1F1F0F0F07034B
S113041003030100000000081E7232000C5FFFDAC3
S1130420C00000000000B9FFBBB9BBFFB999BFBF52
S1130430BFBFBFBF9F9FFFFFF7FFFFFFFFFFFFFF90
S1130440FFFFFFFBF1FFFFFFE7E1F0F87C3E3E3FDB
S11304507F7F7F7F3F3F7F7E7C7C7C7870E0C0C065
S1130460C0C0C00000000000000000003061C3876D
S11304700F0F0F1F1F0F0F070000000000000000E8
S11304800000000000000000000000000000000068
S11304900000000000000000006626068486C7C72E
S11304A0C30100000000337FFFFB3BFFFFFBFBFFAA
S11304B0FBBBFFFFBB3BFFFFFFFFFFFFFFFFFFFF98
S11304C09F1F3F7FFFFFFFFFFFFFFFFFFEFEFEFEBC
S11304D0FEFEFCFCFCFCFCFCFCFCFCFCF8E8E0C0C4
S11304E0C0C080000000000000000000000000C147
S11304F0C300000000000000000000000000000035
S113050000000000000000000000000000000000E7
S1130510000000000000000020010171F1F0F0F083
S1130520F0707000E0E0A387870707070707070755
S113053007070307C7F3FFFFFFFFFFFFFFFFFFFDF1
S1130540C1040800010F3F7FFFFFFFFFFFFFFFFF14
S1130550FFFFFFFFFFFFFFFFFFFFFFFFFFFDF9F9B5
S1130560F8F8F8F8F0E0C0C0C00000000000000097
S113057000000000000000000080800080000000F7
S11305800000000000000000000000000000000067
S1130590000000000000000004070783818183CB72
S11305A0CB030B080C0F0301010000000000000046
S11305B0000078FEFFFFFFFFFFFFFFFFFFFFFFFFCD
S11305C0FFFFFEFCF8F0E0C0000001010303030399
S11305D00307070F0F0F0F1F1F1F1F1F1F1F1F1FB3
S11305E00F0F0703030101010000000000000000D9
S11305F000000000000004000207030000000000E7
S113060000000000000000000000000000000000E6
S11306100080C0C00000FFFFFFFFFFFFFFFFFF3FA0
S11306203F3F3F1F1F1F0F0F0F0F07070707070746
S11306300707070F0F1F1F3F3F7F7FFFFFFFFFFFCE
S1130640FFFFFFFFFFFFFF7F7F3F3F1F1F1F1F1F96
S11306501F3F3F7F7FFFFFFFFFFFFF7F7F7F3F3F06
S11306601F1F1F0F0F0F0F0F0F0F0F0F0F0F0F1F56
S11306701F1F1F1F1F3F3F3F3F3F3F1F1F1F0F0FE6
S11306800707070707070F0F1F3F7FFFFFFFFFFF46
S1130690FFFFFFFFFFFFFFFFFFFFFFFFFFFFFFFF66
S11306A0FEFCF8F8F0F0F0F8F8F8FCFCFCFCFEFEB8
S11306B0FEFEFEFEFEFEFEFCFCF8F8F0F0E1E1C1F9
S11306C0C18181818180808080C0C0C0E0F0F0F071
S11306D0F8F8F8F8F8F0F0E0C0C0C0C0C0C0C0E05E
S11306E0E06070F0F8F8F8F8FCFCFCFCFCFCFCFCA6
S11306F0FCFCFCF8F8F8F8F8F8F0F0F0F0F0F0F89A
S1130700F8F8FCFCFCFEFEFEFEFCFCFCFDFFFFFF1B
S1130710FFFFFFFFFFFFFFFFFFFFFFFFFF7F3F1F05
S11307200F07C3E3E1F1F1F1F1C18080C3FFFFFFE3
S1130730FFFFFFFFFFFFFFFFFFFFFFFFFFFFFFFFC5
S1130740FFFFFFFFFFFFFFFFFFFFFFFFFFFFFFFFB5
S1130750FFFFFFFFFFFFFFFFFFFFFFFFFFFFFFFFA5
S1130760000000FFFFFFFFFFFFE3E3E3F7FFFFFFEE
S1130770FFFFFFFFFF0F07071FFFFFFFFFFFFFFF45
S1130780FFFFFFFFFFFFFFFFFFFFFFFFFFFFFFFF75
S1130790FFFFFFFFFFFFFFFFFFFF1F070180F0FCCC
S11307A0FEFFFFFFFFFFFFFFFFFFFFFFFFFFFF0352
S11307B001010787C3E3E1F1F1010103FFFFFF3FFB
S11307C00F0783E3E1F1F1717131210307CFFFFFDB
S11307D0FFFF7F1F0F87C3E3F1F1F1F1F1E1C307DD
S11307E00000F8FFFFFFFFFF03010103FFFFFFFF0E
S11307F0F9F1F1F1F100000000F1F1F1F1F1FFFF85
S1130800FF3F0F0F07C7E7E3E3F3F1C18181CFFF98
S1130810FFFFFFFFFFFFFFFFFFFFC000001F3F7F41
S1130820FFFFFFFF7F7F3F3F1F0F0F9FFFFFFF0073
S11308300000FFFFFFFFFFFFFFFEFEFEFFFFF7804C
S11308400002237171F8F8FCFCFE7E7F3F1F1FFF3E
S1130850FFFFC000001F3F7FFFFFFFFFFF7F3F0040
S113086000003FFFFFFFFFFF00000000FFFFFFFF4E
S1130870FFFFFFFFFFF8000000FFFFFFFFFFFFFF88
S11308803F3E7C78F8F8F8F8F0F16103030FFFFFBE
S1130890FFFFFFFFFFFFFFFFFFFFFFFFFEFCFCF872
S11308A0F8F87838381C1C1C0E0F0F0F0F1F3F7CF4
S11308B0F8F8FFFFFFFFFFFFFFFFFFFFFFFFFFFF52
S11308C0FEFEFCFCF8F8F8F8F8F8F8FCFCFEFFFF74
S11308D0FFFFFFFFFEFCFCF8F8F8F8F8F8F8FCFC62
S11308E0F8F8FCFFFFFFFFFFFCF8F8FCFFFFFFFF39
S11308F0FFFFFFFFFFFDF8F8FCFFFFFFFFFFFFFF17
S1130900FEFCFCF8F8F8F8F8F8F8FCFCFEFFFFFF32
S1130910FFFFFFFFFFFFFFFFFFFFFFFF3F0F070387
S1130920010000000080C0E0F0F0F8F8FCFCFCFCE2
S1130930F8F1E3E7C78F0F1F3F7F7FFFFFFFFFFF44
S1130940FFFFFFFFFF7F3F3F1F1F1F0F0F0F0F0F03
S11309500F0F0F0F0F0F1F1F3F3F3F3F3F3F1F1F43
S11309600F0F0F07070303030303030307070F1FF7
S11309701F1F3F3F3F3F3F3F3F3F1F1F1F1F0F0FA3
S1130980070703030303030303070F1F3F7FFFFF4F
S1130990FFFFFFFFFFFFFFFFFFFFFFFFFEFCF8F07D
S11309A0F0E0F8FEFFFFFFFFFFFFFFFFFFFFFFFF89
S11309B0FFFFFFFFFFFFFFFEFEFCF8F0E0E1C1C117
S11309C081818180808080C0C0E0E0F0F0F8F8FC94
S11309D0FCFCFCFCFCFCFCFCFCF8F8F8F0F0F0F08F
S11309E0F0F0F0F8FCFCFCFEFEFFFFFFFFFFFFFE53
S11309F0FEFEFCF8F8F8F0F0F0F0F0F0F0F0F8F8A3
S1130A00F8F8FCFCFEFEFFFFFFFFFFFFFFFFFFFF08
S1130A10FFFFFFFFFFFFFFFFFFFFFFFFFFFFFFFFE2
S1130A20FFFFFFFFFFFFFFFFFFFFFFFFFFFFFFFFD2
S1130A30FFFF3F1F1F0F1F9F5F5F7F3F3FBFBF7FB2
S1130A407F7F3F3FBFBFFFFFFFFFFFFFFFFFFFFFB2
S1130A50FFFFFFFFFFFFFCFCFCF8F8F0F0F0FCFCEC
S1130A60F8F9F9FBF2F6F4F0E0C0C0C0C0C08000B1
S1130A70000000000103071F7FFFFFFFFFFFFFFFD0
S1130A80FFFFFFFFFFFFFFFFFFFFFFFFFFFFFFFF72
S1130A90FFFFFFFFFFFFFFFFFFFFFFFFFFFFFFFF62
S1130AA0FFFFFFFFFFFFFFFFFFFFFFFFFFFFFFFF52
S1130AB0810000000000000000000080C0F0F8FC8D
S1130AC0FCFEFEFFFFFFFFFFFFFFFFFFFFFFFFFF37
S1130AD0FFFFFFFFFFFFFFFFFFFFFFFFFFFFFFFF22
S1130AE0FFFFFFFFFFFFFFFF7F7F3F7FFFFFFFFC55
S1130AF0F0F0F00018030000066F1F3FFFFFFFFF38
S1130B00FFFFFFFFFFFFFFFFFFFFFFFFFFFFFFFFF1
S1130B10FFFFFFFFFFFFFFFFFFFFFFFFFFFFFFFFE1
S1130B20FFFFFFFFFFFFFFFFFFFFFFFFFFFFFFFFD1
S1130B30FFFFFC0000000000000CFFFFFFFFFFFFB1
S1130B40FFFFFFFFFFFFFFFFFFFFFFFFFFFFFFFFB1
S1130B50FFFFFFFFFFFFFFFFFFFFFFFFFFFFFFFFA1
S1130B60FFFFFFFFFFFFFFFBE000000065474F3F73
S1130B70FFEF3E18000000000000001C7FFFFFFF95
S1130B80FFFFFFFFFFFFFFFFFFFFFFFFFFFFFFFF71
S1130B90FFFFFFFFFFFFFFFFFFFFFFFFFFFFFFFF61
S1130BA0FFFFFFFFFFFFFFFFFFFFFFFFFFFFFFFF51
S1130BB0FFFFFFF0C0803E04C0F0FBDF9F9F9F9FBC
S1130BC09F9FDFCB8B838383C7E7CFCFDFFFFFFFFD
S1130BD0FFFFFFFFFFEFE7E3E1E1F0F9F3E3E3E316
S1130BE0E3F3F3F3F3F3F3F3F3FEFEFEF8C0E020D4
S1130BF0071F1C787030000000000000F0FFFFFFAA
S1130C00FFFFFFFFFFFFFFFFFFFFFFFFFFFFFFFFF0
S1130C10FFFFFFFFFFFFFFFFFFFFFFFFFFFFFFFFE0
S1130C20FFFFFFFFFFFFFFFFFFFFFFFFFFFFFFFFD0
S1130C30FFFFFFFFFFFFFEFEFFFFFFFFFFFFFFFFC2
S1130C40FFFFFFFFFFFFFFFFFFFFFFFFFFFFFFFFB0
S1130C50FFFFFFFFFFFFFFFFFFFF7F3FFFFFFFFFE0
S1130C60FFFFFFFFFFFFFFFFFFFFFFFFFFFF7F18F7
S1130C700000000020202010000080F8F8FFFFFF93
S1130C80FFFFFFFFFFFFFFFFFFFFFFFFFFFFFFFF70
S1130C90FFFFFFFFFFFFFFFFFFFFFFFFFFFFFFFF60
S1130CA0FFFFFFFFFFFFFFFFFFFFFFFFFFFFFFFF50
S1130CB0FFFFFFFFFFFFFFFFFFFFFFFFCF9F9FFF30
S1130CC0FFFFFFFFFFFFFF7FFFFFFFFFF3F3F3E7EC
S1130CD0E7E7E7E7E3F3F37179797C7E7F3F3F3F12
S1130CE03F3FBFFFFBFFFFFFFFFFFFE7FDFDFC00F2
S1130CF000E0FCFCFCF8F8FCFEFFFFFFFFFFFFFF39
S1130D00FFFFFFFFFFFFFFFFFFFFFFFFFFFFFFFFEF
S1130D10FFFFFFFFFFFFFFFFFFFFFFFFFFFFFFFFDF
S1130D20FFFFFFFFFFFFFFFFFFFFFFFFFFFFFFFFCF
S1130D30FFFFFFFFFFFFFFFFFFFFFFFFFFFFFFFFBF
S1130D40FFFFFFFFFFFFFFFFFEFEFCFCFCFCFEFEBF
S1130D50FEFFFFFFFFFFFFFFFFFFFFFDFFFEFEFEA5
S1130D60FFFFFFFFFFFFFFFFFFFFFF7F1F03008069
S1130D70C3C1C0811F7F7F7F7FFFFFFFFFFFFFFF96
S1130D80FFFFFFFFFFFFFFFFFFFFFFFFFFFFFFFF6F
S1130D90FFFFFFFFFFFFFFFFFFFFFFFFFFFFFFFF5F
S1130DA0FFFFFFFFFFFFFFFFFFFFFFFFFFFFFFFF4F
S1130DB0FFFFFFFFFFFFFFFFFFFFFFFFFFFFFFFF3F
S1130DC0FFFFFFFFFFFFFFFFFFFFFFFFFF7F7F7FAF
S1130DD07F7FFFFFFFFFFFFFFFFFFFFF7F7F7F3F5F
S1130DE03F3F1F1F0F070383C1E0F0F8FCFEFFFF26
S1130DF0FFFFFFFFFEFCF0E0C080F9FFFFFFFFFFF5
S1130E00FFFFFFFFFFFFFFFFFFFFFFFFFFFFFFFFEE
S1130E10FFFFFFFFFFFF00000000000000000000D4
S1130E2000000000000000000000000000000000BE
S1130E3000000000000000000000000000000000AE
S1130E40000000000000000000000000000000009E
S1130E50000000000000000000000000000000008E
S1130E60000000000000000000000000000000007E
S1130E70000000000000000000000000000000006E
S1130E80000000000000000000000000000000005E
S1130E9000000000008000000000000000000000CE
S1130EA0000000000000000000000000000000003E
S1130EB0000000000000000000000000000000002E
S1130EC0000000000000000000000000000000001E
S1130ED0000000000000000000000000000000000E
S1130EE000000000000000000000000000000000FE
S1130EF000000000000000000000000000000000EE
S1130F0000000000000000000000000000000000DD
S1130F1000000000010300000000000000000000C9
S1130F2000000000000000000000000000000000BD
S1130F3000000000000000000000000000000000AD
S1130F40000000000000000000000000000000009D
S1130F50008080000000000080800000404040804D
S1130F60808000000000000000000000000000007D
S1130F7000000000000000000000008080A060402D
S1130F80000000000000000000000000000000005D
S1130F90000000000000000000000000000000004D
S1130FA0000000000000000000000000000000003D
S1130FB000387CFCF8F8F8F8F0F0F0F0F0F0F0F01D
S1130FC0F0F0F8F8F8F8FCFCFCFEFEFEFE7E7F3F35
S1130FD03F3F9F9FDFEFFFFFFFF7F7F770F0707061
S1130FE0F1E1E1E1E7E3E3E6C6C0C0800000000010
S1130FF000000000000000F0F07C7CFFFFFFFFFF1A
S1131000FFFEFC780000000000000000000000006B
S113101000000000000000000000000000000000CC
S113102000000000000000000000000000000000BC
S11310300000000103030303030303030707070777
S1131040272F0F0F0F1F7FFFFFFFFDFCFCFCF8F89D
S1131050F8F8F0F0F0E0F0F3F3FFFFFEFEFEFEFE22
S1131060FFFFFFFFFFFFFFFFFFFFFFFF3D0000004B
S11310700000000000000000070F0F0F0F0F0F0704
S11310800301000000000000000000000000000058
S1131090000000000000000000000000000000004C
S11310A0000000000000000000000000000000003C
S11310B0000000000000000000061C1E3E3E3C7EB6
S11310C07E7EFEFEFCE0809F9FBFBFBFBFBF9F9F91
S11310D09FFFFFFFFFF3F3FFFFFFFFFFFFFFFFFF94
S11310E0FFFFFFFFFFFFFFFFFFFFF7FCFEFFFFFF18
S11310F0FFFFFFFEFEFEF8F0F0F8F8F8F8FCFCF84D
S1131100F0C0000000000000181000000000808003
S113111000000000000000000000000000000000CB
S113112000000000000000000000000000000000BB
S113113000000000000000000000000000000000AB
S1131140000000000001010307070F0F0B0301015A
S11311500505070E0E0F0707878787C3E3E3F3F13F
S1131160F8FFFFFFFFFFFFFFFFFFFFFFFF7F3F7F52
S11311707F3F1F1F8FCFC7F7FFFFFFFFFFFFFFFF5B
S1131180FFFFFFFEFCF0E0C0060EFFFFFFFFFFFFC6
S1131190FFFFFFFFFFFF80000000000000000000D1
S11311A0000000000000000000000000000000003B
S11311B0000000000000000000000000000000002B
S11311C0000000000000000000000000000000001B
S11311D0000000000001030307070707070F0F0FB4
S11311E007070707070707070303313178787C7C73
S11311F07EFEFFFFFFFFFFFFFFFFFFFFFFFFFFFF7D
S1131200FFFFFFFFFFFFFFFFFEFFFFFFFFFFFFFFEB
S1131210DFFFFFFFFFFFFFFFFFFFFFFFFF7F7FFFFA
S1131220FFFFFFFFFFFFFFFFFFFFFFFFFFFFFFFFCA
S1131230FFFFFFFFFFFFFFFFFFFFFF7F7F7F7F7F3A
S11312407F7F7F7F7F7F7F3F3F3F3F3F3F1F1F1F4A
S11312501F1F1F1F1F0F0F0F0F0F0F0F0F07070762
S11312600707030303030301010101010101010154
S11312700101010100000000000000010101010161
S113128001030303070F0F1F3F3F0F0767E707071C
S11312901FFFFFFFFFFFFFFFFFFFFFFFFFC08001F6
S11312A007070F1FC71F3F3F7F3F1F1F0F0F0F076A
S11312B00703030101010100000000000000000019
S11312C0000000000000000000000000000000001A
S11312D0000000000000000000000000000000000A
S11312E000000000000000000000000000000000FA
S11312F000000000000000000000000000000000EA
S113130000000000000000000000000000001CFCC1
S1131310FBFBFBFFFFFFFFFFFFFFFFFFFFFFFFFEE6
S1131320FC3C0000800210400000000000000000AF
S113133000000000000000000000000000000000A9
S11313400000000000000000000000000000000099
S11313500000000000000000000000000000000089
S11313600000000000000000000000000000000079
S11313700000000000000000000000000000000069
S11313800000000000000000000000000000000059
S1131390FFFFFFFFFFFFFF1F1F1F1F1F0F0F07038D
S11313A00000000003030000000000000000010032
S11313B000000000080000204000000000000000C1
S11313C00000000000000000000000000000000019
S11313D00000000000000000000000000000000009
S11313E000000000000000000000000000000000F9
S11313F000000000000000000000000000000000E9
S1131400000000000000000000000080C0E2F8FEC0
S1131410FFFFFFFFFFFFFFFCFAF9F0E0C080800050
S113142000000000000000000000000000000000B8
S11314300000000000400000000000010010200037
S11314400000000000000000000000000000000098
S11314500000000000000000000000000000000088
S11314600000000000000000000000000000000078
S11314700000000000000000808000000000000068
S1131480000000000002000000FEFFFFFFFFFFFF5E
S1131490FFFFFFFFFFFFFFFFFFFFFFFFFFFFFFFF58
S11314A0FEFEFCFCFCFEFCFCFCF8F8FCFCFCFCFC7A
S11314B0FCFCFCF9F8FCFCFCFCFEFEFEFEFCFCFC67
S11314C0F204200000000000000000E0F8F8F8FC3E
S11314D0FCFCFCFCFCF8F8FCFCFCFCFCF8F8FCFC58
S11314E0FCFCF8F8F8FCFCFCFCFCFCF8FEFEFEFE40
S11314F0FEFEFEFFFFFFFFFFFFFF80000000000075
S113150000000000000000000083F7FFFFFFFFFF62
S1131510FFFFFFFFFFFFFFFFFFFFFFFFFFFFFFFFD7
S1131520FFFFFFFFFFFFFFFFFFFFFFFFFFFFFFFFC7
S1131530FFFFFFFFFFFFFFFFFFFFFFFFFFFFFFFFB7
S1131540FF000000980000000000FCFFFFFFFFFF09
S1131550FFFFFFFFFFFFFFFFFFFFFFFFFFFFFFFF97
S1131560FFFFFFFFFFFFFFFFFFFFFFFFFFFFFFFF87
S1131570FFFFFFFFFFFFFFFFFFFF3F0000000088AA
S1131580C0E4F800000000E0FCFFFFFFFFFFFFFFE6
S1131590FFFFFFFFFFFFFFFFFFFFFFFFFFFFFFFF57
S11315A0FFFFFFFFFFFFFFFFFFFFFFFFFFFFFFFF47
S11315B0FFFFFFFFFFFFFFFFFFFFFFFFFFFFFFF73F
S11315C0F3F0D0C0C4E8C0C8C0F8FFFFFFFFFFFFBE
S11315D0FFFFFFFFFFFFFFFFFFFFFFFFFFFFFFFF17
S11315E0FFFFFFFFFFFFFFFFFFFFFFFFFFFFFFFF07
S11315F0FFFFFFFFFFFFFFFF9F9190B08080F8FF88
S1131600FFF7E0E0F0F0FEFFFFFFFFFFFFFFFFFF4B
S1131610FFFFFFFFFFFF00000000000000000006C6
S11316205F5F060000000007070007070000147F43
S11316307F147F7F1400242E6B6B3A1200004666E1
S113164030180C666200307A4F5D377A4800040720
S1131650030000000000001C3E6341000000004144
S1131660633E1C000000082A3E1C1C3E2A08080891
S11316703E3E0808000000A0E060000000000808EA
S113168008080808000000006060000000006030E6
S1131690180C060301003E7F594D7F3E0000424274
S11316A07F7F40400000627359496F6600002263E7
S11316B049497F360000181C16137F7F10002767E6
S11316C045457D3900003C7E4B4979300000036379
S11316D071190F070000367F49497F360000064F15
S11316E049693F1E000000006C6C0000000000A06F
S11316F0EC6C00000000081C366341000000141468
S1131700141414140000004163361C080000020382
S113171051590F0600003E7F415D5D1F1E007C7E17
S113172013137E7C0000417F7F49497F36001C3EB5
S1131730634141632200417F7F41637F1C00417FFD
S11317407F495D416300417F7F491D0103001C3EC9
S11317506341517372007F7F08087F7F000000415E
S11317607F7F41000000307040417F3F0100417F96
S11317707F081C776300417F7F41406070007F7F5A
S1131780060C067F7F007F7F060C187F7F001C3EBF
S11317906341633E1C00417F7F49090F06001E3FE1
S11317A021717F5E0000417F7F19396F46002667F3
S11317B04D597B32000003417F7F410300007F7F4E
S11317C040407F7F00001F3F60603F1F00007F7F1D
S11317D03018307F7F0063771C081C776300074F45
S11317E078784F0700006773594D47637100007F95
S11317F07F41410000000103060C183060000041E5
S1131800417F7F000000080C0603060C080080805E
S11318108080808080800000030704000000207422
S113182054543C784000413F7F44447C3800387C29
S113183044446C280000307848493F7F4000387C9D
S113184054545C180000487E7F490302000098BC91
S1131850A4A4F87C0400417F7F08047C7800004441
S11318607D7D4000000040C484FD7D000000417F78
S11318707F10386C440000417F7F400000007C7C76
S11318800C180C7C78007C7C04047C780000387C88
S113189044447C38000084FCF8A4243C1800183C20
S11318A024A4F8FC8400447C78441C180000485CA0
S11318B054547424000000043E7F442400003C7C03
S11318C040403C7C40001C3C60603C1C00003C7C74
S11318D06030607C3C00446C3810386C44009CBC24
S11318E0A0A0FC7C00004C64745C4C6400000808FC
S11318F03E7741410000000000777700000041413D
S1131900773E0808000002030103020301001124CA
S11319101FBECFEFD4E0DEBFCDBF12E0A0E0B1E048
S1131920E8E3FEE302C005900D92A833B107D9F7AE
S113193023E0A8E3B2E001C01D92A33CB207E1F7A3
S11319400E946C110C941A1F0C94000085B78860D7
S113195085BF85B7846085BF86B7806486BFC39A18
S1131960BB980895E0910601F09107018D5F808393
S1131970B399FECFE0910601F091070180810895AB
S11319800E94951240E060EE8FE00E946F1208956D
S11319908CE20E942312837029F48CE20E942312A9
S11319A08370D9F30895FF920F931F93CF93DF931E
S11319B01F92CDB7DEB78C010E94C80C8CE20E9446
S11319C02312898381E60E94231290E0F801918317
S11319D0808385E60E942312F8018283882371F0B4
S11319E0F12C86E68F0D0E942312F801EF0DF11DF4
S11319F08383F394F8018281F81698F340E061E060
S1131A008CE20E946F120F90DF91CF911F910F9182
S1131A10FF900895CF93DF931F92CDB7DEB780E395
S1131A200E9423128983898183FF07C080E30E9477
S1131A3023128983898183FDF9CF0F90DF91CF91A0
S1131A4008951F93CF93DF93EC010E940A0D60E089
S1131A5082E30E943712688181E30E9437126A810F
S1131A6085E30E9437128A81882369F010E0FE0121
S1131A70E10FF11D638186E3810F0E9437121F5F1E
S1131A808A811817A0F381E80E944D12DF91CF914B
S1131A901F910895E199FECF9FBB8EBB6DBBE29A67
S1131AA0E19A0895E199FECF9FBB8EBBE09A8DB376
S1131AB008951F93CF93DF93EC01172F0E944A0DD3
S1131AC0612FCE01C2960E944A0DDF91CF911F91E2
S1131AD0089560E070E080E090E00E94590D60E0BD
S1131AE070E081E090E00E94590D60E070E082E0D7
S1131AF090E00E94590D60E070E083E090E00E9465
S1131B00590D60E070E084E090E00E94590D60E0BF
S1131B1070E082E390E00E94590D60E070E083E39E
S1131B2090E00E94590D60E070E084E390E00E9430
S1131B30590D60E070E085E390E00E94590D60E08B
S1131B4070E086E390E00E94590D08950F931F936F
S1131B50CF93DF93EC01C2960E94520D082F10E040
S1131B60102F0027CE010E94520D9801282BC90185
S1131B70DF91CF911F910F910895CF93DF93CDB74C
S1131B80DEB72B970FB6F894DEBF0FBECDBF6C83C4
S1131B907D838E839F8382E090E09A83898384E0AF
S1131BA08B83CE0101960E94210D2B960FB6F894DB
S1131BB0DEBF0FBECDBFDF91CF910895EF92FF92AC
S1131BC00F931F93CF93DF93CDB7DEB72B970FB649
S1131BD0F894DEBF0FBECDBFE982FA820B831C836B
S1131BE0E22F2D833E834F83588769877A878B87BB
S1131BF0212F30E03E2BC901992324F4882799270B
S1131C00821B930B0E9480178FEF9FE20197F1F7DD
S1131C1000C000002B960FB6F894DEBF0FBECDBFF8
S1131C20DF91CF911F910F91FF90EF900895AF92A4
S1131C30BF92CF92DF92EF92FF920F931F93CF93B5
S1131C40DF93CDB7DEB765970FB6F894DEBF0FBE4E
S1131C50CDBFE12EF12CF22A0E94D61666E180E077
S1131C600E9465168CE091E00E9474166BE082E09D
S1131C700E94651687E191E00E9474166CE283E08D
S1131C800E946516FF921F9385E291E09F938F93C4
S1131C908E010F5F1F4F1F930F930E94FF1AC801FD
S1131CA00E9474160F900F900F900F900F900F904A
S1131CB000E010E0C8010E94A60D8E159F0524F5D2
S1131CC004301105A4F46894AA24A2F8B12C650187
S1131CD081E0C81AD108C6010E94A60DBC01C50145
S1131CE00E94590DC016D10611F05601F0CFB7016C
S1131CF0C8010E94590D6AE084E00E94651688E2DA
S1131D0091E00E94741605C00F5F1F4F0530110546
S1131D1089F665960FB6F894DEBF0FBECDBFDF918E
S1131D20CF911F910F91FF90EF90DF90CF90BF90D4
S1131D30AF9008950F931F93CF93DF930E94D6160D
S1131D4087E391E00E94741680E090E0EC01219614
S1131D500E94A60D8C016AE08C2F0E946516CE01AC
S1131D600E94A91683E491E00E947416C8010E949F
S1131D70A916C530D10511F0CE01E8CFDF91CF917E
S1131D801F910F9108957F928F929F92AF92BF926D
S1131D90CF92DF92EF92FF920F931F93CF93DF9333
S1131DA00E94D6160E9464190E945319C0E060E094
S1131DB08C2F0E9465160E940A1663E08C2F0E94E5
S1131DC065160E940A16CF5FC83089F764E185E082
S1131DD00E9465160E946C180E9453196894CC24C2
S1131DE0C1F8D12C0F2EF7E78F2EF02D912C0F2E4A
S1131DF0F8E7AF2EF02DB12C0F2EF8E77F2EF02D43
S1131E0076C1219721E0E21AF1086C2F85E00E9447
S1131E1065160E94B91860E085E00E9465160E946C
S1131E200A1660E086E00E9465160E940A1663E0C6
S1131E3085E00E9465160E940A1663E086E00E940F
S1131E4065160E940A168E01C332D10569F464E155
S1131E5085E00E9465160E943A1A64E184E00E94BB
S1131E6065160E946C1820C00232110569F464E101
S1131E7084E00E9465160E943A1A64E183E00E949D
S1131E8065160E946C1825C00830110569F464E1D8
S1131E9083E00E9465160E943A1A64E184E00E947D
S1131EA065160E946C1815C00730110591F464E1A1
S1131EB084E00E9465160E943A1A64E185E00E945B
S1131EC065160E946C1889E991E50197F1F700C045
S1131ED098CF89E991E50197F1F700C0FF200CF054
S1131EE090CFCA2DDB2D6C2F85E00E9465160E94D1
S1131EF0061960E085E00E9465160E940A1660E0FB
S1131F0086E00E9465160E940A1663E085E00E943E
S1131F1065160E940A1663E086E00E9465160E9418
S1131F200A16C832D10569F464E185E00E94651699
S1131F300E943A1A64E184E00E9465160E946C18BB
S1131F4026C0C732D10569F464E184E00E946516B5
S1131F500E943A1A64E183E00E9465160E946C189C
S1131F602BC0C531D10599F464E183E00E94651664
S1131F700E943A1A64E184E00E9465160E946C187B
S1131F8089E991E50197F1F700C02197ACCFC431FD
S1131F90D10591F464E184E00E9465160E943A1A26
S1131FA064E185E00E9465160E946C1889E991E558
S1131FB00197F1F700C0A0C089E991E50197F1F715
S1131FC000C02197C331D10509F08DCF95C06C2F86
S1131FD085E00E9465160E94061960E085E00E9473
S1131FE065160E940A1660E086E00E9465160E944B
S1131FF00A1663E085E00E9465160E940A1663E0F3
S113200086E00E9465160E940A1689E991E5019707
S1132010F1F700C0C150CC33D1F69FEF2FE787E032
S1132020915020408040E1F700C0000060E484E06B
S11320300E9465168FEF0E94041689EF0E94041611
S113204080EA0E94041680EA0E94041689EF0E9426
S113205004168FEF0E9404168FEF0E9404168FEF70
S11320600E9404169FEF2FEF8EE091502040804095
S1132070E1F700C0000060E484E00E9465160E945D
S113208015169FEF2FEF82E0915020408040E1F73A
S113209000C000C06C2F85E00E9465160E940619DE
S11320A060E085E00E9465160E940A1660E086E002
S11320B00E9465160E940A1663E085E00E94651678
S11320C00E940A1663E086E00E9465160E940A16C2
S11320D08CEC9CE10197F1F700C00000CF5FC038A1
S11320E0C9F691E0C91AD108C114D10439F0E82C19
S11320F0F92CCA2DDB2D89CEC72D69CFDF91CF9165
S11321001F910F91FF90EF90DF90CF90BF90AF9011
S11321109F908F907F900895CF9381E00E94B20C9E
S1132120C82F82E00E94B20C282F6C2F70E0822FFF
S113213090E0CF9108950F931F93CF9382E00E9474
S1132140B20CC82F81E00E94B20C482F6091B203F8
S11321507091B303E091B403F091B503AC2FB0E0F8
S1132160A61BB70BC4E6CA9FC001CB9F900D1124D8
S11321700E94861A8B0150E04E1B5F0BC49FC00166
S1132180C59F900D1124BF010E94861A9B01C901AD
S1132190B801CF911F910F910895CF9383E00E94CE
S11321A0B20CC82F84E00E94B20C282F622F70E07A
S11321B08C2F90E0CF910895CF93DF93CDB7DEB706
S11321C02B970FB6F894DEBF0FBECDBFC29ABA9854
S11321D00E948C106093B2037093B3038093B40392
S11321E09093B50381E090E09A83898382E08B83A6
S11321F06C838091B4038D83CE0101960E94210DDE
S11322002B960FB6F894DEBF0FBECDBFDF91CF91F2
S113221008950E949B1063337105B4F46E3CEFEF94
S11322207E07A4F08E3C2FEF920794F08333910540
S11322308CF49B012C5F3F4F2930310568F40496E0
S1132240099760F085E0089582E0089583E0089599
S113225081E0089580E0089585E0089584E008957C
S113226086B38170089586B386958170089586B388
S113227082FB882780F991E089270895CF93DF9323
S1132280CDB7DEB72B970FB6F894DEBF0FBECDBF28
S11322901A82198297E09B838C8382E00E94B20C9D
S11322A08D8381E00E94B20C8E830E94CD106F83D7
S11322B088870E94301189870E9433118A87CE0152
S11322C001960E94210D2B960FB6F894DEBF0FBE27
S11322D0CDBFDF91CF910895CF93DF93CDB7DEB714
S11322E060970FB6F894DEBF0FBECDBF6894DD24AF
S11322F0D1F881E0D81609F45AC0D81638F192E022
S1132300D912F7CF85B7806885BF80B7806280BF58
S113231085B7806485BF86B7826086BF8E9A8F9AA0
S1132320319ABE98BF9887B387BB0E94781A0E94DF
S1132330A60C0E94FA160E94C00C0E94DC100E9497
S11323409A120E94A914188AD12CD3CF0E94091181
S1132350182F80E090EF0197F1F70E94091181177F
S113236041F280E090EF0197F1F70E940911182FD4
S11323700E940E15123009F0BCCFBE01605F7F4F82
S1132380CE010C960E9472158889813009F0B1CF74
S11323906C857D858E859F850E94BD0D0E945F158D
S11323A00E94D6160E94F719DD24D394A2CF0E946E
S11323B009110E943E11CE0101960E94D30C89811D
S11323C09A81039769F4E980FA800B811C812D813D
S11323D03E814F81588569857A858B850E94DE0D03
S11323E089819A81049709F084CFE980FA800B816E
S11323F01C812D813E814F81588569857A858B8525
S11324000E94170E61E086E00E94651686E491E062
S11324100E9474166AE087E00E94651687E591E0E1
S11324200E9474160E943311811108C00E94301159
S1132430811104C00E9437118823A1F30E945F1503
S1132440188AD12C56CFCF93C82F80E00E946A1AE5
S113245083E00E94591A8C2F0E94591A0E945D1A17
S1132460C82F81E00E946A1A8C2FCF910895CF93D0
S1132470DF93D82FC62F80E00E946A1A82E00E9460
S1132480591A8D2F0E94591A8C2F0E94591A81E0D3
S11324900E946A1ADF91CF910895CF93C82F80E0EC
S11324A00E946A1A8FE78C0F823020F0C43811F032
S11324B0C73821F48C2F0E94591A0CC00E94F719B6
S11324C02AE230E58EEF90E0215030408040904089
S11324D0D9F7000081E00E946A1ACF9108951F93F2
S11324E0CF93DF93182FD62FC42F80E00E946A1A4F
S11324F085E00E94591A812F0E94591A8D2F0E943B
S1132500591A8C2F0E94591A81E00E946A1ADF918D
S1132510CF911F91089580E00E946A1A80EC0E9476
S1132520591A81E00E946A1A08950E94621A0E9450
S11325308B1208956F927F928F929F92AF92BF9267
S1132540CF92DF92EF92FF920F931F93CF93DF937B
S11325500F2EF0EA6F2EF3E07F2EF02D85E691E04A
S1132560D3018D939C931092A3031092A203CEE8FF
S1132570D3E0D093A703C093A6038CE793E0909392
S1132580A9038093A803EAE6F3E0F093AB03E09396
S1132590AA0340E153E05093AD034093AC0324E01D
S11325A02093B00328E22093B1032EE631E039836F
S11325B02883709291036092900306E413E01093D1
S11325C095030093940364E373E07093970360931B
S11325D0960322E233E030939903209398030F2E5D
S11325E0F3E09F2EF02D90929E030F2EF9E2FF2E22
S11325F0F02DF0929F030F2EF7E7EF2EF1E0FF2E60
S1132600F02DD801ED92FC92D0934903C093480376
S1132610109256031DE2109357030CE711E0DB01FF
S11326200D931C93D0933703C09336031092440345
S11326306EE26093450363E871E0D9016D937C9386
S1132640D0932503C0932403109232032FE22093E6
S1132650330328E831E0DC012D933C9370927F032F
S113266060927E0310928C038AE280938D0384E946
S113267091E09183808370926D0360926C032EEFDE
S113268032E03093710320937003C6EBD2E0D09311
S11326907303C093720384EA92E09093750380936A
S11326A0740308E312E0109377030093760368EC55
S11326B072E070937903609378030F2EF5E0FF2E98
S11326C0F02DF0927A030F2EFBE2FF2EF02DF09204
S11326D07B030F2EFCE9EF2EF1E0FF2EF02DD90144
S11326E0ED92FC92F0930103E09300030F2EFCEEB5
S11326F0CF2EF2E0DF2EF02DD0920503C09204031A
S11327000F2EFAEDEF2EF2E0FF2EF02DF0920703DC
S1132710E09206036894882481F880920E030F2EB9
S1132720F1E3BF2EF02DB0920F030F2EFBEAAF2E74
S1132730F1E0BF2EF02DD601AD92BC923093EF02A2
S11327402093EE021092FC020F2EF2E3DF2EF02D06
S1132750D092FD020F2EF1EBCF2EF1E0DF2EF02D03
S1132760D701CD92DC923093DD022093DC021092EB
S1132770EA0223E32093EB022AEB31E03983288336
S1132780F093B902E093B8020F2EF0E8CF2EF2E0F6
S1132790DF2EF02DD092BD02C092BC020F2EF2E9C2
S11327A0EF2EF2E0FF2EF02DF092BF02E092BE0277
S11327B02EE632E03093C1022093C0029092C6020A
S11327C00F2EF5E3BF2EF02DB092C7020F2EF8ECBA
S11327D0AF2EF1E0BF2EF02DD601AD92BC92D09376
S11327E08302C0938202109290020F2EF8E3DF2E30
S11327F0F02DD09291020F2EF9EDCF2EF1E0DF2EC5
S1132800F02DD701CD92DC92D0939502C09394021F
S11328101092A2020F2EF7E3FF2EF02DF092A302E6
S11328200F2EF2EDEF2EF1E0FF2EF02DD901ED92F7
S1132830FC92D0937102C093700210927E0229E33D
S113284020937F022EED31E0DC012D933C93F09335
S1132850A702E093A6022CE532E03093AB0220936A
S1132860AA02CAE4D2E0D093AD02C093AC02809233
S1132870B4020F2EF6E3FF2EF02DF092B5020F2EC8
S1132880FCEEEF2EF1E0FF2EF02DD901ED92FC923B
S113289090935F0280935E0210926C022AE320936D
S11328A06D0220EF31E03983288390934D028093A9
S11328B04C0210925A028BE380935B0289EF91E001
S11328C0D8018D939C93F0933B02E0933A021092CB
S11328D048028CE38093490285E092E0DB018D930A
S11328E09C93F093CB02E093CA021092D80284E343
S11328F08093D9028BE092E0FA01918380837092F5
S11329001303609212031092200380E38093210347
S113291082E1F301A8E5B3E001900D928A95E1F715
S113292060E081E00E94651681E08093B60384E252
S11329300E942116DF91CF911F910F91FF90EF908C
S1132940DF90CF90BF90AF909F908F907F906F90CB
S11329500895EF92FF920F931F93CF93DF936AE052
S113296080E00E94651683E192E00E9474168091D3
S11329705803909159030E94741683E192E00E94D7
S113298074168091680390E001960297F4F00EE5C6
S113299013E0C1E0D0E00F2EF8E6EF2EF3E0FF2EB7
S11329A0F02D6AE08C2F0E946516D801ED91FD91FF
S11329B08D01808191810E9474162196F701808196
S11329C090E00196C817D90764F3DF91CF911F9166
S11329D00F91FF90EF90089560E00E94651684E2E5
S11329E00E942116089560E00E9465160E940A164E
S11329F00895E0915A03F0915B0382E1A8E5B3E006
S1132A0001900D928A95E1F70E94D6160E94A914AE
S1132A1081E08093B6030E94EC14089581110FC0E5
S1132A208091B603823008F449C00E94F314809167
S1132A30B60381508093B6030E94EC14089581304C
S1132A4081F48091B603909168038917B8F50E94C8
S1132A50F3148091B6038F5F8093B6030E94EC1445
S1132A600895823009F5E091B603809168038E17CA
S1132A7028F1EE2319F1F0E0EE0FFF1FE45AFC4FAA
S1132A800190F081E02D82E1A8E5B3E001900D9280
S1132A908A95E1F70E94D6160E94A91481E08093DA
S1132AA0B6030E94EC140895833041F480915A03D4
S1132AB090915B03892B11F00E94F914089582E12F
S1132AC0E0EAF3E0A8E5B3E001900D928A95E1F71E
S1132AD00E94D6160E94A91481E08093B6030E9436
S1132AE0EC140895CF93DF93CDB7DEB72B970FB6D1
S1132AF0F894DEBF0FBECDBFDB0120916803211126
S1132B007AC04091690350E04A525109433151055A
S1132B1008F071C0485C5F4FFA010C949A1A0E9445
S1132B209A0E69C0FC01118281E08C9364C021E09B
S1132B30FC0121832C935FC022E0FC01218381E00E
S1132B408C9359C00E94690D0E945F1554C086E0A1
S1132B5090E09A83898381E08B831C82CE01019665
S1132B600E94210D0E94C30E0E945F1544C00E9462
S1132B70D61685E090E09A83898381E08B831C825A
S1132B80CE0101960E94210D0E94CA1934C021E091
S1132B90FC0120830E94F9140E94F9142CC0FC014A
S1132BA010820E94F9140E94F91425C0FC011282BB
S1132BB00E94F9140E94F9141EC021E0FC01228332
S1132BC00E94F9140E94F91416C022E0FC01228329
S1132BD00E94F9140E94F9140EC0FC0113820E9491
S1132BE0F9140E94F91407C021E0FC0123830E9418
S1132BF0F9140E94F9142B960FB6F894DEBF0FBE99
S1132C00CDBFDF91CF910895E0910801F0910901C2
S1132C108083089588E090E0E0910801F091090133
S1132C20108201970097C1F7089588E090E02FEF94
S1132C30E0910801F0910901208301970097C1F701
S1132C40089528E0829FC0011124FC01EA5EFA4E37
S1132C5020E030E08491A0910801B09109018C93A7
S1132C608091B7038F5F8093B7032F5F3F4F3196F7
S1132C702830310579F708958093B8038055E091A1
S1132C800A01F0910B01808308958093B70380318A
S1132C9060F4E0910A01F0910B018083E0910A0154
S1132CA0F0910B0180E180830895982F9F70E0914B
S1132CB00A01F0910B01908382958F70805FE091FF
S1132CC00A01F0910B0180830895CF93C82F862FBA
S1132CD00E9445168C2F0E943C16CF91089560E007
S1132CE080E00E9465160895EF92FF920F931F9360
S1132CF0CF93DF938C017C01C0E0D0E019C08091B8
S1132D00B7038A3778F08091B8038F5F0E943C162E
S1132D1080E00E9445168091B803883019F40E941F
S1132D206F1610C0F70181917F010E942116219630
S1132D30F80101900020E9F73197E01BF10BCE1761
S1132D40DF07E8F2DF91CF911F910F91FF90EF9091
S1132D5008950F931F93CF93DF93CDB7DEB72A97D0
S1132D600FB6F894DEBF0FBECDBF9F938F9385E25D
S1132D7091E09F938F938E010F5F1F4F1F930F93CB
S1132D800E94FF1AC8010E9474160F900F900F90B2
S1132D900F900F900F902A960FB6F894DEBF0FBED7
S1132DA0CDBFDF91CF911F910F9108951F93CF93C2
S1132DB0DF9360E080E00E946516C0E010E8D0E098
S1132DC08C2F0E943C16212F3D2FE0910801F09199
S1132DD0090110822150310921153105B1F7CF5F66
S1132DE0C83071F760E080E00E946516DF91CF91F2
S1132DF01F910895E0910A01F0910B018EEA8083FE
S1132E00E0910A01F0910B0181EA8083E0910A01CB
S1132E10F0910B018AED8083E0910A01F0910B019E
S1132E2082E18083E0910A01F0910B0188EC8083B8
S1132E30E0910A01F0910B0188EA8083E0910A0194
S1132E40F0910B018FE38083E0910A01F0910B0173
S1132E5085ED8083E0910A01F0910B0180E8808385
S1132E60E0910A01F0910B0181E88083E0910A016D
S1132E70F0910B0180E58083E0910A01F0910B0150
S1132E8089ED8083E0910A01F0910B0181E2808356
S1132E90E0910A01F0910B0180E28083E0910A0144
S1132EA0F0910B0182E08083E0910A01F0910B0123
S1132EB08BED8083E0910A01F0910B0180E3808324
S1132EC0E0910A01F0910B018DEA8083E0910A01FF
S1132ED0F0910B011082E0910A01F0910B0184EA58
S1132EE08083E0910A01F0910B0186EA8083E091EE
S1132EF00A01F0910B018FEA80830E94D61608958F
S1132F00CF93DF93EC016CE282E00E94651685E1C9
S1132F1092E00E9474166CE283E00E9465160E949F
S1132F200A160E940A160E940A160E940A160E9495
S1132F300A166CE283E00E946516CE010E94A9166F
S1132F40DF91CF9108950F931F93CF93DF930E9446
S1132F50D61680E00E944516C0E8D0E000E010E0FC
S1132F6026C0F901E80FF91FE491A0910801B0917E
S1132F700901EC9301968830910599F7485F5F4FFA
S1132F804C175D0731F0802F912F9A012A5E354F3F
S1132F90E8CF8091B8038F5F0E943C1680E00E94C6
S1132FA04516C058DF4FC03884E0D80721F0AE0181
S1132FB040585109E8CF0E946F168DE192E00E94BB
S1132FC07416DF91CF911F910F9108950F931F9362
S1132FD0CF93DF930E94D61680E00E944516C0E886
S1132FE0D0E000E010E026C0F901E80FF91FE491F9
S1132FF0A0910801B0910901EC93019688309105E4
S113300099F7485F5F4F4C175D0731F0802F912F80
S11330109A012A5E314FE8CF8091B8038F5F0E94F6
S11330203C1680E00E944516C058DF4FC03884E04B
S1133030D80721F0AE0140585109E8CF0E946F161D
S113304083E292E00E947416DF91CF911F910F9159
S113305008950F931F93CF93DF930E94D61680E0B9
S11330600E944516C0E8D0E000E010E026C0F90157
S1133070E80FF91FE491A0910801B0910901EC93C4
S113308001968830910599F7485F5F4F4C175D07AB
S113309031F0802F912F9A012A5E3D4FE8CF809125
S11330A0B8038F5F0E943C1680E00E944516C0580A
S11330B0DF4FC03884E0D80721F0AE0140585109F1
S11330C0E8CF0E946F168AE292E00E947416DF91A4
S11330D0CF911F910F910895CF92DF92EF92FF92BB
S11330E00F931F93CF93DF93C090B703C0E0D0E05A
S11330F0D12CE12C0EE911E0F12C1CC09491A0918B
S11331000801B09109019C938F5F31968830B1F723
S113311005C0F801EC0FFD1F8F2DF0CF8091B8038F
S11331208F5F0E943C168C2D0E9445166096C0321B
S1133130D105A1F02D2D3E2DCE018A569E4FFC01C6
S1133140E20FF31FE491A0910801B0910901EC93FF
S11331502F5F3F4F2830310591F7DBCF0E946F1668
S1133160DF91CF911F910F91FF90EF90DF90CF905F
S11331700895CF92DF92EF92FF920F931F93CF9314
S1133180DF93C090B703C0E0D0E0D12CE12C0EE96E
S113319010E0F12C1CC09491A0910801B091090198
S11331A09C938F5F31968830B1F705C0F801EC0F1E
S11331B0FD1F8F2DF0CF8091B8038F5F0E943C16C6
S11331C08C2D0E9445166096C032D105A1F02D2D9C
S11331D03E2DCE018A569F4FFC01E20FF31FE4916E
S11331E0A0910801B0910901EC932F5F3F4F283063
S11331F0310591F7DBCF0E946F16DF91CF911F91BC
S11332000F91FF90EF90DF90CF900895CF92DF92CF
S1133210EF92FF920F931F93CF93DF93C090B70366
S1133220C0E0D0E0D12CE12C0EE111E0F12C1CC067
S11332309491A0910801B09109019C938F5F3196FC
S11332408830B1F705C0F801EC0FFD1F8F2DF0CFCA
S11332508091B8038F5F0E943C168C2D0E94451606
S11332606096C032D105A1F02D2D3E2DCE018A5E8F
S11332709E4FFC01E20FF31FE491A0910801B0916D
S11332800901EC932F5F3F4F2830310591F7DBCFD5
S11332900E946F16DF91CF911F910F91FF90EF90D5
S11332A0DF90CF90089560E087E00E94651680E883
S11332B090E0E0910801F0910901108201970097D4
S11332C0C1F70E946F1608950F931F93CF93DF9356
S11332D060E080E00E946516D0E000E810E0CFEFE7
S11332E08D2F0E943C16202F312FE0910801F09180
S11332F00901C0832150310921153105B1F7DF5F80
S1133300D83071F760E080E00E946516DF91CF91BC
S11333101F910F9108950F931F93CF93DF930E94F2
S1133320D61680E00E944516C0E8D0E000E010E028
S113333026C0F901E80FF91FE491A0910801B091AA
S11333400901EC9301968830910599F7485F5F4F26
S11333504C175D0731F0802F912F9A012A5E394F67
S1133360E8CF8091B8038F5F0E943C1680E00E94F2
S11333704516C058DF4FC03884E0D80721F0AE01AD
S113338040585109E8CF0E946F16DF91CF911F91E9
S11333900F9108950E948B192FE784E89EE1215034
S11333A080409040E1F700C000000E9429182FE7F8
S11333B084E89EE1215080409040E1F700C0000085
S11333C00E94A3172FE784E89EE12150804090409B
S11333D0E1F700C000000E94E6172FE784E89EE1B1
S11333E0215080409040E1F700C0000008950F9301
S11333F01F93CF93DF930E94D61680E00E94451658
S1133400C0E8D0E000E010E026C0F901E80FF91FA1
S1133410E491A0910801B0910901EC9301968830E0
S1133420910599F7485F5F4F4C175D0731F0802F86
S1133430912F9A012A5E3D4EE8CF8091B8038F5FA9
S11334400E943C1680E00E944516C058DF4FC038E9
S113345084E0D80721F0AE0140585109E8CF0E941A
S11334606F1682E392E00E947416DF91CF911F9150
S11334700F9108950E9415166091B703685F8091BB
S1133480B8030E9465160E9415166091B703685030
S11334908091B8038F5F0E9465160E941516609193
S11334A0B703685F8091B8030E9465160E941516E1
S11334B008958FB9779BFECF08951FB8779BFECFF1
S11334C08FB10895BD9ABF9ABC9ABE988DB181659B
S11334D08DB90895811102C0C4980895C49A0895BD
S11334E05F9BFECF8CB108955D9BFECF8CB9089590
S11334F08FE189B910BC88E18AB986E880BD60E7AC
S11335007AE184E79AE10E94B41A089597FB072EA2
S113351016F4009407D077FD09D00E94A01A07FC86
S113352005D03EF4909581959F4F089570956195CF
S11335307F4F0895EE0FFF1F0590F491E02D09943D
S1133540AA1BBB1B51E107C0AA1FBB1FA617B707C5
S113355010F0A61BB70B881F991F5A95A9F78095E1
S11335609095BC01CD0108950F931F93CF93DF93E2
S1133570EC018B01009731F46115710519F480E0B9
S113358090E038C06EE070E081E090E00E94F31CAF
S1133590FC010097A1F380E883830115110571F004
S11335A01387028781E883838091B9039091BA03DA
S11335B0892B21F4F093BA03E093B9032097C9F05F
S11335C0D187C0878381826083838091BB0390917C
S11335D0BC03892B71F4F093BC03E093BB0380918B
S11335E0BD039091BE03892B21F4F093BE03E093B5
S11335F0BD03CF01DF91CF911F910F910895AEE0EC
S1133600B0E0E5E0FBE10C94F11E0D891E8986E033
S11336108C831A8309838FEF9FE79E838D83AE018A
S1133620475E5F4F6F89788DCE0101960E94211B02
S1133630EF81F885E00FF11F10822E96E4E00C94E0
S11336400D1FACE0B0E0E7E2FBE10C94E31E7C016B
S11336506B018A01FC0117821682838181FFBDC13F
S1133660CE0101964C01F7019381F60193FD8591FA
S113367093FF81916F01882309F4ABC1853239F43A
S113368093FD859193FF81916F01853229F4B701F0
S113369090E00E94531EE7CF512C312C20E02032C1
S11336A0A0F48B3269F030F4803259F0833269F43B
S11336B020612CC08D3239F0803339F4216026C06A
S11336C02260246023C0286021C027FD27C030ED7C
S11336D0380F3A3078F426FF06C0FAE05F9E300DCA
S11336E01124532E13C08AE0389E300D1124332E3A
S11336F020620CC08E3221F426FD6BC1206406C00A
S11337008C3611F4206802C0883641F4F60193FD2A
S1133710859193FF81916F018111C1CF982F9F7D76
S11337209554933028F40C5F1F4FFFE3F9830DC0C9
S1133730833631F0833771F0833509F05BC022C0E2
S1133740F801808189830E5F1F4F44244394512CD8
S1133750540115C03801F2E06F0E711CF801A0800D
S1133760B18026FF03C0652D70E002C06FEF7FEFCC
S1133770C5012C870E94481E2C0183012C852F77BC
S1133780222E17C03801F2E06F0E711CF801A080E0
S1133790B18026FF03C0652D70E002C06FEF7FEF9C
S11337A0C5012C870E94361E2C012C852068222EF0
S11337B0830123FC1BC0832D90E048165906B0F406
S11337C0B70180E290E00E94531E3A94F4CFF501D1
S11337D027FC859127FE81915F01B70190E00E944B
S11337E0531E31103A94F1E04F1A51084114510418
S11337F071F7E5C0843611F0893639F5F80127FFF1
S113380007C060817181828193810C5F1F4F08C062
S113381060817181882777FD8095982F0E5F1F4FF7
S11338202F76B22E97FF09C090958095709561957B
S11338307F4F8F4F9F4F2068B22E2AE030E0A401C3
S11338400E94851EA82EA81844C0853729F42F7E0F
S1133850B22E2AE030E025C0F22FF97FBF2E8F363A
S1133860C1F018F4883579F0B4C0803719F088377E
S113387021F0AFC02F2F2061B22EB4FE0DC08B2DCE
S11338808460B82E09C024FF0AC09F2F9660B92E09
S113389006C028E030E005C020E130E002C020E1AD
S11338A032E0F801B7FE07C06081718182819381A3
S11338B00C5F1F4F06C06081718180E090E00E5F55
S11338C01F4FA4010E94851EA82EA818FB2DFF7768
S11338D0BF2EB6FE0BC02B2D2E7FA51450F4B4FEC4
S11338E00AC0B2FC08C02B2D2E7E05C07A2C2B2DCD
S11338F003C07A2C01C0752C24FF0DC0FE01EA0D13
S1133900F11D8081803311F4297E09C022FF06C095
S11339107394739404C0822F867809F0739423FD02
S113392013C020FF06C05A2C731418F4530C5718F4
S1133930732C731468F4B70180E290E02C870E9422
S1133940531E73942C85F5CF731410F4371801C0EB
S1133950312C24FF12C0B70180E390E02C870E9431
S1133960531E2C8522FF17C021FF03C088E590E079
S113397002C088E790E0B7010CC0822F867859F026
S113398021FD02C080E201C08BE227FD8DE2B70178
S113399090E00E94531EA51438F4B70180E390E030
S11339A00E94531E5A94F7CFAA94F401EA0DF11D14
S11339B08081B70190E00E94531EA110F5CF3320FF
S11339C009F451CEB70180E290E00E94531E3A946C
S11339D0F6CFF7018681978102C08FEF9FEF2C9677
S11339E0E2E10C94FF1E0F931F93CF93DF93869F06
S11339F08001879F100D969F100D1124C8010E940D
S1133A000F1DEC01009729F0A80160E070E00E940E
S1133A10411ECE01DF91CF911F910F910895CF9355
S1133A20DF938230910510F482E090E0E091C103CD
S1133A30F091C20320E030E0A0E0B0E0309739F12B
S1133A404081518148175907B8F04817590771F454
S1133A5082819381109729F013969C938E931297E9
S1133A602CC09093C2038093C10327C02115310554
S1133A7031F04217530718F0A901DB0101C0EF012F
S1133A809A01BD01DF010280F381E02DD7CF21151A
S1133A903105F9F0281B390B2430310580F48A8173
S1133AA09B816115710521F0FB019383828304C01E
S1133AB09093C2038093C103FE01329644C0FE0179
S1133AC0E20FF31F819391932250310939832883A4
S1133AD03AC02091BF033091C003232B41F42091BD
S1133AE00201309103013093C0032093BF0320915E
S1133AF00001309101012115310541F42DB73EB784
S1133B004091040150910501241B350BE091BF0342
S1133B10F091C003E217F307A0F42E1B3F0B281704
S1133B20390778F0AC014E5F5F4F2417350748F032
S1133B304E0F5F1F5093C0034093BF038193919333
S1133B4002C0E0E0F0E0CF01DF91CF910895CF9380
S1133B50DF93009709F487C0FC0132971382128225
S1133B60C091C103D091C203209781F42081318197
S1133B70280F391F8091BF039091C00382179307C8
S1133B8079F5F093C003E093BF036DC0DE0120E03C
S1133B9030E0AE17BF0750F412964D915C91139725
S1133BA09D014115510509F1DA01F3CFB383A283D5
S1133BB040815181840F951F8A179B0771F48D9161
S1133BC09C911197840F951F02969183808312967E
S1133BD08D919C911397938382832115310529F448
S1133BE0F093C203E093C1033EC0D9011396FC9342
S1133BF0EE9312974D915D91A40FB51FEA17FB0741
S1133C0079F480819181840F951F0296D9011196D0
S1133C109C938E938281938113969C938E93129797
S1133C20E0E0F0E08A819B81009719F0FE01EC014D
S1133C30F9CFCE01029628813981820F931F2091FA
S1133C40BF033091C0032817390769F4309729F46A
S1133C501092C2031092C10302C013821282D09345
S1133C60C003C093BF03DF91CF910895FC01059079
S1133C70615070400110D8F7809590958E0F9F1F6A
S1133C800895DC0101C06D9341505040E0F7089560
S1133C90FC016150704001900110D8F78095909517
S1133CA08E0F9F1F08950F931F93CF93DF93182FA9
S1133CB0092FEB018B8181FD03C08FEF9FEF20C0A3
S1133CC082FF10C04E815F812C813D8142175307D2
S1133CD07CF4E881F9819F012F5F3F4F398328836A
S1133CE0108306C0E885F985812F0995892B29F76A
S1133CF02E813F812F5F3F4F3F832E83812F902F53
S1133D00DF91CF911F910F910895FA01AA272830CE
S1133D1051F1203181F1E8946F936E7F6E5F7F4F94
S1133D208F4F9F4FAF4FB1E03ED0B4E03CD0670F10
S1133D30781F891F9A1FA11D680F791F8A1F911D63
S1133D40A11D6A0F711D811D911DA11D20D009F4B3
S1133D5068943F912AE0269F11243019305D3193F5
S1133D60DEF6CF010895462F4770405D4193B3E0DE
S1133D700FD0C9F7F6CF462F4F70405D4A3318F085
S1133D80495D31FD4052419302D0A9F7EACFB4E036
S1133D90A6959795879577956795BA95C9F70097EE
S1133DA06105710508959B01AC010A2E069457958F
S1133DB0479537952795BA95C9F7620F731F841FE6
S1133DC0951FA01D08952F923F924F925F926F927C
S1133DD07F928F929F92AF92BF92CF92DF92EF9297
S1133DE0FF920F931F93CF93DF93CDB7DEB7CA1B18
S1133DF0DB0B0FB6F894DEBF0FBECDBF09942A8843
S1133E00398848885F846E847D848C849B84AA84EA
S1133E10B984C884DF80EE80FD800C811B81AA8177
S1133E20B981CE0FD11D0FB6F894DEBF0FBECDBF42
S10B3E30ED010895F894FFCFA1
S1133E380000C303200000140012001047414D4540
S1133E48204F564552210046696E616C2053636FBA
S1133E5872653A20002564004E4557204849474872
S1133E6853434F524521004849474853434F52450D
S1133E78533A002E2000507265737320616E7920C6
S1133E88627574746F6E00746F20676F20746F208E
S1133E986D656E75004D61696E4D656E75004E6594
S1133EA8772047616D650045617379004E6F726DC7
S1133EB8616C004861726400486967682053636FE5
S1133EC8726573004F7074696F6E7300436F6E741C
S1133ED8726F6C6C65722073656C005370656564F1
S1133EE800506F736974696F6E00536F6C656E6F01
S1133EF86964204D6F64650053656D69204175746C
S1133F086F00546F67676C65204175746F00496E64
S1133F18766572746564204D6F6465004E6F6E201B
S1133F28496E7665727465640052657365742053CE
S1133F38636F7265004D6172696F004372656469ED
S1133F487473002A0073636F72653A2000427261C9
S1133F58676500546F626961730048656E6E696EC7
S10B3F6867005069673C330057
S9030000FC
