:10000000C2C00000E0C00000DEC00000DCC0000094
:10001000DAC00000D8C00000D6C00000D4C0000084
:10002000D2C00000D0C00000CEC00000CCC0000094
:10003000CAC00000C8C00000C6C00000C4C00000A4
:10004000C2C00000C0C00000BEC00000BCC00000B4
:10005000BAC00000B8C00000B6C00000B4C00000C4
:10006000B2C00000B0C00000AEC00000ACC00000D4
:10007000AAC00000D0C00000A6C00000A4C00000BC
:1000800019C70000A0C000009EC000009CC0000076
:100090009AC0000098C0000096C00000A8C70000E9
:1000A00092C0000090C0000041C700008CC000005A
:1000B0008AC0000088C0000086C000004FC7000052
:1000C00082C0000080C000007EC000007CC0000034
:1000D0007AC0000078C0000076C0000074C0000044
:1000E00072C00000120864086408640864086408A8
:1000F00064086408120864086408640864086408F2
:1001000064086408140864086408640864086408DF
:10011000640864086408640864086408640864087F
:1001200064086408140864086408640864086408BF
:10013000640864086408640864086408640864085F
:100140006408640860086408640864086408640853
:10015000640864083D086408640864086408640866
:10016000640864086408640864086408640864082F
:100170006408640831086408640864086408640852
:10018000640864084F0811241FBECFEFD1E2DEBF20
:10019000CDBF00E00CBF12E0A0E0B2E0E0EAFCE17D
:1001A00000E00BBF02C007900D92A436B107D9F74B
:1001B00022E0A4E6B2E001C01D92A438B207E1F744
:1001C0003BD50C944E0E1CCF909365028093640235
:1001D0008FEE80937A0080E680937C000895FC0186
:1001E00020E030E040E050E08191480F511D2F5F4A
:1001F0003F4F24303105C1F781E0403951400CF0C8
:1002000080E00895FC019091790080818183828350
:100210008383908308951F920F920FB60F9211243B
:100220000BB60F928F93EF93FF93E0916402F091DE
:100230006502309711F081E08083EAE7F0E0808189
:100240008F7E8083FF91EF918F910F900BBE0F9067
:100250000FBE0F901F901895E6D440E060EE8FE03F
:10026000BCC408958CE277D4837021F48CE273D4FB
:100270008370E1F30895FF920F931F93CF93DF9361
:100280001F92CDB7DEB78C01EDDF8CE264D4898399
:1002900081E661D490E0F8019183808385E65BD4A8
:1002A000F8018283882369F0F12C86E68F0D53D400
:1002B000F801EF0DF11D8383F394F8018281F816A4
:1002C000A0F340E061E08CE288D40F90DF91CF9101
:1002D0001F910F91FF900895CF93DF931F92CDB799
:1002E000DEB780E338D48983898183FF06C080E349
:1002F00032D48983898183FDFACF0F90DF91CF912A
:1003000008951F93CF93DF93EC01E6DF60E082E373
:1003100035D4688181E332D46A8185E32FD48A8120
:10032000882361F010E0FE01E10FF11D638186E397
:10033000810F24D41F5F8A811817A8F381E834D471
:10034000DF91CF911F910895FA011182108293835A
:1003500082837583648380EA96E897838683089511
:10036000CF92DF92EF92FF920F931F93CF93DF9381
:10037000FA01861B970BEC010AF42196D595C795D7
:1003800082819381C89F8001C99F100DD89F100D55
:10039000112480819181C80FD91F868197818C1784
:1003A0009D0714F4918380839195819591098C1711
:1003B0009D072CF491838083C0EFDFEF1BC0D183B6
:1003C000C0836481758180E090E0E6D62FE832EC4E
:1003D00045EF5CE347D76B017C01BE01882777FDC1
:1003E0008095982FDBD69B01AC01C701B6013AD7A7
:1003F000A2D6EB011F930F93DF93CF938DE092E092
:100400009F938F930E94340AC8018C0F9D1F64E64E
:1004100070E0B3D7CB010F900F900F900F900F901B
:100420000F90DF91CF911F910F91FF90EF90DF9090
:10043000CF900895CF93DF93CDB7DEB72B970FB64C
:10044000F894DEBF0FBECDBF24E130E03A832983AC
:1004500091E09B838C83CE01019653DF2B960FB6E0
:10046000F894DEBF0FBECDBFDF91CF910895EF921C
:10047000FF920F931F93CF93DF93CDB7DEB72B97E8
:100480000FB6F894DEBF0FBECDBF111103C010929E
:100490000A0205C0113019F481E080930A022B96FC
:1004A0000FB6F894DEBF0FBECDBFDF91CF911F9185
:1004B0000F91FF90EF900895CF92DF92EF92FF920D
:1004C0000F931F93CF93DF93CDB7DEB72B970FB664
:1004D000F894DEBF0FBECDBF211113C0A6016FE09F
:1004E00070E083E090E030DF80E090E0A0ECBFE3DC
:1004F0008093060290930702A0930802B09309022A
:1005000029C0213099F4A6016CE070E086E090E00B
:100510001BDF80E090E0A0E0B0E4809306029093BF
:100520000702A0930802B093090214C0223091F48C
:10053000A6016CE070E08CE090E006DF80E090E0E7
:10054000A0E8B0E48093060290930702A09308020B
:10055000B09309022B960FB6F894DEBF0FBECDBF45
:10056000DF91CF911F910F91FF90EF90DF90CF908F
:100570000895EF92FF920F931F93CF93DF93CDB720
:10058000DEB72B970FB6F894DEBF0FBECDBF41305C
:1005900021F481E08093660204C0411102C01092F0
:1005A00066022B960FB6F894DEBF0FBECDBFDF916B
:1005B000CF911F910F91FF90EF900895ECD4509A36
:1005C000519A0895E2E0F1E080818F7B80838AE692
:1005D0008A95F1F700C08081806480830895EEDF02
:1005E000E1E0F1E0808182608083808180648083AB
:1005F000808180628083808188608083E2E0F1E096
:1006000080818061808310920801DCCF08950F9370
:100610001F93CF93DF9300D01F92CDB7DEB78091A9
:100620000A02811117C0E2E0F1E0808182608083DC
:1006300080E589831A8284E68B8300E117E263E018
:1006400070E0CE010196B1D40150110901151105D8
:10065000B1F7B8DF0F900F900F900F90DF91CF910F
:100660001F910F910895CF93DF93E2E0F1E0808135
:100670008F7D80838081877F80838AE68A95F1F7EA
:1006800000C0C0910601D0E0DC2FCC2780818860BB
:1006900080838AE68A95F1F700C080910601C82B15
:1006A00080910A02813009F48DDFE2E0F1E080817F
:1006B00080628083CE01DF91CF910895CF92DF9247
:1006C000EF92FF920F931F93CF93DF9300D01F926F
:1006D000CDB7DEB7E9D18B0180916602811117C0D9
:1006E0001016110654F4E2E0F1E08081826080830C
:1006F000809166028130E9F411C0E2E0F1E080818E
:100700008D7F808380916602813099F40DC0809145
:100710006602813071F41016110634F4E2E0F1E063
:1007200080818D7F808305C0E2E0F1E0808182607E
:10073000808380E589831A8296DFC0900602D0907C
:100740000702E0900802F0900902C801992324F4FE
:1007500088279927801B910BBC01882777FD8095FE
:10076000982F1CD5A70196017DD520E030E040E010
:100770005FE378D5E5D46B8363E070E0CE0101964A
:1007800014D40F900F900F900F90DF91CF911F9185
:100790000F91FF90EF90DF90CF900895EF92FF922E
:1007A0000F931F93CF93DF9300D01F92CDB7DEB787
:1007B0007B01082F10E080916602811106C08FEF47
:1007C00090E09C01201B310B8901000F111F029545
:1007D0001295107F1027007F102745DF0817190793
:1007E00034F4E2E0F1E080818260808305C0E2E0E1
:1007F000F1E080818D7F808380E589831A8233DFF9
:10080000A701BC01C801ACDD99231CF49195819529
:1008100091098B8363E070E0CE010196C6D30F90FF
:100820000F900F900F90DF91CF911F910F91FF903C
:10083000EF900895AF92BF92CF92DF92EF92FF9226
:100840000F931F93CF93DF93CDB7DEB72B970FB6E0
:10085000F894DEBF0FBECDBFE982FA820B831C8302
:100860002D833E834F83588769877A878B8756010C
:1008700080910A02813029F48B85D3D0A6011EDF36
:1008800013C080910A0281110FC0C12CE980FA8047
:100890000B811C812D813E814F81588569857A8528
:1008A0008B85DED0B5017ADF2B960FB6F894DEBFCC
:1008B0000FBECDBFDF91CF911F910F91FF90EF90B1
:1008C000DF90CF90BF90AF900895819A0895EF92F6
:1008D000FF920F931F93CF93DF93CDB7DEB72B9784
:1008E0000FB6F894DEBF0FBECDBF311103C010921A
:1008F0000B020BC0313021F481E080930B0205C064
:10090000323019F482E080930B022B960FB6F894E4
:10091000DEBF0FBECDBFDF91CF911F910F91FF9032
:10092000EF900895899A2FE785EB91E02150804060
:100930009040E1F700C0000089988FE19EE40197A4
:10094000F1F700C000000895EF92FF920F931F93FC
:10095000CF93DF93CDB7DEB72B970FB6F894DEBFFA
:100960000FBECDBFE982FA820B831C832D833E83A9
:100970004F83588769877A878B8780910B028130F4
:10098000C1F4613069F48091680281112DC0CADF21
:1009900081E08093680280910B02823089F40FC05D
:1009A000611127C0809168028130D9F410926802E9
:1009B00018C080910B02823019F4613009F4B2DF63
:1009C00080910B02811118C0809167028F5F809324
:1009D000670280916702863078F010926702A2DF8A
:1009E0000BC080910B02ECCF80910B02823041F75B
:1009F000E6CF80910B02E4CF2B960FB6F894DEBFC2
:100A00000FBECDBFDF91CF911F910F91FF90EF905F
:100A10000895FC0124813381632F70E0822F90E0E0
:100A20000895EF92FF920F931F93CF93DF93CDB76B
:100A3000DEB72B970FB6F894DEBF0FBECDBF622F87
:100A400070E0832F90E02B960FB6F894DEBF0FBEB8
:100A5000CDBFDF91CF911F910F91FF90EF9008953F
:100A6000CF92EF92FF920F931F93CF93DF93CDB767
:100A7000DEB72B970FB6F894DEBF0FBECDBF4F8306
:100A80005887C11002C0852F01C08F812B960FB6E9
:100A9000F894DEBF0FBECDBFDF91CF911F910F91B4
:100AA000FF90EF90CF900895FF920F931F93CF93F5
:100AB000DF938B019C01E0917602F09177026091C7
:100AC000780270917902A901461B570B0F2EF4E6AC
:100AD000FF2EF02DF49EC001F59E900D11244DD4F3
:100AE000EB010E1B1F0BF09EC001F19E900D112417
:100AF000BF0143D49B01B901CE01DF91CF911F917A
:100B00000F91FF900895EF92FF920F931F93CF9351
:100B1000DF93CDB7DEB72B970FB6F894DEBF0FBECD
:100B2000CDBF50E0CA01880F991F880F991F880F09
:100B3000991F840F951F885F984F7DD12B960FB614
:100B4000F894DEBF0FBECDBFDF91CF911F910F9103
:100B5000FF90EF900895CF93C82F80E090E08BD165
:100B600083E090E073D18C2F90E070D174D1C82FC6
:100B700081E090E080D18C2FCF910895CF93DF93C7
:100B8000D82FC62F80E090E076D182E090E05ED151
:100B90008D2F90E05BD18C2F90E058D181E090E0D8
:100BA0006AD1DF91CF910895CF93C82F80E090E074
:100BB00062D18FE78C0F823020F0C43811F0C73833
:100BC00021F48C2F90E042D103C08BE292E05DD4FF
:100BD00081E090E050D1CF9108951F93CF93DF93A0
:100BE000182FD62FC42F80E090E045D185E090E00B
:100BF0002DD1812F90E02AD18D2F90E027D18C2FFD
:100C000090E024D181E090E036D1DF91CF911F9127
:100C1000089580E090E02FD180EC90E017D181E042
:100C200090E029C108951DD1F4DF87EA91E601978C
:100C3000F1F700C000000895CF93DF93CDB7DEB782
:100C40006D970FB6F894DEBF0FBECDBF19821A8222
:100C50001B8218865FD200DBCE010296B5DAC4D0C3
:100C6000CE0101960ED143D15CD12FDEB8DCAE01AE
:100C7000475F5F4F6CE070E086E090E065DB789462
:100C80001D8E1C8EC4DC0F2EF7E4AF2EF2E0BF2EBB
:100C9000F02D0F2EF2E58F2EF2E09F2EF02D5B98B7
:100CA0008981882309F47CC0CE014196E4DA8989E0
:100CB0009A898130910509F461C0C0F1049708F068
:100CC00069C0E988FA880B891C892D893E894F897A
:100CD000588D698D7A8D8B8DCADBCE0109966C019A
:100CE000E988FA880B891C892D893E894F89588D9E
:100CF000698D7A8D8B8DE0DBE988FA880B891C89F8
:100D00002D893E894F89588D698D7A8D8B8DDFDDD8
:100D1000E988FA880B891C892D893E894F89588D6D
:100D2000698D7A8D8B8D25DC72DC39C0E988FA8873
:100D30000B891C892D893E894F89588D698D7A8D43
:100D40008B8DE1DECE0109966C01E988FA880B896A
:100D50001C892D893E894F89588D698D7A8D8B8D9F
:100D600069DDE988FA880B891C892D893E894F89BC
:100D7000588D698D7A8D8B8DE7DD11C0CE0141963E
:100D800048DE6093760270937702809378029093A6
:100D9000790205C0BF92AF9267D30F900F9019826E
:100DA00062DC9D8F8C8F8FE39CE90197F1F700C087
:100DB00000008A81882309F472CFCE01049622DADA
:100DC000ABD038DBCE0104960ADA882309F467CF6A
:100DD000A3D09F938F939F928F9246D3A2D00F90D0
:100DE0000F900F900F905BCF259AA1E8B0E08C9107
:100DF00080618C938C9188608C93E0E8F0E0808136
:100E00008260808380818E7F808380818F7B8083DE
:100E10008081806880838C9182608C9380E49CE9DF
:100E2000909387008093860088EB9BE090938900E5
:100E30008093880008959C01295037402F35394010
:100E400020F4909389008093880008958EBD0DB49E
:100E500007FEFDCF08951EBC0DB407FEFDCF8EB575
:100E60000895229A219A279A2B9A2398209A8CB532
:100E700080658CBD0895811102C02F9808952F9A26
:100E80000895E1E9F0E0208128602083208122603C
:100E900020832FE33CE930939900209398009093AE
:100EA0006E0280936D02E1E7F0E0808182608083D2
:100EB000789408951F920F920FB60F9211240BB6DB
:100EC0000F928F93EF93FF93E0916D02F0916E027A
:100ED000309711F081E08083C198FF91EF918F915D
:100EE0000F900BBE0F900FBE0F901F901895E1EA68
:100EF000F0E08081886080838081826080838FE3DE
:100F00009DE09093A9008093A800E2E7F0E0808143
:100F100082608083789408958091690290916A023A
:100F2000089510926A021092690208951F920F921A
:100F30000FB60F9211248F939F9380916902909125
:100F40006A02019690936A0280936902C9989F9100
:100F50008F910F900FBE0F901F9018951F920F92B8
:100F60000FB60F9211240BB60F928F93EF93FF934E
:100F7000E0916B02F0916C02309711F081E0808378
:100F8000D198FF91EF918F910F900BBE0F900FBEF4
:100F90000F901F9018958CE08093B8008FEF80938E
:100FA000BB0084E08093BC000895ECEBF0E020816E
:100FB00020FDFDCF60937102FC012081209372021D
:100FC00020FD0CC0623050F0DC011196E3E7F2E046
:100FD00081E09D9191938F5F8613FBCF10927002F9
:100FE00088EF80930C0285EA8093BC0008951F92DD
:100FF0000F920FB60F9211240BB60F922F933F93BF
:101000008F939F93AF93BF93EF93FF938091B9001A
:1010100090E0FC013897E135F10508F055C0EE5835
:10102000FF4FBEC110926F02E0916F02809171027A
:10103000E81770F481E08E0F80936F02F0E0EE58B5
:10104000FD4F80818093BB0085E88093BC0043C046
:101050008091700281608093700284E98093BC006B
:101060003AC0E0916F0281E08E0F80936F02809111
:10107000BB00F0E0EE58FD4F808320916F0230E01E
:101080008091710290E001972817390724F485ECCC
:101090008093BC0020C085E88093BC001CC0809178
:1010A000BB00E0916F02F0E0EE58FD4F808380912D
:1010B000700281608093700284E98093BC000BC051
:1010C00085EA8093BC0007C08091B90080930C0230
:1010D00084E08093BC00FF91EF91BF91AF919F910D
:1010E0008F913F912F910F900BBE0F900FBE0F90DD
:1010F0001F901895E0ECF0E080818823ECF7809158
:10110000C6000895E0ECF0E0908195FFFDCF80935C
:10111000C600089587E68093C4001092C50088E158
:101120008093C10086E08093C2006AE778E082E89D
:1011300098E050C1089504D06894B1118DC008950D
:1011400070D088F09F5790F0B92F9927B751A0F031
:10115000D1F0660F771F881F991F1AF0BA95C9F74B
:1011600012C0B13081F077D0B1E0089574C0672F1C
:10117000782F8827B85F39F0B93FCCF386957795FB
:101180006795B395D9F73EF49095809570956195E4
:101190007F4F8F4F9F4F0895E89409C097FB3EF40F
:1011A00090958095709561957F4F8F4F9F4F9923B4
:1011B000A9F0F92F96E9BB279395F6958795779532
:1011C0006795B795F111F8CFFAF4BB0F11F460FFF2
:1011D0001BC06F5F7F4F8F4F9F4F16C0882311F04A
:1011E00096E911C0772321F09EE8872F762F05C05E
:1011F000662371F096E8862F70E060E02AF09A95F9
:10120000660F771F881FDAF7880F9695879597F9ED
:10121000089557FD9058440F551F59F05F3F71F0E6
:101220004795880F97FB991F61F09F3F79F087954D
:101230000895121613061406551FF2CF4695F1DFD6
:1012400008C0161617061806991FF1CF8695710566
:10125000610508940895E894BB2766277727CB019A
:1012600097F908950BD078C069D028F06ED018F0A7
:10127000952309F05AC05FC01124EECFCADFA0F356
:10128000959FD1F3950F50E0551F629FF001729F1B
:10129000BB27F00DB11D639FAA27F00DB11DAA1F3A
:1012A000649F6627B00DA11D661F829F2227B00D87
:1012B000A11D621F739FB00DA11D621F839FA00D12
:1012C000611D221F749F3327A00D611D231F849F62
:1012D000600D211D822F762F6A2F11249F575040B9
:1012E0008AF0E1F088234AF0EE0FFF1FBB1F661F54
:1012F000771F881F91505040A9F79E3F510570F00D
:1013000014C0AACF5F3FECF3983EDCF38695779547
:101310006795B795F795E7959F5FC1F7FE2B880F07
:10132000911D9695879597F9089597F99F6780E89D
:1013300070E060E008959FEF80EC089500240A9427
:101340001616170618060906089500240A941216A0
:101350001306140605060895092E0394000C11F4D3
:10136000882352F0BB0F40F4BF2B11F460FF04C080
:101370006F5F7F4F8F4F9F4F089597FB072E16F497
:10138000009406D077FD08D011D007FC05D03EF4BC
:10139000909581959F4F0895709561957F4F089521
:1013A000EE0FFF1F0590F491E02D1994AA1BBB1BB3
:1013B00051E107C0AA1FBB1FA617B70710F0A61B55
:1013C000B70B881F991F5A95A9F780959095BC0176
:1013D000CD0108950F931F93CF93DF93EC018B0101
:1013E000009731F46115710519F480E090E037C081
:1013F0006EE070E081E090E063D2FC010097A9F319
:1014000080E883830115110571F01387028781E855
:10141000838380917A0290917B02892B21F4F0934F
:101420007B02E0937A022097C9F0D187C08783813D
:101430008260838380917C0290917D02892B71F47C
:10144000F0937D02E0937C0280917E0290917F0276
:10145000892B21F4F0937F02E0937E02CF01DF918C
:10146000CF911F910F910895CF93DF93CDB7DEB742
:10147000FE01369661917191AF0180917C0290914D
:101480007D0230D0DF91CF9108950F931F93CF93BA
:10149000DF93E0917C02F0917D02238121FF1BC04C
:1014A000EC0100E010E0899160917C0270917D0276
:1014B000DB011896ED91FC911997882331F019956D
:1014C000892B89F30FEF1FEFEECF8AE01995892B57
:1014D00011F4C80102C08FEF9FEFDF91CF911F91F0
:1014E0000F9108952F923F924F925F926F927F9249
:1014F0008F929F92AF92BF92CF92DF92EF92FF9224
:101500000F931F93CF93DF93CDB7DEB72C970FB612
:10151000F894DEBF0FBECDBF7C016B018A01FC01D8
:1015200017821682838181FFB0C1CE0101964C01E2
:10153000F7019381F60193FD859193FF81916F01EE
:10154000882309F49EC1853239F493FD859193FF78
:1015500081916F01853221F4B70190E00FD3E8CF7C
:10156000512C312C20E02032A0F48B3269F030F481
:10157000803259F0833269F420612CC08D3239F009
:10158000803339F4216026C02260246023C02860A3
:1015900021C027FD27C030ED380F3A3078F426FF00
:1015A00006C0FAE05F9E300D1124532E13C08AE06E
:1015B000389E300D1124332E20620CC08E3221F45F
:1015C00026FD5FC1206406C08C3611F4206802C07D
:1015D000883641F4F60193FD859193FF81916F0167
:1015E0008111C1CF982F9F7D9554933028F40C5FC3
:1015F0001F4FFFE3F9830DC0833631F0833771F05D
:10160000833509F057C021C0F801808189830E5FBE
:101610001F4F44244394512C540114C03801F2E06C
:101620006F0E711CF801A080B18026FF03C0652DEC
:1016300070E002C06FEF7FEFC5012C8794D22C01C0
:1016400083012C852F77222E16C03801F2E06F0E11
:10165000711CF801A080B18026FF03C0652D70E0E9
:1016600002C06FEF7FEFC5012C876BD22C012C8558
:101670002068222E830123FC19C0832D90E0481698
:101680005906A0F4B70180E290E078D23A94F5CF01
:10169000F50127FC859127FE81915F01B70190E05C
:1016A0006DD231103A94F1E04F1A510841145104AF
:1016B00079F7DEC0843611F0893631F5F80127FF5D
:1016C00007C060817181828193810C5F1F4F08C0C8
:1016D00060817181882777FD8095982F0E5F1F4F5D
:1016E0002F76B22E97FF09C09095809570956195E1
:1016F0007F4F8F4F9F4F2068B22E2AE030E0A40129
:101700006FD2A82EA81843C0853729F42F7EB22E99
:101710002AE030E025C0F22FF97FBF2E8F36C1F0CE
:1017200018F4883579F0ADC0803719F0883721F08A
:10173000A8C02F2F2061B22EB4FE0DC08B2D846067
:10174000B82E09C024FF0AC09F2F9660B92E06C08C
:1017500028E030E005C020E130E002C020E132E0C6
:10176000F801B7FE07C060817181828193810C5FAF
:101770001F4F06C06081718180E090E00E5F1F4FB7
:10178000A4012ED2A82EA818FB2DFF77BF2EB6FEDF
:101790000BC02B2D2E7FA51450F4B4FE0AC0B2FC52
:1017A00008C02B2D2E7E05C07A2C2B2D03C07A2C41
:1017B00001C0752C24FF0DC0FE01EA0DF11D8081D2
:1017C000803311F4297E09C022FF06C073947394FC
:1017D00004C0822F867809F0739423FD12C020FF85
:1017E00006C05A2C731418F4530C5718732C731426
:1017F00060F4B70180E290E02C87C0D173942C850F
:10180000F6CF731410F4371801C0312C24FF11C027
:10181000B70180E390E02C87B1D12C8522FF16C060
:1018200021FF03C088E590E002C088E790E0B7019F
:101830000CC0822F867851F021FD02C080E201C0E9
:101840008BE227FD8DE2B70190E098D1A51430F42A
:10185000B70180E390E092D15A94F8CFAA94F401B2
:10186000EA0DF11D8081B70190E088D1A110F6CF7B
:10187000332009F45DCEB70180E290E07FD13A9445
:10188000F7CFF7018681978102C08FEF9FEF2C96EB
:101890000FB6F894DEBF0FBECDBFDF91CF911F9181
:1018A0000F91FF90EF90DF90CF90BF90AF909F90FF
:1018B0008F907F906F905F904F903F902F90089502
:1018C0000F931F93CF93DF93869F8001879F100D07
:1018D000969F100D1124C8010DD0EC01009721F046
:1018E000A80160E070E038D1CE01DF91CF911F9167
:1018F0000F910895CF93DF938230910510F482E029
:1019000090E0E0918202F091830220E030E0A0E0DC
:10191000B0E0309739F14081518148175907B8F04C
:101920004817590771F482819381109729F0139613
:101930009C938E9312972CC0909383028093820283
:1019400027C02115310531F04217530718F0A901BE
:10195000DB0101C0EF019A01BD01DF010280F381CB
:10196000E02DD7CF21153105F9F0281B390B243094
:10197000310580F48A819B816115710521F0FB019D
:101980009383828304C09093830280938202FE013A
:10199000329644C0FE01E20FF31F819391932250CF
:1019A0003109398328833AC0209180023091810225
:1019B000232B41F4209102023091030230938102E3
:1019C00020938002209100023091010221153105FF
:1019D00041F42DB73EB74091040250910502241BFB
:1019E000350BE0918002F0918102E217F307A0F439
:1019F0002E1B3F0B2817390778F0AC014E5F5F4F65
:101A00002417350748F04E0F5F1F50938102409313
:101A100080028193919302C0E0E0F0E0CF01DF917A
:101A2000CF910895CF93DF93009709F487C0FC010D
:101A3000329713821282C0918202D0918302209742
:101A400081F420813181280F391F8091800290918B
:101A500081028217930779F5F0938102E093800267
:101A60006DC0DE0120E030E0AE17BF0750F41296E3
:101A70004D915C9113979D014115510509F1DA01D2
:101A8000F3CFB383A28340815181840F951F8A17BE
:101A90009B0771F48D919C911197840F951F02966D
:101AA0009183808312968D919C9113979383828367
:101AB0002115310529F4F0938302E09382023EC0A0
:101AC000D9011396FC93EE9312974D915D91A40F5B
:101AD000B51FEA17FB0779F480819181840F951F68
:101AE0000296D90111969C938E93828193811396CD
:101AF0009C938E931297E0E0F0E08A819B8100979F
:101B000019F0FE01EC01F9CFCE010296288139814E
:101B1000820F931F2091800230918102281739078C
:101B200069F4309729F4109283021092820202C065
:101B300013821282D0938102C0938002DF91CF91F1
:101B40000895FC010590615070400110D8F7809510
:101B500090958E0F9F1F0895DC0101C06D93415039
:101B60005040E0F70895FC01615070400190011071
:101B7000D8F7809590958E0F9F1F08950F931F9310
:101B8000CF93DF93182F092FEB018B8181FD03C0C9
:101B90008FEF9FEF20C082FF10C04E815F812C81AC
:101BA0003D81421753077CF4E881F9819F012F5F43
:101BB0003F4F39832883108306C0E885F985812F3C
:101BC0001995892B29F72E813F812F5F3F4F3F8346
:101BD0002E83812F902FDF91CF911F910F91089528
:101BE000FA01AA27283051F1203181F1E8946F934E
:101BF0006E7F6E5F7F4F8F4F9F4FAF4FB1E03ED0F4
:101C0000B4E03CD0670F781F891F9A1FA11D680F91
:101C1000791F8A1F911DA11D6A0F711D811D911DC4
:101C2000A11D20D009F468943F912AE0269F112439
:101C30003019305D3193DEF6CF010895462F47709D
:101C4000405D4193B3E00FD0C9F7F6CF462F4F70F8
:101C5000405D4A3318F0495D31FD4052419302D056
:101C6000A9F7EACFB4E0A6959795879577956795FC
:101C7000BA95C9F700976105710508959B01AC01FC
:101C80000A2E06945795479537952795BA95C9F723
:101C9000620F731F841F951FA01D0895F894FFCF36
:101CA0000000840220000000C03F0102F8492046E5
:101CB000414B544F523A2025642020205020464169
:101CC0004B544F523A202564200A006669736B20FA
:101CD00066756E6B657220696B6B652070E5206CB4
:101CE000616E642E2E2E00494420696E76616C6907
:101CF000640066696E616C2073636F72653A2025BB
:041D000064200A0051
:00000001FF
