:10000000C2C00000DFC00000DDC00000DBC0000097
:10001000D9C00000D7C00000D5C00000D3C0000088
:10002000D1C00000CFC00000CDC00000CBC0000098
:10003000C9C00000C7C00000C5C00000C3C00000A8
:10004000C1C00000BFC00000BDC00000BBC00000B8
:10005000B9C00000B7C00000B5C00000B3C00000C8
:10006000B1C00000AFC00000ADC00000ABC00000D8
:10007000A9C00000CFC00000A5C00000A3C00000C0
:10008000E5C200009FC000009DC000009BC00000B2
:1000900099C0000097C0000095C000002BC300006D
:1000A00091C000008FC000000DC300008BC0000095
:1000B00089C0000087C0000085C0000083C0000028
:1000C00081C000007FC000007DC000007BC0000038
:1000D00079C0000077C0000075C0000073C0000048
:1000E00071C000009503E703E703E703E703E703B5
:1000F000E703E7039503E703E703E703E703E70302
:10010000E703E7039703E703E703E703E703E703EF
:10011000E703E703E703E703E703E703E703E7038F
:10012000E703E7039703E703E703E703E703E703CF
:10013000E703E703E703E703E703E703E703E7036F
:10014000E703E703E303E703E703E703E703E70363
:10015000E703E703C003E703E703E703E703E70376
:10016000E703E703E703E703E703E703E703E7033F
:10017000E703E703B403E703E703E703E703E70362
:10018000E703E703D20311241FBECFEFD1E2DEBFA6
:10019000CDBF00E00CBF12E0A0E0B2E0E8E0F1E18A
:1001A00000E00BBF02C007900D92A432B107D9F74F
:1001B00022E0A4E2B2E001C01D92AF33B207E1F742
:1001C0008FD1A0C71DCF90932502809324028FEE7C
:1001D00080937A0080E680937C000895FC0120E003
:1001E00030E040E050E08191480F511D2F5F3F4FBC
:1001F00024303105C1F781E0403951400CF080E0F6
:100200000895FC01909179008081818382838383AA
:10021000908308951F920F920FB60F9211240BB680
:100220000F928F93EF93FF93E0912402F0912502B8
:10023000309711F081E08083EAE7F0E080818F7EE3
:100240008083FF91EF918F910F900BBE0F900FBEA7
:100250000F901F9018953BD140E060EE8FE011C1E8
:1002600008958CE2FBD0837021F48CE2F7D0837088
:10027000E1F30895FF920F931F93CF93DF931F92A3
:10028000CDB7DEB78C01EDDF8CE2E8D0898381E663
:10029000E5D090E0F8019183808385E6DFD0F80116
:1002A0008283882369F0F12C86E68F0DD7D0F80180
:1002B000EF0DF11D8383F394F8018281F816A0F30A
:1002C00040E061E08CE2DDD00F90DF91CF911F9193
:1002D0000F91FF900895EF92FF920F931F93CF938A
:1002E000DF93CDB7DEB72B970FB6F894DEBF0FBE06
:1002F000CDBFE982FA820B831C832D833E834F831B
:10030000588769877A878B8789819A81009719F046
:10031000019791F01DC0E980FA800B811C812D812D
:100320003E814F81588569857A858B856AD089851C
:100330008130A9F423D013C0CE0101962BD0609355
:10034000310270933202809333029093340207C0DB
:1003500087E092E09F938F93E8D20F900F902B96B7
:100360000FB6F894DEBF0FBECDBFDF91CF911F91C6
:100370000F91FF90EF900895819A0895899A2FEF39
:1003800083EF91E0215080409040E1F700C00000F1
:1003900089980895FC0124813381632F70E0822FB6
:1003A00090E00895FF920F931F93CF93DF938B01FB
:1003B0009C01E0913102F091320260913302709120
:1003C0003402A901461B570B0F2EF4E6FF2EF02D29
:1003D000F49EC001F59E900D112430D2EB010E1B4E
:1003E0001F0BF09EC001F19E900D1124BF0126D27B
:1003F0009B01B901CE01DF91CF911F910F91FF9029
:100400000895EF92FF920F931F93CF93DF93CDB791
:10041000DEB72B970FB6F894DEBF0FBECDBF832F8C
:1004200090E0622F70E0BEDF9B01220F331F620F4E
:10043000731FCB01880F991F880F991F8854944F01
:10044000C6D02B960FB6F894DEBF0FBECDBFDF919E
:10045000CF911F910F91FF90EF900895CF93C82FE8
:1004600080E090E0D4D083E090E0BCD08C2F90E08E
:10047000B9D0BDD0C82F81E090E0C9D08C2FCF91EA
:1004800008951F93CF93DF93182FD62FC42F80E0AA
:1004900090E0BDD085E090E0A5D0812F90E0A2D083
:1004A0008D2F90E09FD08C2F90E09CD081E090E049
:1004B000AED0DF91CF911F91089580E090E0A7D05A
:1004C00080EC90E08FD081E090E0A1C0089595D0BD
:1004D000F4DF87EA91E60197F1F700C00000089584
:1004E000CF93DF93CDB7DEB762970FB6F894DEBF38
:1004F0000FBECDBF19821A821F828FD1ACDECE0112
:10050000029661DE3DD0CE01019687D0BCD0D5D019
:1005100033DF0F2EF2E1CF2EF2E0DF2EF02D5B98CD
:100520008981882381F0CE010896A4DEE884F984CD
:100530000A851B852C853D854E855F85688979896F
:100540008A89C9DE19828A81882399F0CE010396AF
:1005500058DECE01039642DE882359F0A9D09F933E
:100560008F93DF92CF92E1D1A8D00F900F900F9090
:100570000F908FE493EC0197F1F700C00000CFCF0C
:10058000259AA1E8B0E08C9180618C938C91886071
:100590008C93E0E8F0E080818260808380818E7FB0
:1005A000808380818F7B80838081806880838C9131
:1005B00082608C9380E49CE990938700809386000E
:1005C00088EB9BE0909389008093880008959C01BC
:1005D000295037402F35394020F49093890080937B
:1005E000880008958EBD0DB407FEFDCF08951EBC92
:1005F0000DB407FEFDCF8EB50895229A219A279A51
:100600002B9A2398209A8CB580658CBD0895811112
:1006100002C02F9808952F9A0895E1E9F0E0208113
:10062000286020832081226020832FE33CE93093DF
:100630009900209398009093290280932802E1E783
:10064000F0E0808182608083789408951F920F92F9
:100650000FB60F9211240BB60F928F93EF93FF9367
:10066000E0912802F0912902309711F081E0808317
:10067000C198FF91EF918F910F900BBE0F900FBE1D
:100680000F901F901895E1EAF0E0808188608083E8
:100690008081826080838FE39DE09093A9008093A6
:1006A000A800E2E7F0E0808182608083789408957A
:1006B00080912602909127020895109227021092AD
:1006C000260208951F920F920FB60F9211248F9356
:1006D0009F93809126029091270201969093270282
:1006E00080932602C9989F918F910F900FBE0F9013
:1006F0001F9018951F920F920FB60F9211240BB6F0
:100700000F922F933F938F939F93AF93BF93EF934A
:10071000FF938091B90090E0FC013897E135F10535
:1007200008F055C0EE58FF4F9CC010922A02E0918D
:100730002A0280912C02E81770F481E08E0F8093DA
:100740002A02F0E0E35DFD4F80818093BB0085E8E5
:100750008093BC0043C080912B02816080932B0268
:1007600084E98093BC003AC0E0912A0281E08E0FB8
:1007700080932A028091BB00F0E0E35DFD4F80830F
:1007800020912A0230E080912C0290E001972817F6
:10079000390724F485EC8093BC0020C085E8809361
:1007A000BC001CC08091BB00E0912A02F0E0E35D38
:1007B000FD4F808380912B02816080932B0284E91E
:1007C0008093BC000BC085EA8093BC0007C0809179
:1007D000B9008093060284E08093BC00FF91EF9102
:1007E000BF91AF919F918F913F912F910F900BBE31
:1007F0000F900FBE0F901F901895E0ECF0E08081F5
:100800008823ECF78091C6000895E0ECF0E0908139
:1008100095FFFDCF8093C600089587E68093C400BE
:100820001092C50088E18093C10086E08093C200E9
:100830006DEF73E085E094E02EC0089597FB072EDE
:1008400016F4009406D077FD08D011D007FC05D02F
:100850003EF4909581959F4F0895709561957F4FD7
:100860000895EE0FFF1F0590F491E02D1994AA1B37
:10087000BB1B51E107C0AA1FBB1FA617B70710F08B
:10088000A61BB70B881F991F5A95A9F780959095BD
:10089000BC01CD0108950F931F93CF93DF93EC011B
:1008A0008B01009731F46115710519F480E090E037
:1008B00037C06EE070E081E090E036D2FC01009736
:1008C000A9F380E883830115110571F0138702876E
:1008D00081E883838091350290913602892B21F43F
:1008E000F0933602E09335022097C9F0D187C08794
:1008F0008381826083838091370290913802892BB3
:1009000071F4F0933802E0933702809139029091AC
:100910003A02892B21F4F0933A02E0933902CF0195
:10092000DF91CF911F910F910895CF93DF93CDB7B2
:10093000DEB7FE01369661917191AF018091370269
:100940009091380203D0DF91CF9108952F923F927A
:100950004F925F926F927F928F929F92AF92BF92CF
:10096000CF92DF92EF92FF920F931F93CF93DF937B
:10097000CDB7DEB72C970FB6F894DEBF0FBECDBF54
:100980007C016B018A01FC0117821682838181FF41
:10099000B0C1CE0101964C01F7019381F60193FDA0
:1009A000859193FF81916F01882309F49EC185325F
:1009B00039F493FD859193FF81916F01853221F484
:1009C000B70190E00FD3E8CF512C312C20E020323A
:1009D000A0F48B3269F030F4803259F0833269F43C
:1009E00020612CC08D3239F0803339F4216026C06B
:1009F0002260246023C0286021C027FD27C030ED7D
:100A0000380F3A3078F426FF06C0FAE05F9E300DCA
:100A10001124532E13C08AE0389E300D1124332E3A
:100A200020620CC08E3221F426FD5FC1206406C016
:100A30008C3611F4206802C0883641F4F60193FD2B
:100A4000859193FF81916F018111C1CF982F9F7D77
:100A50009554933028F40C5F1F4FFFE3F9830DC0CA
:100A6000833631F0833771F0833509F057C021C0E8
:100A7000F801808189830E5F1F4F44244394512CD9
:100A8000540114C03801F2E06F0E711CF801A0800F
:100A9000B18026FF03C0652D70E002C06FEF7FEFCD
:100AA000C5012C8794D22C0183012C852F77222E0F
:100AB00016C03801F2E06F0E711CF801A080B18001
:100AC00026FF03C0652D70E002C06FEF7FEFC50108
:100AD0002C876BD22C012C852068222E830123FCCD
:100AE00019C0832D90E048165906A0F4B70180E2A2
:100AF00090E078D23A94F5CFF50127FC859127FE56
:100B000081915F01B70190E06DD231103A94F1E02C
:100B10004F1A51084114510479F7DEC0843611F0A0
:100B2000893631F5F80127FF07C060817181828124
:100B300093810C5F1F4F08C060817181882777FD0A
:100B40008095982F0E5F1F4F2F76B22E97FF09C00A
:100B500090958095709561957F4F8F4F9F4F20683E
:100B6000B22E2AE030E0A4016FD2A82EA81843C00C
:100B7000853729F42F7EB22E2AE030E025C0F22FEF
:100B8000F97FBF2E8F36C1F018F4883579F0ADC0EB
:100B9000803719F0883721F0A8C02F2F2061B22E9E
:100BA000B4FE0DC08B2D8460B82E09C024FF0AC08E
:100BB0009F2F9660B92E06C028E030E005C020E1E6
:100BC00030E002C020E132E0F801B7FE07C06081EA
:100BD0007181828193810C5F1F4F06C0608171819A
:100BE00080E090E00E5F1F4FA4012ED2A82EA8181F
:100BF000FB2DFF77BF2EB6FE0BC02B2D2E7FA5142D
:100C000050F4B4FE0AC0B2FC08C02B2D2E7E05C0E5
:100C10007A2C2B2D03C07A2C01C0752C24FF0DC01B
:100C2000FE01EA0DF11D8081803311F4297E09C097
:100C300022FF06C07394739404C0822F867809F053
:100C4000739423FD12C020FF06C05A2C731418F4AD
:100C5000530C5718732C731460F4B70180E290E0C2
:100C60002C87C0D173942C85F6CF731410F43718E9
:100C700001C0312C24FF11C0B70180E390E02C8724
:100C8000B1D12C8522FF16C021FF03C088E590E07A
:100C900002C088E790E0B7010CC0822F867851F03F
:100CA00021FD02C080E201C08BE227FD8DE2B70189
:100CB00090E098D1A51430F4B70180E390E092D190
:100CC0005A94F8CFAA94F401EA0DF11D8081B7017E
:100CD00090E088D1A110F6CF332009F45DCEB701A2
:100CE00080E290E07FD13A94F7CFF7018681978137
:100CF00002C08FEF9FEF2C960FB6F894DEBF0FBEA9
:100D0000CDBFDF91CF911F910F91FF90EF90DF90BA
:100D1000CF90BF90AF909F908F907F906F905F909B
:100D20004F903F902F9008950F931F93CF93DF9391
:100D3000869F8001879F100D969F100D1124C8017A
:100D40000DD0EC01009721F0A80160E070E038D1EF
:100D5000CE01DF91CF911F910F910895CF93DF9333
:100D60008230910510F482E090E0E0913D02F09134
:100D70003E0220E030E0A0E0B0E0309739F1408161
:100D8000518148175907B8F04817590771F4828103
:100D90009381109729F013969C938E9312972CC0F1
:100DA00090933E0280933D0227C02115310531F01A
:100DB0004217530718F0A901DB0101C0EF019A01A6
:100DC000BD01DF010280F381E02DD7CF2115310570
:100DD000F9F0281B390B2430310580F48A819B817E
:100DE0006115710521F0FB019383828304C0909308
:100DF0003E0280933D02FE01329644C0FE01E20FA6
:100E0000F31F8193919322503109398328833AC08B
:100E100020913B0230913C02232B41F420910202AD
:100E20003091030230933C0220933B022091000258
:100E3000309101022115310541F42DB73EB74091A3
:100E4000040250910502241B350BE0913B02F09106
:100E50003C02E217F307A0F42E1B3F0B28173907BB
:100E600078F0AC014E5F5F4F2417350748F04E0F06
:100E70005F1F50933C0240933B028193919302C0C9
:100E8000E0E0F0E0CF01DF91CF910895CF93DF93C1
:100E9000009709F487C0FC01329713821282C09137
:100EA0003D02D0913E02209781F420813181280FAC
:100EB000391F80913B0290913C028217930779F58C
:100EC000F0933C02E0933B026DC0DE0120E030E095
:100ED000AE17BF0750F412964D915C9113979D0188
:100EE0004115510509F1DA01F3CFB383A2834081A3
:100EF0005181840F951F8A179B0771F48D919C91E6
:100F00001197840F951F02969183808312968D917D
:100F10009C911397938382832115310529F4F093D3
:100F20003E02E0933D023EC0D9011396FC93EE933E
:100F300012974D915D91A40FB51FEA17FB0779F445
:100F400080819181840F951F0296D90111969C93FF
:100F50008E938281938113969C938E931297E0E0F7
:100F6000F0E08A819B81009719F0FE01EC01F9CF36
:100F7000CE01029628813981820F931F20913B0276
:100F800030913C022817390769F4309729F4109200
:100F90003E0210923D0202C013821282D0933C02A4
:100FA000C0933B02DF91CF910895FC010590615001
:100FB00070400110D8F7809590958E0F9F1F08956F
:100FC000DC0101C06D9341505040E0F70895FC01F1
:100FD0006150704001900110D8F7809590958E0F68
:100FE0009F1F08950F931F93CF93DF93182F092FFF
:100FF000EB018B8181FD03C08FEF9FEF20C082FF4B
:1010000010C04E815F812C813D81421753077CF4D3
:10101000E881F9819F012F5F3F4F39832883108337
:1010200006C0E885F985812F1995892B29F72E812E
:101030003F812F5F3F4F3F832E83812F902FDF9182
:10104000CF911F910F910895FA01AA27283051F1ED
:10105000203181F1E8946F936E7F6E5F7F4F8F4FE9
:101060009F4FAF4FB1E03ED0B4E03CD0670F781F48
:10107000891F9A1FA11D680F791F8A1F911DA11D2D
:101080006A0F711D811D911DA11D20D009F4689466
:101090003F912AE0269F11243019305D3193DEF60E
:1010A000CF010895462F4770405D4193B3E00FD0C4
:1010B000C9F7F6CF462F4F70405D4A3318F0495DAF
:1010C00031FD4052419302D0A9F7EACFB4E0A69592
:1010D0009795879577956795BA95C9F700976105B4
:1010E000710508959B01AC010A2E0694579547950A
:1010F00037952795BA95C9F7620F731F841F951FFF
:08110000A01D0895F894FFCF33
:1011080000003F022000F8494420696E76616C694E
:10111800640066696E616C2073636F72653A20259E
:0411280064200A0035
:00000001FF
