S00E00004E6F64655F322E73726563FF
S1130000C2C00000E0C00000DEC00000DCC0000090
S1130010DAC00000D8C00000D6C00000D4C0000080
S1130020D2C00000D0C00000CEC00000CCC0000090
S1130030CAC00000C8C00000C6C00000C4C00000A0
S1130040C2C00000C0C00000BEC00000BCC00000B0
S1130050BAC00000B8C00000B6C00000B4C00000C0
S1130060B2C00000B0C00000AEC00000ACC00000D0
S1130070AAC00000D0C00000A6C00000A4C00000B8
S113008004C40000A0C000009EC000009CC000008A
S11300909AC0000098C0000096C000008EC4000002
S11300A092C0000090C0000027C400008CC0000073
S11300B08AC0000088C0000086C0000035C400006B
S11300C082C0000080C000007EC000007CC0000030
S11300D07AC0000078C0000076C0000074C0000040
S11300E072C00000F8044A054A054A054A054A0553
S11300F04A054A05F8044A054A054A054A054A05D7
S11301004A054A05FA044A054A054A054A054A05C4
S11301104A054A054A054A054A054A054A054A0563
S11301204A054A05FA044A054A054A054A054A05A4
S11301304A054A054A054A054A054A054A054A0543
S11301404A054A0546054A054A054A054A054A0537
S11301504A054A0523054A054A054A054A054A054A
S11301604A054A054A054A054A054A054A054A0513
S11301704A054A0517054A054A054A054A054A0536
S11301804A054A05350511241FBECFEFD1E2DEBF73
S1130190CDBF00E00CBF12E0A0E0B2E0ECEDF6E170
S11301A000E00BBF02C007900D92A231B107D9F74E
S11301B022E0A2E1B2E001C01D92AF32B207E1F742
S11301C062D20C946C0B1CCF909313028093120296
S11301D08FEE80937A0080E680937C000895FC0182
S11301E020E030E040E050E08191480F511D2F5F46
S11301F03F4F24303105C1F781E0403951400CF0C4
S113020080E00895FC01909179008081818382834C
S11302108383908308951F920F920FB60F92112437
S11302200BB60F928F93EF93FF93E0911202F0912C
S11302301302309711F081E08083EAE7F0E08081D7
S11302408F7E8083FF91EF918F910F900BBE0F9063
S11302500FBE0F901F9018950DD240E060EE8FE016
S1130260E3C108958CE2CDD1837021F48CE2C9D12D
S11302708370E1F30895FF920F931F93CF93DF935D
S11302801F92CDB7DEB78C01EDDF8CE2BAD1898342
S113029081E6B7D190E0F8019183808385E6B1D1FE
S11302A0F8018283882369F0F12C86E68F0DA9D1A9
S11302B0F801EF0DF11D8383F394F8018281F816A0
S11302C0A0F340E061E08CE2AFD10F90DF91CF91D9
S11302D01F910F91FF900895FA0111821082938368
S11302E08283758364830895CF92DF92EF92FF92A5
S11302F00F931F93CF93DF938B01EA01BC018827EF
S113030077FD8095982F95D46B017C01B8018827DF
S113031077FD8095982F8DD42AE037ED43E25CE396
S113032014D59B01AC01C701B601EBD34FD44A816C
S11303305B81469F9001479F300D569F300D1124DD
S113034008811981060F171F19830883B9018827AB
S113035077FD8095982F6DD46B017C018C819D81F4
S1130360089FB001099F700D189F700D11248827F4
S113037077FD8095982F5DD42AE037ED43E25CE366
S1130380E4D49B01AC01C701B601BCD3DF91CF918A
S11303901F910F91FF90EF90DF90CF900895E1D2DD
S11303A0509A519A0895E2E0F1E080818F7B808336
S11303B08AE68A95F1F700C080818064808308957D
S11303C0EEDFE1E0F1E080818260808380818064FF
S11303D08083808180628083808188608083E2E082
S11303E0F1E080818061808310920801DCCF089560
S11303F0CF93DF93E2E0F1E080818F7D8083808181
S1130400877F80838AE68A95F1F700C0C091060150
S1130410D0E0DC2FCC278081886080838AE68A95AF
S1130420F1F700C080910601C82BBDDFE2E0F1E0E6
S1130430808180628083CE01DF91CF910895CF9235
S1130440DF92EF92FF920F931F93CF93DF93CDB779
S1130450DEB72E970FB6F894DEBF0FBECDBFCD82A8
S1130460DE82EF82F88609871A872B873C874D87BF
S11304705E8770D08B011616170634F4E2E0F1E0C3
S113048080818260808305C0E2E0F1E080818D7F1D
S1130490808380E589831A82ABDFBC01C80199237C
S11304A024F488279927801B910BAE014B5F5F4F83
S11304B01BDF91D36B8363E070E0CE0101965BD2C6
S11304C02E960FB6F894DEBF0FBECDBFDF91CF914D
S11304D01F910F91FF90EF90DF90CF900895819A34
S11304E00895899A2FE785EB91E021508040904050
S11304F0E1F700C0000089988FE19EE40197F1F7CD
S113050000C000000895FC0124813381632F70E052
S1130510822F90E00895EF92FF920F931F93CF9351
S1130520DF93CDB7DEB72B970FB6F894DEBF0FBEBF
S1130530CDBF622F70E0832F90E02B960FB6F89416
S1130540DEBF0FBECDBFDF91CF911F910F91FF9002
S1130550EF900895FF920F931F93CF93DF938B0136
S11305609C01E0912102F09122026091230270919A
S11305702402A901461B570B0F2EF4E6FF2EF02D83
S1130580F49EC001F59E900D112442D4EB010E1B84
S11305901F0BF09EC001F19E900D1124BF0138D4B1
S11305A09B01B901CE01DF91CF911F910F91FF9073
S11305B00895EF92FF920F931F93CF93DF93CDB7DC
S11305C0DEB72B970FB6F894DEBF0FBECDBF50E059
S11305D0CA01880F991F880F991F880F991F840FCC
S11305E0951F885F984F12D12B960FB6F894DEBFF3
S11305F00FBECDBFDF91CF911F910F91FF90EF9070
S11306000895CF93C82F80E090E020D183E090E05C
S113061008D18C2F90E005D109D1C82F81E090E05A
S113062015D18C2FCF9108951F93CF93DF93182F5B
S1130630D62FC42F80E090E009D185E090E0F1D07E
S1130640812F90E0EED08D2F90E0EBD08C2F90E0B6
S1130650E8D081E090E0FAD0DF91CF911F91089526
S113066080E090E0F3D080EC90E0DBD081E090E09B
S1130670EDC00895E1D0F4DF87EA91E60197F1F740
S113068000C000000895CF93DF93CDB7DEB76F9716
S11306900FB6F894DEBF0FBECDBF19821A821B823B
S11306A018861ED2D9DDCE0102968EDD88D0CE0109
S11306B00196D2D007D11BD112DF82DEAE01475F93
S11306C05F4F60E070E081E090E006DE78941F8E7A
S11306D01E8E912C882483940F2EF7E0AF2EF2E027
S11306E0BF2EF02D5B988981882309F450C0CE0178
S11306F04396C1DD8B899C89009719F0019799F184
S11307003EC0EB88FC880D891E892F89388D498D60
S11307105A8D6B8D7C8D8D8D4CDFEB88FC880D891B
S11307201E892F89388D498D5A8D6B8D7C8D8D8DC9
S1130730F2DEC984DA84EB84FC840D851E852F8562
S1130740388949895A897BDE8B8D813029F491104F
S113075003C0C7DE982C1AC08B8D811117C081E0AD
S1130760981214C012C0CE014396CDDE60932102CC
S113077070932202809323029093240207C0BF92B5
S1130780AF92BDD30F900F9001C0912C198230DE2F
S11307909F8F8E8F8FE39CE90197F1F700C00000D3
S11307A08A81882309F49ECFCE0104962BDDCE01E5
S11307B0049615DD882309F495CF99D093CF259A13
S11307C0A1E8B0E08C9180618C938C9188608C93CB
S11307D0E0E8F0E080818260808380818E7F808386
S11307E080818F7B80838081806880838C9182600C
S11307F08C9380E49CE9909387008093860088EB37
S11308009BE0909389008093880008959C0129506F
S113081037402F35394020F4909389008093880025
S113082008958EBD0DB407FEFDCF08951EBC0DB412
S113083007FEFDCF8EB50895229A219A279A2B9A06
S11308402398209A8CB580658CBD0895811102C0CF
S11308502F9808952F9A0895E1E9F0E02081286007
S113086020832081226020832FE33CE93093990088
S1130870209398009093190280931802E1E7F0E026
S1130880808182608083789408951F920F920FB6BE
S11308900F9211240BB60F928F93EF93FF93E09175
S11308A01802F0911902309711F081E08083C19809
S11308B0FF91EF918F910F900BBE0F900FBE0F9091
S11308C01F901895E1EAF0E0808188608083808140
S11308D0826080838FE39DE09093A9008093A800B9
S11308E0E2E7F0E08081826080837894089510923A
S11308F015021092140208951F920F920FB60F92D0
S113090011248F939F938091140290911502019664
S11309109093150280931402C9989F918F910F9020
S11309200FBE0F901F9018951F920F920FB60F9243
S113093011240BB60F928F93EF93FF93E09116025D
S1130940F0911702309711F081E08083D198FF91E4
S1130950EF918F910F900BBE0F900FBE0F901F90D1
S113096018958CE08093B8008FEF8093BB0084E0EF
S11309708093BC000895ECEBF0E0208120FDFDCFD6
S113098060931C02FC01208120931D0220FD0CC0F9
S1130990623050F0DC011196EEE1F2E081E09D91CD
S11309A091938F5F8613FBCF10921B0288EF809385
S11309B0060285EA8093BC0008951F920F920FB639
S11309C00F9211240BB60F922F933F938F939F9303
S11309D0AF93BF93EF93FF938091B90090E0FC0134
S11309E03897E135F10508F055C0EE58FF4F23C2A2
S11309F010921A02E0911A0280911C02E81770F416
S1130A0081E08E0F80931A02F0E0E35EFD4F808157
S1130A108093BB0085E88093BC0043C080911B0297
S1130A20816080931B0284E98093BC003AC0E0910A
S1130A301A0281E08E0F80931A028091BB00F0E0CD
S1130A40E35EFD4F808320911A0230E080911C0206
S1130A5090E001972817390724F485EC8093BC00B3
S1130A6020C085E88093BC001CC08091BB00E0914D
S1130A701A02F0E0E35EFD4F808380911B028160E7
S1130A8080931B0284E98093BC000BC085EA8093A9
S1130A90BC0007C08091B9008093060284E0809373
S1130AA0BC00FF91EF91BF91AF919F918F913F91C6
S1130AB02F910F900BBE0F900FBE0F901F901895A3
S1130AC0E0ECF0E080818823ECF78091C600089583
S1130AD0E0ECF0E0908195FFFDCF8093C60008958F
S1130AE087E68093C4001092C50088E18093C1001A
S1130AF086E08093C20060E675E088E695E0B5C1C3
S1130B0008955058BB27AA270ED0E5C0D6D030F0A0
S1130B10DBD020F031F49F3F11F41EF4CBC00EF46F
S1130B20E095E7FBC1C0E92FE7D080F3BA1762076D
S1130B3073078407950718F071F49EF5FFC00EF44F
S1130B40E0950B2EBA2FA02D0B01B90190010C01D9
S1130B50CA01A0011124FF27591B99F0593F50F4F1
S1130B60503E68F11A16F040A22F232F342F442749
S1130B70585FF3CF469537952795A795F040539541
S1130B80C9F77EF41F16BA0B620B730B840BBAF011
S1130B909150A1F0FF0FBB1F661F771F881FC2F77C
S1130BA00EC0BA0F621F731F841F48F48795779590
S1130BB06795B795F7959E3F08F0B3CF9395880F47
S1130BC008F09927EE0F97958795089504D06894B7
S1130BD0B111B5C0089598D088F09F5790F0B92FFF
S1130BE09927B751A0F0D1F0660F771F881F991F7E
S1130BF01AF0BA95C9F712C0B13081F09FD0B1E0B4
S1130C0008959CC0672F782F8827B85F39F0B93FC3
S1130C10CCF3869577956795B395D9F73EF490957F
S1130C208095709561957F4F8F4F9F4F0895E894FD
S1130C3009C097FB3EF490958095709561957F4F20
S1130C408F4F9F4F9923A9F0F92F96E9BB279395CE
S1130C50F695879577956795B795F111F8CFFAF4DE
S1130C60BB0F11F460FF1BC06F5F7F4F8F4F9F4F0F
S1130C7016C0882311F096E911C0772321F09EE86D
S1130C80872F762F05C0662371F096E8862F70E0D3
S1130C9060E02AF09A95660F771F881FDAF7880FAD
S1130CA09695879597F9089597F99F6780E870E07E
S1130CB060E008959FEF80EC089500240A941616CE
S1130CC0170618060906089500240A941216130636
S1130CD0140605060895092E0394000C11F48823C4
S1130CE052F0BB0F40F4BF2B11F460FF04C06F5FE0
S1130CF07F4F8F4F9F4F089557FD9058440F551FB6
S1130D0059F05F3F71F04795880F97FB991F61F089
S1130D109F3F79F087950895121613061406551F00
S1130D20F2CF4695F1DF08C0161617061806991F6C
S1130D30F1CF86957105610508940895E894BB2761
S1130D4066277727CB0197F908950BD0C4CFB5DF79
S1130D5028F0BADF18F0952309F0A6CFABCF112401
S1130D60EECFCADFA0F3959FD1F3950F50E0551F46
S1130D70629FF001729FBB27F00DB11D639FAA27EC
S1130D80F00DB11DAA1F649F6627B00DA11D661F3B
S1130D90829F2227B00DA11D621F739FB00DA11D5C
S1130DA0621F839FA00D611D221F749F3327A00D16
S1130DB0611D231F849F600D211D822F762F6A2FB2
S1130DC011249F5750408AF0E1F088234AF0EE0F37
S1130DD0FF1FBB1F661F771F881F91505040A9F744
S1130DE09E3F510570F060CFAACF5F3FECF3983E71
S1130DF0DCF3869577956795B795F795E7959F5FAB
S1130E00C1F7FE2B880F911D9695879597F9089544
S1130E1097FB072E16F4009406D077FD08D011D066
S1130E2007FC05D03EF4909581959F4F08957095E9
S1130E3061957F4F0895EE0FFF1F0590F491E02D0B
S1130E401994AA1BBB1B51E107C0AA1FBB1FA617FD
S1130E50B70710F0A61BB70B881F991F5A95A9F75F
S1130E6080959095BC01CD0108950F931F93CF9366
S1130E70DF93EC018B01009731F46115710519F4CE
S1130E8080E090E037C06EE070E081E090E036D220
S1130E90FC010097A9F380E883830115110571F023
S1130EA01387028781E8838380912502909126022B
S1130EB0892B21F4F0932602E09325022097C9F0B0
S1130EC0D187C08783818260838380912702909138
S1130ED02802892B71F4F0932802E0932702809171
S1130EE0290290912A02892B21F4F0932A02E0939B
S1130EF02902CF01DF91CF911F910F910895CF93D4
S1130F00DF93CDB7DEB7FE01369661917191AF01E3
S1130F10809127029091280203D0DF91CF91089508
S1130F202F923F924F925F926F927F928F929F92F5
S1130F30AF92BF92CF92DF92EF92FF920F931F93E3
S1130F40CF93DF93CDB7DEB72C970FB6F894DEBFFF
S1130F500FBECDBF7C016B018A01FC011782168292
S1130F60838181FFB0C1CE0101964C01F7019381C9
S1130F70F60193FD859193FF81916F01882309F414
S1130F809EC1853239F493FD859193FF81916F0160
S1130F90853221F4B70190E00FD3E8CF512C312CE6
S1130FA020E02032A0F48B3269F030F4803259F022
S1130FB0833269F420612CC08D3239F0803339F4E6
S1130FC0216026C02260246023C0286021C027FD40
S1130FD027C030ED380F3A3078F426FF06C0FAE027
S1130FE05F9E300D1124532E13C08AE0389E300DBD
S1130FF01124332E20620CC08E3221F426FD5FC1F1
S1131000206406C08C3611F4206802C0883641F48E
S1131010F60193FD859193FF81916F018111C1CFF9
S1131020982F9F7D9554933028F40C5F1F4FFFE356
S1131030F9830DC0833631F0833771F0833509F0BD
S113104057C021C0F801808189830E5F1F4F44245B
S11310504394512C540114C03801F2E06F0E711CFA
S1131060F801A080B18026FF03C0652D70E002C0A6
S11310706FEF7FEFC5012C8794D22C0183012C855F
S11310802F77222E16C03801F2E06F0E711CF80182
S1131090A080B18026FF03C0652D70E002C06FEF11
S11310A07FEFC5012C876BD22C012C852068222E62
S11310B0830123FC19C0832D90E048165906A0F43F
S11310C0B70180E290E078D23A94F5CFF50127FC9D
S11310D0859127FE81915F01B70190E06DD23110B7
S11310E03A94F1E04F1A51084114510479F7DEC0E3
S11310F0843611F0893631F5F80127FF07C0608185
S11311007181828193810C5F1F4F08C0608171815E
S1131110882777FD8095982F0E5F1F4F2F76B22E6C
S113112097FF09C090958095709561957F4F8F4F7B
S11311309F4F2068B22E2AE030E0A4016FD2A82E7F
S1131140A81843C0853729F42F7EB22E2AE030E058
S113115025C0F22FF97FBF2E8F36C1F018F48835E1
S113116079F0ADC0803719F0883721F0A8C02F2F4F
S11311702061B22EB4FE0DC08B2D8460B82E09C040
S113118024FF0AC09F2F9660B92E06C028E030E0E5
S113119005C020E130E002C020E132E0F801B7FEF2
S11311A007C060817181828193810C5F1F4F06C0EB
S11311B06081718180E090E00E5F1F4FA4012ED208
S11311C0A82EA818FB2DFF77BF2EB6FE0BC02B2D23
S11311D02E7FA51450F4B4FE0AC0B2FC08C02B2D17
S11311E02E7E05C07A2C2B2D03C07A2C01C0752CC1
S11311F024FF0DC0FE01EA0DF11D8081803311F43E
S1131200297E09C022FF06C07394739404C0822F00
S1131210867809F0739423FD12C020FF06C05A2C6F
S1131220731418F4530C5718732C731460F4B70127
S113123080E290E02C87C0D173942C85F6CF731490
S113124010F4371801C0312C24FF11C0B70180E31A
S113125090E02C87B1D12C8522FF16C021FF03C05A
S113126088E590E002C088E790E0B7010CC0822FC7
S1131270867851F021FD02C080E201C08BE227FD97
S11312808DE2B70190E098D1A51430F4B70180E362
S113129090E092D15A94F8CFAA94F401EA0DF11D8A
S11312A08081B70190E088D1A110F6CF332009F4F2
S11312B05DCEB70180E290E07FD13A94F7CFF70199
S11312C08681978102C08FEF9FEF2C960FB6F8941A
S11312D0DEBF0FBECDBFDF91CF911F910F91FF9065
S11312E0EF90DF90CF90BF90AF909F908F907F90C2
S11312F06F905F904F903F902F9008950F931F939E
S1131300CF93DF93869F8001879F100D969F100DCA
S11313101124C8010DD0EC01009721F0A80160E070
S113132070E038D1CE01DF91CF911F910F910895D4
S1131330CF93DF938230910510F482E090E0E09146
S11313402D02F0912E0220E030E0A0E0B0E03097D2
S113135039F14081518148175907B8F048175907A6
S113136071F482819381109729F013969C938E9344
S113137012972CC090932E0280932D0227C0211522
S1131380310531F04217530718F0A901DB0101C000
S1131390EF019A01BD01DF010280F381E02DD7CF77
S11313A021153105F9F0281B390B2430310580F45F
S11313B08A819B816115710521F0FB0193838283EE
S11313C004C090932E0280932D02FE01329644C0F5
S11313D0FE01E20FF31F8193919322503109398367
S11313E028833AC020912B0230912C02232B41F404
S11313F0209102023091030230932C0220932B029D
S113140020910002309101022115310541F42DB7DC
S11314103EB74091040250910502241B350BE09124
S11314202B02F0912C02E217F307A0F42E1B3F0BC2
S11314302817390778F0AC014E5F5F4F2417350742
S113144048F04E0F5F1F50932C0240932B02819360
S1131450919302C0E0E0F0E0CF01DF91CF910895D5
S1131460CF93DF93009709F487C0FC01329713826E
S11314701282C0912D02D0912E02209781F42081F6
S11314803181280F391F80912B0290912C028217F1
S1131490930779F5F0932C02E0932B026DC0DE01E3
S11314A020E030E0AE17BF0750F412964D915C91E6
S11314B013979D014115510509F1DA01F3CFB38367
S11314C0A28340815181840F951F8A179B0771F471
S11314D08D919C911197840F951F0296918380831F
S11314E012968D919C9113979383828321153105D4
S11314F029F4F0932E02E0932D023EC0D9011396F5
S1131500FC93EE9312974D915D91A40FB51FEA17CA
S1131510FB0779F480819181840F951F0296D9018C
S113152011969C938E938281938113969C938E93B0
S11315301297E0E0F0E08A819B81009719F0FE01A8
S1131540EC01F9CFCE01029628813981820F931FD5
S113155020912B0230912C022817390769F4309717
S113156029F410922E0210922D0202C013821282CC
S1131570D0932C02C0932B02DF91CF910895FC01EC
S11315800590615070400110D8F7809590958E0FAA
S11315909F1F0895DC0101C06D9341505040E0F756
S11315A00895FC016150704001900110D8F78095B6
S11315B090958E0F9F1F08950F931F93CF93DF93E2
S11315C0182F092FEB018B8181FD03C08FEF9FEF53
S11315D020C082FF10C04E815F812C813D81421763
S11315E053077CF4E881F9819F012F5F3F4F3983D2
S11315F02883108306C0E885F985812F1995892BE6
S113160029F72E813F812F5F3F4F3F832E83812F08
S1131610902FDF91CF911F910F910895FA01AA277E
S1131620283051F1203181F1E8946F936E7F6E5F21
S11316307F4F8F4F9F4FAF4FB1E03ED0B4E03CD0CF
S1131640670F781F891F9A1FA11D680F791F8A1FB2
S1131650911DA11D6A0F711D811D911DA11D20D019
S113166009F468943F912AE0269F11243019305DD3
S11316703193DEF6CF010895462F4770405D4193C4
S1131680B3E00FD0C9F7F6CF462F4F70405D4A3311
S113169018F0495D31FD4052419302D0A9F7EACFD9
S11316A0B4E0A6959795879577956795BA95C9F708
S11316B000976105710508959B01AC010A2E0694FB
S11316C05795479537952795BA95C9F7620F731FB4
S10F16D0841F951FA01D0895F894FFCFFF
S11316DC00002F022000F8494420696E76616C6981
S10516EC640094
S9030000FC
